:020000040800F2
:10000000C8070020D13B0008F13B0008F33B000883
:1000100000000000000000000000000000000000E0
:10002000000000000000000000000000F53B000898
:100030000000000000000000F73B0008F93B00084A
:100040000F11000827110008C7120008CB1700087D
:10005000CF170008B7240008DF350008673B000809
:10006000773B0008AB3B0008093C00080B3C00084C
:100070000D3C00080F3C0008113C0008133C000830
:10008000153C0008173C0008193C00081B3C000800
:100090001D3C00081F3C0008213C0008233C0008D0
:1000A000253C0008273C0008293C00082B3C0008A0
:1000B0002D3C00082F3C0008313C0008333C000870
:1000C000FDB5B2B03A98049102A93B2288540020B1
:1000D0000D9022A8401C2F900DE00498329A904772
:1000E0000490002801D100F0F5FE0D98401C0D9001
:1000F0003398401C33903398017800290BD0252980
:10010000EBD100200790089009900A900B900C907A
:100110000021339805E00D9800F0DEFE0A00012171
:100120001143401C0278202AF8D0232A0CD02B2A15
:1001300004D02D2A05D0302A09D00BE00A00022174
:10014000EEE70A000421EBE70A000821E8E70A00CD
:100150001021E5E72A2A0FD1349A13681A681B1D6B
:10016000349C23600F92002A04D553420F930A0057
:1001700004211143441C13E000220F92654A09E058
:100180000F9B934205DA9D00EB185B001B19303B77
:100190000F93401C04782300303B0A2BF0D304005B
:1001A00020782E2803D00020C0430E9027E0641C46
:1001B00020782A2808D1349800680268001D349BF2
:1001C00018600E92641C1AE02D2802D12D22641CA6
:1001D00000E0002200200E900CE0130009D10E9BDD
:1001E0004C4DAB4205DA9D00EB185B001818303817
:1001F0000E90641C20780300303B0A2BEDD302A83C
:1002000001872578290041487844FF30401C00F0E0
:1002100049FF002801D0641C00E0002502A83A2113
:100220004554405C682804D1207868280BD16220AE
:1002300005E06C2807D120786C2804D1712002A930
:100240003A228854641C13A80690207869460870E6
:10025000601C3390684602781000253833D01C3873
:1002600000D115E2001F022800D811E2133801D195
:1002700000F05CFD093800D10AE2801E01D100F0D7
:10028000F1FD401E01D100F09EFD401E022800D865
:10029000FEE1001F01D100F096FD401F00D151E1A9
:1002A000401E01D100F042FD401E00D1F2E0C01E10
:1002B0000FD0801E01D100F039FDC01E01D100F029
:1002C00035FD00F0DAFD252013A90870012000F0AB
:1002D000DFFD349800680468001D349908600594B7
:1002E000002C00D0C2E002A83B21405C002800D1D5
:1002F000B5E00024E44306487844143000F0DCFE06
:10030000201A01D000F0E6FD00F0C3FDB036000079
:10031000E4360000CBCCCC0C01236A4602A92800AD
:1003200000F0A5FE002801D000F0D4FD641EF3D13A
:100330003295079D13AC002D0FD0329E227802A972
:10034000300000F083FE002802D4641C6D1EF5D13D
:100350003296002801D000F0BDFD302069460870BB
:100360000A9C002C0DDD329D01236A4602A928005B
:1003700000F07DFE002801D000F0ACFD641EF3D13A
:100380003295059C089D002D0FD0329E227802A93F
:10039000300000F05BFE002802D4641C6D1EF5D115
:1003A0003296002801D000F095FD302769460F7085
:1003B0000B9C002C0DDD329D01236A4602A928000A
:1003C00000F055FE002801D000F084FD641EF3D13A
:1003D0003295059808994418099D002D0FD0329E3A
:1003E000227802A9300000F031FE002802D4641CFB
:1003F0006D1EF5D13296002801D000F06BFD6846E5
:1004000007700C9C002C0DDD329D01236A4602A969
:10041000280000F02CFE002801D000F05BFD641ED7
:10042000F3D1329502A83821405C400700D462E63F
:100430002020694608700198002800DC5BE6019CDA
:10044000329D01236A4602A9280000F010FE002810
:1004500001D000F03FFD641EF3D132954BE63F48DA
:100460007844FF30C01F059000F013FD0E9D002D55
:1004700003D5200000F044FE09E02A0000212000FE
:1004800000F046FE002801D0001B00E02800089084
:1004900000F0FFFC349800680268001D3499086081
:1004A0000020C0430021104002AA03C213A80590F7
:1004B000069A3C2302A803C8002904D1002802D1CF
:1004C0000E9C002C15D05B1E05072D0F3035EEB2AB
:1004D0003A2E08DAD55400090C072043090904D143
:1004E000002802D105E02735F4E7059CD518AC4279
:1004F000E9D33C20C01A0890D11805910E99884282
:1005000008DA081A0A9002A8018FA94A0A4002874D
:1005100000F0BFFC002901D400F0BBFC02A9382286
:10052000895C14220A40102A01D000F0B2FC0F9915
:10053000079A891A0A9A891A081A002801DC00F019
:10054000A8FCF1E302A83B21415C002908D000246B
:10055000E4434B487844FF302930CFE6B434000000
:100560003A21405C62286AD0682819D06A2845D0B0
:100570006C2806D071284FD0742831D07A2821D029
:100580006FE0349800680168001D349A10600029FB
:100590007AD10024E4433B487844FF301738ADE675
:1005A000349800680168001D349A1060002905D154
:1005B0000024E44333487844CA309FE60D9808800D
:1005C00000F067FC349800680168001D349A1060E0
:1005D000002959D10024E4432A487844A6308DE606
:1005E000349800680168001D349A106000294BD1CE
:1005F0000024E443234878448A307FE63498006836
:100600000268001D34990860002A13D10024E443D5
:100610001C4878446E3071E6349800680268001D0A
:1006200034990860002A05D10024E4431548784431
:10063000523063E60D98C11703C200F02AFC3498CB
:1006400000680168001D349A1060002905D100245B
:10065000E4430C4878442C3050E60D98087000F0C4
:1006600018FC349800680168001D349A1060002955
:100670000AD10024E4430348784408303EE600BF32
:1006800044330000583300000D98086000F001FC6E
:1006900034980368DB1D072083433498036003CB41
:1006A000349C236002AB03C32023C80F04D00798F7
:1006B0002D2113AB19540DE002A8008F810704D53A
:1006C00007982B2113AB195404E0C00704D50798F1
:1006D00013A90B54401C079013A8079943180593BE
:1006E00022AD02A8C0C868460078202101436846B0
:1006F0008170612909D00E98002801D5062003E0F9
:1007000003D1672901D101200E9002A803C8080077
:100710004C006415641C0ED109030CD00320089012
:10072000613A1A2A03D22349794488310FE02249D9
:10073000794484310BE0002C0ED100030CD103204E
:100740000890613A1A2A1DD31C4979446E3103225C
:10075000180000F003FD9CE301AA02A803C800F002
:100760000AFD02AA03C268468078612813D1059861
:1007700030210170811C059169460978612905D1F4
:10078000782104E00E4979443631E0E75821417080
:100790000798801C079002A803C893A20CCA0240C5
:1007A0000B400FD1002A0DD10024002661E100BFCB
:1007B000EFFF000060320000603200006432000091
:1007C0005C32000068468078612800D099E00E987D
:1007D000002801D5212000E0401C12901298401CF6
:1007E0002C90300039000022002300F0D9FC02A830
:1007F00030C802D28020000645400198001F0190B9
:1008000022A90A7022A8461C2C98002832DD2C9FB1
:1008100020002900002280235B0300F0DAFC29D8A5
:100820001C2200F0EFFC04000D0000F023FD2C90D2
:10083000FF1F002F09DD00F057FD02000B00200014
:10084000290000F0B8FD04000D00F01D07212C9ACE
:10085000002A0ADD491E08D4401E13071B0F03702F
:100860001211F5E7401E00220270491EFAD5C61D7E
:10087000002FCDDC22A82F99711A22AA551C129A9A
:100880000C00914200DD1400002C33D48C4205DAB8
:10089000411C095D082901DB0F2100E00021220035
:1008A00022AB9B1801E0641E5B1E521E1E788E4216
:1008B000F9D00F2904D1411C895C491C401C81548A
:1008C000002A04D522AD641C0198001D0190611E10
:1008D00010D46A186846007813783033DEB23A2EA6
:1008E00001DBC318C6331370491E521E0029F3D50D
:1008F000694608700E98002800D4B9E0601E0E907A
:10090000B6E07F007F08019868494843684900F0D5
:10091000C9FD019007200199401A002805DD020059
:100920003000390000F06CFB0AE0424200206149CF
:1009300000F066FB02000B003000390000F0E1FD22
:100940006A469278662A02D1019A0A3200E00622AB
:100950000E9B9A18142A00DD142222AB30241C703E
:100960005C1C02E030A803C8129A002A40DD30ABBC
:1009700003C3129230A803C800F08EFC2C900646E8
:100980000834042530000A2100F0A0FD0F003000DB
:100990000A2100F09BFD06003037601E0770300012
:1009A0000A2100F093FD0F0030000A2100F08EFDB7
:1009B0000600A41E303727706D1EE3D1083412984C
:1009C000083812900028CDDD2C9800F07DFC020044
:1009D0000B0030A803C800F0EEFC0022364B00F0FC
:1009E000F1FD30AA03C2C5E7FFFFFFFFFFFFFF7F56
:1009F0002F98201A22A94D1C04E0401E0199491E7F
:100A000001916D1C29783029F7D0694689786629CB
:100A100002D10199491C06E069468978652901D10E
:100A2000012100E000210E9A5418A04200DA441E71
:100A3000002C1DD4844204DA285D342801DD3921DC
:100A400000E030212200681E831801E0641E5B1E56
:100A5000521E1E788E42F9D0392902D1A95C491C58
:100A6000A954002A04D50500641C0198401C01907B
:100A7000019E1295684600786946487000F064FE51
:100A8000406A0078694608700E9D20B2002804DC98
:100A90000124054878441030129068468078662812
:100AA0000CD1761C23E000BF7C2F0000977500005E
:100AB000A08601000000F03F84D797416846807807
:100AC000672844D130B20321C943884245DBA8429C
:100AD00043DA761C02A83821405C000703D420B218
:100AE000A84200DC050030B22D1A00D5002537B22F
:100AF000002F00DDB7E00898411C08913021059ACD
:100B00001154002D04DC02A83821405C000706D5F2
:100B10000898411C089169460978059A1154784251
:100B2000854200DA6E4236B270420B90AD1920B2A7
:100B3000854200DA2C0024B209942200129905980B
:100B4000089BC01800F00AFB281B0C90D6E06846F2
:100B50004078612817D170201AE020B2A84205DA47
:100B600002A93822895C090700D405006D1E00D552
:100B7000002568464078672802D16520694607E06D
:100B80004520694604E068464078412801D150205C
:100B900048700898411C089112990978059A1154D7
:100BA0001298411C002D04DC02A83822805C00074A
:100BB00019D50898421C08926A461278059B1A5467
:100BC000002D10DD641E20B2854200DA2C0022B216
:100BD0000598089BC01800F0C1FA24B208980019C3
:100BE0000890281B0B900598089940186946497889
:100BF000017031B2002903D42B214170871C03E01E
:100C00002D224270871C4E4200242CAD300008E09B
:100C10000A2100F047FC30AA03C229703098641CF6
:100C20006D1C00B20028F3DC012C08DC684640781B
:100C300020210143652902D1302038707F1C002C0F
:100C400009D1302038707F1C07E0641E2CA8005D9D
:100C5000303038707F1C002CF7DC0598089940185C
:100C6000381A09904AE020B231B288421CDA22B226
:100C700012990598089BC01800F070FA24B20898E1
:100C800000190890391B0B91002D04DC02A93822B1
:100C9000895C090706D569460978059A11540998AF
:100CA000401C09900C9529E032B212990598089BD6
:100CB000C01800F053FA0898C0190890A41B002D22
:100CC00004DC02A93822895C090705D5411C08917A
:100CD00069460978059A115420B2854200DA2C0041
:100CE00022B21298C1190598089BC01800F036FA74
:100CF00024B2089800190890281B0B9002A83821EC
:100D0000405C14210140102900D0C2E007980899E6
:100D100040180B994018099940180C9940180F99E0
:100D2000884200DBB5E0081A0A90B2E002AA3A2035
:100D3000105C622808D068280ED06A2814D06C286D
:100D40001DD0712810D01AE0349801680868091D78
:100D5000349B1960C0B218E0349801680868091D16
:100D6000349B196080B210E034980368DB1D0720C3
:100D700083433498036003CB349C236006E03498AB
:100D800001680868091D349B1960002102AB03C388
:100D90003820105C00075BD502A803C8002901D1E8
:100DA000002855D0684600782021014378294FD18A
:100DB000079813A930220A54401C421C07926A4625
:100DC00012780A5444E002AA3A20105C622808D043
:100DD00068280ED06A2814D06C281DD0712810D035
:100DE0001AE0349801680868091D349B196040B204
:100DF00018E0349801680868091D349B196000B236
:100E000010E034980368DB1D0720834334980360A7
:100E100003CB349C236006E0349801680868091D00
:100E2000349B1960C11702AB03C3002902DA07988B
:100E30002D2109E0108F810702D507982B2103E0AF
:100E4000C00705D50798202113AA1154401C07900C
:100E500013A80799401805906846017802A800F089
:100E60003DF816E001200790349800680168001DE5
:100E7000349A106013A801700BE0252013A90870A4
:100E80000120079068460078002802D04A700220AE
:100E900007900F980799401A0A99401A0899401A22
:100EA0000B99401A0999401A0C99401A019002A80E
:100EB0003821405C400701D5FFF73BFA2020694606
:100EC00008700198002801DCFFF733FA019C329D7D
:100ED000FFF722FA0020C04335B0F0BDF2B586B06E
:100EE000040025696F2901D1082707E00846202161
:100EF0000143782901D00A2700E010273C2603CCC3
:100F0000083C04AA03C26A46127E642A03D06A46D9
:100F1000127E692A09D1002907DA04A803C8002231
:100F20000023121A8B4104A80CC004A803C800298E
:100F30000DD100280BD1206B002808D1082F3DD1FE
:100F40003820205C000739D53B26302035E002945C
:100F5000009504A830C8761E0196200029003A00AA
:100F6000FB1700F0F7FB3032D0B23A280DDA0098C8
:100F70008255200029003A00FB1700F0EBFB04002B
:100F80000D0007D1002C05D10AE06846007E8218CA
:100F9000AF32ECE70298C068009989198842DAD329
:100FA000029C009D082F09D13820205C000705D540
:100FB000A85D302802D0761E3020A8553C20801B2A
:100FC000A061A919E160216B884206DA081A206243
:100FD000208F1C490140218710E000290ED53821BF
:100FE000615C14220A40102A08D1616B6269891A77
:100FF000226A891A081A002800DD206207B0F0BDB5
:10100000F8B50026104F04000D00009214E0C00750
:1010100007D532003B002000290000F0D3FA04007D
:101020000D000098401000903000390032003B0065
:1010300000F0C8FA06000F0000980028E7D1200051
:101040002900F4BDEFFF00000000244010B50300AC
:101050000C001100A0689847A060002804D0E06A46
:10106000401CE062002010BD0020C04310BDF8B558
:101070000024002B11D007000E0014001D00217861
:10108000B068B847B060002809D0F06A401CF06230
:101090000020641C6D1EF2D104002000F2BD00206F
:1010A000C043F9E7C9B202788A4203D0401C002A43
:1010B000F9D1002070472E0080B5002801D100BF73
:1010C00007A006490B68002B03D022220021984775
:1010D00001E000F074FB222002BD0000BC030020F0
:1010E000636F6E73747261696E742068616E646C94
:1010F00065723A20626164206D6573736167650093
:10110000431C0178401C0942FBD1C01A7047FEE71E
:10111000C9B2521E05D30378401C8B42F9D1401E40
:10112000704700207047FEE770B4103A03D378C9C7
:10113000103A78C0FBD2530701D318C918C001D5A3
:1011400008C908C0D20704D30B880380891C801CFF
:10115000002A01D50B78037070BC70478B0701D152
:101160008307E1D0124205D00B78491C0370401C64
:10117000521EF9D1704710B5144600F002F82260F3
:1011800010BD4A0053155B1C08D0520D06D0032336
:101190001B02FE3AD21A1305C91A70470022704783
:1011A00030B4012464054D00EC420BD85D00EC42E4
:1011B00008D80C001C4364000443144304D2994231
:1011C00000D1904230BC7047FCD08B42FAD18242B1
:1011D000F8E730B4012464054D00EC420BD85D0003
:1011E000EC4208D80C001C4364000443144304D2AE
:1011F0008B4200D1824230BC7047FCD09942FAD178
:101200009042F8E7124217D40023DB435B0D9C4663
:101210004B005B0D06D0634504D09B18634502D29A
:101220001205891870476246090D1143090500200F
:1012300000B500BF00BF00BD52424B005B0DF1D0B6
:101240005B1C5B05EED25B0D934102D91205891A36
:1012500070470BD10B031B13C90FC907821C002059
:1012600043411343E4D912051143E1E7C90FC9070C
:101270000020DDE7F4464A1805D200F00FF801D54A
:1012800080174008604700F009F80121C90788422B
:1012900000D90800404260474A1812D2400DC902E6
:1012A00008430121C9070843520D40210901521A80
:1012B000521C06D452421F3201D4D0407047C0178E
:1012C000704700207047FEE7010042221201D21E43
:1012D000004207D002D4521E0018FCD5C10A4005B6
:1012E00012058918704700000100EED54042F4460F
:1012F000FFF7EBFF0122D207114360478B4200D179
:10130000824205D98446100062468C461900634625
:10131000DF184C18640D7F0D3AD0661C760537D067
:10132000E61B352E34DCDB022B43DB0A0C0DC90235
:101330002943C912202E0DDB1700203E06D01F00C6
:10134000F741F3405F400026012A7741C018714100
:101350000DD217E01700F741F2405740F3415A40D1
:10136000B340F3405A400026801859410AD3A21CCA
:1013700052050FD0C207012F724117004008CB075A
:1013800018434908641C24054208AF41704161417B
:10139000F0BC7047641C21050020F9E76B4010E0A9
:1013A0006B40ABE7F742F3D1E943F1E72442EFD1D9
:1013B00000200021ECE7F0B40125ED070F005F40AD
:1013C000EED40C00871A9C4105D2C01BA141D21952
:1013D000634169406B40AE0ADF184C18F442E1D219
:1013E000640D7F0DE2D0E61B362ED1DCDB022B43F1
:1013F000DB0AA4460C0DC9022943C90A012E28DCC8
:1014000004D1D6075208DF073A435B08EF0A764259
:101410009041994114D039423BD1B61940414941DC
:10142000761C394204D1761C001849413942FAD061
:10143000B9436746B74208D9A41B24052143A7E74F
:101440000042EAD13642E8D1A2E7E40AE1070020EF
:101450009EE7202E0BDD203E1F00F340F7415F404A
:10146000012A002257417E42984191410BE017002A
:10147000F741F2405740F3415A40B340F3405A40DD
:101480007E42904199410A0303D2641EB61940413D
:1014900049410027641E24054208AE41784161415C
:1014A000F0BC7047CA0F00D0494203105A400DD01B
:1014B00004B500D3404200F009F8009AD20701D3E6
:1014C0004942124200D5404204BD0000094214D0F6
:1014D00088420FD30122030C01D10004120400231F
:1014E00000185B418B4200D35B1A5241F8D31900BC
:1014F0001000704701000020704708B500F064F943
:1015000008BDF0B40E005E400125ED072E40B44644
:10151000AE0ADF184C18F4423BD2F74241D2640DB8
:1015200043D07F0D38D0E41BC902DB0229432B4393
:10153000CF0ADB0A0600B61A9F4104D2641EB61910
:101540007F41B6185F416812800D2418001884424C
:1015500022DAE80C0021B6197F41B61A9F4102D267
:10156000B6185F413F1C40414941F4D3241C21DDA2
:101570002405B6197F41B61A9F4105D33743C607E4
:1015800037430026012F7041614166463143F0BC6C
:101590007047FCD1F74205D20020C14349054908F4
:1015A000F3E704D00020C143F1E77F0DFAD000201B
:1015B0006146ECE72442FAD1401C61410F03F6D3A7
:1015C0000020E2E7F0B50E005E400125ED072E4059
:1015D000B446AE0ADF184C18F44208D2F7420ED2D5
:1015E000640D01D07F0D12D100206146F0BD05D100
:1015F000F74201D87F0D05D10020C143F0BDFBD1DA
:10160000640DF9D00020C143490549088FE0E41971
:10161000C902DB0229432B43DB0A460DC0023143DA
:101620008E4630B487B295B27D432E0CADB2140C09
:101630007C43A419260C240425439CB27C43A419A2
:10164000190C7943270CC919A4B20F043C43090CA7
:10165000000C97B247432E0CBE193543ADB2170CA0
:101660004743360CBF19A6B2BF193E043543240CBC
:101670003E0C36199FB24743BF19BCB23E0C8919C4
:101680001F0C47437F183E043443390C704680B228
:1016900097B247432E0CBE193543ADB2170C4743E2
:1016A000360CBF19A6B2BF193E043543240C3E0CBC
:1016B00036199FB24743BF19BCB23E0C89191F0CA3
:1016C00047437F183E043443390C77463F0C90B2B1
:1016D00078432E0C80190604ADB22E43050CA0B23F
:1016E0002D18120C7A435019020C80B2240CA41845
:1016F0009AB27A43121914042043120C89181B0C55
:101700007B43C91830BCEF0A394203D1B6194041B6
:101710004941641E6F12BF0DE41B0BDBFF19BC4275
:1017200011DA240500274208AE417841614166463E
:101730003143F0BD641C05D1401C6141CF0201D38F
:101740004908F4E750E75DE70148704700000000F2
:1017500010000020124224D0994228D970B50025EB
:101760001B4202D00C00002109E000240126491888
:101770006441944200D3A41A7641F8D33100012683
:1017800001E0764109D2001864416D41A41A9D41DF
:10179000F7D2A4185D41B619F5D3300022002B0012
:1017A00070BD1B42D8D108B500F010F808BD01D1BA
:1017B0009042D3D202000B0000210020704780B578
:1017C000012000F005F801BD7047FEE77047FEE715
:1017D00080B500F007F8024A11001820ABBEFBE705
:1017E0002600020010B500F03BF8020000230024A0
:1017F000E4431068A04203D011000220ABBE136086
:101800005068A04203D0111D0220ABBE536010BD32
:10181000F0B583B0040000F023F8A10047183D683C
:101820000026F643B54216D100BF00BF3D68B54261
:101830000FD100BF09A00090002C01D1002000E0D2
:10184000042001900320029069460120ABBE0500F0
:101850003D6000BF00BF280003B0F0BD3A747400C3
:101860000048704740010020F8B5040001D1012074
:10187000F2BD82277F000025606A002804D16068DD
:10188000B84203D0E56101E025616561A5622600EB
:101890005C367078002803D13570200000F06DFCB4
:1018A0000220707020680168402291430160E36863
:1018B000E022D200F0200001934203D900218342AC
:1018C00004D104E080214901934200D0A5620122A5
:1018D00063681F40BC46A76884231B023B406746E1
:1018E0003B439C46277C02231F4063461F4363699A
:1018F00013403B439C46A76953021F4063461F4366
:10190000BC46277F38233B4067463B439C46202309
:10191000E75C80231F4063461F43BC46A36A57030E
:101920003B4067463B4327683B60A3691F0C042389
:101930001F40BC462423E35C10273B4067463B43E3
:101940009C463423E75C08231F4063461F43E3683B
:10195000184038430143206841602068C169724BD8
:101960000B40C361756072700020F2BDFCB583B09E
:1019700004000E00150000274430007E012801D12C
:101980000220CEE0012021004431087600F08EFCD8
:10199000029020004430407E012801D00227B9E0A7
:1019A000002E00D0280000D1B3E0032122004432F1
:1019B000517622004432D761A663A087E08727646E
:1019C0004422A75222004432578022004432D7607A
:1019D000220044329760A16880221202914209D10C
:1019E00021680A6840239A430A6021680A681B023A
:1019F00013430B60216840220B68134002D10B682F
:101A00001A430A6061680022D2430192120C6B46AD
:101A10001A80049DE268A54B9A4230D3002901D078
:101A200001280BD1A06B00882168C860A06B801CC6
:101A3000A063E08F694609884018E087029E0AE0AB
:101A4000A16B0988C160A06B801CA063E08F694610
:101A500009884018E087E08F002840D0206881681E
:101A60008907EDD400F022FC801BA84204D3019822
:101A70008542F0D003274DE0002DECD1FAE7002994
:101A800001D001280BD1A06B007821680873A06BEE
:101A9000401CA063E08F694609884018E087029ED9
:101AA0000AE0A16B09780173A06B401CA063E08F72
:101AB000694609884018E087E08F00280FD0206829
:101AC00081688907EDD400F0F1FB801BA84203D3A5
:101AD00001988542CED1EFE7002DEDD1CAE729006C
:101AE0003200200000F00EFB002803D0202021004F
:101AF0004431C861A068002806D100902068C16800
:101B0000009180680090009820004430C06900284F
:101B100000D00127200044300121417600210176C8
:101B2000380005B0F0BD0000FFF7FFFFFBB582B045
:101B3000050017000020694608702C004434042674
:101B400068688221490088420CD1A868002809D120
:101B50006676049800903B00039A1146280000F036
:101B6000A9F8A0E0207E012801D102209BE00120FD
:101B7000207600F09BFB617E012901D002208AE0E3
:101B80000399002901D0390001D1012083E0667654
:101B90000021E16103992964278067800021A963FE
:101BA000A987E987A160E1602A684049EB688B4218
:101BB000536802D3664E1E4001E0B6021E435660D3
:101BC000AA6880231B029A4209D12A68136840261A
:101BD000B34313602A681368354E1E4016602A68A6
:101BE000402316681E4002D1166833431360012259
:101BF0000192EA688A42049E20D2070008E0007B36
:101C0000296C0870286C401C28646088401E608025
:101C10006088002832D028688168019A0A40EED195
:101C200000F044FBC01BB04205D30020C0438642F5
:101C3000EED003202FE0002EEAD1FAE7070008E0FB
:101C4000C068296C0880286C801C28646088401E4D
:101C500060806088002811D028688168019A0A4055
:101C6000EED100F023FBC01BB04204D30020C043E0
:101C70008642DED1EDE7002EEBD1DAE72800310015
:101C80003A0000F003FA002801D02020E061E0696A
:101C9000002802D001986946087001206076002073
:101CA00020766846007805B0F0BD0000010700000E
:101CB000FFBFFFFFF3B583B0040015001F00012034
:101CC000029000206946087020004430007E012800
:101CD00001D10220FFE0260044360120307600F0DA
:101CE000E5FA0190707E01280BD0616882225200D3
:101CF000914204D1A168002901D1042801D0022019
:101D000082E00499002903D0002D01D0380001D1D0
:101D1000012079E022004432527E042A03D00522B9
:101D2000230044335A76230044330022DA612564C9
:101D300058801880A163E087A0879A60DA602268E3
:101D40006649E3688B42536804D3014D1D4004E0AB
:101D5000FFEFFFFF80256D011D4355602268402382
:101D600015681D4002D115682B43136062680A9FF5
:101D7000E3688B424BD3002A01D0012809D1A06B24
:101D800000882168C860A06B801CA063E08F401EA3
:101D9000E087029E019DE08F002804D1200044309E
:101DA000408800284AD021684D488A6892070ED59D
:101DB000E28F002A0BD0002E09D0A26B1288CA60D5
:101DC000A16B891CA163E18F0918E18700262168B6
:101DD0008A68D2070ED5220044325388002B09D0DE
:101DE000C968236C1980216C891C216451880818EA
:101DF0005080012600F05AFA401BB842CBD3002095
:101E0000C0438742C7D00320694608705BE0002AC0
:101E100001D0012809D1A06B007821680873A06B5C
:101E2000401CA063E08F401EE087029E019DE08F72
:101E3000002804D1200044304088002835D0216893
:101E400027488A6892070ED5E28F002A0BD0002E11
:101E500009D0A26B12780A73A16B491CA163E18FB0
:101E60000918E187002621688A68D20710D5220068
:101E700044325288002A0BD0097B226C1170216CED
:101E8000491C2164210044314A88101848800126E9
:101E900000F00CFA401BB84204D30020C043874234
:101EA000B1D1C4E7002FC2D1ADE739002A0020002C
:101EB00000F028F9002806D001206946087020208B
:101EC00021004431C86120004430012141760021C5
:101ED00001766846007805B0F0BD000001070000FB
:101EE000FFFF0000FEB582B006000A9C1D4600F010
:101EF000DDF9281A071900F0D9F962490968490182
:101F0000090D7943009100240125019006E0009815
:101F1000002800D100270098401E0090306880689B
:101F2000029901400298814201D1012000E0002085
:101F30006946097B884235D004980021C94388420C
:101F4000ECD000F0B3F90199401AB84201D2002F49
:101F5000DDD130684168E0229143416070688221A0
:101F6000490088420BD1B068E903884202D0490990
:101F7000884204D1306801684022914301606803BF
:101F8000B16A814208D131680A683F4B13400B6047
:101F900031680A681043086030005C304570047096
:101FA000032000E0002005B0F0BDFCB583B00500C3
:101FB0000E000A9C1F4600F079F9381A00190190AA
:101FC00000F074F901992F4A126823235A43120D25
:101FD0005143009100240296039F019E019006E068
:101FE0000098002800D100260098401E0090286824
:101FF0008168029A0A40BA4240D00299C022D200B7
:10200000914202D1002F00D1007B04980021C943E6
:102010008842ECD000F04AF90199401AB04201D24E
:10202000002EDDD128684168E02291434160686854
:102030008221490088420CD1A86880210902884287
:1020400002D04909884204D128680168402291439E
:10205000016080208001A96A814208D129680A684C
:10206000094B13400B6029680A6810430860280078
:102070005C30012141700470032000E0002005B0B5
:10208000F0BD00000C000020FFDFFFFFFEB50400E4
:1020900080273F02822676006068B0420AD1A0689D
:1020A000B84202D07B09984204D1206803684025D9
:1020B000AB43036001920291202501980090029B9E
:1020C000002280212000FFF70DFF002813D1606857
:1020D000B04215D1A068B84202D0690188420FD140
:1020E00001980090029B0022C021C9002000FFF748
:1020F0005CFF002804D0206E054325660320FEBD4A
:102100000020FEBDF8B504000F0016002025009643
:102110003B000022C0214901FFF747FF002812D1F0
:1021200000963B00002280212000FFF7DBFE002804
:1021300009D100963B000022C021C9002000FFF712
:1021400034FF002803D0206E054325660320F2BD2E
:1021500081B001204E490A6802430A600A681040B3
:1021600000900098802040054A6802434A60496810
:1021700008400090009801B0704770B586B0040028
:1021800014220021684600F097F8216803260224F3
:1021900040480025404A914219D1810C42680A43C7
:1021A00042604268114005910599210402680A4382
:1021B00002600068014005910598E02000900194BC
:1021C00002950396049569469020C0052EE0334A97
:1021D00091422DD1110C82680A43826082681140BD
:1021E00005910599A10402680A4302600268114042
:1021F00005910599610402680A4302600068014084
:10220000059105980C2000900194029503960120F9
:1022100004906946224800F059F860020090019449
:10222000029503960520049069461E4800F04EF87A
:1022300006B070BD10B586B004001422002101A8BC
:1022400000F03AF82068184988421FD111498020CF
:1022500080028A6802438A608A6802400092009A7B
:102260000A6802430A6009680840009000980C2040
:10227000019002200290002003900320049001208E
:10228000059001A99020C00500F020F806B010BD0F
:102290001810024014100240003001400038004085
:1022A000000800480004004800440040014840681D
:1022B000704700BF0000002010B5040008001100A6
:1022C0000200200000F0D0F8200010BDFFB5002271
:1022D000012301932BE0052603E05C4EB042FAD1C6
:1022E0000426AE402643029C2660594C2668DC43F7
:1022F00026404D68ED0300D51E43554D2E606E6897
:1023000026404F68BF0300D51E436E60AE6826406E
:102310004F68FF0200D51E43AE60EE6834404E6841
:10232000B60202D526001C003443EC60521C0B6838
:102330001C00D44000D187E0019D95402B40F5D092
:1023400054000327A740FE4302964E68012E05D095
:10235000022E03D0112E01D0122E0FD18768029EBB
:102360003E40CF68A740374387604668AE434D681C
:102370002D09019F2F40974037434760C568029E53
:102380002E408D68A5403543C56095006E4675703A
:102390004D68022D01D0122D1AD1D508AD00451976
:1023A0002E6A03966E4677781C263E406F463E7036
:1023B000039EB4460F276E463678B7406646BE4346
:1023C000B4460F696E463678B740664637432F628B
:1023D00007680326029D3D404F683740BC462700F2
:1023E0006446BC402C4304604C68E4009ED5194C04
:1023F0002468019D2543174C25602468019D2540D4
:102400000295029C144C9508AD006419029424684E
:102410006D466F780C253D400F27AF40BC43902799
:10242000FF05B84201D100265BE70C4FB84201D14D
:10243000019E56E70A4FB84201D1022651E7094FE3
:10244000B84200D049E74CE7FFBD0000001000484B
:102450000004014018100240080001400004004838
:1024600000080048000C00481206130A1A43130C17
:102470001A4300BF094205D0830705D00270401CF3
:10248000491EF9D1704700001300103906D330B44B
:102490001400150010393CC0FCD230BC490700D3F1
:1024A0000CC000D504C0890002D30280801C002922
:1024B00000D502707047FEE7F8B506001BD09F4CB0
:1024C0003078C00719D58027BF0260680C21014011
:1024D00004290BD060680C210140082948D16068AC
:1024E000C021490201407808814241D1206807405B
:1024F00003D07068002800D1E9E1307880071FD54B
:10250000F827FF4360680C2101400CD060680C2163
:10251000014008295FD16068C02149020140802044
:102520000002814257D12068800703D5F068012856
:1025300000D0CCE1206807403069C00038432060FB
:102540003078000778D50227F0690028606A64D0E7
:10255000012101436162FFF7A9FE0500606A38406E
:102560006AD1FFF7A3FE401B0228F7D90320F2BD72
:1025700072687908012A08D0B248002A09D0052AD1
:1025800007D120688A00024322602068014321604D
:1025900006E02168AC4A0A402260216808402060B9
:1025A000706800280BD0FFF781FE050020683840D6
:1025B000A3D1FFF77BFE401B6528F7D3D6E7FFF7D3
:1025C00075FE05002068384097D0FFF76FFE401B6E
:1025D0006528F7D3CAE7F068002820680ED00121EB
:1025E00001432160FFF762FE050020688007A1D447
:1025F000FFF75CFE401B0228F7D9B7E701218843AB
:102600002060FFF753FE05002068800798D5FFF78C
:102610004DFE401B0228F7D9A8E7012188436062DC
:10262000FFF744FE0500606A384005D0FFF73EFE24
:10263000401B0228F7D999E73078400761D5002080
:10264000009080204005E169014008D1E169014323
:10265000E161E169084000900098012000909E4FE0
:102660003868C0050FD43868A10D01433960FFF701
:102670001DFE05003868C00505D4FFF717FE401B96
:102680006528F7D372E7B068012809D0002801D186
:10269000206A0AE00528206A07D10421014321624B
:1026A000206A01210143216206E001218843206262
:1026B000206A0421884320620227B06800280CD0D9
:1026C000FFF7F4FD0500206A384013D1FFF7EEFD57
:1026D000401B82498842F6D348E7FFF7E7FD050033
:1026E000206A384006D0FFF7E1FD401B7B49884255
:1026F000F6D33BE70098002803D0E0697849014011
:10270000E1613078C00621D57069F825ED430422D7
:10271000012851D1606B02436263606B0121014368
:102720006163FFF7C3FD0700606B800708D4FFF704
:10273000BDFDC01B0228F7D918E700BF00100240FA
:10274000606B0540B069C000284360630C27307897
:10275000800614D5606838400C2809D0606838407D
:10276000082843D1606879030140780381423DD154
:10277000606BC00303D5306A012800D0A7E0706AFF
:10278000002800D1A5E061680F40082F00D189E042
:102790008027BF0495490228206875D10140216037
:1027A000FFF784FD0500206838404FD0FFF77EFD1D
:1027B000401B0228F7D9D9E60421C9438842606B3F
:1027C00002D101406163BBE702436263606B012198
:1027D00088436063FFF76AFD0500606B8007B5D52D
:1027E000FFF764FD401B0228F7D9BFE680204002B6
:1027F0000090306A002813D0802040020090606B67
:10280000009901436163FFF751FD0500606B00997A
:102810000140B4D1FFF74AFD401B0228F6D9A5E6D6
:10282000606B094901406163FFF740FD0500606B83
:1028300000990140A3D0FFF739FD401B0228F6D9CB
:1028400094E600BFFFFFFBFFFFFFFEFFE06A0F21E2
:102850008843316B0143E16260687E490140F06A60
:102860000843B16A0143616020687908014321602F
:10287000FFF71CFD0500206838402AD1FFF716FD40
:10288000401B0228F7D971E601402160FFF70EFDD9
:102890000500206838401CD0FFF708FD401B0228C7
:1028A000F7D963E6012812D06068E16AC0225202BB
:1028B0000240B36A9A420AD10907090F326B91426A
:1028C00005D1F02189030140F06A814201D0012045
:1028D000F2BD0020F2BD000000700040891300002E
:1028E000FFFFFFEFF8B5040065D000915A4800687B
:1028F000C107C90F009881420CD2574801680122D4
:102900009143009A0A4302600068C107C90F00980A
:10291000814250D12168514D022001420CD049071B
:1029200004D56968E022D2000A436A606968F0222F
:102930009143A2680A436A600127216839402AD07E
:102940006168012902D12868800308E0022902D1C8
:102950002868800103E0032903D1686BC00303D416
:1029600029E02A68104026D068680322904301437A
:102970006960FFF79BFC060068680C2101406068F5
:102980008000814207D0FFF791FC801B34498842C8
:10299000F2D30320F2BD3048009902683A409142D8
:1029A0000BD20168B943009A0A43026000680740ED
:1029B0000098874201D00120F2BD2078400705D55C
:1029C000686828490140E0680843686000F010F832
:1029D00025496A681206120F895CC84023490860BD
:1029E000002000F05DF80020F2BD0000FFFFFFFEB8
:1029F000F0B51F490B681F481F4A0C241C40082CC7
:102A000002D00C2C1AD0F0BD0F2500BF1CA49E0CC8
:102A10002E40A45D1EA6896A0D40715DC0256D0221
:102A20002E001E4080277F02BE4203D02B40AB42C7
:102A300000D11000FEF74AFD6043F0BD1000F0BD6C
:102A40000A4800680D490A4A12685205520F895C0B
:102A5000C8407047FF7FC2FF0020024000100240C4
:102A600089130000FFF8FFFFC03B00080C000020A6
:102A70000410024000127A00006CDC02003C0008E6
:102A800002030405060708090A0B0C0D0E0F1010AF
:102A90000102030405060708090A0B0C0D0E0F10AE
:102AA00038B505000D4CFA2080002178FEF70EFDA8
:102AB00001000B480068FEF709FD00F034F800281B
:102AC0000AD1042D08D2002229000020C04300F0C2
:102AD00026F8A560002032BD012032BD0000002094
:102AE0000C00002010B5C20018231340FF249C40A6
:102AF000E2438907090E9940030004D414489B0857
:102B00009B00C01806E0134B0007000F0838800830
:102B10008000181803681A401143016010BD80B589
:102B2000FFF7E0FF01BD10B5401E80214904884237
:102B300001D3012010BD084C606003210020C04378
:102B4000FFF7D0FF0020A0600721216010BD00002A
:102B500000E400E01CED00E010E000E038B5040007
:102B600014D0250074356868002803D1287020002F
:102B7000FFF760FB24206860206801680122914310
:102B80000160200000F020F8012801D1012032BDB1
:102B9000606A002802D0200000F0AFF82068416889
:102BA000084A0A404260206881682A229143816075
:102BB000FFE72068016801220A430260200000F05C
:102BC00000F932BDFFB7FFFFF8B50600002500246D
:102BD00030680168934A0A40B168114332690A4378
:102BE00071691143F2690A43026041688E4A0A40E2
:102BF000F1681143416081688C4A0A40B169114310
:102C0000326A0A4382608A4A10218A4B984208D16C
:102C100010688007800F22D0022818D015D303280F
:102C200010E0854B984214D11068C02292020240F5
:102C300015D00803824208D04000824207D0C0204D
:102C4000800282420CD102210AE0042108E008211E
:102C500006E0A44A904202D0A34A904200D100214B
:102C6000A24F80200002F269824221D1002906D0C1
:102C7000022918D0042918D0082904D037E0FFF71A
:102C8000DFFE002834D0400071684A088018FEF743
:102C90001DFC80B201001039B94228D2074000075C
:102CA000400F38431BE09248EEE7FFF7A1FEE8E74C
:102CB000002906D0022915D0042915D0082904D0EE
:102CC00015E0FFF7BDFE002812D071684A08801891
:102CD000FEF7FCFB80B201001039B94207D231681F
:102CE000C86005E08548F0E7FFF782FEEBE70124C6
:102CF0007566B5662000F2BD00002421415CC9075D
:102D000006D501684A687B4B1340826A1A434A60C1
:102D10002421415C890706D501684A68764B134037
:102D2000C26A1A434A602421415C490706D50168FA
:102D30004A68734B1340026B1A434A602421415C7A
:102D4000090706D501684A686E4B1340426B1A4367
:102D50004A602421415CC90606D501688A686A4B2D
:102D60001340826B1A438A602421415C890606D590
:102D700001688A68654B1340C26B1A438A6024213C
:102D8000415C490611D501684A68614B1340026CE9
:102D90001A434A60026C80235B039A4205D14A6859
:102DA0005C4B1340426C1A434A602421415C090683
:102DB00006D501684A68584B1340806C1843486038
:102DC0007047F8B5040000257430C560FFF76EFA4F
:102DD0000700524E20680068000709D500963B00A6
:102DE000002280218903200000F028F800280DD15E
:102DF0002068006840070BD500963B000022802128
:102E0000C903200000F01AF8002801D00320F2BD09
:102E10002100743120204860886025660D700020F4
:102E2000F2BD0000F369FFEFFFCFFFFFFFF4FFFFEC
:102E3000301002400038014000440040FEB5089FB9
:102E40008024240100250600019168460270029347
:102E50003068C069019901400198814201D1012087
:102E600000E0002069460978884238D10020C0433C
:102E70008742EDD0FFF71AFA0299401A874201D330
:102E8000002F11D130680168254A0A40026030687D
:102E900081680122914381603000743020214160BB
:102EA000816005700320FEBD306800684007CFD503
:102EB0003068C0692040CBD0306804623068016857
:102EC000174A0A400260306881680122914381609C
:102ED00030007430202141608160C160E1E7002052
:102EE000FEBD000000480040004C0040F0FF000024
:102EF0000024F400FFFFFDFFFFFFFEFF00127A0039
:102F0000FFFFFBFFFF7FFFFFFFEFFFFFFFDFFFFF85
:102F1000FFFFEFFFFFFF9FFFFFFFF7FFFFFFFF0137
:102F20005FFEFFFFFEB500F0E9F800F0A3F8802196
:102F300009034B4802680A4302600268114000918D
:102F400000998021890202680A43026002681140E8
:102F5000009100998021C90202680A43026000685A
:102F60000140009100983F4C3F4820608220400083
:102F700060600025A560C0208000E060256165617B
:102F800080208000A061E56125626562A56207205E
:102F9000E0622563082767632000FEF765FC0028D0
:102FA00001D000F09FF82600843630487064E1209C
:102FB0004002B064F564356575650C20B065F56553
:102FC00035667566B5662000C830FFF7C7FD002876
:102FD00001D000F087F82648606682204000A06695
:102FE000E566C020800020676567A567B801E067D7
:102FF0008020255035607560B5600720F060356130
:10300000776120006430FEF72FFC002801D000F02B
:1030100069F80422002101A8FFF74EF902A800BFB9
:1030200031A10A68026000BF30A56423042202A90E
:103030002000FEF79BFC6423042201A92000FEF778
:1030400075FDFA2040000090042301AA02A9200087
:10305000FEF730FE0028E8D0280000F05FF8E4E733
:10306000141002404801002000300140004400409C
:103070000038004038B598B0342200210BA8FFF783
:103080001BF9102200216846FFF716F91C220021C7
:1030900004A8FFF711F902240B9401200E901020D0
:1030A0000F90002514950BA8FFF706FA002801D011
:1030B00000F018F807200090019502950395002173
:1030C0006846FFF70FFC002801D072B6FEE70494B3
:1030D000079504A800F036F8002801D072B6FEE784
:1030E00019B030BD72B6FEE71122334448616C203E
:1030F000535049204572726F720A000080B506482D
:10310000016810220A4302600020FFF7C9FCFFF7A4
:103110001FF8002002BD0000002002400EB4C0B520
:10312000020003A801900020009001AB0121044897
:1031300078440C30FCF7C4FF029906B0084700BF82
:10314000550A0000F8B50400444D2068C00356D568
:1031500000200090802040052968014008D129689E
:1031600001432960296808400090009801200090E0
:103170003B4F3868C00510D43868A90D0143396049
:10318000FFF794F806003868C00506D4FFF78EF8FC
:10319000801B6528F7D30320F2BDC020800069683A
:1031A0000140304F00291ED06268104081421AD081
:1031B000686838406968802252020A436A60696818
:1031C000294A0A406A606860C0070CD5FFF76EF8AC
:1031D00006006868800706D4FFF768F8801B23495B
:1031E0008842F6D3D7E7686807406068384368606C
:1031F0000098002803D028681D49014029602078E4
:10320000C00705D5686903218843A1680143696146
:103210002078800705D5686916490140E0680843B1
:1032200068612078800605D5686910218843216986
:10323000014369612068800305D56869802188435E
:10324000A169014369612068400505D5686940218D
:1032500088436169014369610020F2BD1C1002408E
:1032600000700040FFFCFFFFFFFFFEFF891300001E
:10327000FFFFFFEFFFFFFCFF10B5040000BF00BF22
:10328000200000F005F8040000BF00BF200010BDC2
:1032900038B504000F3407218C43A0422BD2082CF0
:1032A00004D2082402E0083000F049F841490A68D5
:1032B000100005D1002207E01D68A5420DD2181D9F
:1032C0000368002BF8D11268081D00E0181D036880
:1032D00093420CD01D68A542F8D300280BD0026899
:1032E0001368083BA34208D2536803600FE000F064
:1032F00063F80028D7D1002032BD1319036053684A
:10330000151D2B5113681B1B05682B60146000688A
:10331000002804D04368002B01D0001D00E00020ED
:1033200008601000083032BD10B5040006D000BFA0
:1033300000BF200000F003F800BF00BF10BD002850
:1033400000D1704770B408380268072A30D9510795
:103350002ED118494B68002B01D0984203D243600C
:10336000486017E02B005D68002D01D08542F9D33D
:103370001D685E19B0421BD3864203D1A81818609D
:10338000180007E05C68002C02D0821894420FD32A
:10339000446058604268002A0AD00368C418944206
:1033A00006D100240C601168591801605168416011
:1033B00070BC7047B403002007490868002801D09A
:1033C0000020704705480722904308600449914354
:1033D000091A0160704700BFC0030020CF0700201A
:1033E000C8090020F8B505000E0014001F00287859
:1033F00080075DD0280000F09DF8002858D1009685
:103400003046002801D003C82418012F3DD1288858
:10341000C00416D52A004432296A280000F0AAF810
:1034200006002A6B002A00D12A69E968280000F00A
:10343000A1F8A11B0C1A6A69E968280000F09AF843
:10344000241A002C29D12888C021890101400ED0DE
:103450006868E86028616861A8616868E8612800B8
:1034600044302862280030306862002028630098C9
:10347000002804D0083003C82A00343203C2288848
:103480000E49014029800020F2BD022F05D0002FF7
:103490000AD10020C04384420AD03A002100032010
:1034A000285600F06DF804000020C0438442CAD1C1
:1034B000232000BF00BF0020C043F2BDFFCE0000AC
:1034C000F8B5060000BF00BF308880042DD5002568
:1034D00074680027FF4300E0241803203056F16889
:1034E0008C4208D20A1B210000F071F8B84208D0C3
:1034F0000028F1D105E00022002100F068F8B84270
:1035000000D101257068F060B061F0613088002D55
:1035100008D08021890001433180300000BF00BF06
:103520003800F2BD114901403180300000BF00BFBA
:103530000020F2BDF8B5002815D100BF00BF00245F
:103540000B4D08260027FF432868002804D0FFF70A
:10355000B7FF002800D53C002D1D761EF4D100BF1A
:1035600000BF2000F2BDFFF7ABFFF2BDFFDF0000A0
:1035700020010020914201D2501A7047002070476C
:103580003EB504000B001D00012A03D100F069F8CC
:103590002D180BE0022A07D1009400200190694603
:1035A0000C20ABBEC51801E0002A0CD10094019597
:1035B00069460A20ABBE002805D100222100280060
:1035C00000F02DF801E00020C04303B030BD80B50D
:1035D000002802D400F066F802BD002002BDFEE71C
:1035E00030B4002100232E4A14002568854210D0F3
:1035F0005B1CA56885420CD05B1C2569854208D000
:103600005B1CA569854204D05B1C2034102BECD3D5
:1036100003E0D80010180160416030BC704770B4FE
:1036200000241F4B1D002E688E4210D0641CAE6813
:103630008E420CD0641C2E698E4208D0641CAE6988
:103640008E4204D0641C2035102CECD307E001001E
:10365000E4001B19012A01D15A688918596070BC0D
:10366000704710B400220E490B001C68844210D031
:10367000521C9C6884420CD0521C1C69844208D0A5
:10368000521C9C69844204D0521C2033102AECD373
:1036900003E0D0000818406800E0002010BC70472C
:1036A0009402002080B5002901D1002002BD01282C
:1036B00001D0022802D100F004F802BD00F011F898
:1036C00002BD30B583B00C0015000120FEF7A0F854
:1036D00000900194029569460520ABBE281A03B0FC
:1036E00030BD18B583B0030014000093019102941B
:1036F00069460520ABBE01221900201AFFF78FFF93
:1037000004B010BD38B50400E068A169884255D303
:1037100021880A002A4B1340022B09D0080402D545
:103720008020800001E08420C001084320803FE029
:10373000C025ED012A40AA4207D1A168884204D3DE
:103740002000FFF7F7FE002832D12088E908014069
:103750001ED1606821004431884219D18020800048
:10376000FFF78AFD002806D1200044306060E06049
:10377000401CA0600CE0218840220A432280E060C7
:10378000802189004118A160606060616068E0612B
:1037900060682061A068A061207840070BD50222F4
:1037A0000021200000F00EF80021C943884202D118
:1037B0000020C04332BD208805432580002032BD53
:1037C0000290000070B504000D00160000BF00BF9D
:1037D00033002A0000212000FFF704FE050020002E
:1037E00000BF00BF280070BD1CB500210278120682
:1037F0002DD50023244A14680094844201D1D1506D
:1038000022E00423546800948442F8D0082394688A
:1038100000948442F3D00C23D46800948442EED008
:103820001023146900948442E9D01423546900944D
:103830008442E4D01823946900948442DFD01C238E
:10384000D46900948442DAD000F020F813BD0180DE
:10385000C943C17001004431416001004431C1607D
:1038600001004431016101004431416101004431F2
:10387000816101004431C1610100443101620100F4
:103880003031416213BD00002001002080B5FFF7F8
:103890004BFD01BD70B504000DD02078800703D02A
:1038A00003202056002809D500BF00BF2000FFF7E5
:1038B0009BFF00BF00BF0020C04370BD2000FFF78A
:1038C00039FE060000BF00BF2078400602D56068C0
:1038D000FFF7DCFF0025656003202056022805D98C
:1038E00000F018F8002801D00026F643E06B00280D
:1038F00009D000F01BF8002801D00026F643E06B49
:10390000FFF7C4FFE5632000FFF76EFF00BF00BFB5
:10391000300070BD1CB50200009269460220ABBEAB
:1039200004001000FFF75CFE200016BDE0B500901B
:10393000FDF7E6FB019069460E20ABBE03B000BD6B
:10394000F1B401684218416848081318009880686B
:10395000C9071DD5494640181AE01778521C077050
:10396000401C761EF9D1002C12D01678521C890802
:103970000D40032D01D11578521C290271184D42BA
:103980004119A41C0D78491C0570401C641EF9D116
:103990009A420FD01178521C03250E002E4002D1FE
:1039A0001678F61C521C0C090F2CDAD114780F343F
:1039B000521CD6E700980C30F2BC7047686A6C74F1
:1039C0007A4C00007072696E74665F733A20256EDF
:1039D00020646973616C6C6F776564007072696EE6
:1039E00074663A2062616420256E20617267756D8D
:1039F000656E74007072696E74665F733A206261FE
:103A00006420257320617267756D656E7400000017
:103A1000000000006E616E004E414E00696E66004F
:103A2000494E4600300038B505000C00200000BFAC
:103A300000BFE068A169884204D32000FFF762FE5E
:103A4000002810D4E068411CE16005702088010561
:103A500004D440050DD5E8B20A280AD12000FFF7AA
:103A600069FD002805D0200000BF00BF0020C04332
:103A700032BD200000BF00BFE8B232BD38B50D4CEA
:103A800008252068002806D00178890703D0032183
:103A90004156002903D5241D6D1EF2D102E0FFF727
:103AA000F9FEF8E7002200210020C043FFF78FFD58
:103AB00031BD00BF2001002070B40123002413E0B9
:103AC0000168001D194202D04D466918491E0C605C
:103AD000091D121F042AFAD20D00960701D50C8089
:103AE000AD1C1A4000D02C700268001D002AE7D1DE
:103AF00070BC704710B5074979441831064C7C44B6
:103B0000163404E0081D0A68891888470100A1429C
:103B1000F8D110BD08000000240000009DFFFFFF49
:103B20007C020000480100200000000015FEFFFF9D
:103B300008010000E40000000000002000F00DF883
:103B4000002801D0FFF7D6FF00BF00BF002000BF54
:103B500000BFFFF7E7F900F002F80120704780B5D9
:103B600000F002F801BDFEE70746FFF787FF384681
:103B7000FDF72EFEFBE7FEE70548014603B4684665
:103B800080F3098800BF00BF00BF00BFFFF7D6FF6A
:103B9000A5EDF5FE38B505000C00200000F006F894
:103BA000A04200D00025280032BDFEE780B50249C2
:103BB000FFF739FF02BD00BF9000002070470000F2
:103BC00000000000000000000102030406070809CD
:103BD0000148804701480047BD3B0008793B000889
:103BE000024841680278891841607047000000204F
:103BF000FEE7FEE77047704780B5FFF7F1FF01BDB4
:103C00000000000001020304FEE7FEE7FEE7FEE716
:103C1000FEE7FEE7FEE7FEE7FEE7FEE7FEE7FEE77C
:103C2000FEE7FEE7FEE7FEE7FEE7FEE7FEE7FEE76C
:103C3000FEE7FEE70000000043010001220408F057
:103C40000507127A00343C00080452FF01E3B61065
:103C50001410010000014110038C0000208D04525B
:103C60008C042153A10852780CF10B0110070204B7
:103C7000010164030020B404526404213461081279
:103C8000D444F213C04850020802021440521404F3
:103C900021346108F004111C010020080148124879
:0A3CA0006C129004F206D87465144B
:0400000508003B793B
:00000001FF
