:020000040800F2
:10000000A8040020250B0008510900085309000826
:1000100000000000000000000000000000000000E0
:100020000000000000000000000000005709000868
:100030000000000000000000590900085B090008EA
:10004000AF0B0008BB0B0008F90B0008FB0B000806
:10005000FD0B0008FF0B0008010C0008030C000852
:10006000050C0008070C0008090C00080B0C000820
:100070000D0C00080F0C0008110C0008130C0008F0
:10008000150C0008170C000800000000190C0008EF
:100090001B0C00081D0C00081F0C0008210C000898
:1000A000230C0008250C0008270C00085D09000837
:1000B000290C0008000000002B0C000800000000C4
:1000C000FEB504000020002500210191002600213A
:1000D00002910027694909680C220A4000920099A0
:1000E000002906D0042907D0082908D00C2929D0D6
:1000F0002BE0764820602AE07448206027E05F48C3
:100100000168F020800308405C490968C02252025F
:100110000A400192800C801C05000198002803D140
:100120006B48684307000BE06A4800680007000F4F
:10013000401C06006548310000F0DAF8684307000B
:10014000276004E06448206001E0604820604B487C
:100150000168F020084000096049095C2268CA4033
:100160006260464A1368E022D2001A40120A0092E6
:100170005A4A009BD25C6368D340A360494B1B681A
:10018000DB0502D45648E0600AE03C4800684004C1
:1001900003D4A0684008E06002E0A0688008E06046
:1001A00040480068400602D44E48206102E08020AA
:1001B000000220613B480068C00602D443486061E9
:1001C00001E020686061374800688007800F0028E0
:1001D00002D1A068A0611AE0324800688007800F51
:1001E000012802D12068A06111E02E480068800734
:1001F000800F022803D180200002A06107E0294877
:1002000000688007800F032801D13048A06125488D
:100210000068C02189020140002902D1A068E06184
:1002200023E020480068C02189020140802040026C
:10023000814202D12068E06117E01A480068C021BD
:100240008902014080208002814203D18020000287
:10025000E0610AE013480068C02189020140C02023
:100260008002814201D11948E0610E480068000611
:1002700002D41948206200E02762F7BD0410024052
:1002800000B50A00D2B2002A05D0174A126802430C
:10029000154B1A6004E0144A12688243124B1A602C
:1002A00000BD00003010024000B50A00D2B2002AA2
:1002B00005D00E4A126802430C4B1A6004E00B4A48
:1002C00012688243094B1A6000BD000000127A00D8
:1002D00000093D002C100240006CDC026C00002084
:1002E000809FD500128000001410024018100240B8
:1002F0000022030A8B420BD203098B4219D2430816
:100300008B422ED2411A00D201465241104670470C
:10031000FF2209023FD012068B4205D312120902B6
:100320008B4201D31212090203098B4219D300E058
:10033000090AC3098B4201D3CB01C01A5241830978
:100340008B4201D38B01C01A524143098B4201D326
:100350004B01C01A524103098B4201D30B01C01A51
:100360005241C3088B4201D3CB00C01A52418308CB
:100370008B4201D38B00C01A524143088B4201D3F8
:100380004B00C01A5241884200D3401A5241CFD28A
:1003900001461046704708B500F020F808BD30B59A
:1003A00001684118446862088A188368E40704D524
:1003B0004C461B1901E0641C09D1914203D00C7812
:1003C00064B2491C01E00C3030BD0D78491C1D7031
:1003D0005B1C002CEFD4641EF7D5EEE770470400D9
:1003E000F8B58CB004000D000020029000200190B0
:1003F0000027206801218843206060683649014059
:10040000A868084300900098606020683349014064
:1004100068680843E96801432E690E432660A068B6
:100420002F4901406869084300900098A06003A824
:10043000FFF746FE2248844201D1099E05E021488B
:10044000844201D10A9E00E0059E206800040BD57D
:10045000022070432968FFF74BFF0700022070431A
:100460002968FFF745FF08E030002968FFF740FFE3
:10047000070030002968FFF73BFF286840088142E9
:1004800000D37F1C2068000407D578084007400F80
:1004900001003800134F07400F433800A0810DB012
:1004A000F0BD00B50A00D2B2002A04D002680123D0
:1004B0001343036003E0026801239A43026000BD16
:1004C0000038014000440040CA05D20D0285704743
:1004D000808CC005C00D7047FFCFFFFFF3E9FFFF21
:1004E000FFFCFFFFF0FF0000F7B581B00020002106
:1004F00000220023019C029DADB22D0AADB2029EE6
:10050000F6B200960126009FBE40022D01D1241DA7
:1005100002E0032D00D108346846007B002803D098
:1005200020683043206002E02068B0432060FFBDB7
:1005300000B502000023D0690840002801D0012046
:1005400000E00020C0B200BDF8B50200002000238A
:10055000002600240D00ADB22D0AADB20095CFB239
:100560000125BD40009F012F02D113682B4007E0F9
:10057000009B022B02D153682B4001E093682B4073
:100580000D0C0126AE40D5693540002B03D0002D5F
:1005900001D0012000E00020C0B2F2BD80B54A4881
:1005A0000068012101434848016048480068484903
:1005B00001404648016044480068464901404248BD
:1005C000016041480068444901403F4801603F489C
:1005D0000068424901403D480160414800680F21E0
:1005E00088433F4908603F4800683F4901403D4813
:1005F00001603E480068012188433C4908600020B2
:100600003B49086000F001F801BDC0B50020019031
:10061000002000902C4800688021490201432A48AC
:1006200001602948006880218902084000900198F3
:10063000401C01900098002804D10198A021C90114
:100640008842EED120480068800302D50120009046
:1006500001E0002000900098012834D111202549A4
:1006600008601A4800681949086018480068174966
:10067000086016480068204901401448016013488A
:100680000068882149030143104801600E48006852
:100690008021490401430C4801600B480068800137
:1006A000FBD50A48006803218843084908600748C9
:1006B00000680221014305480160044800680C21DC
:1006C00001400829F9D103BD001002400410024086
:1006D0000CB8FFF8FFFFF6FEFFFFFBFFFFFFC0FFB8
:1006E0002C10024030100240ACFEFFFF34100240DC
:1006F0000810024000200240FF7FC0FF7CB50400CC
:100700000D0001213C482200D2B204235A438258F2
:100710003A482300DBB204267343C0581043FFF766
:10072000AFFD012136482200D2B204235A4380583B
:10073000FFF7BAFD33482100C9B2425C32482100BC
:10074000C9B2415C89B231482300DBB2042673434D
:10075000C05800F0C7F82E482100C9B2425C2D48AD
:100760002100C9B2415C89B22B482300DBB20426C8
:100770007343C05800F0B6F828482100C9B20222DD
:100780005143405A00900220694608710120694691
:10079000487100206946887101206946C871694620
:1007A0001A482200D2B204235A43805800F03CF881
:1007B0001B482100C9B202225143405A00906946A9
:1007C00015482200D2B204235A43805800F02CF876
:1007D000290014482200D2B204235A438058FFF75C
:1007E000FFFD01210F482200D2B204235A43805852
:1007F000FFF757FE73BD0000F00B0008F40B000874
:10080000EC0B00082E0C00082C0C00080400002043
:100810002F0C00082D0C000808000020DE03000843
:10082000AE0A000800000020F0B5002500220023D9
:100830000024102C55D20125A5402A000D68154032
:100840002B0093424BD10D79012D02D00D79022D51
:100850001DD186680327BC46250002277D436746D5
:10086000AF40BE43866086684F79BC4625000227AC
:100870007D436746AF403743876085880126A640A1
:10088000B543858085888E79A6402E43868006688C
:100890000327BC46250002277D436746AF40BE4381
:1008A000066006680F79BC46250002277D4367462F
:1008B000AF4037430760C6680327BC4625000227C0
:1008C0007D436746AF40BE43C660C668CF79BC462D
:1008D000250002277D436746AF403743C760641C4D
:1008E000A7E7F0BDF6B4002200236C4624790D0082
:1008F0006D076D0F04267543AC400D00ADB2ED10D1
:1009000004267543451900950D00ADB2ED1004267F
:10091000754345192F6A0F25AC460D006E07760FFB
:1009200004256E436546B540AF43009D2F620D0020
:10093000ADB2ED100426754345192D6A25430E000E
:10094000B6B2F61004277E4386193562F3BC7047B1
:10095000704700B5FEE770477047704710B51F49F4
:100960001F48FFF7F1FD002819D01E480488200019
:10097000401C1C4908801A48FFF7AAFD4006400E9B
:100980001949A4B20855174800881849097889B24E
:10099000884204D1002211491148FFF7A5FD1449EE
:1009A0000F48FFF7D1FD002817D01248007801004A
:1009B000491C104A11701049C0B2095C89B208483C
:1009C000FFF782FD0B4800780C490978884204D172
:1009D000002207490248FFF787FD10BD0501050009
:1009E000004400409C0000207C0000209F0000206C
:1009F00007010700A00000200C0000209E0000203E
:100A000080B500F02FF800F03BF801220E490F48A6
:100A1000FFF76AFD0E4800780E4909788842F9D33D
:100A200040210A48FFF784FD0028F9D001220A4935
:100A30000648FFF759FD094800880949097889B235
:100A40008842F8D3FEE70000070107000044004099
:100A5000A00000209E000020050105009C00002051
:100A60009F00002080B51B20694608700020694661
:100A70004870012069468870684600F019F801BD89
:100A800080B586B0E12040020090002001908020D7
:100A900080010290C020C0000390002005900C202F
:100AA000049069460020FFF729FE07B000BD08004A
:100AB00030B500218278002A26D0174A03789B108F
:100AC00004246343D258FF230478A407A40F082505
:100AD0006C43A3409A4343789B01DBB20478A4079C
:100AE000A40F08256C43A340134319000A4A037856
:100AF0009B1004246343D15001220378DB06DB0EF4
:100B00009A40064B1A6006E001220378DB06DB0EF2
:100B10009A40034B1A6030BD00E400E000E100E0C1
:100B200080E100E00548064900220260001D88427D
:100B3000FBD3044880470448004700000000002021
:100B4000FF1F00209D050008D10B000810B50749C4
:100B500079441831064C7C44163404E0081D0A68B8
:100B6000891888470100A142F8D110BD0800000093
:100B7000140000002BF8FFFFB8000000FE0000008A
:100B80000000002000F00DF8002801D0FFF7DEFF84
:100B900000BF00BF002000BF00BFFFF731FF00F023
:100BA00002F80120704780B500F002F801BDFEE7B1
:100BB0000746384600F002F8FBE7FEE780B500BFC5
:100BC00000BF024A11001820ABBEFBE7260002005E
:100BD0000548014603B4684680F3098800BF00BF9A
:100BE00000BF00BFFFF7CEFFA5EDF5FE000002003D
:100BF0000000020000000200FEE7FEE7FEE7FEE75D
:100C0000FEE7FEE7FEE7FEE7FEE7FEE7FEE7FEE7BC
:100C1000FEE7FEE7FEE7FEE7FEE7FEE7FEE7FEE7AC
:100C2000FEE7FEE7FEE7FEE7FEE7FEE7020301015F
:100C30000300440040FD000048FD005D480A0D55DA
:100C4000534152542048797065727465726D696EB3
:100C5000616C20496E74657272757074732045788A
:100C6000616D706C653A2055534152542D4879702E
:100C700065727465726D696E616C20636F6D6D7500
:100C80006E69636174696F6E207573696E67204960
:100C90006E746572727570740A0DF9000B010203AF
:0F0CA000040102030406070809DE00025D2000BC
:0400000508000BD113
:00000001FF
