:020000040800F2
:10000000B809002065870008198700081B870008C9
:100010001D8700081F8700082187000800000000D6
:10002000000000000000000000000000238700081E
:10003000258700080000000027870008298700089E
:10004000A1870008A5870008A9870008AD870008D8
:10005000B1870008B5870008B9870008BD87000888
:10006000C1870008C5870008C9870008CD87000838
:10007000D1870008D5870008D9870008DD870008E8
:10008000E1870008E5870008E9870008ED87000898
:10009000F1870008F5870008F9870008FD87000848
:1000A0000188000805880008098800080D880008F4
:1000B0001188000815880008198800081D880008A4
:1000C0002188000825880008298800082D88000854
:1000D0003188000835880008398800083D88000804
:1000E0004188000845880008498800084D880008B4
:1000F0005188000855880008598800085D88000864
:100100006188000865880008698800086D88000813
:100110007188000875880008798800087D880008C3
:100120008188000885880008898800088D88000873
:100130009188000800000000000000009588000879
:10014000998800089D880008A1880008A5880008F3
:10015000A9880008AD880008B1880008B5880008A3
:10016000B9880008BD880008C1880008C588000853
:10017000C9880008CD880008D18800080000000068
:10018000D5880008D9880008DD880008E1880008C3
:10019000E5880008E9880008ED880008F188000873
:1001A000F5880008F9880008FD8800080189000822
:1001B00005890008098900080D89000811890008CF
:1001C00015890008198900080000000000000000DF
:1001D00000000000000000001D8900080000000071
:1001E000000000000000000000000000000000000F
:1001F0000000000000000000218900082589000897
:10020000298900082D8900080000000031890008B4
:1002100035890008398900083D89000841890008AE
:1002200045890008498900084D8900080000000040
:10023000518900085589000800000000598900080C
:100240005D890008618900086589000869890008DE
:100250006D8900087189000875890008798900088E
:100260007D8900088189000885890008898900083E
:100270008D89000891890008958900080000000018
:10028000998900089D89000800000000A1890008E4
:1002900000000000A5890008A989000800000000EE
:1002A00000000000AD890008B18900082DE9F04187
:1002B000040000275FF000082068000135D5A06E1B
:1002C000002809D0B0F5801F0FD0B0F5001F12D064
:1002D000B0F5401F16D016E0DFF8840A006850F42D
:1002E0000030DFF87C1A08600FE00221201D01F0C9
:1002F0009FFB070009E0022114F1240001F034FC07
:10030000070002E001E0012007003800C0B2002829
:100310000AD1DFF8500A016831F44011A06E0143A0
:10032000DFF8400A016000E0B8462068C00533D518
:10033000606D002806D0022813D00CD3042818D0F2
:1003400016D317E0DFF8180A006850F40030DFF821
:10035000101A086010E00021201D01F069FB070061
:100360000AE0002114F1240001F0FEFB070003E085
:1003700002E001E0012007003800C0B200280AD1E5
:10038000DFF8E0090168C908C900606D0143DFF8C2
:10039000D409016000E0B846206880053AD5A06D18
:1003A00000280CD0402813D0802817D0C0281CD09B
:1003B000B0F5807F1AD0B0F5A07F18D018E0DFF834
:1003C000A009006850F40030DFF89419086011E0CB
:1003D0000021201D01F02CFB07000BE0002114F18F
:1003E000240001F0C1FB070004E003E002E001E0AB
:1003F000012007003800C0B200280AD1DFF86409E4
:10040000016831F4E071A06D0143DFF85809016023
:1004100000E0B846206840053DD5E06D00280FD0CB
:10042000B0F5007F15D0B0F5806F18D0B0F5C06F73
:100430001CD0B0F5006F1AD0B0F5206F18D018E0BE
:10044000DFF81C09006850F40030DFF81419086068
:1004500011E00021201D01F0EBFA07000BE0002164
:1004600014F1240001F080FB070004E003E002E047
:1004700001E0012007003800C0B200280AD1DFF8EF
:10048000E408016831F46061E06D0143DFF8D408ED
:10049000016000E0B846206880012CD5A06C0028DF
:1004A00016D0102804D020280BD030280FD010E010
:1004B000DFF8AC08006850F40030DFF8A4180860DA
:1004C00009E00221201D01F0B3FA070003E002E079
:1004D00001E0012007003800C0B200280AD1DFF88F
:1004E0008808016831F03001A06C0143DFF878081A
:1004F000016000E0B8462068C00439D5206E0028AD
:100500000CD0B0F5805F12D0B0F5005F15D0B0F51B
:10051000405F19D0B0F5804F17D017E0DFF84008E2
:10052000006850F40030DFF83818086010E000214F
:10053000201D01F07DFA07000AE0002114F12400DB
:1005400001F012FB070003E002E001E001200700D8
:100550003800C0B200280AD1DFF80808016831F479
:10056000E041206E0143DFF8FC07016000E0B8467F
:100570002068800435D5606E00280FD0B0F5803F2C
:100580000DD0B0F5003F10D0B0F5403F14D0B0F51D
:10059000802F12D0B0F5A02F10D010E011E0012173
:1005A000201D01F045FA07000BE0012114F12400A1
:1005B00001F0DAFA070004E003E002E001E00120C4
:1005C00007003800C0B200280AD1DFF89807016898
:1005D00031F4E021606E0143DFF88807016000E03C
:1005E000B846206840043BD5D4F8AC00002812D0AF
:1005F000B0F1805F10D0B0F1005F13D0B0F1405F78
:1006000017D0B0F1804F15D0B0F1A04F13D0B0F19A
:10061000C04F11D011E012E00121201D01F008FAB5
:1006200007000CE0012114F1240001F09DFA0700FD
:1006300005E004E003E002E001E0012007003800EB
:10064000C0B200280BD1DFF82407016831F0E04187
:10065000D4F8AC000143DFF81407016000E0B846AD
:10066000206800042BD5606F002815D0B0F1805FA2
:1006700003D0B0F1005F09D00FE0DFF8E4060068B6
:1006800050F40030DFF8D816086008E00121201D82
:1006900001F0CEF9070002E001E001200700380078
:1006A000C0B200280AD1DFF8BC06016831F0405121
:1006B000606F0143DFF8AC06016000E0B8462068D7
:1006C000C0012BD5606C002815D002280CD002D3B5
:1006D00003280FD010E0DFF88806006850F40030DF
:1006E000DFF87C16086009E00221201D01F0A0F966
:1006F000070003E002E001E0012007003800C0B27B
:1007000000280AD1DFF86006016889088900606C5A
:100710000143DFF85406016000E0B846206840025B
:1007200040F18780DFF84806006850F48070DFF8F9
:100730004016086001F0C6FA0600DFF834060068CB
:10074000C00506D401F0BEFA801B6528F5D303204E
:1007500007003800C0B200286AD1DFF81806006828
:1007600010F44070D4F8B01011F44071884218D0E1
:10077000DFF80006006830F440700500DFF8F4058B
:10078000006850F48030DFF8EC150860DFF8E4050D
:10079000006830F48030DFF8DC150860DFF8D4053D
:1007A0000560D4F8B000B0F5807F10D101F08AFA6E
:1007B0000600DFF8C0050068800708D401F082FA5F
:1007C000801B41F289318842F3D3032007003800AF
:1007D000C0B200282AD1D4F8B00010F44070B0F5AF
:1007E000407F0FD1DFF89005006830F47C50D4F8DA
:1007F000B010DFF8882512EA11121043DFF87815DF
:10080000086007E0DFF87005006830F47C50DFF81E
:1008100068150860DFF85C050068D4F8B0100905B9
:10082000090D0843DFF84C15086002E0B84600E007
:10083000B8462078C00732D5D4F8800000280AD006
:10084000082809D010280DD0182812D0202811D03F
:10085000282810D010E011E00121201D01F0E8F857
:1008600007000BE0012114F1240001F07DF90700DD
:1008700004E003E002E001E0012007003800C0B21C
:1008800000280BD1DFF8F804016831F03801D4F802
:1008900080000143DFF8E804016000E0B8462078FA
:1008A00080072ED5E06F002808D002280DD006D38F
:1008B000042812D010D3052810D010E011E0012137
:1008C000201D01F0B5F807000BE0012114F1240010
:1008D00001F04AF9070004E003E002E001E0012032
:1008E00007003800C0B200280AD1DFF8940401687C
:1008F000C908C900E06F0143DFF88404016000E02B
:10090000B8462078400730D5D4F89800002808D0A1
:1009100002280DD006D3042812D010D3052810D0F9
:1009200010E011E00121201D01F082F807000BE02A
:10093000012114F1240001F017F9070004E003E09D
:1009400002E001E0012007003800C0B200280BD10E
:10095000DFF818040168C908C900D4F898000143F9
:10096000DFF80804016000E0B8462078800637D53B
:10097000D4F8940000280FD0B0F1805F0DD0B0F112
:10098000005F10D0B0F1405F14D0B0F1804F12D0B2
:10099000B0F1A04F10D010E011E00021201D01F0B7
:1009A00047F807000BE0022114F1240001F0DCF805
:1009B000070004E003E002E001E001200700380046
:1009C000C0B200280BD1DFF8B803016831F0E04174
:1009D000D4F894000143DFF8A803016000E0B846B2
:1009E0002078400637D5D4F8A00000280FD0B0F505
:1009F000806F0DD0B0F5006F10D0B0F5406F14D0FF
:100A0000B0F5805F12D0B0F5A05F10D010E011E01B
:100A10000021201D01F00CF807000BE0022114F169
:100A2000240001F0A1F8070004E003E002E001E087
:100A3000012007003800C0B200280BD1DFF82C03DA
:100A4000016831F4E051D4F8A0000143DFF81C0341
:100A5000016000E0B8462078000637D5D4F8A4003D
:100A600000280FD0B0F5005F0DD0B0F5804F10D04A
:100A7000B0F5C04F14D0B0F5004F12D0B0F5204FF4
:100A800010D010E011E00021201D00F0D1FF070080
:100A90000BE0022114F1240001F066F8070004E0E5
:100AA00003E002E001E0012007003800C0B20028A6
:100AB0000BD1DFF8B802016831F46041D4F8A4002A
:100AC0000143DFF8A802016000E0B8462078000783
:100AD00018D5D4F88800B0F5805F08D1022114F150
:100AE000240001F041F8002801D001208046DFF801
:100AF0009002016831F44051D4F888000143DFF8D6
:100B0000800201602078C00618D5D4F89C00B0F5AA
:100B1000807F08D1022114F1240001F025F800287B
:100B200001D001208046DFF84402016831F44071B1
:100B3000D4F89C000143DFF8340201602068000310
:100B40002BD5D4F8A800002806D0B0F5803F09D0F6
:100B5000B0F5003F0DD00DE00021201D00F068FF32
:100B6000070009E0022114F1240000F0FDFF070056
:100B700002E001E0012007003800C0B200280BD1DC
:100B8000DFF8E801016831F44031D4F8A8000143EE
:100B9000DFF8D801016000E0B846206840032DD599
:100BA000D4F88C00B0F5801F06D0B0F5001F0AD035
:100BB000B0F5401F0ED00EE06948006850F40030D8
:100BC0006749086009E0012114F1240000F0CCFF1E
:100BD000070002E001E0012007003800C0B2002851
:100BE0000BD1DFF89C01016831F44011D4F88C007E
:100BF0000143DFF88C01016000E0B8462068C003C3
:100C000025D5E06C002803D0B0F5803F07D00CE07C
:100C10005348006850F400305149086007E0022151
:100C2000201D00F005FF070001E00120070038004B
:100C3000C0B200280AD1DFF83001016831F48031F8
:100C4000E06C0143DFF82001016000E0B846206855
:100C5000800008D5022114F1240000F085FF00284F
:100C600001D0012080462068800328D5D4F8840074
:100C7000002812D0B0F5807F06D0B0F5007F0AD0F2
:100C8000B0F5407F08D009E03548006850F40030E6
:100C90003349086004E003E002E001E001200700BE
:100CA0003800C0B2002809D13548016831F44071DC
:100CB000D4F8840001433248016000E0B84620685F
:100CC000C00207D52748016821F00041A06F014309
:100CD000244801602068800207D52248016831F06D
:100CE0008071E06E01431F4801602068000507D550
:100CF0001E48016831F00061206F01431B4801600C
:100D0000206840000CD51C48006830F400401A49A7
:100D1000086019480168D4F8B4000143164801601E
:100D20002068002807D51048016831F04051206D37
:100D300001430D4801602068000208D51048016891
:100D400031F44001D4F8900001430D480160404661
:100D5000C0B2002801D1002000E00120BDE8F081F0
:100D60002C440258504402584C44025858440258EB
:100D7000004802587044025810440258CFFFFF0048
:100D800054440258F0B589B00500B5F5807F65D1AF
:100D9000DFF8340A006810F007000600002E06D0C5
:100DA000022E1CD00FD3042E25D052D354E0DFF8EE
:100DB0005C0C0068800104D506A800F013FD0798BC
:100DC00000E00020B7E2DFF8440C0068000104D521
:100DD000684600F0C3FA009800E00020ABE2DFF8BC
:100DE0002C0C0068800004D503A800F0D7FB039802
:100DF00000E000209FE2DFF8E409006810F04050B6
:100E00000400DFF8080C006840070AD5002C08D160
:100E1000DFF8FC0BDFF8F41B0968C1F3C101C8401F
:100E200016E0DFF8E80B0068C00505D5B4F1805F77
:100E300002D1DFF8AC090BE0DFF8D00B00688003CB
:100E400005D5B4F1005F02D1DFF8C80B00E0002047
:100E500071E2DFF8C40B6EE200206CE2B5F5007FB2
:100E600069D1DFF86409006810F4E0700600300012
:100E7000002809D0402813D080281DD0C02855D084
:100E8000B0F5807F24D054E0DFF8800B006880014B
:100E900004D506A800F0A6FC079800E000204AE26E
:100EA000DFF8680B0068000104D5684600F056FAC8
:100EB000009800E000203EE2DFF8500B0068800060
:100EC00004D503A800F06AFB039800E0002032E29A
:100ED000DFF80809006810F040500400DFF82C0B20
:100EE000006840070AD5002C08D1DFF8240BDFF892
:100EF0001C1B0968C1F3C101C84016E0DFF80C0BE8
:100F00000068C00505D5B4F1805F02D1DFF8D008D4
:100F10000BE0DFF8F80A0068800305D5B4F1005F44
:100F200002D1DFF8F00A00E0002004E2DFF8E80A6E
:100F300001E20020FFE1B5F5806F6CD1DFF8880891
:100F4000006810F460600600300000280CD0B0F596
:100F5000007F15D0B0F5806F1ED0B0F5C06F55D0B2
:100F6000B0F5006F24D054E0DFF8A00A00688001DB
:100F700004D506A800F036FC079800E00020DAE16E
:100F8000DFF8880A0068000104D5684600F0E6F939
:100F9000009800E00020CEE1DFF8700A00688000D1
:100FA00004D503A800F0FAFA039800E00020C2E19B
:100FB000DFF82808006810F040500400DFF84C0A01
:100FC000006840070AD5002C08D1DFF8440ADFF892
:100FD0003C1A0968C1F3C101C84016E0DFF82C0AC9
:100FE0000068C00505D5B4F1805F02D1DFF8F007D5
:100FF0000BE0DFF8180A0068800305D5B4F1005F44
:1010000002D1DFF8100A00E0002094E1DFF8080ABE
:1010100091E100208FE1B5F5805F6CD1DFF8A80782
:10102000006810F4E0400700380000280CD0B0F54C
:10103000805F15D0B0F5005F1ED0B0F5405F55D091
:10104000B0F5804F24D054E0DFF8C009006880017B
:1010500004D506A800F0C6FB079800E000206AE16E
:10106000DFF8A8090068000104D5684600F076F9A9
:10107000009800E000205EE1DFF890090068800041
:1010800004D503A800F08AFA039800E0002052E19A
:10109000DFF84807006810F040500400DFF86C09E2
:1010A000006840070AD5002C08D1DFF86409DFF892
:1010B0005C190968C1F3C101C84016E0DFF84C09AA
:1010C0000068C00505D5B4F1805F02D1DFF81007D4
:1010D0000BE0DFF838090068800305D5B4F1005F44
:1010E00002D1DFF8300900E0002024E1DFF8280910
:1010F00021E100201FE1B5F5002F57D1DFF82C09C1
:10110000006810F4403007003800002806D0B0F521
:10111000803F0FD0B0F5003F18D045E0DFF8EC0875
:101120000068000104D5684600F018F9009800E056
:10113000002000E1DFF8D4080068800004D503A88F
:1011400000F02CFA059800E00020F4E0DFF88C06AF
:10115000006810F040500400DFF8B0080068400755
:101160000AD5002C08D1DFF8A808DFF8A018096814
:10117000C1F3C101C84016E0DFF890080068C0055F
:1011800005D5B4F1805F02D1DFF854060BE0DFF83B
:101190007C080068800305D5B4F1005F02D1DFF858
:1011A000740800E00020C6E00020C4E0B5F5803FF0
:1011B00026D1DFF82806006810F4803007003800D8
:1011C000002803D0B0F5803F0CD017E0DFF83C08D2
:1011D0000068800104D506A800F004FB079800E031
:1011E0000020A8E0DFF824080068000104D5684664
:1011F00000F0B4F8029800E000209CE000209AE0A3
:10120000B5F5804F5FD1DFF82408006810F0E040AA
:1012100007003800002812D0B0F1805F12D0B0F182
:10122000005F1BD0B0F1405F24D0B0F1804F31D0CF
:10123000B0F1A04F38D0B0F1C04F3FD041E000F046
:101240007CF878E0DFF8C4070068000104D5684640
:1012500000F084F8019800E000206CE0DFF8AC07B3
:101260000068800004D503A800F098F9049800E015
:10127000002060E0DFF894070068400708D5DFF839
:101280009007DFF888170968C1F3C101C84000E082
:10129000002050E0DFF874070068C00502D5DFF8D1
:1012A000400500E0002046E0DFF8600700688003AA
:1012B00002D5DFF8600700E000203CE0DFF85807C7
:1012C00039E0002037E0B5F5004F33D1DFF8F804FE
:1012D000006810F0405007003800002806D0B0F138
:1012E000805F0DD0B0F1005F16D021E0DFF81C0761
:1012F0000068800302D5DFF81C0700E000201AE038
:10130000DFF808070068800104D506A800F06AFA33
:10131000079800E000200EE0DFF8F006006800010A
:1013200004D5684600F01AF8019800E0002002E0B9
:10133000002000E0002009B0F0BD80B500F05FFFA4
:10134000DFF82018DFF850291268C2F30212895C16
:1013500011F01F01C84002BD0000000030B48C49EC
:101360000A6812F003028A490968C1F305318A4B01
:101370001B68C3F30013DFF824492468C4F3CC04CA
:1013800004FB03F401EE104AB8EE411A002900F004
:10139000F080002A03D0022A72D051D390E0DFF807
:1013A0006C462468A4062BD5DFF86446DFF85C564B
:1013B0002D68C5F3C105EC4001EE904AB0EE610A1C
:1013C000F8EE401A02EE101AB8EE422AC1EE821A66
:1013D000DFF8CC482468E405E40D02EE104AB8EECC
:1013E000422ADFED682AC1EE222A32EE222AF7EEE7
:1013F000002A32EE222A61EE821AF0EE610A1EE025
:1014000001EE901AF8EE611A9FED5F2AC2EE211AE2
:10141000DFF88C482468E405E40D02EE104AB8EECB
:10142000422ADFED582AC1EE222A32EE222AF7EEB6
:10143000002A32EE222A61EE821AF0EE610A5EE0A4
:1014400001EE901AF8EE611A9FED502AC2EE211AB1
:10145000DFF84C482468E405E40D02EE104AB8EECB
:10146000422ADFED482AC1EE222A32EE222AF7EE86
:10147000002A32EE222A61EE821AF0EE610A3EE084
:1014800001EE901AF8EE611A9FED422AC2EE211A7F
:10149000DFF80C482468E405E40D02EE104AB8EECB
:1014A000422ADFED382AC1EE222A32EE222AF7EE56
:1014B000002A32EE222A61EE821AF0EE610A1EE064
:1014C00001EE901AF8EE611A9FED302AC2EE211A51
:1014D000DFF8CC472468E405E40D02EE104AB8EECC
:1014E000422ADFED282AC1EE222A32EE222AF7EE26
:1014F000002A32EE222A61EE821AF0EE610ADFF84B
:10150000A0472468C4F3462401EE904AF8EE611A1D
:10151000B7EE002A71EE821AC0EEA11AFCEEE11AB3
:10152000C0ED001ADFF878472468C4F3064401EEE2
:10153000904AF8EE611AB7EE002A71EE821AC0EEF8
:10154000A11AFCEEE11AC0ED011ADFF85447246835
:10155000C4F3066401EE904AF8EE611AB7EE002A71
:1015600071EE821AC0EEA11AFCEEE11AC0ED021A69
:1015700005E000240460002444600024846030BC42
:1015800070470000000000460024744C0024744A98
:1015900028440258001BB74B2C44025830B4DFF8E3
:1015A00004170A6812F00302DFF8F8160968C1F39D
:1015B0000551DFF8F4361B68C3F30023DFF8EC466F
:1015C0002468C4F3CC0404FB03F401EE104AB8EE23
:1015D000411A002900F0F080002A03D0022A72D0BC
:1015E00051D390E0DFF824442468A4062BD5DFF81B
:1015F0002044DFF818542D68C5F3C105EC4001EE16
:10160000904AB0EE610AF8EE401A02EE101AB8EEF7
:10161000422AC1EE821ADFF898462468E405E40DF8
:1016200002EE104AB8EE422ADFED682AC1EE222A05
:1016300032EE222AF7EE002A32EE222A61EE821AD8
:10164000F0EE610A1EE001EE901AF8EE611A9FEDCD
:10165000602AC2EE211ADFF858462468E405E40D3A
:1016600002EE104AB8EE422ADFED582AC1EE222AD5
:1016700032EE222AF7EE002A32EE222A61EE821A98
:10168000F0EE610A5EE001EE901AF8EE611A9FED4D
:10169000512AC2EE211ADFF818462468E405E40D49
:1016A00002EE104AB8EE422ADFED482AC1EE222AA5
:1016B00032EE222AF7EE002A32EE222A61EE821A58
:1016C000F0EE610A3EE001EE901AF8EE611A9FED2D
:1016D000422AC2EE211ADFF8D8452468E405E40D59
:1016E00002EE104AB8EE422ADFED382AC1EE222A75
:1016F00032EE222AF7EE002A32EE222A61EE821A18
:10170000F0EE610A1EE001EE901AF8EE611A9FED0C
:10171000312AC2EE211ADFF898452468E405E40D69
:1017200002EE104AB8EE422ADFED282AC1EE222A44
:1017300032EE222AF7EE002A32EE222A61EE821AD7
:10174000F0EE610ADFF868452468C4F3462401EE30
:10175000904AF8EE611AB7EE002A71EE821AC0EED6
:10176000A11AFCEEE11AC0ED001ADFF84445246826
:10177000C4F3064401EE904AF8EE611AB7EE002A6F
:1017800071EE821AC0EEA11AFCEEE11AC0ED011A48
:10179000DFF81C452468C4F3066401EE904AF8EEB5
:1017A000611AB7EE002A71EE821AC0EEA11AFCEEA1
:1017B000E11AC0ED021A05E0002404600024446030
:1017C0000024846030BC704750440258000000463A
:1017D0000024744C0024744A001BB74B4C4402583C
:1017E00000093D0030B4DFF8BC140A6812F00302AF
:1017F000DFF8B0140968C1F30511DFF8AC341B68D9
:1018000013F00103DFF8AC442468C4F3CC0404FBF8
:1018100003F401EE104AB8EE411A002900F0EE8000
:10182000002A03D0022A70D04FD38EE0774C246870
:10183000A4062AD5DFF88044744D2D68C5F3C10590
:10184000EC4001EE904AB0EE610AF8EE401A02EE6A
:10185000101AB8EE422AC1EE821ADFF860442468FA
:10186000E405E40D02EE104AB8EE422ADFED6B2AE1
:10187000C1EE222A32EE222AF7EE002A32EE222A86
:1018800061EE821AF0EE610A1EE001EE901AF8EEA7
:10189000611A9FED632AC2EE211ADFF82044246802
:1018A000E405E40D02EE104AB8EE422ADFED5B2AB1
:1018B000C1EE222A32EE222AF7EE002A32EE222A46
:1018C00061EE821AF0EE610A5EE001EE901AF8EE27
:1018D000611A9FED542AC2EE211ADFF8E043246812
:1018E000E405E40D02EE104AB8EE422ADFED4B2A81
:1018F000C1EE222A32EE222AF7EE002A32EE222A06
:1019000061EE821AF0EE610A3EE001EE901AF8EE06
:10191000611A9FED452AC2EE211ADFF8A043246820
:10192000E405E40D02EE104AB8EE422ADFED3B2A50
:10193000C1EE222A32EE222AF7EE002A32EE222AC5
:1019400061EE821AF0EE610A1EE001EE901AF8EEE6
:10195000611A9FED332AC2EE211ADFF86043246832
:10196000E405E40D02EE104AB8EE422ADFED2B2A20
:10197000C1EE222A32EE222AF7EE002A32EE222A85
:1019800061EE821AF0EE610ADFF830432468C4F396
:10199000462401EE904AF8EE611AB7EE002A71EE85
:1019A000821AC0EEA11AFCEEE11AC0ED001ADFF8AF
:1019B0000C432468C4F3064401EE904AF8EE611A21
:1019C000B7EE002A71EE821AC0EEA11AFCEEE11AFF
:1019D000C0ED011ADFF8E4422468C4F3066401EEA6
:1019E000904AF8EE611AB7EE002A71EE821AC0EE44
:1019F000A11AFCEEE11AC0ED021A05E00024046011
:101A0000002444600024846030BC704700440258C5
:101A10000090D00300366E010080BB00000000463D
:101A20000024744C0024744A001BB74B58440258DD
:101A30002DE9F04105000C0000269A48006810F0DE
:101A40000300032801D1012088E09D48006830F0A0
:101A500080609B49086000F035F9070098480068ED
:101A6000000106D500F02EF9C01B0328F6D3032091
:101A700074E08C48006830F47C30296850EA01300A
:101A8000884908606868401EC005C00DA968491EE5
:101A9000490211F47E410843E968491E090411F422
:101AA000FE0108432969491E090611F0FE41084359
:101AB0007B4908607C48016831F0C00168690143D6
:101AC000794801607848016831F02001A869014334
:101AD000754801607448006830F010007249086071
:101AE0006E4800686FF3CF00E96950EAC1006B49A6
:101AF00008606D48006850F010006B490860002CC9
:101B000006D16948006850F40020674908600EE07B
:101B1000012C06D16448006850F4801062490860C6
:101B200005E06148006850F400105F4908606448AF
:101B3000006850F080606249086000F0C3F8804699
:101B40005F480068000107D400F0BCF8B0EB080063
:101B50000328F5D3032001E03000C0B2BDE8F081D6
:101B600000000000548700082DE9F04105000C003A
:101B700000264C48006810F00300032801D1012022
:101B800088E04F48006830F080504D49086000F010
:101B900099F807004A480068800006D500F092F8DE
:101BA000C01B0328F6D3032074E03E48006830F0E1
:101BB0007C70296850EA01503A4908606868401E04
:101BC000C005C00DA968491E490211F47E410843B1
:101BD000E968491E090411F4FE0108432969491EF8
:101BE000090611F0FE410843314908602E4801689A
:101BF00031F44061686901432B4801602A4801685B
:101C000031F40071A8690143274801602648006843
:101C100030F4807024490860244800686FF3CF00D6
:101C2000E96950EAC100214908601F48006850F482
:101C300080701D490860002C06D11B48006850F4D4
:101C40008000194908600EE0012C06D11648006892
:101C500050F400001449086005E01348006850F093
:101C60008070114908601648006850F0805014498F
:101C7000086000F027F8804611480068800007D40B
:101C800000F020F8B0EB08000328F5D3032001E0B2
:101C90003000C0B2BDE8F081204402583C440258F4
:101CA00038440258284402582C44025844440258EC
:101CB00040440258344402580090D0033044025843
:101CC0000044025801480068704700BFAC0500207E
:101CD000F8B504000D00002C01D101207AE1DFF8F5
:101CE000A005006810F00F00A84211D2DFF890059F
:101CF0000068000900012843DFF884150860DFF858
:101D00008005006810F00F00A84201D0012061E1B9
:101D10002078400711D5DFF88405006810F07000C6
:101D20002169884209D2DFF87405016831F0700139
:101D300020690143DFF8640501602078000711D5B0
:101D4000DFF85C05006810F070006169884209D214
:101D5000DFF84C05016831F0700160690143DFF87C
:101D6000400501602078C00611D5DFF83405006811
:101D700010F4E060A169884209D2DFF82405016807
:101D800031F4E061A0690143DFF8140501602078B7
:101D9000800611D5DFF80C05006810F07000E169CD
:101DA000884209D2DFF8FC04016831F07001E06973
:101DB0000143DFF8F00401602078800711D5DFF8D7
:101DC000DC04006810F00F00E168884209D2DFF8F7
:101DD000CC04016809090901E0680143DFF8BC048B
:101DE00001602078C0074DD5DFF8B004016831F4F8
:101DF0007061A0680143DFF8A404016060680228F4
:101E000006D1DFF88004006880031CD40120E1E0E3
:101E10006068032806D1DFF86C040068800112D4E2
:101E20000120D7E06068012806D1DFF85804006877
:101E3000C00508D40120CDE0DFF848040068400761
:101E400001D40120C6E0DFF840040168C908C900D8
:101E500060680143DFF830040160FFF733FF0600DC
:101E6000DFF82404006810F038006168B0EBC10F9F
:101E700008D0FFF727FF801B41F289318842EFD35A
:101E80000320A7E02078800711D5E068DFF80C1464
:101E9000096811F00F01884209D2DFF800040168D7
:101EA00009090901E0680143DFF8F0030160DFF888
:101EB000D003006810F00F00854211D2DFF8C00394
:101EC0000068000900012843DFF8B4130860DFF858
:101ED000B003006810F00F00A84201D0012079E0A3
:101EE0002078400711D52069DFF8B013096811F098
:101EF0007001884209D2DFF8A403016831F0700153
:101F000020690143DFF8940301602078000711D5B0
:101F10006069DFF88C13096811F07001884209D2FA
:101F2000DFF87C03016831F0700160690143DFF87C
:101F3000700301602078C00611D5A069DFF8601336
:101F4000096811F4E061884209D2DFF8540301689E
:101F500031F4E061A0690143DFF8440301602078B7
:101F6000800611D5E069DFF83C13096811F07001B3
:101F7000884209D2DFF82C03016831F07001E06972
:101F80000143DFF82003016000F026F80700DFF8C6
:101F90002803DFF808130968C1F30321405C10F03F
:101FA0001F00C740DFF81003DFF8F012096811F0D6
:101FB0000F01405C10F01F003900C140DFF8D4026F
:101FC0000160DFF8CC020760DFF8CC02006800F0A7
:101FD00079F9C0B2F2BD000010B4DFF8AC020068BD
:101FE00010F03800002806D0082815D0102816D088
:101FF000182817D000E1DFF88C020068800608D5A9
:10200000DFF88802DFF87C422468C4F3C104E040B2
:1020100001E0DFF87802F0E0DFF8A002EDE0DFF8A1
:10202000A002EAE0DFF88002006810F0030002007E
:10203000DFF874020068C0F305100100DFF86C02DD
:10204000006810F001000300DFF868020068C0F3C8
:10205000CC0000FB03F002EE100AB8EE422AB0EE0C
:10206000421A002900F0C680002A03D0022A72D04A
:1020700051D38FE0DFF80C02006880062BD5DFF823
:102080000C02DFF800422468C4F3C104E04002EE11
:10209000100AF0EE420AB8EE602A02EE901AF8EE4C
:1020A000622A82EE222ADFF808020068C005C00D0D
:1020B00002EE900AF8EE622A9FED6D3A81EE033A45
:1020C00072EE832AB7EE003A72EE832A22EE222ABB
:1020D000F0EE421A1EE002EE101AB8EE422ADFEDD0
:1020E000652A82EE822ADFF8C8010068C005C00DAB
:1020F00002EE900AF8EE622A9FED5D3A81EE033A15
:1021000072EE832AB7EE003A72EE832A22EE222A7A
:10211000F0EE421A5CE002EE101AB8EE422ADFED51
:10212000562A82EE822ADFF888010068C005C00DB9
:1021300002EE900AF8EE622A9FED4D3A81EE033AE4
:1021400072EE832AB7EE003A72EE832A22EE222A3A
:10215000F0EE421A3CE002EE101AB8EE422ADFED31
:10216000472A82EE822A52480068C005C00D02EE5E
:10217000900AF8EE622A9FED3E3A81EE033A72EE43
:10218000832AB7EE003A72EE832A22EE222AF0EE7C
:10219000421A1DE002EE101AB8EE422ADFED362A8E
:1021A00082EE822A42480068C005C00D02EE900A05
:1021B000F8EE622A9FED2E3A81EE033A72EE832A00
:1021C000B7EE003A72EE832A22EE222AF0EE421A8D
:1021D00037480068C0F34620401C02EE100AB0EEFB
:1021E000420AB8EE402A81EE822ABCEEC22A12EEE2
:1021F000100A00E0002000E0304810BC704780B5B5
:10220000FFF7EAFE01002C48244A1268C2F30322B9
:10221000805C10F01F00C1402748204A126812F06D
:102220000F02805C10F01F000A00C24019480260D3
:10223000174801601748006802BD80B5FFF7DFFF4F
:102240001D49174A1268C2F30212895C11F01F017E
:10225000C84002BD80B5FFF7D2FF1749104A126887
:10226000C2F30222895C11F01F01C84002BD0000C8
:10227000000000460024744C0024744A001BB74B35
:102280000020005200440258104402580090D0032D
:10229000040000200800002000000020184402581C
:1022A0001C44025820440258284402582C44025826
:1022B00030440258344402585487000800093D0055
:1022C00000366E0110B5040011480078002801D1D5
:1022D00001201CE04FF47A700D490978B0FBF1F051
:1022E0000C490968B1FBF0F000F097F8002801D024
:1022F00001200CE0102C09D2002221005FF0FF30F9
:1023000000F079F804480460002000E0012010BDCE
:1023100044010020040000200000002010F007030A
:10232000DFF804110A684FF6FF010A4052EA03225F
:10233000DFF8F8100A43DFF8F0100A607047DFF8A2
:10234000E8000068C0F302207047000010B40200EB
:1023500012B2002A05D40A01354B040024B21A55E2
:1023600008E00A01334B040024B214F00F042344A4
:1023700003F8042C10BC704770B4030013F007047A
:10238000D4F10700052801D3042001E0D4F10700AF
:10239000251D072D01D2002500E0E51E012616FAB5
:1023A00000F0401E0140A940012010FA05F56D1E05
:1023B0002A401143080070BC704710B50400601E2D
:1023C000B0F1807F01D301200EE0601E1A49086041
:1023D0000F215FF0FF30FFF7B9FF002017490860B9
:1023E000072017490860002010BD10B50400200028
:1023F000FFF794FF10BDF8B504000D001600FFF7BD
:102400009EFF0700320029003800FFF7B5FF0100EA
:10241000200000B2FFF79AFFF1BD10B504002000C4
:10242000FFF7CBFF10BD00000CED00E00000FA0547
:1024300000E400E018ED00E014E000E018E000E047
:1024400010E000E02DE9F14FAEB09246049100217A
:10245000389A8DF8432099460D910BE01AF8011B2C
:1024600004982E9A90470028049000F06D860D98ED
:10247000401C0D909AF8000058B12528EED100219B
:1024800000220791089209910A920B910C92002068
:1024900004E00D9800F05ABE40F001001AF8011F48
:1024A0002029F9D023290CD02B2904D02D2905D09F
:1024B000302909D00BE040F00200EFE740F00400C3
:1024C000ECE740F00800E9E740F01000E6E72A29D1
:1024D0000FD1D9F8002052F8041BC9F800200029B8
:1024E0000F9103D549420F9140F004000AF1010A0F
:1024F00014E00F92DFF85C3C0AE00F99994205DA8C
:1025000001EB810402EB4402303A0F920AF1010A16
:102510009AF80020A2F130010A29EED39AF80010AF
:102520002E2903D04FF0FF320E922AE01AF8011F35
:102530002A2909D1D9F8001051F8042BC9F8001044
:102540000E920AF1010A1CE02D290CBF0AF1010AC2
:10255000002100220E92DFF8FC4B0CE00A0008D1AB
:102560000E9AA24205DA02EB820503EB4503303BEB
:102570000E930AF1010A9AF80030A3F130020A2AF8
:10258000ECD3ADF840000FF6D0309AF8001000F010
:102590002DFF08B11AF8010B8DF842009DF842009A
:1025A000682805D19AF8000068280CD1622106E05D
:1025B0006C2804BF9AF800006C2804D171218DF8B2
:1025C00042100AF1010A12A806901AF801BBBBF1E9
:1025D00025012CD01C3900F0D781091F022940F2B7
:1025E000D381133900F0E284093900F0CD81891ECE
:1025F00000F07785491E00F02485491E022940F22B
:10260000C381091F00F01D85491F00F03281491E5A
:1026100000F0CC84491E00F0D880C91E0DD0891E60
:1026200000F0C484C91E00F0C18400F065BD2523FC
:102630008DF84830012100F06ABDD9F8000050F84B
:10264000044BC9F80000002C059440F0AB809DF8C5
:102650004300002800F0A1804FF0FF340FF6003057
:1026600000F0D0FE201A40F06F8500F051BD01232C
:102670006A4602A9304600F043FE002840F0648517
:102680006D1EF4D12E96079D12AF75B12E9E17F8D0
:10269000012B02A9304600F023FE002801D46D1E54
:1026A000F5D100282E9640F04F850A9D3020002D50
:1026B0008DF800000CDD2E9E01236A4602A93046EB
:1026C00000F01EFE002840F03F856D1EF4D12E96CE
:1026D000059F089D75B12E9E17F8012B02A9304663
:1026E00000F0FEFD002801D46D1EF5D100282E96C5
:1026F00040F02A850B9D3020002D8DF800000CDD68
:102700002E9E01236A4602A9304600F0F9FD0028FA
:1027100040F01A856D1EF4D12E9605980899099DF2
:10272000471875B12E9E17F8012B02A9304600F00C
:10273000D7FD002801D46D1EF5D100282E9640F05B
:1027400003850C9D3020002D8DF800000CDD2E9EA1
:1027500001236A4602A9304600F0D2FD002840F06D
:10276000F3846D1EF4D12E969DF8400041077FF54D
:1027700081AE2020002C8DF800007FF77BAE2E9DCF
:1027800001236A4602A9284600F0BAFD002840F05D
:10279000DB84641EF4D12E956CE60FF6C4300590F0
:1027A00000F0B6BC0E9D002D04D5204600F04AFE78
:1027B000044607E02A46204600F060FE002814BFC9
:1027C000041B2C46089400F0A3BCD9F8001051F863
:1027D000040BC9F8001020F00004002121F0FF359F
:1027E00012ABCDE902450593DDE9022306993C24AD
:1027F00013B90AB90E98A8B102F00F053035641E5E
:10280000EEB23A2E08DA120942EA03721B090D559C
:1028100008BF002A02D105E02735F4E705980D1915
:10282000A842E9D308190590C4F13C020E98089219
:1028300082420ADABDF84010821A4FF6EF7001406A
:102840000A92ADF8401000F063BC002840F16084AB
:102850009DF8400000F01400102840F059840F9BB0
:1028600007990A985B1A1B1A9A1A002A40F3508497
:102870009AE39DF8430020B14FF0FF340FF6B020EB
:10288000EEE69DF84200622860D0682817D06A28DA
:102890003FD06C2806D0712847D074282CD07A28D5
:1028A0001DD062E0D9F8001051F8040BC9F80010EF
:1028B000002866D14FF0FF340FF68C20D0E6D9F80F
:1028C000001051F8040BC9F8001020B94FF0FF3484
:1028D0000FF67420C4E60D99018000F019BCD9F8F8
:1028E000001051F8040BC9F80010002849D14FF02E
:1028F000FF340FF65420B3E6D9F8001051F8040B5A
:10290000C9F8001000283CD14FF0FF340FF63820F2
:10291000A6E6D9F8001051F8040BC9F8001080B9E8
:102920004FF0FF340FF620209AE6D9F8001051F846
:10293000040BC9F8001020B94FF0FF340FF608203F
:102940008EE60D9AD317C0E90023E1E3D9F8001011
:1029500051F8040BC9F8001020B94FF0FF340FF6FE
:10296000E8107DE60D990170D2E3D9F8001051F816
:10297000040BC9F8001020B94FF0FF340FF6C8104F
:102980006EE60D990160C3E3D9F80020D21D22F054
:102990000702C9F80020D2E900010832C9F8002076
:1029A000CDE90201C80F02D007982D210AE0BDF839
:1029B0004000810702D507982B2103E0C00705D509
:1029C0000798202112AA1154401C079012A80799B9
:1029D000DDE9024543184BF020006128059321AE44
:1029E0000BD00E98002802D506200E9005E001BFFE
:1029F0004BF02000672801210E91DDE9020148001B
:102A00004015401C0A460DD109030BD0ABF16107FC
:102A100003201A2F089002D20FF648110DE00FF68E
:102A200048110AE070B912030CD1ABF16107032021
:102A30001A2F08901CD30FF638110322184600F005
:102A400049FD65E3DDE902016A4600F097FDCDE945
:102A500002014BF02000612811D10598302101704E
:102A6000821CBBF1610F05920CBF7821582102E056
:102A70000FF6F801E1E741700798801C0790DDE947
:102A8000020120F0000231F0004308BF002A02D109
:102A90000025002445E14BF02008B8F1610F40F01B
:102AA00095800E98002847BF21210191401C01907C
:102AB000019F7F1C2046294600220023DDE90245B4
:102AC00000F094FD00998DF8842038BF85F0004512
:102AD000091F002F00910DF1850034DD06462046C8
:102AE00029460022002300F09BFD2BD21C2200F07F
:102AF000B1FD04460D4600F02FFEFF1F002F80465B
:102B000009DD00F030FE02460B462046294600F063
:102B100031FE04460D46F01D0721B8F1000F0CDD13
:102B2000491E5EBF08F00F0200F8012D4FEA281879
:102B3000F3D502E0002200F8012D491EFAD5C61D8A
:102B4000002FCCDC30460DF18501401A0199054675
:102B50008842C8BF0D46002D0DF185062FD4854251
:102B600006DA0DF18500415D0829A8BF0F2000DAC3
:102B70000020294621AA0A4400E06D1E12F80139FE
:102B8000491E8342F9D00F2804D10DF18500425C23
:102B9000521C4254002904D50098001D21AE6D1C22
:102BA0000090681E0BD431180A783032D3B23A2B19
:102BB000A4BF5A443A3A401E01F80129F4D50E98B0
:102BC000002840F1AD80691E0E91A9E00099DFF860
:102BD000002747F29750414391FBF2F2009225F013
:102BE0000045C2F10702002A04DD2046294600F014
:102BF0004BFB0BE052420020DFF8D81600F044FBFC
:102C000002460B462046294600F0BDFD0446B8F1B9
:102C1000660F0E9806BF009F0A3706273F18142F2D
:102C2000C8BF142730208DF884000D460DF18500B3
:102C300000E03046002F35DD06462046294600F0EC
:102C4000ABFD01460A4606F1080304200A26B2FB42
:102C5000F6F606EB860EA2EB4E02303203F8012C9C
:102C60000A22B6FBF2F202EB820EA6EB4E063036DB
:102C7000401E03F8026DE9D1083F002F03F108065A
:102C8000D7DD084600F08FFD02460B462046294658
:102C900000F070FD0022DFF8403600F08BFD0446A6
:102CA0000D46CAE70DF18501401A0DF1850604E0D5
:102CB0000099491E401E0091761C31783029F7D0CA
:102CC000B8F1660F02D10099491C04E0B8F1650F14
:102CD0000CBF012100210E9D4D19A842B8BF451E11
:102CE000002D1DD4854204DA705D3428C8BF392018
:102CF00000DC30202946721E531800E06D1E13F8C8
:102D00000149491E8442F9D0392802D1705C401C27
:102D10007054002904D50098401C16466D1C009084
:102D2000009C00F051FD406A0778DDF8388028B239
:102D3000002802DC01250FF23C664BF020006628DB
:102D400008BF641C16D0672846D120B210F1040FCA
:102D500048DB404546DA9DF84000641C010703D477
:102D600028B24045D8BF804620B2B8EB000848BF23
:102D70004FF000080FFA84FBBBF1000F00F3B580A1
:102D80000898411C0891302205990A54B8F1000FA7
:102D900003DC9DF84000010704D50898411C089108
:102DA00005990F5418EB0B0FB8BFC8F1000424B2FB
:102DB00060420B90A0442AB29045B8BF4546059B9F
:102DC00008982DB209952A463146184400F082FB36
:102DD000A8EB05000C90D2E0BBF1610F17D14FF0CA
:102DE000700B19E028B2404504DA9DF840100A073C
:102DF00058BF8046B8F1010848BF4FF00008BBF14A
:102E0000670F14BF4FF0450B4FF0650B04E0BBF1AB
:102E1000410F08BF4FF0500B0898411C0891B8F1C2
:102E2000000F059916F8012B0A5403DC9DF84000A9
:102E300001071AD50898411C0891B8F1000F0599AF
:102E40000F5412DD6D1E28B280450598089BB8BF4F
:102E500045462AB23146184400F03CFB08992DB291
:102E600069180891A8EB05000B900598089908448B
:102E700021B2002980F800B003D42B224270821CBA
:102E800004E02D2242700C46821C644200212BABD0
:102E900020460AE004460A2094FBF0F000EB80058F
:102EA000A4EB450403F8014B491C00B20028F1DCF7
:102EB000012906DC4BF02000652804BF302002F811
:102EC000010B00292BAB08D1302002F8010B06E0E2
:102ED000491E585C303002F8010B0029F8DC0599D6
:102EE00008980844121A099249E028B221B288428F
:102EF0001CDA0598089B2AB23146184400F0EAFA19
:102F000008992DB269180891ABEB0500B8F1000FD4
:102F10000B9003DC9DF84000020704D50598475448
:102F20000999491C0991CDF8308028E00598089B43
:102F300022B23146184400F0CDFA08982D1B5844AF
:102F4000B8F1000F089003DC9DF840100A0703D584
:102F5000411C089105990F5428B280450598089B9B
:102F6000B8BF45462AB206EB0B01184400F0B2FA8E
:102F700008982DB228180890A8EB05000B909DF832
:102F8000400000F01400102840F0C280079A089911
:102F90000B988A18099982180C988A1882180F9829
:102FA000824280F2B580821A0A92B1E09DF8420016
:102FB000622808D068280ED06A2814D06C281FD048
:102FC000712810D01CE0D9F8001051F8040BC9F892
:102FD0000010C0B21AE0D9F8001051F8040BC9F87B
:102FE000001080B212E0D9F80020D21D22F00702B2
:102FF000C9F80020D2E900010832C9F8002006E033
:10300000D9F8001051F8040BC9F800100021CDE9DF
:1030100002019DF8400001075AD5DDE90223002B8B
:1030200008BF002A54D04BF02000782850D10798D0
:1030300012A930220A54401C431C079301F800B027
:1030400046E09DF84200622808D068280ED06A2821
:1030500014D06C281FD0712810D01CE0D9F80010B3
:1030600051F8040BC9F8001040B21AE0D9F800106A
:1030700051F8040BC9F8001000B212E0D9F8002092
:10308000D21D22F00702C9F80020D2E9000108325F
:10309000C9F8002006E0D9F8001051F8040BC9F86F
:1030A0000010C117CDE90201002902D507982D2192
:1030B0000AE0BDF84000810702D507982B2103E004
:1030C000C00705D50798202112AA1154401C07906B
:1030D00012A807990144059102A8594600F04EF83C
:1030E00016E001200790D9F8000050F8041BC9F839
:1030F00000008DF848100BE025210122BBF1000FE4
:103100008DF84810079203D08DF849B0022107913D
:103110000F9A07980A990C9C121A0898521A0B9940
:10312000121A0998521A121A9DF84000141B4107EE
:103130003FF5A9AA2020002C8DF800007FF7A3AA54
:103140002E9E2546FFF793BA4FF0FF302FB0BDE813
:10315000F08F0000CBCCCC0C686A6C747A4C000009
:103160007072696E74665F733A20626164202573C1
:1031700020617267756D656E740000002DE9FC4377
:1031800004466F29256908BF082605D041F02000B4
:10319000782814BF0A2610263C27D4E90023642986
:1031A00018BF69299046994605D1002B03D5D8F15F
:1031B000000869EB4909B9F1000F08BFB8F1000F29
:1031C0000CD1206B50B9082E3AD194F83800010781
:1031D00036D530203B2785F83B0031E08DF80010D4
:1031E000404649463246F31700F0F2FA3032D0B288
:1031F0007F1E3A2801970EDAEA5540464946324684
:10320000F31700F0E5FA80465FEA010908BFB8F15C
:10321000000F05D108E09DF800001218513AEBE7C5
:10322000E068E9198842DBD3082E09D194F8380008
:10323000010705D5E85D302802D07F1E3020E85513
:10324000C7F13C02A261E919E160206B824208DA11
:10325000821A22624FF6EF70218F01402187BDE86C
:10326000F38300280ED594F8380000F014001028DD
:1032700008D1636B6169206A5B1A1B1A9A1A002ACB
:10328000C8BF2262BDE8F3832DE9D04306460F464E
:1032900014464FF00008DFF8449012E0E00707D52D
:1032A00042464B463046394600F084FA06460F4601
:1032B0004046494642464B4600F07CFA6410804640
:1032C0008946002CEAD130463946BDE8D08300005B
:1032D000A08601000000F03F84D797410000244001
:1032E00010B503460C461146A0689847A06020B16F
:1032F000E06A401CE062002010BD4FF0FF3010BDBE
:10330000F8B505460E4617461C4600205CB117F876
:10331000011BB068A847B06030B1F06A401CF06291
:103320000020641EF3D1F2BD4FF0FF30F2BD00006B
:103330007072696E74665F733A20256E20646973DB
:10334000616C6C6F776564007072696E74663A20A8
:1033500062616420256E20617267756D656E740010
:10336000000000006E616E004E414E00696E660006
:10337000494E46003000F0B40246106895681318B4
:10338000506803EB5004C0071BD54D4419E013F8F7
:10339000017B05F8017B491EF9D190B113F8011B9F
:1033A000C6F38106032E08BF13F8016B01EB06215B
:1033B00049422944801C11F8016B05F8016B401E3D
:1033C000F9D1A3420ED013F8016B16F0030104BF2C
:1033D00013F8011BC91C30090F28DCD113F8010BAD
:1033E0000F30D8E7F0BC02F10C007047C9B2027888
:1033F0008A421AB11CBF10F8012FF9E718BF00204C
:1034000070472E0080B500B906A005490B681BB1B6
:1034100022220021984701E000F0F2FA222002BDAA
:10342000B0050020636F6E73747261696E742068FA
:10343000616E646C65723A20626164206D657373BD
:103440006167650000F10103810704D010F8011BDA
:10345000820781B1FAD10268A2F10131914311F0E2
:10346000803104BF50F8042FF6E709BAB1FA81F1B0
:1034700000EBD100401CC01A70470000C9B283079E
:1034800006D0521E22D310F8013B9942F7D11FE01B
:10349000083A13D302F1040241EA012141EA014151
:1034A00050F8043B121F21BF4B40A3F1013C2CEA12
:1034B000030C1CF0803FF3D0C9B2001F083210F893
:1034C000013B521E28BF91EA030FF8D818BF012014
:1034D000401E704762B38B0708D0521E11F8013BA3
:1034E00000F8013B00F024808B07F6D1830740F001
:1034F000208000BF103A07D330B4B1E83810103A3A
:10350000A0E83810F9D230BC530724BFB1E8081046
:10351000A0E8081044BF51F8043B40F8043BD20730
:1035200024BF31F8022B20F8022B44BF0B78037024
:103530007047121F17D35B0009D151F8043B20F8E4
:10354000023B1B0C121F20F8023BF6D20BE051F895
:10355000043B00F8013B1B0A20F8023B1B0C121F26
:1035600000F8013BF3D238BF121D521E24BF11F8E0
:10357000013B00F8013BF8D87047000010B5144635
:1035800000F002F8226010BDC1F30A5343B14A00B3
:1035900012F5001F28D2A3F2FE32A1EB02517047B0
:1035A00050EA410C20D001F0004C31EA0C01B1FA94
:1035B00081F204BFB0FA80F3D2180B3AB2F12003C3
:1035C0002CBF00FA03F1914041EA0C013EBFC2F169
:1035D000200C20FA0CF319439040524240F2FD3384
:1035E000D21A01EB035170470022704741EA030CE5
:1035F00050EA4C0C52EA0C0C4FF4001C09D307D0D3
:103600001CEB410F9CBF1CEB430F8B4208BF824257
:1036100070471CEB430FFBD8994208BF904270479C
:1036200041EA030C50EA4C0C52EA0C0C4FF4001C1B
:1036300009D307D01CEB410F9CBF1CEB430F9942F1
:1036400008BF904270471CEB410FFBD88B4208BF6C
:103650008242704741EC100B104600B500F004F8B0
:1036600051EC100B00BD0000020030EE101B40F2C8
:10367000FF7C37D41CEA115313D063456BD09B18E1
:10368000634504D201EB025120EE101B704701F09C
:10369000004141EA0C51002041EC100BAFF30080D7
:1036A000704710EE100B50EA410054D0B2F57F7F06
:1036B00008D202EB5C010905002041EC110B20EE61
:1036C000010B70474FF0FE41002341EC113B20EE0F
:1036D000010BB2F57E7230EE101B4FEA410342EB54
:1036E0005353CDE752421CEA115316D0634532D0F2
:1036F0009A4204D2A1EB025120EE101B70475B1ED0
:10370000D21AA1EB035120EE101B372A0CD3002054
:1037100001F0004141EC100BC0E710EE100B50EA35
:10372000410018D0372AF2D2C2EB5C02110500200A
:1037300041EC110BF1EE100A20F01F0121F4F851B9
:10374000E1EE101A20EE010BF1EE101AE1EE100A74
:1037500011F0080FA2D1704741EC100BBDEEC00B69
:1037600010EE100A704700EE100AB8EEC00B51ECD4
:10377000100B704741EC100B43EC112B30EE410B5A
:1037800051EC100B704741EC100B43EC112B80EE09
:10379000010B51EC100B704741EC100BBCEEC00B51
:1037A00010EE100A704700EE100AB8EE400B51EC14
:1037B000100B704741EC100B43EC112B20EE010B6A
:1037C00051EC100B70470000004870470C000020BF
:1037D000BBBBE1B1B2F5803F80F07E80022A1ED9EA
:1037E0008C46B1FBF2F102FB11C31B0443EA104308
:1037F000B3FBF2FC02FB1C3380B240EA0343B3FB91
:10380000F2F002FB103240EA0C4000237047022A1B
:1038100005D98446B0FBF2F002FB10C270474AB1F2
:1038200005D100F0010249085FEA3000704700222C
:103830000023704700F0E8B80B00020000210020D0
:103840007047904271EB030CF6D3B3F5803F2FD253
:10385000F0B5B3FA83F7B1FA81F4A7F10F0E3D1B6F
:103860005340CEF1200602FA0EF2F3415340B5F177
:103870000F0746D80F3C2C444140C4F12006A0401D
:10388000F1414140B1FBF3F603FB1611A2FB0645E3
:10389000001BA94102D2761E8018594180EA01021C
:1038A00021FA0EF362FA0EF200215A403046F0BDC2
:1038B00030B4B1FBF3FC03FB1C11A2FB0C45001B55
:1038C000A94103D2ACF1010C8018594130BC024629
:1038D0000B46604600217047B2F1807F65D3F0B59A
:1038E000B2FA82F7B1FA81F4C7F10F063D1B22FA52
:1038F00006F307F1110EF24120355A40B5F10F07DA
:10390000B8D94140C4F12006A040F1414140B1FB8B
:10391000F3FC03FB1C11A2FB0C45001BA94103D2C5
:10392000BCF1010C801859410F2F12D30F3FC9036E
:1039300041EA5041B1FBF3F603FB1611A2FB064529
:10394000D4EBC030A94102D2761E8018594146EA14
:10395000CC3C07B34140C7F12006B840F14141409B
:10396000B1FBF3F603FB1611A2FB0645001BA941B0
:1039700002D2761E8018594180EA010221FA0EF324
:10398000C7F1200462FA0EF20CFA07F05A402CFA42
:1039900004F13043F0BD80EA010221FA0EF3002168
:1039A00062FA0EF260465A40F0BD8C46B1FBF2F16D
:1039B00002FB11C31B0243EA1063B3FBF2FC02FBE0
:1039C0001C331B024CEA002043EA1063B3FBF2FCF9
:1039D00002FB1C331B024CEA002043EA1063B3FBDA
:1039E000F2FC02FB1C331B024CEA002043EA10638A
:1039F000B3FBF2FC02FB1C324CEA002000237047B0
:103A0000012000F003B800007047000080B500F00E
:103A100007F8024A11001820ABBEFBE7260002009F
:103A200010B500F03BF8020000230024E4431068C6
:103A3000A04203D011000220ABBE13605068A04228
:103A400003D0111D0220ABBE536010BDF0B583B092
:103A5000040000F023F8A10047183D680026F64353
:103A6000B54216D1AFF300803D68B5420FD100BF1B
:103A700009A00090002C01D1002000E0042001905A
:103A80000320029069460120ABBE05003D60AFF304
:103A90000080280003B0F0BD3A74740000487047FD
:103AA0003C01002010B50400002C01D1012037E0BA
:103AB000A0690028FFD1D4F88400002805D1002097
:103AC00084F88000200000F063FF2420C4F8840004
:103AD000206800684008400021680860200000F06D
:103AE00037F9012801D101201AE0A06A002802D08C
:103AF000200000F047FC2068406830F490402168C6
:103B000048602068806830F02A002168886020685A
:103B1000006850F0010021680860200000F09FFC60
:103B200010BD2DE9FC4706000D0017009846D6F899
:103B30008400202863D1002D03D0380080B20028F3
:103B400001D101205CE096F88000012801D102201B
:103B500056E0012086F880000020C6F88C00212065
:103B6000C6F88400FEF7AEF88146A6F85470A6F8B1
:103B70005670B068B0F5805F05D13069002802D179
:103B80000024AA4602E02C005FF0000A002086F81C
:103B90008000B6F85600002820D0CDF800804B46B3
:103BA00000228021300000F093FC002801D0032087
:103BB00026E0002C08D1BAF80000C005C00D31681D
:103BC00088621AF1020A03E0207831688862641C76
:103BD000B6F85600401EA6F85600DAE7CDF8008089
:103BE0004B4600224021300000F072FC002801D03A
:103BF000032005E02020C6F88400002000E0022019
:103C0000BDE8F6872DE9F84F83460D0016001F002A
:103C1000DBF88800202840F09880002D03D0300089
:103C200080B2002801D1012090E09BF8800001289B
:103C300001D102208AE001208BF880000020CBF81F
:103C40008C002220CBF888000020CBF86C00FEF717
:103C500039F88046ABF85C60ABF85E60DBF80800D2
:103C6000B0F5805F0CD1DBF81000002804D140F2E1
:103C7000FF10ABF8600027E0FF20ABF8600023E006
:103C8000DBF8080000280BD1DBF81000002803D176
:103C9000FF20ABF8600017E07F20ABF8600013E076
:103CA000DBF80800B0F1805F0BD1DBF810000028D2
:103CB00003D17F20ABF8600006E03F20ABF8600046
:103CC00002E00020ABF86000BBF86090DBF8080071
:103CD000B0F5805F06D1DBF81000002802D1002487
:103CE000AA4602E02C005FF0000A00208BF880005A
:103CF000BBF85E00002823D0009743460022202115
:103D0000584600F0E5FB002801D003201EE0002CFF
:103D100009D1DBF80000406A19EA0000AAF80000A7
:103D20001AF1020A06E0DBF80000406A19EA000016
:103D30002070641CBBF85E00401EABF85E00D7E745
:103D40002020CBF88800002000E00220BDE8F28FA0
:103D50002DE9F84F86B0040000262068DFF82C1803
:103D60008842FFD0A1682069014360690143E0698E
:103D7000014320680268DFF8180802400A432068FF
:103D800002602068426832F44052E06802432068D2
:103D90004260D4F818802068DFF8F027904202D003
:103DA000206A50EA080820688168DFF8E8070140C7
:103DB00058EA0101206881602068C16A0909090187
:103DC000606A01432068C1622068DFF8CC1788422E
:103DD0001FD1DFF8C807006810F0380000280AD0AB
:103DE00008280AD010280AD018280AD020280AD07B
:103DF00028280AD00BE0012770E104276EE108278C
:103E00006CE110276AE1202768E1402766E18027FE
:103E100064E12068DFF8881788421DD1DFF87C074D
:103E2000006810F00700002808D002280AD007D345
:103E300004280BD008D305280AD00BE000274DE159
:103E400004274BE1082749E1102747E1202745E1F6
:103E5000402743E1802741E12068DFF84817884286
:103E60001DD1DFF83807006810F00700002808D0DF
:103E700002280AD007D304280BD008D305280AD07B
:103E80000BE000272AE1042728E1082726E1102774
:103E900024E1202722E1402720E180271EE120683D
:103EA000DFF8041788421DD1DFF8F006006810F033
:103EB0000700002808D002280AD007D304280BD016
:103EC00008D305280AD00BE0002707E1042705E105
:103ED000082703E1102701E12027FFE04027FDE04C
:103EE0008027FBE02068DFF8C41688421DD1DFF888
:103EF000AC06006810F00700002808D002280AD09D
:103F000007D304280BD008D305280AD00BE00027DC
:103F1000E4E00427E2E00827E0E01027DEE02027C5
:103F2000DCE04027DAE08027D8E02068DFF8801660
:103F300088421FD1DFF86406006810F038000028BE
:103F40000AD008280AD010280AD018280AD0202819
:103F50000AD028280AD00BE00127BFE00427BDE0E3
:103F60000827BBE01027B9E02027B7E04027B5E0DD
:103F70008027B3E02068DFF83C1688421DD1DFF8C7
:103F80001C06006810F00700002808D002280AD09C
:103F900007D304280BD008D305280AD00BE000274C
:103FA0009CE004279AE0082798E0102796E0202755
:103FB00094E0402792E0802790E02068DFF8F81531
:103FC00088421DD1DFF8D405006810F007000028F2
:103FD00008D002280AD007D304280BD008D305281C
:103FE0000AD00BE0002779E0042777E0082775E086
:103FF000102773E0202771E040276FE080276DE0F5
:104000002068DFF8B81588421FD1DFF890050068F6
:1040100010F0380000280AD008280AD010280AD04A
:1040200018280AD020280AD028280AD00BE0012717
:1040300054E0042752E0082750E010274EE02027E4
:104040004CE040274AE0802748E02068DFF8701500
:1040500088421FD1DFF84405006810F038000028BE
:104060000AD008280AD010280AD018280AD02028F8
:104070000AD028280AD00BE001272FE004272DE0E2
:1040800008272BE0102729E0202727E0402725E0FC
:10409000802723E02068DFF8F41488421DD1DFF880
:1040A0002405006810F00700002808D002280AD074
:1040B00007D304280BD008D305280AD00BE0022729
:1040C0000CE004270AE0082708E0102706E0202774
:1040D00004E0402702E0802700E080272068DFF826
:1040E000AC14884273D13800C0B202280AD0042828
:1040F0000CD0082810D0102814D0202824D0402814
:1041000025D027E0FDF719F9814627E003A8FDF740
:1041100025F9DDF8109021E06846FDF73FFADDF85B
:1041200004901BE0DFF8A0040068800609D5DFF8E2
:104130009C94DFF894040068C0F3C10039FA00F9D8
:1041400001E0DFF8889409E0DFF8849406E04FF49A
:10415000004903E05FF0000901200600B9F1000FFB
:1041600000F00081DFF86C04616A30F81100B9FBDF
:10417000F0F082466168032041438A4505D36168B7
:104180004FF480504143514502D201200600E9E03E
:10419000DFF84004616A30F81100B9FBF0F24FF427
:1041A0008073606840080021E3FB0201626800231D
:1041B000FFF70EFB0500B5F5407F05D3B5F5801F71
:1041C00002D22068C560CDE001200600CAE0E069A7
:1041D000B0F5004F69D13800C0B200280CD00128DA
:1041E0000ED0042810D0082814D0102818D0202869
:1041F00028D0402829D02BE0FEF71FF881462BE07D
:10420000FEF728F8814627E003A8FDF7A7F8DDF8B8
:10421000109021E06846FDF7C1F9DDF804901BE03D
:10422000DFF8A4030068800609D5DFF8A093DFF863
:1042300098030068C0F3C10039FA00F901E0DFF823
:104240008C9309E0DFF8889306E04FF4004903E01F
:104250005FF0000901200600B9F1000F00F0828034
:10426000DFF87003616A30F81100B9FBF0F06168A3
:10427000490811EB40016068B1FBF0F080B2050025
:10428000102D0FD3B5F5803F0CD24FF6F0712940B9
:104290002800C0F3420001438B46584680B2216893
:1042A000C8605FE0012006005CE03800C0B2002872
:1042B0000CD001280ED0042810D0082814D01028C3
:1042C00018D0202828D0402829D02BE0FDF7B5FFB2
:1042D00081462BE0FDF7BEFF814627E003A8FDF7EE
:1042E0003DF8DDF8109021E06846FDF757F9DDF85C
:1042F00004901BE0DFF8D0020068800609D5DFF8E3
:10430000CC92DFF8C4020068C0F3C10039FA00F9AA
:1043100001E0DFF8B89209E0DFF8B49206E04FF46C
:10432000004903E05FF0000901200600B9F1000F29
:1043300018D0DFF8A002616A30F81100B9FBF0F084
:10434000616810EB51006168B0FBF1F080B20500CC
:10435000102D05D3B5F5803F02D22068C56001E07D
:10436000012006000120A4F86A000120A4F86800DA
:1043700000202067002060673000C0B207B0BDE8B1
:10438000F08F000090F82810C90707D501684A6827
:1043900032F40032C16A0A4301684A6090F828107A
:1043A000890707D501684A6832F48032016B0A43F5
:1043B00001684A6090F82810490707D501684A68E3
:1043C00032F48022416B0A4301684A6090F8281059
:1043D000090707D501684A6832F40042816B0A4335
:1043E00001684A6090F82810C90607D501688A68F4
:1043F00032F48052C16B0A4301688A6090F8281039
:10440000890607D501688A6832F40052016C0A43B4
:1044100001688A6090F82810490613D501684A6837
:1044200032F48012416C0A4301684A60416CB1F574
:10443000801F07D101684A6832F4C002816C0A43C8
:1044400001684A6090F82810090607D501684A6893
:1044500032F40022C16C0A4301684A60704738B5E3
:1044600004000020C4F88C00FDF72CFC0500206837
:10447000006800070DD57FF07E4000902B000022E1
:104480005FF40011200000F023F8002801D0032081
:104490001DE02068006840070DD57FF07E40009049
:1044A0002B0000225FF48001200000F011F80028AA
:1044B00001D003200BE02020C4F884002020C4F8A1
:1044C00088000020E066002084F88000002032BDD3
:1044D0002DE9F04105000E0090461F00069C28685B
:1044E000C0693040B04201D1012000E000204146C7
:1044F000C9B2884246D114F1010FF0D0FDF7E2FBBA
:10450000C01B844201D3002C16D12868006830F407
:10451000D0702968086028688068400840002968D1
:1045200088602020C5F884002020C5F8880000207D
:1045300085F88000032026E0286800684007CED573
:104540002868C0690005CAD54FF400602968086270
:104550002868006830F4D07029680860286880688E
:1045600040084000296888602020C5F88400202089
:10457000C5F888002020C5F88C00002085F8800050
:10458000032000E00020BDE8F0810000000C00588E
:10459000F369FFCFFFF4FF110010014054440258AB
:1045A0000044004000480040004C004000500040E3
:1045B0000014014000780040007C004000180140D9
:1045C000001C014058440258004402580090D00397
:1045D00000093D00E886000881B0DFF8E4040068C7
:1045E00050F00200DFF8D8140860DFF8D404006847
:1045F00010F002000090009801B0704710B5B4B000
:1046000004001422002101A800F07CFAB822002145
:1046100006A800F077FA2068DFF8A814884250D185
:104620005FF400200690202007908120089002204F
:10463000099002200A9002200B9040200C9000204C
:104640000D9000200E900020309006A8FBF72EFE63
:10465000002801D000F008FFDFF86C04006850F07B
:104660002000DFF864140860DFF85C04006810F0D4
:10467000200000900098DFF85404006850F0040017
:10468000DFF848140860DFF84404006810F0040004
:1046900000900098312001900320029000200390A8
:1046A00001A9DFF82C0400F0E1FE5FF080615FF00B
:1046B000806001F040F85FF000615FF0006001F0A1
:1046C0003AF834B010BD10B5B4B004001422002183
:1046D000684600F017FAB822002106A800F012FA86
:1046E0002068DFF8F013884257D14FF480500690CD
:1046F00000201E9006A8FBF7D9FD002801D000F08D
:10470000B3FEDFF8D403006850F48040DFF8C8132C
:104710000860DFF8C403006810F480400590059835
:10472000DFF8A803006850F00400DFF8A013086069
:10473000DFF89803006810F0040005900598DFF892
:104740008C03006850F00200DFF880130860DFF887
:104750007C03006810F0020005900598022000908C
:104760000220019000200290002003900520049078
:104770006946DFF85C0300F079FE4FF4C04000901A
:104780000220019000200290002003900520049058
:104790006946DFF8480300F069FE34B010BD81B00F
:1047A0000168DFF83C2391420FD1DFF83813096824
:1047B00051F00101DFF82C231160DFF8281309689C
:1047C00011F001010091009912E00168B1F1804FF0
:1047D0000ED1DFF80413096851F00101DFF8F82267
:1047E0001160DFF8F412096811F0010100910099DD
:1047F00001B0704710B586B004001422002168464D
:1048000000F080F92068DFF8E01288424AD1DFF832
:10481000C802006850F00200DFF8BC120860DFF840
:10482000B802006810F0020005900598DFF89C02BD
:10483000006850F00100DFF894120860DFF88C0285
:10484000006810F0010005900598DFF8800200680C
:1048500050F00200DFF874120860DFF870020068A0
:1048600010F0020005900598C020009002200190F1
:104870000020029000200390022004906946DFF897
:104880006C0200F0F3FD0320009002200190002054
:104890000290002003900220049069468F4800F0A7
:1048A000E5FD2AE020689249884226D18A480068BE
:1048B00050F00400884908608748006810F0040040
:1048C000059005988148006850F008007F4908600D
:1048D0007E48006810F00800059005984FF470407D
:1048E00000900220019000200290002003900220FE
:1048F000049069467F4800F0B9FD06B010BD10B5C0
:1049000086B0040014220021684600F0FBF82068FD
:10491000734988421BD16D48006850F010006B4904
:1049200008606A48006810F01000059005984FF480
:10493000804000900220019000200290002003900F
:104940000120049069466C4800F090FD1EE020684C
:10495000B0F1804F1AD15D48006850F002005B4909
:1049600008605A48006810F00200059005984FF45E
:10497000006000900220019000200290002003902F
:10498000012004906946554800F070FD06B010BD46
:1049900010B5B4B0040014220021684600F0B2F84B
:1049A000B822002106A800F0ADF8206853498842DB
:1049B0004DD1012006900020269006A8FBF776FC3A
:1049C000002801D000F050FD4648006850F010006B
:1049D000444908604348006810F0100005900598AD
:1049E0003A48006850F002003849086037480068CB
:1049F00010F00200059005983448006850F001005E
:104A0000324908603148006810F0010005900598AF
:104A10004FF40040009002200190002002900020FE
:104A200003900420049069462C4800F01FFD4FF4C9
:104A3000007000900220019000200290002003905E
:104A4000072004906946294800F010FD35E02068F1
:104A50002B49884231D1022006900020259006A8DB
:104A6000FBF724FC002801D000F0FEFC1A48006887
:104A700050F48020184908601748006810F480201E
:104A8000059005981148006850F008000F4908602B
:104A90000E48006810F00800059005984FF440702B
:104AA0000090022001900020029000200390072037
:104AB000049069460F4800F0D9FC34B010BD0000E6
:104AC00054450258002102403845025840450258DA
:104AD00000080258003800404845025800040258B7
:104AE00000000140504502580004004000000258F8
:104AF00000080040000C025800100258001001404D
:104B00000048004010B5044610460A4601462046BB
:104B100000F024FE204610BD2DE9F04104000D00F8
:104B2000160000272100DFF8D40800F04BFE5FF0EC
:104B30000008B04507DA15F80810A8A000F042FEFA
:104B400018F10108F5E7DAA000F03CFEBDE8F081BD
:104B500078B591B02022002101A8FFF7D3FF09A862
:104B6000DFF89C182022FEF7C5FC002400F0B4FDFD
:104B700000F063F800F0C6FB00F040FB00F0C6F860
:104B800000F02EF900F098F900F019FA00F06AFA36
:104B900000F0D4FA00F074FB0121DFF8680800F09F
:104BA00062FE0421DFF8600800F05DFE0025202D84
:104BB00004D2002001A948556D1CF8E7642000903C
:104BC000202301AA09A9DFF8440801F0A6FB20224E
:104BD00001A9DFF83C08FFF79FFF0026202E04D232
:104BE000002001A98855761CF8E7DFF8280800F0B6
:104BF000E9FD0024202C18D26423012209A800EB2F
:104C00000401DFF81408FEF78CFF6423012201A8D9
:104C100000EB0401DFF80008FEF7F4FF01A8015DD6
:104C2000A4A000F0CFFD641CE4E7A1A000F0CAFD41
:104C3000DFF8E80701F0EAFFB8E780B59CB04C2246
:104C4000002109A8FFF75EFF2022002101A8FFF73D
:104C500059FF042002F062FB00200090DFF8C0073B
:104C6000006830F44040DFF8B8170860DFF8B0079C
:104C7000006810F4404000900098DFF8A407006836
:104C80008004FAD5DFF89C07006880088000DFF810
:104C9000941708600220099001200C9040200D908C
:104CA00002201290002013900420149008201590E8
:104CB0000220169001201790022018900C201990C5
:104CC00000201A9000201B9009A802F075FB002814
:104CD00001D000F0C9FB3F2001900020029000208D
:104CE00003900020049040200590402006904FF44F
:104CF0008060079040200890022101A8FCF7E8FF9F
:104D0000002801D000F0B0FB1DB000BD00B587B099
:104D10001C2200216846FFF7F5FEDFF80C07DFF8DC
:104D2000FC1608600020DFF8F41648600020DFF869
:104D3000EC1688600020DFF8E416C8600420DFF875
:104D4000DC1608610020DFF8D41608750020DFF8B3
:104D5000CC1648750120DFF8C41688610020DFF802
:104D6000BC1608770020DFF8B41648620020DFF890
:104D7000AC1688620020DFF8A416C8620020DFF8B5
:104D80009C1608630020DFF8941648630020DFF8C3
:104D90008C1681F83800DFF8840601F034FE002814
:104DA00001D000F061FB012000900620019000205E
:104DB000029040F2FF7003900420049000200590C0
:104DC00000208DF819006946DFF8500601F0BCFF9D
:104DD000002801D000F048FB07B000BD2578200076
:104DE00080B5DFF84806DFF8241608605FF480001D
:104DF000DFF8181648600020DFF8101688600720DA
:104E0000DFF80816C8600020DFF8001608610020EF
:104E1000DFF8F81548615FF08060DFF8F015886111
:104E20005FF08050DFF8E415C8610020DFF8DC1582
:104E300008620020DFF8D41548620020DFF8CC15A6
:104E400088620020DFF8C415C8625FF08040DFF898
:104E5000BC1548630020DFF8B41588630020DFF834
:104E6000AC15C8630020DFF8A41508640020DFF843
:104E70009C1548640020DFF8941588640020DFF852
:104E80008C15C8640020DFF8841508650020DFF861
:104E90007C1548650020DFF874158865DFF86C051F
:104EA00001F07AF9002801D000F0DEFA01BD00001F
:104EB0000A0000002578000000B595B00C22002102
:104EC0006846FFF71FFE1C2200210EA8FFF71AFEFE
:104ED0002C22002103A8FFF715FEDFF85405DFF8A8
:104EE000541508600020DFF84C1548600020DFF8FA
:104EF000441588604FF6FF70DFF83815C860002051
:104F0000DFF8301508610020DFF82815486100201F
:104F1000DFF820158861DFF81C0500F067FC002829
:104F200001D000F0A1FA00200090002001900020A4
:104F300002906946DFF8FC0402F0C0FD002801D0B1
:104F400000F092FA60200E9000200F900020109048
:104F50000020129000201390002014900C220EA923
:104F6000DFF8D00400F0E5FD002801D000F07CFA65
:104F7000002003900020049000200590002006905F
:104F8000002007904FF40050089000200990002066
:104F90000A905FF000700B9000200C9000200D90A4
:104FA00003A9DFF8900402F0D8FD002801D000F03A
:104FB0005BFADFF88004FFF7A2FC15B000BD80B5F6
:104FC0008AB00C2200216846FFF79CFD1C220021BC
:104FD00003A8FFF797FD5FF08040DFF82C1408600E
:104FE0000020DFF8241448600020DFF81C148860DB
:104FF0005FF0FF30DFF81014C8600020DFF80814FD
:1050000008610020DFF800148861DFF8FC0300F07D
:10501000EDFB002801D000F027FA002000900020CE
:1050200002906946DFF8E00302F048FD002801D055
:1050300000F01AFA602003900020049000200590F0
:10504000002007900C2203A9DFF8BC0300F071FDDB
:10505000002801D000F008FADFF8AC03FFF74FFC9E
:105060000BB000BD00B587B00C22002104A8FFF7EB
:1050700049FD102200216846FFF744FDDFF8B80320
:10508000DFF8B81308600020DFF8B0134860002094
:10509000DFF8A81388604FF6FF70DFF8A013C86030
:1050A0000020DFF8981308610020DFF89013886172
:1050B000DFF8880300F098FC002801D000F0D4F954
:1050C000002004900020069004A9DFF8700302F08D
:1050D000F5FC002801D000F0C7F900200090012065
:1050E0000190002002900020039000226946DFF822
:1050F0004C0300F0B9FC002801D000F0B5F90422FF
:105100006946DFF8380300F0AFFC002801D000F05A
:10511000ABF908226946DFF8240300F0A5FC00285B
:1051200001D000F0A1F90C226946C44800F09CFCB3
:10513000002801D000F098F907B000BD00B587B095
:105140000C22002104A8FFF7DDFC10220021684694
:10515000FFF7D8FCBA48AB4908600020A94948606D
:105160000020A84988604FF6FF70A649C86000205B
:10517000A44908610020A3498861A24800F034FCDA
:10518000002801D000F070F9002004900020069063
:1051900004A99C4802F092FC002801D000F064F9B8
:1051A0000020009001200190002002900020039038
:1051B00000226946934800F057FC002801D000F017
:1051C00053F9042269468F4800F04EFC002801D0B4
:1051D00000F04AF9082269468A4800F045FC002898
:1051E00001D000F041F90C226946864800F03CFCF1
:1051F000002801D000F038F907B000BD80B5914813
:10520000854908605FF4E1308349486000208249A5
:10521000886000208049C86000207F4908610C2018
:105220007D49486100207C49886100207A49C86135
:1052300000207949086200207749486200207649B9
:1052400088627548FEF72EFC002801D000F00CF9AA
:105250000021714802F0FBFC002801D000F004F9A5
:1052600000216D4802F01EFD002801D000F0FCF87E
:10527000694802F0C9FC002801D000F0F5F801BD32
:1052800080B57148714908605FF4E1306F4948604A
:1052900000206E49886000206C49C86000206B497E
:1052A00008610C2069494861002068498861002034
:1052B0006649C86100206549086200206349486268
:1052C0000020624988626148FEF7ECFB002801D0AB
:1052D00000F0CAF800215D4802F0B9FC002801D0B6
:1052E00000F0C2F80021594802F0DCFC002801D08F
:1052F00000F0BAF8554802F087FC002801D000F011
:10530000B3F801BD80B586B0142200216846FFF7CE
:10531000F9FB4F48006850F010004D4908604C48B8
:10532000006810F01000059005984948006850F09A
:105330000400474908604648006810F004000590E2
:1053400005984348006850F0010041490860404812
:10535000006810F00100059005983D48006850F085
:1053600002003B4908603A48006810F002000590CE
:1053700005983748006850F00800354908603448FF
:10538000006810F008000590059849F6FF7000903D
:10539000002001900020029069462E4800F066F837
:1053A00040F638500090002001900020029069469D
:1053B000294800F05BF84FF4FE7000900020019047
:1053C000002002906946254800F050F84FF48050C4
:1053D000009000200190002002906946204800F0D3
:1053E00045F8782000900020019000200290694646
:1053F0001C4800F03BF807B000BD000080870008A3
:105400007486000858050020C004002068020020AF
:105410007487000888870008480100207003002076
:105420001848025828440258002102400038004021
:105430000000014074040020000400400C0500201E
:10544000000800400010014000480040D801002042
:10545000404502580010025800000258000402584B
:1054600000080258000C025872B6FEE7F8B40300B8
:105470000025DFF82C620868E840002800F00D8164
:1054800008680127AF4038400200002A00F003817D
:105490004868012808D04868022805D048681128C3
:1054A00002D04868122824D19F685FF0030C2800BE
:1054B000C0B240001CFA00FC37EA0C07D1F80CC05F
:1054C0002800C0B240001CFA00FC5CEA07079F609D
:1054D00058685FF0010C1CFA05FC30EA0C00D1F8AA
:1054E00004C0CCF3001C1CFA05FC5CEA00000400BC
:1054F0005C60DF685FF0030C2800C0B240001CFA5B
:1055000000FC37EA0C07D1F808C02800C0B2400000
:105510001CFA00FC5CEA0707DF604868022802D03A
:10552000486812281ED12800C00803EB8000046AD6
:105530005FF00F0C15F00700C0B280001CFA00FCF1
:1055400034EA0C04D1F810C015F00700C0B2800096
:105550001CFA00FC5CEA040427002800C00803EBE6
:10556000800007621C685FF0030C2800C0B2400096
:105570001CFA00FC34EA0C0491F804C01CF0030C83
:105580002800C0B240001CFA00FC5CEA04041C6065
:105590004868C00040F17F80DFF80801006850F0E3
:1055A0000200DFF800713860DFF8F800006810F0E2
:1055B000020000900098DFF8F0002F00BF0850F8BC
:1055C00027705FF00F0C15F00300C0B280001CFACA
:1055D00000FC37EA0C073548834201D100242DE056
:1055E0003348834201D1012428E03248834201D16B
:1055F000022423E03048834201D103241EE02F48D7
:10560000834201D1042419E02D48834201D10524AD
:1056100014E02C48834201D106240FE02A4883423B
:1056200001D107240AE02948834201D1082405E07A
:105630002748834201D1092400E00A2415F0030021
:10564000C0B280008440274317482C00A40840F8CB
:105650002470306890434C68E40300D510433060F8
:10566000746894434F68BF0300D5144374605FF0BF
:10567000B040006890434F68FF0200D510435FF0D0
:10568000B0442060134C246894434F68BF0200D597
:105690001443104804606D1CEDE6F1BC7047000037
:1056A0008000005854450258080400580000025871
:1056B0000004025800080258000C0258001002585A
:1056C0000014025800180258001C0258002002580A
:1056D000002402580400005810B50320FCF785FE92
:1056E000FCF77AFC0400DFF86000DFF8601009685E
:1056F000C1F30321405C10F01F00C440DFF84800F4
:10570000DFF84810096811F00F01405C10F01F002D
:105710002100C140DFF838000160DFF83800046084
:105720000020FCF7CFFD002801D0012002E0FEF7A9
:1057300053FF002010BDDFF82020126882430A4387
:10574000DFF814301A607047548700081844025874
:1057500008000020040000200404005862F30F2217
:1057600062F31F42401810F0030308D0C91A1FD378
:10577000DB0748BF00F8012D28BF20F8022D1300D9
:1057800030B414461546103928BF20E93C00FAD839
:10579000490728BF20E90C0048BF40F8042D8900C4
:1057A00028BF20F8022D48BF00F8012D30BC7047FB
:1057B000C91818BF00F8012DCB0728BF00F8012D2C
:1057C000704700000EB4C0B5024603A80021019046
:1057D000009101AB0121044878440C30FCF732FE03
:1057E00006BC5DF810FB00BF492F000010B5040097
:1057F000002C01D1012035E094F83D00002805D1AE
:10580000002084F83C002000FEF7C9FF022084F845
:105810003D00211D206800F039FA012084F848007D
:10582000012084F83E00012084F83F00012084F824
:105830004000012084F84100012084F8420001204A
:1058400084F84300012084F84400012084F84500D6
:10585000012084F84600012084F84700012084F8E4
:105860003D00002010BD70B505000C00002C02D1D9
:1058700095F83E0015E0042C02D195F83F0010E0A9
:10588000082C02D195F840000BE00C2C02D195F8C1
:10589000410006E0102C02D195F8420001E095F895
:1058A0004300012801D001208BE0002C04D102200C
:1058B00085F83E00C0B21FE0042C04D1022085F818
:1058C0003F00C0B218E0082C04D1022085F8400047
:1058D000C0B211E00C2C04D1022085F84100C0B206
:1058E0000AE0102C04D1022085F84200C0B203E087
:1058F000022085F84300C0B201222100286800F090
:1059000039FC2868DFF8BC10884213D02868DFF81B
:10591000B81088420ED02868DFF8C410884209D039
:105920002868DFF8C010884204D02868DFF8AC107F
:10593000884201D1012000E00020C0B2002805D03B
:105940002868406C50F40040296848642868DFF8F3
:10595000741088421CD02868B0F1804F18D0286895
:10596000DFF86810884213D02868DFF86410884296
:105970000ED02868DFF85C10884209D02868DFF86C
:105980004810884204D02868DFF84C10884211D1B2
:1059900028688168DFF8CC0001400E00062E0FD089
:1059A000B6F5803F0CD02868006850F001002968E7
:1059B000086005E02868006850F001002968086068
:1059C000002070BD000001400004014000040040C0
:1059D00000080040000C0040001800400048014052
:1059E000004001400044014010B50400002C01D1EA
:1059F000012035E094F83D00002805D1002084F80E
:105A00003C002000FEF7F6FE022084F83D00211D38
:105A1000206800F03BF9012084F84800012084F858
:105A20003E00012084F83F00012084F8400001205E
:105A300084F84100012084F84200012084F84300EA
:105A4000012084F84400012084F84500012084F8F6
:105A50004600012084F84700012084F83D00002022
:105A600010BD00000700010070B505000E00140015
:105A700095F83C00012801D1022059E0012085F869
:105A80003C00002C12D1F36872683168286800F07D
:105A9000D0FA2868806930F00C002968886128688D
:105AA0008169B0680143286881613DE0042C13D10D
:105AB000F36872683168286800F0F5FA2868806930
:105AC00030F440602968886128688069B16850EACC
:105AD00001202968886127E0082C12D1F3687268D8
