:020000040800F2
:10000000880B002425CA0008C5C70008C7C7000818
:10001000C9C70008CBC70008CDC700080000000012
:10002000000000000000000000000000CFC7000832
:10003000D1C7000800000000D3C70008D5C70008DA
:1000400075CA000879CA00087DCA000881CA00087C
:1000500085CA000889CA00088DCA000891CA00082C
:1000600095CA000899CA00089DCA0008DDC70008A3
:10007000E7C70008F1C70008A1CA0008A5CA000820
:10008000A9CA0008ADCA0008B1CA0008B5CA00086C
:10009000B9CA0008BDCA0008C1CA0008C5CA00081C
:1000A000C9CA0008CDCA0008D1CA0008D5CA0008CC
:1000B000D9CA0008FBC70008DDCA0008E1CA000869
:1000C000E5CA0008E9CA0008EDCA0008F1CA00083C
:1000D000F5CA000805C80008F9CA0008FDCA0008EA
:1000E00001CB000805CB000809CB00080DCB0008A8
:1000F00011CB000815CB00080FC8000819CB000869
:100100001DCB000821CB000825CB000829CB000817
:100110002DCB000831CB000835CB000839CB0008C7
:100120003DCB000841CB000845CB000849CB000877
:100130004DCB0008000000000000000051CB00087B
:1001400055CB000859CB00085DCB000861CB0008F7
:1001500065CB000869CB00086DCB000871CB0008A7
:1001600075CB000879CB00087DCB000881CB000857
:1001700085CB000889CB00088DCB0008000000006B
:1001800091CB000895CB000899CB00089DCB0008C7
:10019000A1CB0008A5CB0008A9CB0008ADCB000877
:1001A000B1CB0008B5CB0008B9CB0008BDCB000827
:1001B000C1CB0008C5CB0008C9CB0008CDCB0008D7
:1001C000D1CB0008D5CB00080000000000000000E3
:1001D0000000000000000000D9CB00080000000073
:1001E000000000000000000000000000000000000F
:1001F0000000000000000000DDCB0008E1CB00089B
:10020000E5CB0008E9CB000800000000EDCB0008BA
:10021000F1CB0008F5CB0008F9CB0008FDCB0008B6
:1002200001CC000805CC000809CC00080000000043
:100230000DCC000811CC00080000000015CC00080F
:1002400019CC00081DCC000821CC000825CC0008E2
:1002500029CC00082DCC000831CC000835CC000892
:1002600039CC00083DCC000841CC000845CC000842
:1002700049CC00084DCC000851CC0008000000001B
:1002800055CC000859CC0008000000005DCC0008E7
:100290000000000061CC000865CC000800000000F0
:1002A0000000000069CC00086DCC00082DE9F04189
:1002B000040002F0B9FA0700002C01D10120B2E2DB
:1002C0002068DFF8681588424AD02068DFF860159A
:1002D000884245D02068DFF85C15884240D020680D
:1002E000DFF8541588423BD02068DFF8501588426B
:1002F00036D02068DFF84815884231D02068DFF812
:10030000441588422CD02068DFF83C15884227D05D
:100310002068DFF83815884222D02068DFF83015D1
:1003200088421DD02068DFF82C15884218D020683C
:10033000DFF82415884213D02068DFF820158842A2
:100340000ED02068DFF81815884209D02068DFF841
:100350001415884204D02068DFF80C15884201D1BA
:10036000012000E00020C0B2002800F0E580606AB3
:100370000028002084F83400022084F8350020682A
:10038000DFF8A81488424AD02068DFF8A414884215
:1003900045D02068DFF89C14884240D02068DFF800
:1003A000981488423BD02068DFF89014884236D0F9
:1003B0002068DFF88C14884231D02068DFF884147C
:1003C00088422CD02068DFF88014884227D020682B
:1003D000DFF87814884222D02068DFF8741488424D
:1003E0001DD02068DFF86C14884218D02068DFF830
:1003F0006814884213D02068DFF8601488420ED059
:100400002068DFF85C14884209D02068DFF85414B3
:10041000884204D02068DFF85014884206D1206852
:100420000068400840002168086005E02068006816
:10043000400840002168086020680068C0070BD5AC
:1004400002F0F2F9C01B0628F6D3202060650320D5
:1004500084F835000120E6E120680168DFF80C042B
:100460000140A0680143E0680143206901436069DD
:100470000143A0690143E0690143206A0143606AC6
:10048000042803D1E06A0143206B014360682928F6
:1004900002D360682F2817D360683F2802D36068B2
:1004A000432811D36068472802D3606849280BD3DA
:1004B00060684F2802D36068532805D360687428A9
:1004C00004D36068782801D2012000E00020C0B287
:1004D000002801D051F48011206801602068D0F814
:1004E00014805FEAD8085FEAC808606A50EA080822
:1004F000606A042811D1A06A50EA0808E06A00285E
:100500000BD0200002F068F8002806D0402060657B
:10051000012084F83500012085E12068C0F81480AE
:10052000200001F0CBFF05003F2094F85C1011F093
:100530001F018840A860CCE02068DFF80C158842D5
:100540004AD02068DFF80415884245D02068DFF8DB
:100550000015884240D02068DFF8F81488423BD06C
:100560002068DFF8F414884236D02068DFF8EC14F5
:10057000884231D02068DFF8E81488422CD0206807
:10058000DFF8E014884227D02068DFF8DC148842C6
:1005900022D02068DFF8D41488421DD02068DFF80C
:1005A000D014884218D02068DFF8C814884213D0CD
:1005B0002068DFF8C41488420ED02068DFF8BC142D
:1005C000884209D02068DFF8B814884204D0206837
:1005D000DFF8B014884201D1012000E00020C0B251
:1005E00000286FD02068DFF88014884222D020686D
:1005F000DFF8781488421DD02068DFF87414884230
:1006000018D02068DFF86C14884213D02068DFF817
:10061000681488420ED02068DFF86014884209D040
:100620002068DFF85C14884204D02068DFF8541496
:10063000884201D1012000E00020C0B20028002043
:1006400084F83400022084F835002068D0F8008057
:100650006FF31018A068402801D1102006E0A068B0
:10066000802802D14FF4804000E0002050EA0808C2
:10067000E06858EAD008206958EAD008606958EA6A
:10068000D008A06958EAD008E06958EAD008206A82
:1006900058EA10182068C0F800802168DFF8E803E5
:1006A00041181420B1FBF0F08000E065200001F05B
:1006B00005FF0600012094F85C1011F01F0188402E
:1006C000706006E040206065032084F8350001205A
:1006D000A9E02068DFF85411884272D02068DFF862
:1006E000501188426DD02068DFF84811884268D0E8
:1006F0002068DFF84411884263D02068DFF83C119D
:1007000088425ED02068DFF83811884259D02068CE
:10071000DFF83011884254D02068DFF82C1188426D
:100720004FD02068DFF8241188424AD02068DFF8D3
:100730002011884245D02068DFF81811884240D047
:100740002068DFF8141188423BD02068DFF80C11D4
:10075000884236D02068DFF80811884231D02068FE
:10076000DFF8001188422CD02068DFF8FC108842A6
:1007700027D02068DFF8F012884222D02068DFF806
:10078000EC1288421DD02068DFF8E412884218D0AD
:100790002068DFF8E012884213D02068DFF8D81212
:1007A00088420ED02068DFF8D412884209D0206831
:1007B000DFF8CC12884204D02068DFF8C8128842E3
:1007C00001D1012000E00020C0B2002825D0200087
:1007D00001F04FFFA068802801D1002060602079DF
:1007E00000F0FF00216E0860A06E616E48606068D6
:1007F00000280CD06068092809D2200001F08FFF82
:100800000020E16E0860606F216F486005E0002005
:10081000E0660020206700206067002060650120FE
:1008200084F835000020BDE8F0810000100002408F
:100830002800024040000240580002407000024080
:1008400088000240A0000240B800024010040240AC
:100850002804024040040240580402407004024050
:1008600088040240A0040240B80402403F8010FE09
:100870002DE9F04104000D0016001F005FF0000894
:10088000002C01D10120DDE094F83400012801D1D1
:100890000220D7E0012084F8340094F835000128C4
:1008A00040F0C680022084F8350000206065206892
:1008B000DFF86C1588424AD02068DFF86815884256
:1008C00045D02068DFF86015884240D02068DFF806
:1008D0005C1588423BD02068DFF85415884236D03A
:1008E0002068DFF85015884231D02068DFF84815BD
:1008F00088422CD02068DFF84415884227D0206831
:10090000DFF83C15884222D02068DFF8381588428D
:100910001DD02068DFF83015884218D02068DFF835
:100920002C15884213D02068DFF8241588420ED099
:100930002068DFF82015884209D02068DFF81815F4
:10094000884204D02068DFF8E819884206D1206880
:100950000068400840002168086005E020680068E1
:1009600040084000216808603B0032002900200058
:1009700001F04AFC2068DFF8A81488424AD02068B9
:10098000DFF8A014884245D02068DFF89C14884224
:1009900040D02068DFF8941488423BD02068DFF80C
:1009A0009014884236D02068DFF88814884231D00D
:1009B0002068DFF8841488422CD02068DFF87C148B
:1009C000884227D02068DFF87814884222D0206837
:1009D000DFF8701488421DD02068DFF86C1488425C
:1009E00018D02068DFF86414884213D02068DFF83C
:1009F000601488420ED02068DFF85814884209D06D
:100A00002068DFF85414884204D02068DFF82019E9
:100A1000884206D12068006850F001002168086013
:100A20000EE02068006850F001002168086007E0CF
:100A3000002084F834004FF4006060650120804697
:100A40004046C0B2BDE8F081082C02481C2C024888
:100A5000302C0248442C0248582C02486C2C024886
:100A6000802C0248942C0248085402581C54025806
:100A70003054025844540258585402586C54025886
:100A80008054025894540258F8ABFDA72DE9F04168
:100A900004000D0016001F005FF00008002C01D1BB
:100AA0000120BAE194F83400012801D10220B4E118
:100AB000012084F8340094F83500012840F0A38127
:100AC000022084F83500002060652068DFF85013AC
:100AD00088424AD02068DFF84C13884245D020680D
:100AE000DFF84413884240D02068DFF84013884282
:100AF0003BD02068DFF83813884236D02068DFF812
:100B00003413884231D02068DFF82C1388422CD06F
:100B10002068DFF82813884227D02068DFF82013E8
:100B2000884222D02068DFF81C1388421DD020683C
:100B3000DFF81413884218D02068DFF810138842B9
:100B400013D02068DFF8081388420ED02068DFF841
:100B50000413884209D02068DFF8FC12884204D0D0
:100B60002068DFF8CC17884206D12068006840086A
:100B700040002168086005E02068006840084000E7
:100B8000216808603B0032002900200001F03CFB96
:100B90002068A34988423CD02068A249884238D0C6
:100BA0002068A149884234D02068A049884230D0CA
:100BB00020689F4988422CD020689E49884228D0CE
:100BC00020689D49884224D020689C49884220D0D2
:100BD00020689B4988421CD020689A49884218D0D6
:100BE00020689949884214D020689849884210D0DA
:100BF0002068974988420CD020689649884208D0DE
:100C000020689549884204D02068DFF8241788427C
:100C100001D1012000E00020C0B2002811D02068DE
:100C2000006830F01E0050F0160021680860206C4B
:100C3000002817D02068006850F00800216808607C
:100C400010E02068006830F00E0050F00A002168C3
:100C50000860206C002805D02068006850F004006F
:100C60002168086020686E49884264D020686D4918
:100C7000884260D020686C4988425CD020686B490B
:100C8000884258D020686A49884254D0206869490F
:100C9000884250D02068684988424CD02068674913
:100CA000884248D020686649884244D02068654917
:100CB000884240D02068644988423CD0206863491B
:100CC000884238D020686249884234D0206861491F
:100CD000884230D02068604988422CD02068DFF8F4
:100CE0005016884227D02068DFF84816884222D064
:100CF0002068DFF8441688421DD02068DFF83C16D3
:100D0000884218D02068DFF83816884213D020684F
:100D1000DFF8301688420ED02068DFF82C168842A3
:100D200009D02068DFF82416884204D02068DFF854
:100D30002016884201D1012000E00020C0B2002826
:100D400012D0206E0068C00305D5206E006850F4F4
:100D50008070216E0860E06E002805D0E06E0068AB
:100D600050F48070E16E086020682D4988423CD0C4
:100D700020682C49884238D020682B49884234D0DA
:100D800020682A49884230D02068294988422CD0DE
:100D900020682849884228D020682749884224D0E2
:100DA00020682649884220D02068254988421CD0E6
:100DB00020682449884218D020682349884214D0EA
:100DC00020682249884210D02068214988420CD0EE
:100DD00020682049884208D020681F49884204D0F2
:100DE0002068DFF84C15884206D12068006850F072
:100DF0000100216808600EE02068006850F00100E2
:100E00002168086007E0002084F834004FF4006097
:100E10006065012080464046C0B2BDE8F081000018
:100E200010000240280002404000024058000240EA
:100E30007000024088000240A0000240B80002405A
:100E400010040240280402404004024058040240BA
:100E50007004024088040240A00402402DE9F041E1
:100E6000040001F0E1FC0700002C01D101205DE24B
:100E700094F83500022806D080206065002084F8B0
:100E80003400012052E22068DFF80C1888424AD072
:100E90002068DFF80818884245D02068DFF800187D
:100EA000884240D02068DFF8FC1788423BD0206899
:100EB000DFF8F417884236D02068DFF8F017884250
:100EC00031D02068DFF8E81788422CD02068DFF89E
:100ED000E417884227D02068DFF8DC17884222D048
:100EE0002068DFF8D81788421DD02068DFF8D017B7
:100EF000884218D02068DFF8CC17884213D02068C9
:100F0000DFF8C41788420ED02068DFF8C017884287
:100F100009D02068DFF8B817884204D02068DFF8CD
:100F20001014884201D1012000E00020C0B2002846
:100F30000ED02068006830F01E002168086020682C
:100F4000406930F0800021684861D4F8008007E0F3
:100F50002068006830F00E0021680860D4F8008036
:100F60002068DFF83417884272D02068DFF82C1729
:100F700088426DD02068DFF82817884268D0206842
:100F8000DFF82017884263D02068DFF81C178842FA
:100F90005ED02068DFF81417884259D02068DFF847
:100FA0001017884254D02068DFF8081788424FD0C5
:100FB0002068DFF8041788424AD02068DFF8FC1662
:100FC000884245D02068DFF8F816884240D0206873
:100FD000DFF8F01688423BD02068DFF8EC16884234
:100FE00036D02068DFF8E416884231D02068DFF878
:100FF000E01688422CD02068DFF83413884227D0CE
:101000002068DFF83013884222D02068DFF82813E8
:1010100088421DD02068DFF82413884218D0206849
:10102000DFF81C13884213D02068DFF818138842B9
:101030000ED02068DFF81013884209D02068DFF84E
:101040000C13884204D02068DFF80413884201D1D1
:10105000012000E00020C0B2002805D0206E00680A
:1010600030F48070216E08602068DFF82C1688420A
:1010700049D02068DFF82416884244D02068DFF881
:10108000201688423FD02068DFF8181688423AD0F0
:101090002068DFF81416884235D02068DFF80C1677
:1010A000884230D02068DFF8081688422BD02068AC
:1010B000DFF80016884226D02068DFF8FC15884249
:1010C00021D02068DFF8F41588421CD02068DFF8B2
:1010D000F015884217D02068DFF8E815884212D052
:1010E0002068DFF8E41588420DD02068DFF8DC15B1
:1010F000884208D02068DFF8D815884203D02068DD
:101100008B49884206D12068006840084000216869
:10111000086005E020680068400840002168086019
:10112000D8F80000C0070ED501F07EFBC01B0628D2
:10113000F6D320206065002084F83400032084F872
:1011400035000120F2E02068DFF84C15884249D0D4
:101150002068DFF84815884244D02068DFF8401541
:1011600088423FD02068DFF83C1588423AD020689A
:10117000DFF83415884235D02068DFF83015884212
:1011800030D02068DFF8281588422BD02068DFF89F
:101190002415884226D02068DFF81C15884221D00B
:1011A0002068DFF8181588421CD02068DFF8101579
:1011B000884217D02068DFF80C15884212D02068CA
:1011C000DFF8041588420DD02068DFF8001588424A
:1011D00008D02068DFF8F814884203D0206854490A
:1011E000884201D1012000E00020C0B2002809D0CF
:1011F000A06D05003F2094F85C1011F01F0188409D
:10120000A86008E0A06D0600012094F85C1011F0C1
:101210001F01884070602068DFF87C14884269D024
:101220002068DFF87814884264D02068DFF87014F2
:1012300088425FD02068DFF86C1488425AD020685A
:10124000DFF86414884255D02068DFF860148842C3
:1012500050D02068DFF8581488424BD02068DFF85F
:101260005414884246D02068DFF84C14884241D09C
:101270002068DFF8481488423CD02068DFF840142A
:10128000884237D02068DFF83C14884232D020688A
:10129000DFF8341488422DD02068DFF830148842FB
:1012A00028D02068DFF82814884223D020682049FD
:1012B00088421FD020681F4988421BD020681E49E1
:1012C000884217D020681D49884213D020681C49E5
:1012D00088420FD020681B4988420BD020681A49E9
:1012E000884207D020681949884203D020681849ED
:1012F000884201D1012000E00020C0B200280ED0B9
:10130000A06E616E4860E06E002808D0E06E006854
:1013100030F48070E16E0860606F216F48600020DB
:1013200084F83400012084F835000020BDE8F08105
:10133000B8040240085402581C5402583054025851
:1013400044540258585402586C540258805402585D
:101350009454025838B50400002C01D101209AE1C0
:1013600094F83500022803D080206065012092E1C6
:101370002068DFF8241388424AD02068DFF81C1365
:10138000884245D02068DFF81813884240D0206892
:10139000DFF8101388423BD02068DFF80C13884236
:1013A00036D02068DFF80413884231D02068DFF897
:1013B000001388422CD02068DFF8F812884227D02A
:1013C0002068DFF8F412884222D02068DFF8EC129F
:1013D00088421DD02068DFF8E812884218D02068C3
:1013E000DFF8E012884213D02068DFF8DC12884270
:1013F0000ED02068DFF8D412884209D02068DFF8C8
:10140000D012884204D02068DFF8C812884201D187
:10141000012000E00020C0B2002850D0042084F851
:10142000350020689C4988423BD020689B4988420F
:1014300037D020689A49884233D020689949884239
:101440002FD02068984988422BD02068974988423D
:1014500027D020689649884223D020689549884241
:101460001FD02068944988421BD020689349884245
:1014700017D020689249884213D020689149884249
:101480000FD02068904988420BD020688F4988424D
:1014900007D020688E49884203D020688D49884251
:1014A00006D1206800684008400021680860F1E02B
:1014B000206800684008400021680860EAE0206871
:1014C000006830F00E002168086020687249884288
:1014D0003BD020687149884237D0206870498842E3
:1014E00033D020686F4988422FD020686E498842E7
:1014F0002BD020686D49884227D020686C498842EB
:1015000023D020686B4988421FD020686A498842EE
:101510001BD020686949884217D0206868498842F2
:1015200013D02068674988420FD0206866498842F6
:101530000BD020686549884207D0206864498842FA
:1015400003D020686349884206D1206800684008BB
:1015500040002168086005E02068006840084000FD
:101560002168086020684C49884263D020684B4954
:1015700088425FD020684A4988425BD02068494948
:10158000884257D020684849884253D0206847494C
:1015900088424FD02068464988424BD02068454950
:1015A000884247D020684449884243D02068434954
:1015B00088423FD02068424988423BD02068414958
:1015C000884237D020684049884233D020683F495C
:1015D00088422FD020683E4988422BD020683D4960
:1015E000884227D02068DFF8F010884222D0206897
:1015F000DFF8E81088421DD02068DFF8E410884248
:1016000018D02068DFF8DC10884213D02068DFF89B
:10161000D81088420ED02068DFF8D010884209D058
:101620002068DFF8CC10884204D02068DFF8C410AE
:10163000884201D1012000E00020C0B200281DD066
:10164000206E006830F48070216E0860A06D050087
:10165000012094F85C1011F01F0188406860A06EB2
:10166000616E4860E06E002808D0E06E006830F4DB
:101670008070E16E0860606F216F4860002084F820
:101680003400012084F83500206D002802D02000AD
:10169000216D8847002032BD100002402800024022
:1016A00040000240580002407000024088000240A2
:1016B000A0000240B800024010040240280402408A
:1016C0004004024058040240700402408804024072
:1016D000A0040240B8040240085402581C540258A6
:1016E0003054025844540258585402586C5402580A
:1016F00080540258945402582DE9FC4704000020FD
:101700000090DFF8C00A00684FF41651B0FBF1F604
:10171000A76DD4F85880D7F80090D8F800A02068BA
:10172000DFF8A41A88424AD02068DFF8A01A88425D
:1017300045D02068DFF8981A884240D02068DFF84A
:10174000941A88423BD02068DFF88C1A884236D041
:101750002068DFF8881A884231D02068DFF8801AC4
:1017600088422CD02068DFF87C1A884227D0206875
:10177000DFF8741A884222D02068DFF8701A884295
:101780001DD02068DFF8681A884218D02068DFF87A
:10179000641A884213D02068DFF85C1A88420ED0A1
:1017A0002068DFF8581A884209D02068DFF8501AFC
:1017B000884204D02068DFF84C1A884201D1012009
:1017C00000E00020C0B2002800F03083082094F828
:1017D0005C1011F01F01884019EA000F6BD02068DF
:1017E000DFF8E41988424AD02068DFF8E01988421F
:1017F00045D02068DFF8D819884240D02068DFF84B
:10180000D41988423BD02068DFF8CC19884236D002
:101810002068DFF8C819884231D02068DFF8C01985
:1018200088422CD02068DFF8BC19884227D0206875
:10183000DFF8B419884222D02068DFF8B019884256
:101840001DD02068DFF8A819884218D02068DFF87A
:10185000A419884213D02068DFF89C1988420ED062
:101860002068DFF89819884209D02068DFF89019BD
:10187000884204D02068DFF88C19884204D120689F
:10188000006810F0040003E02068006810F0080011
:10189000002810D02068006830F00400216808603B
:1018A000082094F85C1011F01F018840B860606D4A
:1018B00050F00100606594F85C0010F01F0049468C
:1018C000C140C80764D52068DFF8FC1888424AD0B8
:1018D0002068DFF8F818884245D02068DFF8F01853
:1018E000884240D02068DFF8EC1888423BD020685E
:1018F000DFF8E418884236D02068DFF8E018884224
:1019000031D02068DFF8D81888422CD02068DFF862
:10191000D418884227D02068DFF8CC18884222D01B
:101920002068DFF8C81888421DD02068DFF8C0188A
:10193000884218D02068DFF8BC18884213D020688D
:10194000DFF8B41888420ED02068DFF8B01888425B
:1019500009D02068DFF8A818884204D02068DFF892
:10196000A418884204D12068406910F0800002E089
:1019700020680068002000280AD0012094F85C103C
:1019800011F01F018840B860606D50F00200606582
:10199000042094F85C1011F01F01884019EA000F30
:1019A00064D02068DFF8201888424AD02068DFF829
:1019B0001C18884245D02068DFF81418884240D0AF
:1019C0002068DFF8101888423BD02068DFF808183C
:1019D000884236D02068DFF80418884231D0206869
:1019E000DFF8FC1788422CD02068DFF8F81788420F
:1019F00027D02068DFF8F017884222D02068DFF86F
:101A0000EC1788421DD02068DFF8E417884218D010
:101A10002068DFF8E017884213D02068DFF8D81775
:101A200088420ED02068DFF8D417884209D0206899
:101A3000DFF8CC17884204D02068DFF8C817884246
:101A400004D12068006810F0020002E020680068FD
:101A5000002000280AD0042094F85C1011F01F0127
:101A60008840B860606D50F004006065102094F804
:101A70005C1011F01F01884019EA000F00F0888007
:101A80002068DFF8441788424AD02068DFF83C1706
:101A9000884245D02068DFF83817884240D0206857
:101AA000DFF8301788423BD02068DFF82C178842D7
:101AB00036D02068DFF82417884231D02068DFF85C
:101AC000201788422CD02068DFF81817884227D0CA
:101AD0002068DFF81417884222D02068DFF80C173E
:101AE00088421DD02068DFF80817884218D0206887
:101AF000DFF80017884213D02068DFF8FC16884210
:101B00000ED02068DFF8F416884209D02068DFF88C
:101B1000F016884204D02068DFF8E816884204D125
:101B20002068006810F0080003E02068006810F0EA
:101B3000040000282CD0102094F85C1011F01F0134
:101B40008840B86020680068400311D520680068AC
:101B5000000306D4206C00281AD02000216C88478E
:101B600016E0A06C002813D02000A16C88470FE07D
:101B700020680068C00505D42068006830F00800BF
:101B800021680860206C002802D02000216C884762
:101B9000202094F85C1011F01F01884019EA000F12
:101BA00000F0BE802068DFF8201688424AD0206806
:101BB000DFF81816884245D02068DFF814168842EE
:101BC00040D02068DFF80C1688423BD02068DFF850
:101BD0000816884236D02068DFF80016884231D0D7
:101BE0002068DFF8FC1588422CD02068DFF8F41557
:101BF000884227D02068DFF8F015884222D020687C
:101C0000DFF8E81588421DD02068DFF8E415884227
:101C100018D02068DFF8DC15884213D02068DFF880
:101C2000D81588420ED02068DFF8D015884209D038
:101C30002068DFF8CC15884204D02068DFF8C4158E
:101C4000884204D12068006810F0100003E020688A
:101C5000006810F00200002862D0202094F85C1088
:101C600011F01F018840B86094F8350004282BD18A
:101C70002068006830F0160021680860206840691C
:101C800030F0800021684861206C002802D1A06CEF
:101C9000002805D02068006830F00800216808603E
:101CA0003F2094F85C1011F01F018840B8600020BC
:101CB00084F83400012084F83500206D002802D01B
:101CC0002000216D88477AE220680068400311D522
:101CD00020680068000306D4606C002820D0200033
:101CE000616C88471CE0E06B002819D02000E16B94
:101CF000884715E020680068C0050BD4206800689C
:101D000030F0100021680860002084F834000120C1
:101D100084F83500E06B002802D02000E16B884792
:101D2000606D002800F04B82606DC00776D50420FE
:101D300084F835002068DFF8901488424AD0206883
:101D4000DFF88814884245D02068DFF88414884280
:101D500040D02068DFF87C1488423BD02068DFF850
:101D60007814884236D02068DFF87014884231D069
:101D70002068DFF86C1488422CD02068DFF86414E7
:101D8000884227D02068DFF86014884222D020687B
:101D9000DFF8581488421DD02068DFF854148842B8
:101DA00018D02068DFF84C14884213D02068DFF880
:101DB000481488420ED02068DFF84014884209D0C9
:101DC0002068DFF83C14884204D02068DFF834141F
:101DD000884206D1206800684008400021680860F9
:101DE00005E020680068400840002168086000980D
:101DF000401C0090864203D320680068C007F6D4D8
:101E0000002084F8340020680068C00703D5032050
:101E100084F8350002E0012084F83500E06C0028E9
:101E200000F0CD812000E16C8847C8E12068DFF830
:101E3000681788424AD02068DFF86017884245D08A
:101E40002068DFF85C17884240D02068DFF854171C
:101E500088423BD02068DFF85017884236D020688F
:101E6000DFF84817884231D02068DFF844178842ED
:101E70002CD02068DFF83C17884227D02068DFF894
:101E80003817884222D02068DFF8301788421DD0EA
:101E90002068DFF82C17884218D02068DFF8241754
:101EA000884213D02068DFF8201788420ED02068BF
:101EB000DFF81817884209D02068DFF81417884225
:101EC00004D02068DFF80C17884201D1012000E01F
:101ED0000020C0B2002800F0728120680068050070
:101EE000042094F85C1011F01F0188401AEA000FDA
:101EF00074D0680772D5042094F85C1011F01F01AB
:101F00008840C8F80400280411D5E80307D4A06C61
:101F1000002800F054812000A16C88474FE1206C1C
:101F2000002800F04C812000216C884747E1A8067A
:101F30004CD42068A44988423BD02068A3498842F9
:101F400037D02068A249884233D02068A14988420E
:101F50002FD02068A04988422BD020689F49884212
:101F600027D020689E49884223D020689D49884216
:101F70001FD020689C4988421BD020689B4988421A
:101F800017D020689A49884213D02068994988421E
:101F90000FD02068984988420BD020689749884222
:101FA00007D020689649884203D020689549884226
:101FB00006D12068006830F008002168086005E05C
:101FC0002068006830F0040021680860206C002858
:101FD00000F0F5802000216C8847F0E0022094F8A2
:101FE0005C1011F01F0188401AEA000F79D0A80791
:101FF00077D5022094F85C1011F01F018840C8F8D2
:102000000400280411D5E80307D4606C002800F010
:10201000D6802000616C8847D1E0E06B002800F09A
:10202000CE802000E16B8847C9E0A80652D4206822
:10203000654988423BD020686449884237D020688F
:102040006349884233D02068624988422FD0206893
:10205000614988422BD020686049884227D0206897
:102060005F49884223D020685E4988421FD020689B
:102070005D4988421BD020685C49884217D020689F
:102080005B49884213D020685A4988420FD02068A3
:10209000594988420BD020685849884207D02068A7
:1020A0005749884203D020685649884206D12068A3
:1020B000006830F014002168086005E020680068BE
:1020C00030F00A0021680860002084F83400012004
:1020D00084F83500E06B002871D02000E16B884760
:1020E0006DE0082094F85C1011F01F0188401AEA96
:1020F000000F64D0280762D52068334988423BD05E
:1021000020683249884237D020683149884233D02C
:102110002068304988422FD020682F4988422BD030
:1021200020682E49884227D020682D49884223D034
:1021300020682C4988421FD020682B4988421BD038
:1021400020682A49884217D020682949884213D03C
:102150002068284988420FD02068274988420BD040
:1021600020682649884207D020682549884203D044
:1021700020682449884206D12068006830F01C009D
:102180002168086005E02068006830F00E002168D2
:102190000860012094F85C1011F01F018840C8F815
:1021A000040001206065002084F83400012084F8D8
:1021B0003500E06C002802D02000E16C8847BDE8C3
:1021C000F3870000100000241000024028000240A5
:1021D0004000024058000240700002408800024067
:1021E000A0000240B800024010040240280402404F
:1021F0004004024058040240700402408804024037
:10220000A0040240B8040240F0B4856D866D0468F5
:10221000DFF88C75BC4272D00468DFF88875BC4268
:102220006DD00468DFF88075BC4268D00468DFF8C0
:102230007C75BC4263D00468DFF87475BC425ED024
:102240000468DFF87075BC4259D00468DFF868751F
:10225000BC4254D00468DFF86475BC424FD00468B7
:10226000DFF85C75BC424AD00468DFF85875BC42A0
:1022700045D00468DFF85075BC4240D00468DFF8F0
:102280004C75BC423BD00468DFF84475BC4236D084
:102290000468DFF84075BC4231D00468DFF8387557
:1022A000BC422CD00468DFF83475BC4227D00468E7
:1022B000DFF80473BC4222D00468DFF80073BC422C
:1022C0001DD00468DFF8F872BC4218D00468DFF84B
:1022D000F472BC4213D00468DFF8EC72BC420ED03A
:1022E0000468DFF8E872BC4209D00468DFF8E072E5
:1022F000BC4204D00468DFF8E874BC4201D1012478
:1023000000E00024E4B2002C08D0846E476E7C60AC
:10231000C46E002C02D0446F076F7C600468DFF845
:102320008074BC424AD00468DFF87874BC4245D05F
:102330000468DFF87474BC4240D00468DFF86C7441
:10234000BC423BD00468DFF86874BC4236D00468F5
:10235000DFF86074BC4231D00468DFF85C74BC42C2
:102360002CD00468DFF85474BC4227D00468DFF82E
:102370005074BC4222D00468DFF84874BC421DD0BF
:102380000468DFF84474BC4218D00468DFF83C7479
:10239000BC4213D00468DFF83874BC420ED0046825
:1023A000DFF83074BC4209D00468DFF82C74BC42FA
:1023B00004D00468DFF82474BC4201D1012400E099
:1023C0000024E4B2002C1BD03F2490F85C7017F07E
:1023D0001F07BC40AC600468246834F4802407689C
:1023E0003C60046863608468402C04D10468A26087
:1023F0000468E16060E00468A1600468E2605BE09A
:102400000468654FBC423CD00468644FBC4238D07D
:102410000468634FBC4234D00468624FBC4230D081
:102420000468614FBC422CD00468604FBC4228D085
:1024300004685F4FBC4224D004685E4FBC4220D089
:1024400004685D4FBC421CD004685C4FBC4218D08D
:1024500004685B4FBC4214D004685A4FBC4210D091
:102460000468594FBC420CD00468584FBC4208D095
:102470000468574FBC4204D00468DFF86473BC4260
:1024800001D1012400E00024E4B2002C14D0012486
:1024900090F85C7017F01F07BC40746004686360BC
:1024A0008468402C04D10468A2600468E16003E001
:1024B0000468A1600468E260F0BC70470168DFF85E
:1024C000E022914241D00168DFF8D82291423CD00D
:1024D0000168DFF8D422914237D00168DFF8CC22BE
:1024E000914232D00168DFF8C82291422DD00168B4
:1024F000DFF8C022914228D00168DFF8BC22914267
:1025000023D00168AD4A91421FD00168AC4A914284
:102510001BD00168AB4A914217D00168AA4A914288
:1025200013D00168A94A91420FD00168A84A91428C
:102530000BD00168A74A914207D00168A64A914290
:1025400003D00168A54A914201D1012100E0002198
:10255000C9B2002918D0017801F0FF011039182202
:10256000B1FBF2F19F4A11F00703D25CC265042966
:1025700005D30268920A9202121D826508E0026881
:10258000920A9202826503E00168090A09028165E4
:10259000806D704700000000082C02481C2C024887
:1025A000302C0248442C0248582C02486C2C02481B
:1025B000802C0248942C0248085402581C5402589B
:1025C0003054025844540258585402586C5402581B
:1025D0008054025894540258020000209169002946
:1025E00017D1916A002905D0022903D008D3032905
:1025F0000DD00DE0D16AC90101D50121080036E0F6
:10260000D16AB1F1C07F01D1012108002FE02EE095
:102610002DE09169B1F5005F19D1916A002905D0CB
:10262000022903D005D3032909D00FE001210800B6
:102630001DE0D16AC90101D50121080017E0D16A66
:10264000B1F1C07F01D10121080010E00FE0916AD3
:102650000029022902D9C91E03D008E0012108007F
:1026600005E0D16AC90101D501210800FFE7C0B228
:10267000704710B4026801685B4B99421BD0016837
:102680005A4B994217D00168594B994213D00168AF
:10269000584B99420FD00168574B99420BD00168B3
:1026A000564B994207D00168554B994203D00168B7
:1026B0004B4B994201D1012100E00021C9B2002910
:1026C00012D0017801F0FF0108391423B1FBF3F3B4
:1026D0004C4911EB830101664B494166012413F01B
:1026E0001F018C40846618E0017801F0FF01103969
:1026F0001823B1FBF3F345498A4203D230498A4299
:1027000000D30833424911EB830101664149416618
:10271000012413F01F018C40846610BC70470179BE
:1027200001F0FF01002939D0092937D202682E4B68
:102730009A421BD002682D4B9A4217D002682C4B4C
:102740009A4213D002682B4B9A420FD002682A4B50
:102750009A420BD00268294B9A4207D00268284B54
:102760009A4203D002681E4B9A4201D1012200E036
:102770000022D2B2002A06D0274A12EB8102C2669A
:10278000264A026705E0264A12EB8102C266254A04
:102790000267012311F1FF02934043677047000075
:1027A0001000024028000240400002405800024051
:1027B0007000024088000240A0000240B8000240C1
:1027C0001004024028040240400402405804024021
:1027D0007004024088040240A0040240B804024091
:1027E0009454025858CA0008085402581C540258FD
:1027F0003054025844540258585402586C540258E9
:10280000805402580058025880580258B9040240B7
:102810000008024080080240FC5802584059025803
:10282000FC0802404009024001480068704700BFB0
:10283000780700242DE9F041040000275FF000082C
:102840002068000135D5A06E002809D0B0F5801FA2
:102850000FD0B0F5001F12D0B0F5401F16D016E013
:10286000DFF8840A006850F40030DFF87C1A086052
:102870000FE00221201D01F09FFB070009E002216B
:1028800014F1240001F034FC070002E001E0012013
:1028900007003800C0B200280AD1DFF8500A0168EA
:1028A00031F44011A06E0143DFF8400A016000E0FE
:1028B000B8462068C00533D5606D002806D00228D0
:1028C00013D00CD3042818D016D317E0DFF8180A59
:1028D000006850F40030DFF8101A086010E00021A2
:1028E000201D01F069FB07000AE0002114F124001B
:1028F00001F0FEFB070003E002E001E00120070019
:102900003800C0B200280AD1DFF8E0090168C90820
:10291000C900606D0143DFF8D409016000E0B846EA
:10292000206880053AD5A06D00280CD0402813D02F
:10293000802817D0C0281CD0B0F5807F1AD0B0F501
:10294000A07F18D018E0DFF8A009006850F400302C
:10295000DFF89419086011E00021201D01F02CFB24
:1029600007000BE0002114F1240001F0C1FB070077
:1029700004E003E002E001E0012007003800C0B2FB
:1029800000280AD1DFF86409016831F4E071A06D14
:102990000143DFF85809016000E0B84620684005AF
:1029A0003DD5E06D00280FD0B0F5007F15D0B0F513
:1029B000806F18D0B0F5C06F1CD0B0F5006F1AD082
:1029C000B0F5206F18D018E0DFF81C09006850F44B
:1029D0000030DFF81419086011E00021201D01F01B
:1029E000EBFA07000BE0002114F1240001F080FB5A
:1029F000070004E003E002E001E0012007003800E6
:102A0000C0B200280AD1DFF8E408016831F460613F
:102A1000E06D0143DFF8D408016000E0B8462068AB
:102A200080012CD5A06C002816D0102804D02028B6
:102A30000BD030280FD010E0DFF8AC08006850F45D
:102A40000030DFF8A418086009E00221201D01F021
:102A5000B3FA070003E002E001E0012007003800BC
:102A6000C0B200280AD1DFF88808016831F03001CF
:102A7000A06C0143DFF87808016000E0B8462068E8
:102A8000C00439D5206E00280CD0B0F5805F12D07C
:102A9000B0F5005F15D0B0F5405F19D0B0F5804FAC
:102AA00017D017E0DFF84008006850F40030DFF876
:102AB0003818086010E00021201D01F07DFA0700A1
:102AC0000AE0002114F1240001F012FB070003E0EA
:102AD00002E001E0012007003800C0B200280AD15E
:102AE000DFF80808016831F4E041206E0143DFF8A7
:102AF000FC07016000E0B8462068800435D5606EB0
:102B000000280FD0B0F5803F0DD0B0F5003F10D0B9
:102B1000B0F5403F14D0B0F5802F12D0B0F5A02F03
:102B200010D010E011E00121201D01F045FA07004E
:102B30000BE0012114F1240001F0DAFA070004E0AF
:102B400003E002E001E0012007003800C0B20028E5
:102B50000AD1DFF89807016831F4E021606E014383
:102B6000DFF88807016000E0B846206840043BD5E4
:102B7000D4F8AC00002812D0B0F1805F10D0B0F1D2
:102B8000005F13D0B0F1405F17D0B0F1804F15D087
:102B9000B0F1A04F13D0B0F1C04F11D011E012E04E
:102BA0000121201D01F008FA07000CE0012114F1B9
:102BB000240001F09DFA070005E004E003E002E0D4
:102BC00001E0012007003800C0B200280BD1DFF877
:102BD0002407016831F0E041D4F8AC000143DFF88C
:102BE0001407016000E0B846206800042BD5606F30
:102BF000002815D0B0F1805F03D0B0F1005F09D09C
:102C00000FE0DFF8E406006850F40030DFF8D81673
:102C1000086008E00121201D01F0CEF9070002E064
:102C200001E0012007003800C0B200280AD1DFF817
:102C3000BC06016831F04051606F0143DFF8AC061B
:102C4000016000E0B8462068C0012BD5606C002808
:102C500015D002280CD002D303280FD010E0DFF8E3
:102C60008806006850F40030DFF87C16086009E040
:102C70000221201D01F0A0F9070003E002E001E0BD
:102C8000012007003800C0B200280AD1DFF8600632
:102C9000016889088900606C0143DFF8540601600F
:102CA00000E0B8462068400240F18780DFF848061F
:102CB000006850F48070DFF840160860FFF7B4FD3C
:102CC0000600DFF834060068C00506D4FFF7ACFD47
:102CD000801B6528F5D3032007003800C0B2002808
:102CE0006AD1DFF81806006810F44070D4F8B0100C
:102CF00011F44071884218D0DFF80006006830F403
:102D000040700500DFF8F405006850F48030DFF80B
:102D1000EC150860DFF8E405006830F48030DFF877
:102D2000DC150860DFF8D4050560D4F8B000B0F514
:102D3000807F10D1FFF778FD0600DFF8C00500683E
:102D4000800708D4FFF770FD801B41F2893188426B
:102D5000F3D3032007003800C0B200282AD1D4F8EA
:102D6000B00010F44070B0F5407F0FD1DFF890054F
:102D7000006830F47C50D4F8B010DFF8882512EAEF
:102D800011121043DFF87815086007E0DFF87005CE
:102D9000006830F47C50DFF868150860DFF85C05E7
:102DA0000068D4F8B0100905090D0843DFF84C1588
:102DB000086002E0B84600E0B8462078C00732D587
:102DC000D4F8800000280AD0082809D010280DD097
:102DD000182812D0202811D0282810D010E011E097
:102DE0000121201D01F0E8F807000BE0012114F19A
:102DF000240001F07DF9070004E003E002E001E0B7
:102E0000012007003800C0B200280BD1DFF8F80419
:102E1000016831F03801D4F880000143DFF8E8049C
:102E2000016000E0B846207880072ED5E06F0028CA
:102E300008D002280DD006D3042812D010D30528BC
:102E400010D010E011E00121201D01F0B5F80700BD
:102E50000BE0012114F1240001F04AF9070004E01D
:102E600003E002E001E0012007003800C0B20028C2
:102E70000AD1DFF894040168C908C900E06F014372
:102E8000DFF88404016000E0B8462078400730D5C0
:102E9000D4F89800002808D002280DD006D30428C2
:102EA00012D010D3052810D010E011E00121201D10
:102EB00001F082F807000BE0012114F1240001F079
:102EC00017F9070004E003E002E001E00120070039
:102ED0003800C0B200280BD1DFF818040168C90817
:102EE000C900D4F898000143DFF80804016000E04D
:102EF000B8462078800637D5D4F8940000280FD043
:102F0000B0F1805F0DD0B0F1005F10D0B0F1405F44
:102F100014D0B0F1804F12D0B0F1A04F10D010E01B
:102F200011E00021201D01F047F807000BE002210D
:102F300014F1240001F0DCF8070004E003E002E0F3
:102F400001E0012007003800C0B200280BD1DFF8F3
:102F5000B803016831F0E041D4F894000143DFF890
:102F6000A803016000E0B8462078400637D5D4F8C1
:102F7000A00000280FD0B0F5806F0DD0B0F5006F25
:102F800010D0B0F5406F14D0B0F5805F12D0B0F51E
:102F9000A05F10D010E011E00021201D01F00CF81E
:102FA00007000BE0022114F1240001F0A1F8070052
:102FB00004E003E002E001E0012007003800C0B2B5
:102FC00000280BD1DFF82C03016831F4E051D4F86C
:102FD000A0000143DFF81C03016000E0B846207840
:102FE000000637D5D4F8A40000280FD0B0F5005F54
:102FF0000DD0B0F5804F10D0B0F5C04F14D0B0F563
:10300000004F12D0B0F5204F10D010E011E0002199
:10301000201D00F0D1FF07000BE0022114F1240075
:1030200001F066F8070004E003E002E001E001209F
:1030300007003800C0B200280BD1DFF8B8020168E1
:1030400031F46041D4F8A4000143DFF8A802016024
:1030500000E0B8462078000718D5D4F88800B0F50D
:10306000805F08D1022114F1240001F041F800280A
:1030700001D001208046DFF89002016831F4405110
:10308000D4F888000143DFF8800201602078C00690
:1030900018D5D4F89C00B0F5807F08D1022114F136
:1030A000240001F025F8002801D001208046DFF837
:1030B0004402016831F44071D4F89C000143DFF808
:1030C00034020160206800032BD5D4F8A800002842
:1030D00006D0B0F5803F09D0B0F5003F0DD00DE02F
:1030E0000021201D00F068FF070009E0022114F113
:1030F000240000F0FDFF070002E001E001200700CE
:103100003800C0B200280BD1DFF8E801016831F4C3
:103110004031D4F8A8000143DFF8D801016000E095
:10312000B846206840032DD5D4F88C00B0F5801F38
:1031300006D0B0F5001F0AD0B0F5401F0ED00EE04B
:103140006948006850F400306749086009E00121CF
:1031500014F1240000F0CCFF070002E001E00120A0
:1031600007003800C0B200280BD1DFF89C010168CD
:1031700031F44011D4F88C000143DFF88C01016078
:1031800000E0B8462068C00325D5E06C002803D0D5
:10319000B0F5803F07D00CE05348006850F4003091
:1031A0005149086007E00221201D00F005FF0700DB
:1031B00001E0012007003800C0B200280AD1DFF882
:1031C0003001016831F48031E06C0143DFF8200107
:1031D000016000E0B8462068800008D5022114F1A3
:1031E000240000F085FF002801D0012080462068DF
:1031F000800328D5D4F88400002812D0B0F5807F51
:1032000006D0B0F5007F0AD0B0F5407F08D009E0C5
:103210003548006850F400303349086004E003E0AA
:1032200002E001E0012007003800C0B2002809D107
:103230003548016831F44071D4F8840001433248C4
:10324000016000E0B8462068C00207D52748016841
:1032500021F00041A06F01432448016020688002F2
:1032600007D52248016831F08071E06E01431F48A4
:1032700001602068000507D51E48016831F0006133
:10328000206F01431B480160206840000CD51C489A
:10329000006830F400401A49086019480168D4F801
:1032A000B4000143164801602068002807D5104883
:1032B000016831F04051206D01430D4801602068E4
:1032C000000208D51048016831F44001D4F890009C
:1032D00001430D4801604046C0B2002801D10020E2
:1032E00000E00120BDE8F0812C440258504402580F
:1032F0004C4402585844025800480258704402583E
:1033000010440258CFFFFF0054440258F0B589B072
:103310000500B5F5807F65D1DFF8340A006810F04C
:1033200007000600002E06D0022E1CD00FD3042E5C
:1033300025D052D354E0DFF85C0C0068800104D53E
:1033400006A800F013FD079800E00020B7E2DFF8C0
:10335000440C0068000104D5684600F0C3FA0098E8
:1033600000E00020ABE2DFF82C0C0068800004D500
:1033700003A800F0D7FB039800E000209FE2DFF8ED
:10338000E409006810F040500400DFF8080C006801
:1033900040070AD5002C08D1DFF8FC0BDFF8F41B3E
:1033A0000968C1F3C101C84016E0DFF8E80B006806
:1033B000C00505D5B4F1805F02D1DFF8AC090BE0A0
:1033C000DFF8D00B0068800305D5B4F1005F02D1AF
:1033D000DFF8C80B00E0002071E2DFF8C40B6EE2FA
:1033E00000206CE2B5F5007F69D1DFF86409006860
:1033F00010F4E07006003000002809D0402813D0F7
:1034000080281DD0C02855D0B0F5807F24D054E04E
:10341000DFF8800B0068800104D506A800F0A6FC48
:10342000079800E000204AE2DFF8680B006800011E
:1034300004D5684600F056FA009800E000203EE20D
:10344000DFF8500B0068800004D503A800F06AFB89
:10345000039800E0002032E2DFF80809006810F06D
:1034600040500400DFF82C0B006840070AD5002C00
:1034700008D1DFF8240BDFF81C1B0968C1F3C10178
:10348000C84016E0DFF80C0B0068C00505D5B4F1A4
:10349000805F02D1DFF8D0080BE0DFF8F80A00689F
:1034A000800305D5B4F1005F02D1DFF8F00A00E037
:1034B000002004E2DFF8E80A01E20020FFE1B5F5B0
:1034C000806F6CD1DFF88808006810F46060060037
:1034D000300000280CD0B0F5007F15D0B0F5806F1B
:1034E0001ED0B0F5C06F55D0B0F5006F24D054E0B9
:1034F000DFF8A00A0068800104D506A800F036FCB9
:10350000079800E00020DAE1DFF8880A006800018F
:1035100004D5684600F0E6F9009800E00020CEE10E
:10352000DFF8700A0068800004D503A800F0FAFAFA
:10353000039800E00020C2E1DFF82808006810F0DE
:1035400040500400DFF84C0A006840070AD5002C00
:1035500008D1DFF8440ADFF83C1A0968C1F3C10159
:10356000C84016E0DFF82C0A0068C00505D5B4F1A4
:10357000805F02D1DFF8F0070BE0DFF8180A00687F
:10358000800305D5B4F1005F02D1DFF8100A00E036
:10359000002094E1DFF8080A91E100208FE1B5F501
:1035A000805F6CD1DFF8A807006810F4E0400700E6
:1035B000380000280CD0B0F5805F15D0B0F5005F62
:1035C0001ED0B0F5405F55D0B0F5804F24D054E008
:1035D000DFF8C0090068800104D506A800F0C6FB2A
:1035E000079800E000206AE1DFF8A8090068000100
:1035F00004D5684600F076F9009800E000205EE10E
:10360000DFF890090068800004D503A800F08AFA6A
:10361000039800E0002052E1DFF84807006810F04E
:1036200040500400DFF86C09006840070AD5002C00
:1036300008D1DFF86409DFF85C190968C1F3C1013A
:10364000C84016E0DFF84C090068C00505D5B4F1A4
:10365000805F02D1DFF810070BE0DFF8380900685F
:10366000800305D5B4F1005F02D1DFF8300900E036
:10367000002024E1DFF8280921E100201FE1B5F551
:10368000002F57D1DFF82C09006810F440300700F4
:103690003800002806D0B0F5803F0FD0B0F5003FCD
:1036A00018D045E0DFF8EC080068000104D5684652
:1036B00000F018F9009800E0002000E1DFF8D408DD
:1036C0000068800004D503A800F02CFA059800E0FB
:1036D0000020F4E0DFF88C06006810F04050040091
:1036E000DFF8B008006840070AD5002C08D1DFF8E1
:1036F000A808DFF8A0180968C1F3C101C84016E0A6
:10370000DFF890080068C00505D5B4F1805F02D1EC
:10371000DFF854060BE0DFF87C080068800305D56D
:10372000B4F1005F02D1DFF8740800E00020C6E0C9
:103730000020C4E0B5F5803F26D1DFF828060068F8
:1037400010F4803007003800002803D0B0F5803F27
:103750000CD017E0DFF83C080068800104D506A80B
:1037600000F004FB079800E00020A8E0DFF8240840
:103770000068000104D5684600F0B4F8029800E043
:1037800000209CE000209AE0B5F5804F5FD1DFF883
:103790002408006810F0E04007003800002812D02C
:1037A000B0F1805F12D0B0F1005F1BD0B0F1405F8C
:1037B00024D0B0F1804F31D0B0F1A04F38D0B0F16B
:1037C000C04F3FD041E000F07CF878E0DFF8C4075C
:1037D0000068000104D5684600F084F8019800E014
:1037E00000206CE0DFF8AC070068800004D503A877
:1037F00000F098F9049800E0002060E0DFF89407FA
:103800000068400708D5DFF89007DFF888170968D7
:10381000C1F3C101C84000E0002050E0DFF87407A8
:103820000068C00502D5DFF8400500E0002046E052
:10383000DFF860070068800302D5DFF8600700E06A
:1038400000203CE0DFF8580739E0002037E0B5F50C
:10385000004F33D1DFF8F804006810F04050070043
:103860003800002806D0B0F1805F0DD0B0F1005FC5
:1038700016D021E0DFF81C070068800302D5DFF8CE
:103880001C0700E000201AE0DFF80807006880014C
:1038900004D506A800F06AFA079800E000200EE0C0
:1038A000DFF8F0060068000104D5684600F01AF859
:1038B000019800E0002002E0002000E0002009B0B4
:1038C000F0BD80B500F059FFDFF82018DFF850296F
:1038D0001268C2F30212895C11F01F01C84002BDD8
:1038E0000000000030B48C490A6812F003028A49D3
:1038F0000968C1F305318A4B1B68C3F30013DFF875
:1039000024492468C4F3CC0404FB03F401EE104AF8
:10391000B8EE411A002900F0F080002A03D0022AF4
:1039200072D051D390E0DFF86C462468A4062BD502
:10393000DFF86446DFF85C562D68C5F3C105EC403E
:1039400001EE904AB0EE610AF8EE401A02EE101A4B
:10395000B8EE422AC1EE821ADFF8CC482468E405AA
:10396000E40D02EE104AB8EE422ADFED682AC1EEFD
:10397000222A32EE222AF7EE002A32EE222A61EEC5
:10398000821AF0EE610A1EE001EE901AF8EE611A5A
:103990009FED5F2AC2EE211ADFF88C482468E40507
:1039A000E40D02EE104AB8EE422ADFED582AC1EECD
:1039B000222A32EE222AF7EE002A32EE222A61EE85
:1039C000821AF0EE610A5EE001EE901AF8EE611ADA
:1039D0009FED502AC2EE211ADFF84C482468E40516
:1039E000E40D02EE104AB8EE422ADFED482AC1EE9D
:1039F000222A32EE222AF7EE002A32EE222A61EE45
:103A0000821AF0EE610A3EE001EE901AF8EE611AB9
:103A10009FED422AC2EE211ADFF80C482468E40523
:103A2000E40D02EE104AB8EE422ADFED382AC1EE6C
:103A3000222A32EE222AF7EE002A32EE222A61EE04
:103A4000821AF0EE610A1EE001EE901AF8EE611A99
:103A50009FED302AC2EE211ADFF8CC472468E40536
:103A6000E40D02EE104AB8EE422ADFED282AC1EE3C
:103A7000222A32EE222AF7EE002A32EE222A61EEC4
:103A8000821AF0EE610ADFF8A0472468C4F34624E6
:103A900001EE904AF8EE611AB7EE002A71EE821A32
:103AA000C0EEA11AFCEEE11AC0ED001ADFF878476B
:103AB0002468C4F3064401EE904AF8EE611AB7EEAA
:103AC000002A71EE821AC0EEA11AFCEEE11AC0EDD6
:103AD000011ADFF854472468C4F3066401EE904AE3
:103AE000F8EE611AB7EE002A71EE821AC0EEA11A42
:103AF000FCEEE11AC0ED021A05E000240460002487
:103B000044600024846030BC704700000000004620
:103B10000024744C0024744A28440258001BB74BFC
:103B20002C44025830B4DFF804170A6812F003027C
:103B3000DFF8F8160968C1F30551DFF8F4361B68A1
:103B4000C3F30023DFF8EC462468C4F3CC0404FB81
:103B500003F401EE104AB8EE411A002900F0F0809B
:103B6000002A03D0022A72D051D390E0DFF8244417
:103B70002468A4062BD5DFF82044DFF818542D68FC
:103B8000C5F3C105EC4001EE904AB0EE610AF8EED3
:103B9000401A02EE101AB8EE422AC1EE821ADFF87D
:103BA00098462468E405E40D02EE104AB8EE422A75
:103BB000DFED682AC1EE222A32EE222AF7EE002A31
:103BC00032EE222A61EE821AF0EE610A1EE001EE68
:103BD000901AF8EE611A9FED602AC2EE211ADFF802
:103BE00058462468E405E40D02EE104AB8EE422A75
:103BF000DFED582AC1EE222A32EE222AF7EE002A01
:103C000032EE222A61EE821AF0EE610A5EE001EEE7
:103C1000901AF8EE611A9FED512AC2EE211ADFF8D0
:103C200018462468E405E40D02EE104AB8EE422A74
:103C3000DFED482AC1EE222A32EE222AF7EE002AD0
:103C400032EE222A61EE821AF0EE610A3EE001EEC7
:103C5000901AF8EE611A9FED422AC2EE211ADFF89F
:103C6000D8452468E405E40D02EE104AB8EE422A75
:103C7000DFED382AC1EE222A32EE222AF7EE002AA0
:103C800032EE222A61EE821AF0EE610A1EE001EEA7
:103C9000901AF8EE611A9FED312AC2EE211ADFF870
:103CA00098452468E405E40D02EE104AB8EE422A75
:103CB000DFED282AC1EE222A32EE222AF7EE002A70
:103CC00032EE222A61EE821AF0EE610ADFF86845D0
:103CD0002468C4F3462401EE904AF8EE611AB7EE68
:103CE000002A71EE821AC0EEA11AFCEEE11AC0EDB4
:103CF000001ADFF844452468C4F3064401EE904AF4
:103D0000F8EE611AB7EE002A71EE821AC0EEA11A1F
:103D1000FCEEE11AC0ED011ADFF81C452468C4F37B
:103D2000066401EE904AF8EE611AB7EE002A71EED1
:103D3000821AC0EEA11AFCEEE11AC0ED021A05E0EB
:103D400000240460002444600024846030BC704778
:103D500050440258000000460024744C0024744A69
:103D6000001BB74B4C44025800093D0030B4DFF84B
:103D7000BC140A6812F00302DFF8B0140968C1F33A
:103D80000511DFF8AC341B6813F00103DFF8AC4415
:103D90002468C4F3CC0404FB03F401EE104AB8EE2B
:103DA000411A002900F0EE80002A03D0022A70D0C8
:103DB0004FD38EE0774C2468A4062AD5DFF88044E0
:103DC000744D2D68C5F3C105EC4001EE904AB0EE8C
:103DD000610AF8EE401A02EE101AB8EE422AC1EE5D
:103DE000821ADFF860442468E405E40D02EE104A0C
:103DF000B8EE422ADFED6B2AC1EE222A32EE222AE9
:103E0000F7EE002A32EE222A61EE821AF0EE610A03
:103E10001EE001EE901AF8EE611A9FED632AC2EEE1
:103E2000211ADFF820442468E405E40D02EE104A6C
:103E3000B8EE422ADFED5B2AC1EE222A32EE222AB8
:103E4000F7EE002A32EE222A61EE821AF0EE610AC3
:103E50005EE001EE901AF8EE611A9FED542AC2EE70
:103E6000211ADFF8E0432468E405E40D02EE104A6D
:103E7000B8EE422ADFED4B2AC1EE222A32EE222A88
:103E8000F7EE002A32EE222A61EE821AF0EE610A83
:103E90003EE001EE901AF8EE611A9FED452AC2EE5F
:103EA000211ADFF8A0432468E405E40D02EE104A6D
:103EB000B8EE422ADFED3B2AC1EE222A32EE222A58
:103EC000F7EE002A32EE222A61EE821AF0EE610A43
:103ED0001EE001EE901AF8EE611A9FED332AC2EE51
:103EE000211ADFF860432468E405E40D02EE104A6D
:103EF000B8EE422ADFED2B2AC1EE222A32EE222A28
:103F0000F7EE002A32EE222A61EE821AF0EE610A02
:103F1000DFF830432468C4F3462401EE904AF8EEFB
:103F2000611AB7EE002A71EE821AC0EEA11AFCEEF9
:103F3000E11AC0ED001ADFF80C432468C4F306440C
:103F400001EE904AF8EE611AB7EE002A71EE821A7D
:103F5000C0EEA11AFCEEE11AC0ED011ADFF8E4424E
:103F60002468C4F3066401EE904AF8EE611AB7EED5
:103F7000002A71EE821AC0EEA11AFCEEE11AC0ED21
:103F8000021A05E0002404600024446000248460D8
:103F900030BC7047004402580090D00300366E01D8
:103FA0000080BB00000000460024744C0024744ACA
:103FB000001BB74B584402582DE9F04105000C0096
:103FC00000269A48006810F00300032801D1012060
:103FD00088E09D48006830F080609B490860FEF7EB
:103FE00023FC070098480068000106D5FEF71CFC7A
:103FF000C01B0328F6D3032074E08C48006830F41B
:104000007C30296850EA0130884908606868401EA1
:10401000C005C00DA968491E490211F47E4108433C
:10402000E968491E090411F4FE0108432969491E83
:10403000090611F0FE4108437B4908607C4801688D
:1040400031F0C0016869014379480160784801682E
:1040500031F02001A8690143754801607448006887
:1040600030F01000724908606E4800686FF3CF00AE
:10407000E96950EAC1006B4908606D48006850F07A
:1040800010006B490860002C06D16948006850F4A4
:104090000020674908600EE0012C06D164480068E2
:1040A00050F480106249086005E06148006850F4EF
:1040B00000105F4908606448006850F08060624901
:1040C0000860FEF7B1FB80465F480068000107D436
:1040D000FEF7AAFBB0EB08000328F5D3032001E0AC
:1040E0003000C0B2BDE8F0810000000014CA000832
:1040F0002DE9F04105000C0000264C48006810F046
:104100000300032801D1012088E04F48006830F007
:1041100080504D490860FEF787FB07004A48006859
:10412000800006D5FEF780FBC01B0328F6D30320D2
:1041300074E03E48006830F07C70296850EA015015
:104140003A4908606868401EC005C00DA968491E4C
:10415000490211F47E410843E968491E090411F43B
:10416000FE0108432969491E090611F0FE41084372
:10417000314908602E48016831F4406168690143A3
:104180002B4801602A48016831F40071A869014395
:10419000274801602648006830F480702449086090
:1041A000244800686FF3CF00E96950EAC100214953
:1041B00008601F48006850F480701D490860002C9A
:1041C00006D11B48006850F48000194908600EE0D1
:1041D000012C06D11648006850F40000144908600C
:1041E00005E01348006850F08070114908601648D7
:1041F000006850F0805014490860FEF715FB8046B7
:1042000011480068800007D4FEF70EFBB0EB0800F1
:104210000328F5D3032001E03000C0B2BDE8F081EF
:10422000204402583C44025838440258284402585A
:104230002C44025844440258404402583444025822
:104240000090D0033044025800440258F8B50400EE
:104250000D00002C01D101207AE1DFF8A0050068F3
:1042600010F00F00A84211D2DFF890050068000995
:1042700000012843DFF884150860DFF88005006836
:1042800010F00F00A84201D0012061E12078400722
:1042900011D5DFF88405006810F0700021698842AC
:1042A00009D2DFF87405016831F07001206901431B
:1042B000DFF8640501602078000711D5DFF85C05A0
:1042C000006810F070006169884209D2DFF84C057F
:1042D000016831F0700160690143DFF84005016059
:1042E0002078C00611D5DFF83405006810F4E060CE
:1042F000A169884209D2DFF82405016831F4E06140
:10430000A0690143DFF8140501602078800611D50B
:10431000DFF80C05006810F07000E169884209D2EE
:10432000DFF8FC04016831F07001E0690143DFF857
:10433000F00401602078800711D5DFF8DC04006804
:1043400010F00F00E168884209D2DFF8CC04016860
:1043500009090901E0680143DFF8BC040160207825
:10436000C0074DD5DFF8B004016831F47061A06872
:104370000143DFF8A40401606068022806D1DFF879
:104380008004006880031CD40120E1E060680328F9
:1043900006D1DFF86C040068800112D40120D7E058
:1043A0006068012806D1DFF858040068C00508D409
:1043B0000120CDE0DFF848040068400701D4012067
:1043C000C6E0DFF840040168C908C900606801431D
:1043D000DFF830040160FEF727FA0600DFF8240456
:1043E000006810F038006168B0EBC10F08D0FEF72C
:1043F0001BFA801B41F289318842EFD30320A7E0EA
:104400002078800711D5E068DFF80C14096811F0F6
:104410000F01884209D2DFF8000401680909090187
:10442000E0680143DFF8F0030160DFF8D0030068C3
:1044300010F00F00854211D2DFF8C00300680009B8
:1044400000012843DFF8B4130860DFF8B003006808
:1044500010F00F00A84201D0012079E02078400739
:1044600011D52069DFF8B013096811F07001884296
:1044700009D2DFF8A403016831F07001206901431B
:10448000DFF8940301602078000711D56069DFF838
:104490008C13096811F07001884209D2DFF87C039F
:1044A000016831F0700160690143DFF87003016059
:1044B0002078C00611D5A069DFF86013096811F4EF
:1044C000E061884209D2DFF85403016831F4E06109
:1044D000A0690143DFF8440301602078800611D50C
:1044E000E069DFF83C13096811F07001884209D2D5
:1044F000DFF82C03016831F07001E0690143DFF857
:104500002003016000F026F80700DFF82803DFF839
:1045100008130968C1F30321405C10F01F00C74075
:10452000DFF81003DFF8F012096811F00F01405CAA
:1045300010F01F003900C140DFF8D4020160DFF83D
:10454000CC020760DFF8CC02006800F079F9C0B255
:10455000F2BD000010B4DFF8AC02006810F03800C3
:10456000002806D0082815D0102816D0182817D0F3
:1045700000E1DFF88C020068800608D5DFF88802C9
:10458000DFF87C422468C4F3C104E04001E0DFF8B6
:104590007802F0E0DFF8A002EDE0DFF8A002EAE048
:1045A000DFF88002006810F003000200DFF87402F8
:1045B0000068C0F305100100DFF86C02006810F01D
:1045C00001000300DFF868020068C0F3CC0000FBC4
:1045D00003F002EE100AB8EE422AB0EE421A0029A9
:1045E00000F0C680002A03D0022A72D051D38FE097
:1045F000DFF80C02006880062BD5DFF80C02DFF82C
:1046000000422468C4F3C104E04002EE100AF0EE58
:10461000420AB8EE602A02EE901AF8EE622A82EEA2
:10462000222ADFF808020068C005C00D02EE900AD9
:10463000F8EE622A9FED6D3A81EE033A72EE832A1C
:10464000B7EE003A72EE832A22EE222AF0EE421AE8
:104650001EE002EE101AB8EE422ADFED652A82EE65
:10466000822ADFF8C8010068C005C00D02EE900A7A
:10467000F8EE622A9FED5D3A81EE033A72EE832AEC
:10468000B7EE003A72EE832A22EE222AF0EE421AA8
:104690005CE002EE101AB8EE422ADFED562A82EEF6
:1046A000822ADFF888010068C005C00D02EE900A7A
:1046B000F8EE622A9FED4D3A81EE033A72EE832ABC
:1046C000B7EE003A72EE832A22EE222AF0EE421A68
:1046D0003CE002EE101AB8EE422ADFED472A82EEE5
:1046E000822A52480068C005C00D02EE900AF8EE1A
:1046F000622A9FED3E3A81EE033A72EE832AB7EECC
:10470000003A72EE832A22EE222AF0EE421A1DE0CF
:1047100002EE101AB8EE422ADFED362A82EE822A25
:1047200042480068C005C00D02EE900AF8EE622A09
:104730009FED2E3A81EE033A72EE832AB7EE003AED
:1047400072EE832A22EE222AF0EE421A37480068DF
:10475000C0F34620401C02EE100AB0EE420AB8EE4A
:10476000402A81EE822ABCEEC22A12EE100A00E034
:10477000002000E0304810BC704780B5FFF7EAFE2B
:1047800001002C48244A1268C2F30322805C10F016
:104790001F00C1402748204A126812F00F02805CB7
:1047A00010F01F000A00C24019480260174801605B
:1047B0001748006802BD80B5FFF7DFFF1D49174AA3
:1047C0001268C2F30212895C11F01F01C84002BDD9
:1047D00080B5FFF7D2FF1749104A1268C2F30222D0
:1047E000895C11F01F01C84002BD000000000046B6
:1047F0000024744C0024744A001BB74B0020005264
:1048000000440258104402580090D00310000024C5
:10481000140000240C000024184402581C440258C0
:1048200020440258284402582C440258304402586C
:104830003444025814CA000800093D0000366E01D5
:1048400010B5040011480078002801D101201CE0B7
:104850004FF47A700D490978B0FBF1F00C49096802
:10486000B1FBF0F000F0AEF8002801D001200CE020
:10487000102C09D2002221005FF0FF3000F089F8EF
:1048800004480460002000E0012010BD5001002415
:10489000100000240C00002410F00703DFF8301192
:1048A0000A684FF6FF010A4052EA0322DFF824119A
:1048B0000A43DFF81C110A607047DFF81401006832
:1048C000C0F3022070470000010009B200290AD499
:1048D000012210F01F018A40DFF8FC1003001BB218
:1048E0005B0941F82320704710B4020012B2002A7D
:1048F00005D40A01394B040024B21A5508E00A0114
:10490000374B040024B214F00F04234403F8042CA2
:1049100010BC704770B4030013F00704D4F1070013
:10492000052801D3042001E0D4F10700251D072D3F
:1049300001D2002500E0E51E012616FA00F0401E17
:104940000140A940012010FA05F56D1E2A401143CF
:10495000080070BC704710B50400601EB0F1807F85
:1049600001D301200EE0601E1E4908600F215FF098
:10497000FF30FFF7B9FF00201B49086007201B49E3
:104980000860002010BD10B504002000FFF784FF70
:1049900010BDF8B504000D001600FFF78EFF0700EC
:1049A000320029003800FFF7B5FF0100200000B2F7
:1049B000FFF79AFFF1BD10B50400200000B2FFF729
:1049C00083FF10BD10B504002000FFF7C4FF10BD29
:1049D0000CED00E00000FA0500E100E000E400E07A
:1049E00018ED00E014E000E018E000E010E000E066
:1049F00010B50400002C01D1012037E0A069002887
:104A0000FFD1D4F88400002805D1002084F880006C
:104A1000200001F0E7FB2420C4F88400206800682F
:104A20004008400021680860200000F0B7FB012822
:104A300001D101201AE0A06A002802D0200000F075
:104A4000E7FE2068406830F49040216848602068A4
:104A5000806830F02A00216888602068006850F083
:104A6000010021680860200000F03FFF10BD2DE923
:104A7000FC4706000D0017009846D6F88400202851
:104A800063D1002D03D0380080B2002801D101206D
:104A90005CE096F88000012801D1022056E0012058
:104AA00086F880000020C6F88C002120C6F884001B
:104AB000FDF7BAFE8146A6F85470A6F85670B068A5
:104AC000B0F5805F05D13069002802D10024AA46E4
:104AD00002E02C005FF0000A002086F88000B6F8A3
:104AE0005600002820D0CDF800804B4600228021BF
:104AF000300000F033FF002801D0032026E0002C16
:104B000008D1BAF80000C005C00D316888621AF1FA
:104B1000020A03E0207831688862641CB6F8560007
:104B2000401EA6F85600DAE7CDF800804B4600227A
:104B30004021300000F012FF002801D0032005E0E2
:104B40002020C6F88400002000E00220BDE8F6879F
:104B50002DE9F84F83460D0016001F00DBF8880092
:104B6000202840F09880002D03D0300080B200282B
:104B700001D1012090E09BF88000012801D10220A2
:104B80008AE001208BF880000020CBF88C002220E6
:104B9000CBF888000020CBF86C00FDF745FE80467E
:104BA000ABF85C60ABF85E60DBF80800B0F5805FE6
:104BB0000CD1DBF81000002804D140F2FF10ABF854
:104BC000600027E0FF20ABF8600023E0DBF808007E
:104BD00000280BD1DBF81000002803D1FF20ABF830
:104BE000600017E07F20ABF8600013E0DBF80800FE
:104BF000B0F1805F0BD1DBF81000002803D17F20DB
:104C0000ABF8600006E03F20ABF8600002E0002057
:104C1000ABF86000BBF86090DBF80800B0F5805F8F
:104C200006D1DBF81000002802D10024AA4602E0D9
:104C30002C005FF0000A00208BF88000BBF85E00BB
:104C4000002823D00097434600222021584600F038
:104C500085FE002801D003201EE0002C09D1DBF8DE
:104C60000000406A19EA0000AAF800001AF1020ADE
:104C700006E0DBF80000406A19EA00002070641CBE
:104C8000BBF85E00401EABF85E00D7E72020CBF8F3
:104C90008800002000E00220BDE8F28F70B505001A
:104CA0000C001600D5F88400202851D1002C03D028
:104CB000300080B2002801D101204AE095F8800040
:104CC000012801D1022044E0012085F880002C65F4
:104CD000A5F85460A5F856600020C5F88C00212086
:104CE000C5F88400A86F002824D0DFF89404A96FC9
:104CF000C863DFF89004A96F0864DFF88C04A96F1B
:104D0000C8640020A96F086533009BB2286810F1C1
:104D10002802296DA86FFBF7ABFD00280AD01020F0
:104D2000C5F88C00002085F880002020C5F884009C
:104D300001200EE0402029680862002085F88000EC
:104D40002868806850F0800029688860002000E0B2
:104D5000022070BD70B505000C001600D5F8880063
:104D6000202828D1002C03D0300080B2002801D1A7
:104D7000012021E095F88000012801D102201BE0EC
:104D8000012085F880000020E8662868DFF8EC1331
:104D9000884209D028684068000205D52868006864
:104DA00050F0806029680860320092B2210028002B
:104DB00000F031FE00E0022070BD2DE9F047060052
:104DC0003068C7693068D0F800803068D0F8089043
:104DD00040F60F043C40002C0ED1B8060CD55FEA1B
:104DE000886002D45FEAC90006D5306F002802D07F
:104DF0003000316F8847BEE1002C00F0A180DFF861
:104E0000900319EA000F05D1DFF8880318EA000FB4
:104E100000F096803800C0070BD55FEAC85008D56F
:104E2000012031680862D6F88C0050F00100C6F805
:104E30008C00B8070BD54846C00708D5022031685A
:104E40000862D6F88C0050F00400C6F88C00780791
:104E50000BD54846C00708D5042031680862D6F84B
:104E60008C0050F00200C6F88C00380710D55FEABD
:104E7000886004D4DFF8180319EA000F08D008206E
:104E800031680862D6F88C0050F00800C6F88C0033
:104E900038050CD55FEA481009D54FF40060316839
:104EA0000862D6F88C0050F02000C6F88C00D6F8C6
:104EB0008C00002843D0B8060BD55FEA886002D486
:104EC0005FEAC90005D5306F002802D03000316F8D
:104ED0008847D6F88C00050030688068400602D408
:104EE00015F0280F25D0300000F0F1FD3068806803
:104EF00040061AD53068806830F04000316888601C
:104F0000F06F00280DD0DFF89002F16F0865F06FA8
:104F1000FCF720FA002812D0F06FF16F096D884776
:104F20000DE0300001F086FA09E0300001F082FA6D
:104F300005E0300001F07EFA0020C6F88C001AE18E
:104F4000F06E012840F0E080F80640F1DD805FEA75
:104F5000C86040F1D98010203168086230688068EC
:104F6000400640F1A480F06F0068DFF864188842C2
:104F700059D0F06F0068DFF85C18884253D0F06FAA
:104F80000068DFF8541888424DD0F06F0068DFF8F1
:104F90004C18884247D0F06F0068DFF84418884208
:104FA00041D0F06F0068DFF83C1888423BD0F06FCA
:104FB0000068DFF83418884235D0F06F0068DFF8F9
:104FC0002C1888422FD0F06F0068DFF82418884230
:104FD00029D0F06F0068DFF81C18884223D0F06FEA
:104FE0000068DFF8141888421DD0F06F0068DFF801
:104FF0000C18884217D0F06F0068DFF80418884258
:1050000011D0F06F0068DFF8FC1788420BD0F06F0A
:105010000068DFF8F417884205D0F06F0068DFF809
:10502000EC17884204D1F06F0068D0F804A003E0C8
:10503000F06F0068D0F804A0504680B2002835D048
:105040005046B6F85C1080B288422FD2A6F85EA017
:10505000F06FC069B0F5807F1FD03068006830F411
:1050600080703168086030688068400840003168AE
:1050700088603068806830F04000316888602020A7
:10508000C6F888000020F0663068006830F0100034
:1050900031680860F06FFBF7E1FEB6F85C10B6F817
:1050A0005E00091A89B2300001F0C5F963E0B6F874
:1050B0005C00B6F85EA0B0EB0A0AB6F85E00002805
:1050C00021D0504680B200281DD03068006830F4EE
:1050D000907031680860306881682C480140306801
:1050E00081602020C6F888000020F066002030672C
:1050F0003068006830F0100031680860514689B2AD
:10510000300001F098F936E0F8020AD55FEA49204C
:1051100007D55FF4801031680862300001F08CF927
:1051200029E038060CD55FEA086002D45FEA09205E
:1051300006D5706F002802D03000716F88471AE0E2
:10514000780606D55FEA486003D5300000F0A0FD80
:1051500011E0380206D55FEA480003D5300001F0BF
:105160006CF908E0F80106D5B8F1000F03D530005E
:1051700001F064F9FFE7BDE8F0870000000C00587B
:10518000515B0008875B0008255C0008FEFFFFEF0D
:105190000100001020010004775C00082DE9F84FA1
:1051A00086B0040000262068DFF860198842FFD02E
:1051B000A1682069014360690143E06901432068F7
:1051C0000268DFF84C0902400A4320680260206848
:1051D000426832F44052E068024320684260D4F8EA
:1051E00018802068DFF82429904202D0206A50EA13
:1051F000080820688168DFF81C09014058EA0101AD
:10520000206881602068C16A09090901606A014358
:105210002068C1622068DFF8001988421FD1DFF8DA
:10522000FC08006810F0380000280AD008280AD0CE
:1052300010280AD018280AD020280AD028280AD0F6
:105240000BE0012770E104276EE108276CE11027CD
:105250006AE1202768E1402766E1802764E1206851
:10526000DFF8BC1888421DD1DFF8B008006810F0E4
:105270000700002808D002280AD007D304280BD042
:1052800008D305280AD00BE000274DE104274BE1A5
:10529000082749E1102747E1202745E1402743E15E
:1052A000802741E12068DFF87C1888421DD1DFF8B3
:1052B0006C08006810F00700002808D002280AD007
:1052C00007D304280BD008D305280AD00BE0002709
:1052D0002AE1042728E1082726E1102724E12027D6
:1052E00022E1402720E180271EE12068DFF83818FE
:1052F00088421DD1DFF82408006810F0070000285C
:1053000008D002280AD007D304280BD008D30528D8
:105310000AD00BE0002707E1042705E1082703E195
:10532000102701E12027FFE04027FDE08027FBE078
:105330002068DFF8F81788421DD1DFF8E007006821
:1053400010F00700002808D002280AD007D304284C
:105350000BD008D305280AD00BE00027E4E004278F
:10536000E2E00827E0E01027DEE02027DCE040272D
:10537000DAE08027D8E02068DFF8B41788421FD130
:10538000DFF89807006810F0380000280AD00828D5
:105390000AD010280AD018280AD020280AD0282895
:1053A0000AD00BE00127BFE00427BDE00827BBE0DF
:1053B0001027B9E02027B7E04027B5E08027B3E009
:1053C0002068DFF8701788421DD1DFF850070068A9
:1053D00010F00700002808D002280AD007D30428BC
:1053E0000BD008D305280AD00BE000279CE0042747
:1053F0009AE0082798E0102796E0202794E04027BD
:1054000092E0802790E02068DFF82C1788421DD1B9
:10541000DFF80807006810F00700002808D002280D
:105420000AD007D304280BD008D305280AD00BE0F4
:10543000002779E0042777E0082775E0102773E05C
:10544000202771E040276FE080276DE02068DFF8BB
:10545000EC1688421FD1DFF8C406006810F038004F
:1054600000280AD008280AD010280AD018280AD004
:1054700020280AD028280AD00BE0012754E004276E
:1054800052E0082750E010274EE020274CE040274C
:105490004AE0802748E02068DFF8A41688421FD140
:1054A000DFF87806006810F0380000280AD00828D5
:1054B0000AD010280AD018280AD020280AD0282874
:1054C0000AD00BE001272FE004272DE008272BE06E
:1054D000102729E0202727E0402725E0802723E028
:1054E0002068DFF8281688421DD1DFF858060068CA
:1054F00010F00700002808D002280AD007D304289B
:105500000BD008D305280AD00BE002270CE00427B3
:105510000AE0082708E0102706E0202704E04027DB
:1055200002E0802700E080272068DFF8E01588424D
:1055300073D13800C0B202280AD004280CD0082841
:1055400010D0102814D0202824D0402825D027E0BF
:10555000FEF7B7F9814627E003A8FEF7C3F9DDF8A7
:10556000109021E06846FEF7DDFADDF804901BE0BC
:10557000DFF8D4050068800609D5DFF8D095DFF89C
:10558000C8050068C0F3C10039FA00F901E0DFF88E
:10559000BC9509E0DFF81C9706E04FF4004903E0F2
:1055A0005FF0000901200600B9F1000F00F0008152
:1055B000DFF80407616A30F81100B9FBF0F08246A9
:1055C0006168032041438A4505D361684FF48050E8
:1055D0004143514502D201200600E9E0DFF8D80638
:1055E000616A30F81100B9FBF0F24FF48073606823
:1055F00040080021E3FB02016268002300F05AFF2B
:105600000500B5F5407F05D3B5F5801F02D22068AF
:10561000C560CDE001200600CAE0E069B0F5004FAA
:1056200069D13800C0B200280CD001280ED004285F
:1056300010D0082814D0102818D0202828D04028AE
:1056400029D02BE0FFF7B7F881462BE0FFF7C0F831
:10565000814627E003A8FEF745F9DDF8109021E028
:105660006846FEF75FFADDF804901BE0DFF8D80427
:105670000068800609D5DFF8D494DFF8CC04006810
:10568000C0F3C10039FA00F901E0DFF8C09409E085
:10569000DFF8209606E04FF4004903E05FF00009D0
:1056A00001200600B9F1000F00F08280DFF8080643
:1056B000616A30F81100B9FBF0F06168490811EB3C
:1056C00040016068B1FBF0F080B20500102D0FD3EF
:1056D000B5F5803F0CD24FF6F07129402800C0F399
:1056E000420001438B46584680B22168C8605FE0A3
:1056F000012006005CE03800C0B200280CD0012870
:105700000ED0042810D0082814D0102818D0202833
:1057100028D0402829D02BE0FFF74DF881462BE018
:10572000FFF756F8814627E003A8FEF7DBF8DDF81F
:10573000109021E06846FEF7F5F9DDF804901BE0D3
:10574000DFF804040068800609D5DFF80094DFF86C
:10575000F8030068C0F3C10039FA00F901E0DFF88E
:10576000EC9309E0DFF84C9506E04FF4004903E0C4
:105770005FF0000901200600B9F1000F18D0DFF832
:105780003805616A30F81100B9FBF0F0616810EB80
:1057900051006168B0FBF1F080B20500102D05D317
:1057A000B5F5803F02D22068C56001E00120060007
:1057B0000120A4F86A000120A4F8680000202067F6
:1057C000002060673000C0B207B0BDE8F08F000075
:1057D00010000240280002404000024058000240F1
:1057E0007000024088000240A0000240B800024061
:1057F00010040240280402404004024058040240C1
:105800007004024088040240A0040240B804024030
:1058100090F82810C90707D501684A6832F40032A9
:10582000C16A0A4301684A6090F82810890707D5C1
:1058300001684A6832F48032016B0A4301684A60A9
:1058400090F82810490707D501684A6832F4802289
:10585000416B0A4301684A6090F82810090707D590
:1058600001684A6832F40042816B0A4301684A6069
:1058700090F82810C90607D501688A6832F480526A
:10588000C16B0A4301688A6090F82810890607D521
:1058900001688A6832F40052016C0A4301688A6028
:1058A00090F82810490613D501684A6832F480122E
:1058B000416C0A4301684A60416CB1F5801F07D111
:1058C00001684A6832F4C002816C0A4301684A6088
:1058D00090F82810090607D501684A6832F40022BA
:1058E000C16C0A4301684A60704738B50400002063
:1058F000C4F88C00FCF798FF0500206800680007DA
:105900000DD57FF07E4000902B0000225FF4001147
:10591000200000F023F8002801D003201DE02068BB
:10592000006840070DD57FF07E4000902B000022DC
:105930005FF48001200000F011F8002801D003205E
:105940000BE02020C4F884002020C4F88800002048
:10595000E066002084F88000002032BD2DE9F0418F
:1059600005000E0090461F00069C2868C069304064
:10597000B04201D1012000E000204146C9B2884276
:1059800046D114F1010FF0D0FCF74EFFC01B84424A
:1059900001D3002C16D12868006830F4D070296833
:1059A00008602868806840084000296888602020D6
:1059B000C5F884002020C5F88800002085F8800004
:1059C000032026E0286800684007CED52868C06913
:1059D0000005CAD54FF4006029680862286800688D
:1059E00030F4D0702968086028688068400840005A
:1059F000296888602020C5F884002020C5F8880028
:105A00002020C5F88C00002085F88000032000E0ED
:105A10000020BDE8F08170B504000D001600A565FA
:105A2000A4F85C600020C4F88C002220C4F8880030
:105A3000E06F002824D00FF25D10E16FC8630FF211
:105A4000C110E16F08640FF2DD10E16FC86400203F
:105A5000E16F086533009BB2A26D206810F124014C
:105A6000E06FFAF705FF00280AD01020C4F88C0078
:105A7000002084F880002020C4F88400012015E074
:105A8000002084F880002068006850F4807021684D
:105A900008602068806850F00100216888602068F4
:105AA000806850F0400021688860002070BD016867
:105AB000096831F0C001026811600168896831F439
:105AC0000001026891602021C0F8841070470168CD
:105AD000096831F490710268116001688A68DFF822
