:020000040800F2
:10000000A807002081860008398500083B85000884
:100010003D8500083F85000841850008000000007C
:100020000000000000000000000000004385000800
:100030004585000800000000478500084985000844
:10004000BD860008C1860008C5860008C98600086C
:10005000CD860008D1860008D5860008D98600081C
:10006000DD860008E1860008E5860008E9860008CC
:10007000ED860008F1860008F5860008F98600087C
:10008000FD86000801870008058700080987000829
:100090000D870008118700081587000819870008D8
:1000A0001D87000821870008258700082987000888
:1000B0002D87000831870008358700083987000838
:1000C0003D870008418700084587000849870008E8
:1000D0004D870008518500085187000855870008A2
:1000E000598700085D870008618700086587000858
:1000F000698700086D8700085B8500087187000824
:1001000075870008798700087D87000881870008C7
:1001100085870008898700088D8700089187000877
:1001200095870008998700089D870008A187000827
:10013000A58700080000000000000000A987000853
:10014000AD870008B1870008B5870008B9870008A7
:10015000BD870008C1870008C5870008C987000857
:10016000CD870008D1870008D5870008D987000807
:10017000DD870008E1870008E5870008000000002F
:10018000E9870008ED870008F1870008F587000877
:10019000F9870008FD870008018800080588000825
:1001A000098800080D8800081188000815880008D3
:1001B000198800081D880008218800082588000883
:1001C000298800082D8800080000000000000000B9
:1001D000000000000000000031880008000000005E
:1001E000000000000000000000000000000000000F
:1001F0000000000000000000358800083988000871
:100200003D8800084188000800000000458800087B
:10021000498800084D880008518800085588000862
:10022000598800085D880008618800080000000007
:100230006588000869880008000000006D880008D3
:100240007188000875880008798800087D88000892
:100250008188000885880008898800088D88000842
:100260009188000895880008998800089D880008F2
:10027000A1880008A5880008A988000800000000DF
:10028000AD880008B188000800000000B5880008AB
:1002900000000000B9880008BD88000800000000C8
:1002A00000000000C1880008C58800082DE9F04161
:1002B000040000275FF000082068000135D5A06E1B
:1002C000002809D0B0F5801F0FD0B0F5001F12D064
:1002D000B0F5401F16D016E0DFF8840A006850F42D
:1002E0000030DFF87C1A08600FE00221201D01F0C9
:1002F0009FFB070009E0022114F1240001F034FC07
:10030000070002E001E0012007003800C0B2002829
:100310000AD1DFF8500A016831F44011A06E0143A0
:10032000DFF8400A016000E0B8462068C00533D518
:10033000606D002806D0022813D00CD3042818D0F2
:1003400016D317E0DFF8180A006850F40030DFF821
:10035000101A086010E00021201D01F069FB070061
:100360000AE0002114F1240001F0FEFB070003E085
:1003700002E001E0012007003800C0B200280AD1E5
:10038000DFF8E0090168C908C900606D0143DFF8C2
:10039000D409016000E0B846206880053AD5A06D18
:1003A00000280CD0402813D0802817D0C0281CD09B
:1003B000B0F5807F1AD0B0F5A07F18D018E0DFF834
:1003C000A009006850F40030DFF89419086011E0CB
:1003D0000021201D01F02CFB07000BE0002114F18F
:1003E000240001F0C1FB070004E003E002E001E0AB
:1003F000012007003800C0B200280AD1DFF86409E4
:10040000016831F4E071A06D0143DFF85809016023
:1004100000E0B846206840053DD5E06D00280FD0CB
:10042000B0F5007F15D0B0F5806F18D0B0F5C06F73
:100430001CD0B0F5006F1AD0B0F5206F18D018E0BE
:10044000DFF81C09006850F40030DFF81419086068
:1004500011E00021201D01F0EBFA07000BE0002164
:1004600014F1240001F080FB070004E003E002E047
:1004700001E0012007003800C0B200280AD1DFF8EF
:10048000E408016831F46061E06D0143DFF8D408ED
:10049000016000E0B846206880012CD5A06C0028DF
:1004A00016D0102804D020280BD030280FD010E010
:1004B000DFF8AC08006850F40030DFF8A4180860DA
:1004C00009E00221201D01F0B3FA070003E002E079
:1004D00001E0012007003800C0B200280AD1DFF88F
:1004E0008808016831F03001A06C0143DFF878081A
:1004F000016000E0B8462068C00439D5206E0028AD
:100500000CD0B0F5805F12D0B0F5005F15D0B0F51B
:10051000405F19D0B0F5804F17D017E0DFF84008E2
:10052000006850F40030DFF83818086010E000214F
:10053000201D01F07DFA07000AE0002114F12400DB
:1005400001F012FB070003E002E001E001200700D8
:100550003800C0B200280AD1DFF80808016831F479
:10056000E041206E0143DFF8FC07016000E0B8467F
:100570002068800435D5606E00280FD0B0F5803F2C
:100580000DD0B0F5003F10D0B0F5403F14D0B0F51D
:10059000802F12D0B0F5A02F10D010E011E0012173
:1005A000201D01F045FA07000BE0012114F12400A1
:1005B00001F0DAFA070004E003E002E001E00120C4
:1005C00007003800C0B200280AD1DFF89807016898
:1005D00031F4E021606E0143DFF88807016000E03C
:1005E000B846206840043BD5D4F8AC00002812D0AF
:1005F000B0F1805F10D0B0F1005F13D0B0F1405F78
:1006000017D0B0F1804F15D0B0F1A04F13D0B0F19A
:10061000C04F11D011E012E00121201D01F008FAB5
:1006200007000CE0012114F1240001F09DFA0700FD
:1006300005E004E003E002E001E0012007003800EB
:10064000C0B200280BD1DFF82407016831F0E04187
:10065000D4F8AC000143DFF81407016000E0B846AD
:10066000206800042BD5606F002815D0B0F1805FA2
:1006700003D0B0F1005F09D00FE0DFF8E4060068B6
:1006800050F40030DFF8D816086008E00121201D82
:1006900001F0CEF9070002E001E001200700380078
:1006A000C0B200280AD1DFF8BC06016831F0405121
:1006B000606F0143DFF8AC06016000E0B8462068D7
:1006C000C0012BD5606C002815D002280CD002D3B5
:1006D00003280FD010E0DFF88806006850F40030DF
:1006E000DFF87C16086009E00221201D01F0A0F966
:1006F000070003E002E001E0012007003800C0B27B
:1007000000280AD1DFF86006016889088900606C5A
:100710000143DFF85406016000E0B846206840025B
:1007200040F18780DFF84806006850F48070DFF8F9
:100730004016086001F0C6FA0600DFF834060068CB
:10074000C00506D401F0BEFA801B6528F5D303204E
:1007500007003800C0B200286AD1DFF81806006828
:1007600010F44070D4F8B01011F44071884218D0E1
:10077000DFF80006006830F440700500DFF8F4058B
:10078000006850F48030DFF8EC150860DFF8E4050D
:10079000006830F48030DFF8DC150860DFF8D4053D
:1007A0000560D4F8B000B0F5807F10D101F08AFA6E
:1007B0000600DFF8C0050068800708D401F082FA5F
:1007C000801B41F289318842F3D3032007003800AF
:1007D000C0B200282AD1D4F8B00010F44070B0F5AF
:1007E000407F0FD1DFF89005006830F47C50D4F8DA
:1007F000B010DFF8882512EA11121043DFF87815DF
:10080000086007E0DFF87005006830F47C50DFF81E
:1008100068150860DFF85C050068D4F8B0100905B9
:10082000090D0843DFF84C15086002E0B84600E007
:10083000B8462078C00732D5D4F8800000280AD006
:10084000082809D010280DD0182812D0202811D03F
:10085000282810D010E011E00121201D01F0E8F857
:1008600007000BE0012114F1240001F07DF90700DD
:1008700004E003E002E001E0012007003800C0B21C
:1008800000280BD1DFF8F804016831F03801D4F802
:1008900080000143DFF8E804016000E0B8462078FA
:1008A00080072ED5E06F002808D002280DD006D38F
:1008B000042812D010D3052810D010E011E0012137
:1008C000201D01F0B5F807000BE0012114F1240010
:1008D00001F04AF9070004E003E002E001E0012032
:1008E00007003800C0B200280AD1DFF8940401687C
:1008F000C908C900E06F0143DFF88404016000E02B
:10090000B8462078400730D5D4F89800002808D0A1
:1009100002280DD006D3042812D010D3052810D0F9
:1009200010E011E00121201D01F082F807000BE02A
:10093000012114F1240001F017F9070004E003E09D
:1009400002E001E0012007003800C0B200280BD10E
:10095000DFF818040168C908C900D4F898000143F9
:10096000DFF80804016000E0B8462078800637D53B
:10097000D4F8940000280FD0B0F1805F0DD0B0F112
:10098000005F10D0B0F1405F14D0B0F1804F12D0B2
:10099000B0F1A04F10D010E011E00021201D01F0B7
:1009A00047F807000BE0022114F1240001F0DCF805
:1009B000070004E003E002E001E001200700380046
:1009C000C0B200280BD1DFF8B803016831F0E04174
:1009D000D4F894000143DFF8A803016000E0B846B2
:1009E0002078400637D5D4F8A00000280FD0B0F505
:1009F000806F0DD0B0F5006F10D0B0F5406F14D0FF
:100A0000B0F5805F12D0B0F5A05F10D010E011E01B
:100A10000021201D01F00CF807000BE0022114F169
:100A2000240001F0A1F8070004E003E002E001E087
:100A3000012007003800C0B200280BD1DFF82C03DA
:100A4000016831F4E051D4F8A0000143DFF81C0341
:100A5000016000E0B8462078000637D5D4F8A4003D
:100A600000280FD0B0F5005F0DD0B0F5804F10D04A
:100A7000B0F5C04F14D0B0F5004F12D0B0F5204FF4
:100A800010D010E011E00021201D00F0D1FF070080
:100A90000BE0022114F1240001F066F8070004E0E5
:100AA00003E002E001E0012007003800C0B20028A6
:100AB0000BD1DFF8B802016831F46041D4F8A4002A
:100AC0000143DFF8A802016000E0B8462078000783
:100AD00018D5D4F88800B0F5805F08D1022114F150
:100AE000240001F041F8002801D001208046DFF801
:100AF0009002016831F44051D4F888000143DFF8D6
:100B0000800201602078C00618D5D4F89C00B0F5AA
:100B1000807F08D1022114F1240001F025F800287B
:100B200001D001208046DFF84402016831F44071B1
:100B3000D4F89C000143DFF8340201602068000310
:100B40002BD5D4F8A800002806D0B0F5803F09D0F6
:100B5000B0F5003F0DD00DE00021201D00F068FF32
:100B6000070009E0022114F1240000F0FDFF070056
:100B700002E001E0012007003800C0B200280BD1DC
:100B8000DFF8E801016831F44031D4F8A8000143EE
:100B9000DFF8D801016000E0B846206840032DD599
:100BA000D4F88C00B0F5801F06D0B0F5001F0AD035
:100BB000B0F5401F0ED00EE06948006850F40030D8
:100BC0006749086009E0012114F1240000F0CCFF1E
:100BD000070002E001E0012007003800C0B2002851
:100BE0000BD1DFF89C01016831F44011D4F88C007E
:100BF0000143DFF88C01016000E0B8462068C003C3
:100C000025D5E06C002803D0B0F5803F07D00CE07C
:100C10005348006850F400305149086007E0022151
:100C2000201D00F005FF070001E00120070038004B
:100C3000C0B200280AD1DFF83001016831F48031F8
:100C4000E06C0143DFF82001016000E0B846206855
:100C5000800008D5022114F1240000F085FF00284F
:100C600001D0012080462068800328D5D4F8840074
:100C7000002812D0B0F5807F06D0B0F5007F0AD0F2
:100C8000B0F5407F08D009E03548006850F40030E6
:100C90003349086004E003E002E001E001200700BE
:100CA0003800C0B2002809D13548016831F44071DC
:100CB000D4F8840001433248016000E0B84620685F
:100CC000C00207D52748016821F00041A06F014309
:100CD000244801602068800207D52248016831F06D
:100CE0008071E06E01431F4801602068000507D550
:100CF0001E48016831F00061206F01431B4801600C
:100D0000206840000CD51C48006830F400401A49A7
:100D1000086019480168D4F8B4000143164801601E
:100D20002068002807D51048016831F04051206D37
:100D300001430D4801602068000208D51048016891
:100D400031F44001D4F8900001430D480160404661
:100D5000C0B2002801D1002000E00120BDE8F081F0
:100D60002C440258504402584C44025858440258EB
:100D7000004802587044025810440258CFFFFF0048
:100D800054440258F0B589B00500B5F5807F65D1AF
:100D9000DFF8340A006810F007000600002E06D0C5
:100DA000022E1CD00FD3042E25D052D354E0DFF8EE
:100DB0005C0C0068800104D506A800F013FD0798BC
:100DC00000E00020B7E2DFF8440C0068000104D521
:100DD000684600F0C3FA009800E00020ABE2DFF8BC
:100DE0002C0C0068800004D503A800F0D7FB039802
:100DF00000E000209FE2DFF8E409006810F04050B6
:100E00000400DFF8080C006840070AD5002C08D160
:100E1000DFF8FC0BDFF8F41B0968C1F3C101C8401F
:100E200016E0DFF8E80B0068C00505D5B4F1805F77
:100E300002D1DFF8AC090BE0DFF8D00B00688003CB
:100E400005D5B4F1005F02D1DFF8C80B00E0002047
:100E500071E2DFF8C40B6EE200206CE2B5F5007FB2
:100E600069D1DFF86409006810F4E0700600300012
:100E7000002809D0402813D080281DD0C02855D084
:100E8000B0F5807F24D054E0DFF8800B006880014B
:100E900004D506A800F0A6FC079800E000204AE26E
:100EA000DFF8680B0068000104D5684600F056FAC8
:100EB000009800E000203EE2DFF8500B0068800060
:100EC00004D503A800F06AFB039800E0002032E29A
:100ED000DFF80809006810F040500400DFF82C0B20
:100EE000006840070AD5002C08D1DFF8240BDFF892
:100EF0001C1B0968C1F3C101C84016E0DFF80C0BE8
:100F00000068C00505D5B4F1805F02D1DFF8D008D4
:100F10000BE0DFF8F80A0068800305D5B4F1005F44
:100F200002D1DFF8F00A00E0002004E2DFF8E80A6E
:100F300001E20020FFE1B5F5806F6CD1DFF8880891
:100F4000006810F460600600300000280CD0B0F596
:100F5000007F15D0B0F5806F1ED0B0F5C06F55D0B2
:100F6000B0F5006F24D054E0DFF8A00A00688001DB
:100F700004D506A800F036FC079800E00020DAE16E
:100F8000DFF8880A0068000104D5684600F0E6F939
:100F9000009800E00020CEE1DFF8700A00688000D1
:100FA00004D503A800F0FAFA039800E00020C2E19B
:100FB000DFF82808006810F040500400DFF84C0A01
:100FC000006840070AD5002C08D1DFF8440ADFF892
:100FD0003C1A0968C1F3C101C84016E0DFF82C0AC9
:100FE0000068C00505D5B4F1805F02D1DFF8F007D5
:100FF0000BE0DFF8180A0068800305D5B4F1005F44
:1010000002D1DFF8100A00E0002094E1DFF8080ABE
:1010100091E100208FE1B5F5805F6CD1DFF8A80782
:10102000006810F4E0400700380000280CD0B0F54C
:10103000805F15D0B0F5005F1ED0B0F5405F55D091
:10104000B0F5804F24D054E0DFF8C009006880017B
:1010500004D506A800F0C6FB079800E000206AE16E
:10106000DFF8A8090068000104D5684600F076F9A9
:10107000009800E000205EE1DFF890090068800041
:1010800004D503A800F08AFA039800E0002052E19A
:10109000DFF84807006810F040500400DFF86C09E2
:1010A000006840070AD5002C08D1DFF86409DFF892
:1010B0005C190968C1F3C101C84016E0DFF84C09AA
:1010C0000068C00505D5B4F1805F02D1DFF81007D4
:1010D0000BE0DFF838090068800305D5B4F1005F44
:1010E00002D1DFF8300900E0002024E1DFF8280910
:1010F00021E100201FE1B5F5002F57D1DFF82C09C1
:10110000006810F4403007003800002806D0B0F521
:10111000803F0FD0B0F5003F18D045E0DFF8EC0875
:101120000068000104D5684600F018F9009800E056
:10113000002000E1DFF8D4080068800004D503A88F
:1011400000F02CFA059800E00020F4E0DFF88C06AF
:10115000006810F040500400DFF8B0080068400755
:101160000AD5002C08D1DFF8A808DFF8A018096814
:10117000C1F3C101C84016E0DFF890080068C0055F
:1011800005D5B4F1805F02D1DFF854060BE0DFF83B
:101190007C080068800305D5B4F1005F02D1DFF858
:1011A000740800E00020C6E00020C4E0B5F5803FF0
:1011B00026D1DFF82806006810F4803007003800D8
:1011C000002803D0B0F5803F0CD017E0DFF83C08D2
:1011D0000068800104D506A800F004FB079800E031
:1011E0000020A8E0DFF824080068000104D5684664
:1011F00000F0B4F8029800E000209CE000209AE0A3
:10120000B5F5804F5FD1DFF82408006810F0E040AA
:1012100007003800002812D0B0F1805F12D0B0F182
:10122000005F1BD0B0F1405F24D0B0F1804F31D0CF
:10123000B0F1A04F38D0B0F1C04F3FD041E000F046
:101240007CF878E0DFF8C4070068000104D5684640
:1012500000F084F8019800E000206CE0DFF8AC07B3
:101260000068800004D503A800F098F9049800E015
:10127000002060E0DFF894070068400708D5DFF839
:101280009007DFF888170968C1F3C101C84000E082
:10129000002050E0DFF874070068C00502D5DFF8D1
:1012A000400500E0002046E0DFF8600700688003AA
:1012B00002D5DFF8600700E000203CE0DFF85807C7
:1012C00039E0002037E0B5F5004F33D1DFF8F804FE
:1012D000006810F0405007003800002806D0B0F138
:1012E000805F0DD0B0F1005F16D021E0DFF81C0761
:1012F0000068800302D5DFF81C0700E000201AE038
:10130000DFF808070068800104D506A800F06AFA33
:10131000079800E000200EE0DFF8F006006800010A
:1013200004D5684600F01AF8019800E0002002E0B9
:10133000002000E0002009B0F0BD80B500F05FFFA4
:10134000DFF82018DFF850291268C2F30212895C16
:1013500011F01F01C84002BD0000000030B48C49EC
:101360000A6812F003028A490968C1F305318A4B01
:101370001B68C3F30013DFF824492468C4F3CC04CA
:1013800004FB03F401EE104AB8EE411A002900F004
:10139000F080002A03D0022A72D051D390E0DFF807
:1013A0006C462468A4062BD5DFF86446DFF85C564B
:1013B0002D68C5F3C105EC4001EE904AB0EE610A1C
:1013C000F8EE401A02EE101AB8EE422AC1EE821A66
:1013D000DFF8CC482468E405E40D02EE104AB8EECC
:1013E000422ADFED682AC1EE222A32EE222AF7EEE7
:1013F000002A32EE222A61EE821AF0EE610A1EE025
:1014000001EE901AF8EE611A9FED5F2AC2EE211AE2
:10141000DFF88C482468E405E40D02EE104AB8EECB
:10142000422ADFED582AC1EE222A32EE222AF7EEB6
:10143000002A32EE222A61EE821AF0EE610A5EE0A4
:1014400001EE901AF8EE611A9FED502AC2EE211AB1
:10145000DFF84C482468E405E40D02EE104AB8EECB
:10146000422ADFED482AC1EE222A32EE222AF7EE86
:10147000002A32EE222A61EE821AF0EE610A3EE084
:1014800001EE901AF8EE611A9FED422AC2EE211A7F
:10149000DFF80C482468E405E40D02EE104AB8EECB
:1014A000422ADFED382AC1EE222A32EE222AF7EE56
:1014B000002A32EE222A61EE821AF0EE610A1EE064
:1014C00001EE901AF8EE611A9FED302AC2EE211A51
:1014D000DFF8CC472468E405E40D02EE104AB8EECC
:1014E000422ADFED282AC1EE222A32EE222AF7EE26
:1014F000002A32EE222A61EE821AF0EE610ADFF84B
:10150000A0472468C4F3462401EE904AF8EE611A1D
:10151000B7EE002A71EE821AC0EEA11AFCEEE11AB3
:10152000C0ED001ADFF878472468C4F3064401EEE2
:10153000904AF8EE611AB7EE002A71EE821AC0EEF8
:10154000A11AFCEEE11AC0ED011ADFF85447246835
:10155000C4F3066401EE904AF8EE611AB7EE002A71
:1015600071EE821AC0EEA11AFCEEE11AC0ED021A69
:1015700005E000240460002444600024846030BC42
:1015800070470000000000460024744C0024744A98
:1015900028440258001BB74B2C44025830B4DFF8E3
:1015A00004170A6812F00302DFF8F8160968C1F39D
:1015B0000551DFF8F4361B68C3F30023DFF8EC466F
:1015C0002468C4F3CC0404FB03F401EE104AB8EE23
:1015D000411A002900F0F080002A03D0022A72D0BC
:1015E00051D390E0DFF824442468A4062BD5DFF81B
:1015F0002044DFF818542D68C5F3C105EC4001EE16
:10160000904AB0EE610AF8EE401A02EE101AB8EEF7
:10161000422AC1EE821ADFF898462468E405E40DF8
:1016200002EE104AB8EE422ADFED682AC1EE222A05
:1016300032EE222AF7EE002A32EE222A61EE821AD8
:10164000F0EE610A1EE001EE901AF8EE611A9FEDCD
:10165000602AC2EE211ADFF858462468E405E40D3A
:1016600002EE104AB8EE422ADFED582AC1EE222AD5
:1016700032EE222AF7EE002A32EE222A61EE821A98
:10168000F0EE610A5EE001EE901AF8EE611A9FED4D
:10169000512AC2EE211ADFF818462468E405E40D49
:1016A00002EE104AB8EE422ADFED482AC1EE222AA5
:1016B00032EE222AF7EE002A32EE222A61EE821A58
:1016C000F0EE610A3EE001EE901AF8EE611A9FED2D
:1016D000422AC2EE211ADFF8D8452468E405E40D59
:1016E00002EE104AB8EE422ADFED382AC1EE222A75
:1016F00032EE222AF7EE002A32EE222A61EE821A18
:10170000F0EE610A1EE001EE901AF8EE611A9FED0C
:10171000312AC2EE211ADFF898452468E405E40D69
:1017200002EE104AB8EE422ADFED282AC1EE222A44
:1017300032EE222AF7EE002A32EE222A61EE821AD7
:10174000F0EE610ADFF868452468C4F3462401EE30
:10175000904AF8EE611AB7EE002A71EE821AC0EED6
:10176000A11AFCEEE11AC0ED001ADFF84445246826
:10177000C4F3064401EE904AF8EE611AB7EE002A6F
:1017800071EE821AC0EEA11AFCEEE11AC0ED011A48
:10179000DFF81C452468C4F3066401EE904AF8EEB5
:1017A000611AB7EE002A71EE821AC0EEA11AFCEEA1
:1017B000E11AC0ED021A05E0002404600024446030
:1017C0000024846030BC704750440258000000463A
:1017D0000024744C0024744A001BB74B4C4402583C
:1017E00000093D0030B4DFF8BC140A6812F00302AF
:1017F000DFF8B0140968C1F30511DFF8AC341B68D9
:1018000013F00103DFF8AC442468C4F3CC0404FBF8
:1018100003F401EE104AB8EE411A002900F0EE8000
:10182000002A03D0022A70D04FD38EE0774C246870
:10183000A4062AD5DFF88044744D2D68C5F3C10590
:10184000EC4001EE904AB0EE610AF8EE401A02EE6A
:10185000101AB8EE422AC1EE821ADFF860442468FA
:10186000E405E40D02EE104AB8EE422ADFED6B2AE1
:10187000C1EE222A32EE222AF7EE002A32EE222A86
:1018800061EE821AF0EE610A1EE001EE901AF8EEA7
:10189000611A9FED632AC2EE211ADFF82044246802
:1018A000E405E40D02EE104AB8EE422ADFED5B2AB1
:1018B000C1EE222A32EE222AF7EE002A32EE222A46
:1018C00061EE821AF0EE610A5EE001EE901AF8EE27
:1018D000611A9FED542AC2EE211ADFF8E043246812
:1018E000E405E40D02EE104AB8EE422ADFED4B2A81
:1018F000C1EE222A32EE222AF7EE002A32EE222A06
:1019000061EE821AF0EE610A3EE001EE901AF8EE06
:10191000611A9FED452AC2EE211ADFF8A043246820
:10192000E405E40D02EE104AB8EE422ADFED3B2A50
:10193000C1EE222A32EE222AF7EE002A32EE222AC5
:1019400061EE821AF0EE610A1EE001EE901AF8EEE6
:10195000611A9FED332AC2EE211ADFF86043246832
:10196000E405E40D02EE104AB8EE422ADFED2B2A20
:10197000C1EE222A32EE222AF7EE002A32EE222A85
:1019800061EE821AF0EE610ADFF830432468C4F396
:10199000462401EE904AF8EE611AB7EE002A71EE85
:1019A000821AC0EEA11AFCEEE11AC0ED001ADFF8AF
:1019B0000C432468C4F3064401EE904AF8EE611A21
:1019C000B7EE002A71EE821AC0EEA11AFCEEE11AFF
:1019D000C0ED011ADFF8E4422468C4F3066401EEA6
:1019E000904AF8EE611AB7EE002A71EE821AC0EE44
:1019F000A11AFCEEE11AC0ED021A05E00024046011
:101A0000002444600024846030BC704700440258C5
:101A10000090D00300366E010080BB00000000463D
:101A20000024744C0024744A001BB74B58440258DD
:101A30002DE9F04105000C0000269A48006810F0DE
:101A40000300032801D1012088E09D48006830F0A0
:101A500080609B49086000F035F9070098480068ED
:101A6000000106D500F02EF9C01B0328F6D3032091
:101A700074E08C48006830F47C30296850EA01300A
:101A8000884908606868401EC005C00DA968491EE5
:101A9000490211F47E410843E968491E090411F422
:101AA000FE0108432969491E090611F0FE41084359
:101AB0007B4908607C48016831F0C00168690143D6
:101AC000794801607848016831F02001A869014334
:101AD000754801607448006830F010007249086071
:101AE0006E4800686FF3CF00E96950EAC1006B49A6
:101AF00008606D48006850F010006B490860002CC9
:101B000006D16948006850F40020674908600EE07B
:101B1000012C06D16448006850F4801062490860C6
:101B200005E06148006850F400105F4908606448AF
:101B3000006850F080606249086000F0C3F8804699
:101B40005F480068000107D400F0BCF8B0EB080063
:101B50000328F5D3032001E03000C0B2BDE8F081D6
:101B600000000000708600082DE9F04105000C001F
:101B700000264C48006810F00300032801D1012022
:101B800088E04F48006830F080504D49086000F010
:101B900099F807004A480068800006D500F092F8DE
:101BA000C01B0328F6D3032074E03E48006830F0E1
:101BB0007C70296850EA01503A4908606868401E04
:101BC000C005C00DA968491E490211F47E410843B1
:101BD000E968491E090411F4FE0108432969491EF8
:101BE000090611F0FE410843314908602E4801689A
:101BF00031F44061686901432B4801602A4801685B
:101C000031F40071A8690143274801602648006843
:101C100030F4807024490860244800686FF3CF00D6
:101C2000E96950EAC100214908601F48006850F482
:101C300080701D490860002C06D11B48006850F4D4
:101C40008000194908600EE0012C06D11648006892
:101C500050F400001449086005E01348006850F093
:101C60008070114908601648006850F0805014498F
:101C7000086000F027F8804611480068800007D40B
:101C800000F020F8B0EB08000328F5D3032001E0B2
:101C90003000C0B2BDE8F081204402583C440258F4
:101CA00038440258284402582C44025844440258EC
:101CB00040440258344402580090D0033044025843
:101CC0000044025801480068704700BFA403002088
:101CD000F8B504000D00002C01D101207AE1DFF8F5
:101CE000A005006810F00F00A84211D2DFF890059F
:101CF0000068000900012843DFF884150860DFF858
:101D00008005006810F00F00A84201D0012061E1B9
:101D10002078400711D5DFF88405006810F07000C6
:101D20002169884209D2DFF87405016831F0700139
:101D300020690143DFF8640501602078000711D5B0
:101D4000DFF85C05006810F070006169884209D214
:101D5000DFF84C05016831F0700160690143DFF87C
:101D6000400501602078C00611D5DFF83405006811
:101D700010F4E060A169884209D2DFF82405016807
:101D800031F4E061A0690143DFF8140501602078B7
:101D9000800611D5DFF80C05006810F07000E169CD
:101DA000884209D2DFF8FC04016831F07001E06973
:101DB0000143DFF8F00401602078800711D5DFF8D7
:101DC000DC04006810F00F00E168884209D2DFF8F7
:101DD000CC04016809090901E0680143DFF8BC048B
:101DE00001602078C0074DD5DFF8B004016831F4F8
:101DF0007061A0680143DFF8A404016060680228F4
:101E000006D1DFF88004006880031CD40120E1E0E3
:101E10006068032806D1DFF86C040068800112D4E2
:101E20000120D7E06068012806D1DFF85804006877
:101E3000C00508D40120CDE0DFF848040068400761
:101E400001D40120C6E0DFF840040168C908C900D8
:101E500060680143DFF830040160FFF733FF0600DC
:101E6000DFF82404006810F038006168B0EBC10F9F
:101E700008D0FFF727FF801B41F289318842EFD35A
:101E80000320A7E02078800711D5E068DFF80C1464
:101E9000096811F00F01884209D2DFF800040168D7
:101EA00009090901E0680143DFF8F0030160DFF888
:101EB000D003006810F00F00854211D2DFF8C00394
:101EC0000068000900012843DFF8B4130860DFF858
:101ED000B003006810F00F00A84201D0012079E0A3
:101EE0002078400711D52069DFF8B013096811F098
:101EF0007001884209D2DFF8A403016831F0700153
:101F000020690143DFF8940301602078000711D5B0
:101F10006069DFF88C13096811F07001884209D2FA
:101F2000DFF87C03016831F0700160690143DFF87C
:101F3000700301602078C00611D5A069DFF8601336
:101F4000096811F4E061884209D2DFF8540301689E
:101F500031F4E061A0690143DFF8440301602078B7
:101F6000800611D5E069DFF83C13096811F07001B3
:101F7000884209D2DFF82C03016831F07001E06972
:101F80000143DFF82003016000F026F80700DFF8C6
:101F90002803DFF808130968C1F30321405C10F03F
:101FA0001F00C740DFF81003DFF8F012096811F0D6
:101FB0000F01405C10F01F003900C140DFF8D4026F
:101FC0000160DFF8CC020760DFF8CC02006800F0A7
:101FD00079F9C0B2F2BD000010B4DFF8AC020068BD
:101FE00010F03800002806D0082815D0102816D088
:101FF000182817D000E1DFF88C020068800608D5A9
:10200000DFF88802DFF87C422468C4F3C104E040B2
:1020100001E0DFF87802F0E0DFF8A002EDE0DFF8A1
:10202000A002EAE0DFF88002006810F0030002007E
:10203000DFF874020068C0F305100100DFF86C02DD
:10204000006810F001000300DFF868020068C0F3C8
:10205000CC0000FB03F002EE100AB8EE422AB0EE0C
:10206000421A002900F0C680002A03D0022A72D04A
:1020700051D38FE0DFF80C02006880062BD5DFF823
:102080000C02DFF800422468C4F3C104E04002EE11
:10209000100AF0EE420AB8EE602A02EE901AF8EE4C
:1020A000622A82EE222ADFF808020068C005C00D0D
:1020B00002EE900AF8EE622A9FED6D3A81EE033A45
:1020C00072EE832AB7EE003A72EE832A22EE222ABB
:1020D000F0EE421A1EE002EE101AB8EE422ADFEDD0
:1020E000652A82EE822ADFF8C8010068C005C00DAB
:1020F00002EE900AF8EE622A9FED5D3A81EE033A15
:1021000072EE832AB7EE003A72EE832A22EE222A7A
:10211000F0EE421A5CE002EE101AB8EE422ADFED51
:10212000562A82EE822ADFF888010068C005C00DB9
:1021300002EE900AF8EE622A9FED4D3A81EE033AE4
:1021400072EE832AB7EE003A72EE832A22EE222A3A
:10215000F0EE421A3CE002EE101AB8EE422ADFED31
:10216000472A82EE822A52480068C005C00D02EE5E
:10217000900AF8EE622A9FED3E3A81EE033A72EE43
:10218000832AB7EE003A72EE832A22EE222AF0EE7C
:10219000421A1DE002EE101AB8EE422ADFED362A8E
:1021A00082EE822A42480068C005C00D02EE900A05
:1021B000F8EE622A9FED2E3A81EE033A72EE832A00
:1021C000B7EE003A72EE832A22EE222AF0EE421A8D
:1021D00037480068C0F34620401C02EE100AB0EEFB
:1021E000420AB8EE402A81EE822ABCEEC22A12EEE2
:1021F000100A00E0002000E0304810BC704780B5B5
:10220000FFF7EAFE01002C48244A1268C2F30322B9
:10221000805C10F01F00C1402748204A126812F06D
:102220000F02805C10F01F000A00C24019480260D3
:10223000174801601748006802BD80B5FFF7DFFF4F
:102240001D49174A1268C2F30212895C11F01F017E
:10225000C84002BD80B5FFF7D2FF1749104A126887
:10226000C2F30222895C11F01F01C84002BD0000C8
:10227000000000460024744C0024744A001BB74B35
:102280000020005200440258104402580090D0032D
:10229000040000200800002000000020184402581C
:1022A0001C44025820440258284402582C44025826
:1022B00030440258344402587086000800093D003A
:1022C00000366E0110B5040011480078002801D1D5
:1022D00001201CE04FF47A700D490978B0FBF1F051
:1022E0000C490968B1FBF0F000F0AEF8002801D00D
:1022F00001200CE0102C09D2002221005FF0FF30F9
:1023000000F089F804480460002000E0012010BDBE
:102310000C000020040000200000002010F0070343
:10232000DFF830110A684FF6FF010A4052EA032233
:10233000DFF824110A43DFF81C110A607047DFF848
:1023400014010068C0F3022070470000010009B2C8
:1023500000290AD4012210F01F018A40DFF8FC1086
:1023600003001BB25B0941F82320704710B4020040
:1023700012B2002A05D40A01394B040024B21A55BE
:1023800008E00A01374B040024B214F00F04234480
:1023900003F8042C10BC704770B4030013F007045A
:1023A000D4F10700052801D3042001E0D4F107008F
:1023B000251D072D01D2002500E0E51E012616FA95
:1023C00000F0401E0140A940012010FA05F56D1EE5
:1023D0002A401143080070BC704710B50400601E0D
:1023E000B0F1807F01D301200EE0601E1E4908601D
:1023F0000F215FF0FF30FFF7B9FF00201B49086095
:1024000007201B490860002010BD10B50400200003
:10241000FFF784FF10BDF8B504000D001600FFF7AC
:102420008EFF0700320029003800FFF7B5FF0100DA
:10243000200000B2FFF79AFFF1BD10B504002000A4
:1024400000B2FFF783FF10BD10B504002000FFF7B6
:10245000C4FF10BD0CED00E00000FA0500E100E053
:1024600000E400E018ED00E014E000E018E000E017
:1024700010E000E010B50400002C01D1012037E08D
:10248000A0690028FFD1D4F88400002805D10020DD
:1024900084F88000200001F0E9F92420C4F88400C9
:1024A000206800684008400021680860200000F0B3
:1024B0001FFB012801D101201AE0A06A002802D0E8
:1024C000200000F04FFE2068406830F49040216802
:1024D00048602068806830F02A00216888602068A1
:1024E000006850F0010021680860200000F0A7FE9D
:1024F00010BD2DE9FC4706000D0017009846D6F8E0
:102500008400202863D1002D03D0380080B2002839
:1025100001D101205CE096F88000012801D1022061
:1025200056E0012086F880000020C6F88C002120AB
:10253000C6F88400FFF7C6FB8146A6F85470A6F8DB
:102540005670B068B0F5805F05D13069002802D1BF
:102550000024AA4602E02C005FF0000A002086F862
:102560008000B6F85600002820D0CDF800804B46F9
:1025700000228021300000F09BFE002801D00320C3
:1025800026E0002C08D1BAF80000C005C00D316863
:1025900088621AF1020A03E0207831688862641CBC
:1025A000B6F85600401EA6F85600DAE7CDF80080CF
:1025B0004B4600224021300000F07AFE002801D076
:1025C000032005E02020C6F88400002000E002205F
:1025D000BDE8F6872DE9F84F83460D0016001F0071
:1025E000DBF88800202840F09880002D03D03000D0
:1025F00080B2002801D1012090E09BF880000128E2
:1026000001D102208AE001208BF880000020CBF865
:102610008C002220CBF888000020CBF86C00FFF75C
:1026200051FB8046ABF85C60ABF85E60DBF80800FD
:10263000B0F5805F0CD1DBF81000002804D140F227
:10264000FF10ABF8600027E0FF20ABF8600023E04C
:10265000DBF8080000280BD1DBF81000002803D1BC
:10266000FF20ABF8600017E07F20ABF8600013E0BC
:10267000DBF80800B0F1805F0BD1DBF81000002818
:1026800003D17F20ABF8600006E03F20ABF860008C
:1026900002E00020ABF86000BBF86090DBF80800B7
:1026A000B0F5805F06D1DBF81000002802D10024CD
:1026B000AA4602E02C005FF0000A00208BF88000A0
:1026C000BBF85E00002823D000974346002220215B
:1026D000584600F0EDFD002801D003201EE0002C3C
:1026E00009D1DBF80000406A19EA0000AAF80000EE
:1026F0001AF1020A06E0DBF80000406A19EA00005D
:102700002070641CBBF85E00401EABF85E00D7E78B
:102710002020CBF88800002000E00220BDE8F28FE6
:102720002DE9F04706003068C7693068D0F80080AE
:102730003068D0F8089040F60F043C40002C0ED1D1
:10274000B8060CD55FEA886002D45FEAC90006D5F6
:10275000306F002802D03000316F8847BEE1002C76
:1027600000F0A180DFF87C0319EA000F05D1DFF843
:10277000780318EA000F00F096803800C0070BD5E8
:102780005FEAC85008D5012031680862D6F88C008D
:1027900050F00100C6F88C00B8070BD54846C007BA
:1027A00008D5022031680862D6F88C0050F0040089
:1027B000C6F88C0078070BD54846C00708D504201A
:1027C00031680862D6F88C0050F00200C6F88C0020
:1027D000380710D55FEA886004D4DFF8080319EAE7
:1027E000000F08D0082031680862D6F88C0050F03D
:1027F0000800C6F88C0038050CD55FEA481009D5EA
:102800004FF4006031680862D6F88C0050F0200068
:10281000C6F88C00D6F88C00002843D0B8060BD53B
:102820005FEA886002D45FEAC90005D5306F0028EE
:1028300002D03000316F8847D6F88C000500306830
:102840008068400602D415F0280F25D0300000F033
:102850008CFD3068806840061AD53068806830F09A
:10286000400031688860F06F00280DD0DFF87C02EE
:10287000F16F0865F06F01F039FB002812D0F06F9E
:10288000F16F096D88470DE0300001F001FD09E0AE
:10289000300001F0FDFC05E0300001F0F9FC002003
:1028A000C6F88C001AE1F06E012840F0E080F806CE
:1028B00040F1DD805FEAC86040F1D98010203168C6
:1028C000086230688068400640F1A480F06F0068BC
:1028D000DFF85018884259D0F06F0068DFF84818C8
:1028E000884253D0F06F0068DFF8401888424DD01E
:1028F000F06F0068DFF83818884247D0F06F006842
:10290000DFF83018884241D0F06F0068DFF82818EF
:1029100088423BD0F06F0068DFF82018884235D03D
:10292000F06F0068DFF8181888422FD0F06F006849
:10293000DFF81018884229D0F06F0068DFF8081817
:10294000884223D0F06F0068DFF8001888421DD05D
:10295000F06F0068DFF8F817884217D0F06F006852
:10296000DFF8F017884211D0F06F0068DFF8E81741
:1029700088420BD0F06F0068DFF8E017884205D07E
:10298000F06F0068DFF8D817884204D1F06F006854
:10299000D0F804A003E0F06F0068D0F804A050461F
:1029A00080B2002835D05046B6F85C1080B288421C
:1029B0002FD2A6F85EA0F06FC069B0F5807F1FD05F
:1029C0003068006830F48070316808603068806872
:1029D00040084000316888603068806830F040000E
:1029E000316888602020C6F888000020F0663068D2
:1029F000006830F0100031680860F06F00F0FAFFF6
:102A0000B6F85C10B6F85E00091A89B2300001F021
:102A100040FC63E0B6F85C00B6F85EA0B0EB0A0AD2
:102A2000B6F85E00002821D0504680B200281DD0A4
:102A30003068006830F490703168086030688168F0
:102A400027480140306881602020C6F888000020B7
:102A5000F066002030673068006830F010003168A0
:102A60000860514689B2300001F013FC36E0F802EC
:102A70000AD55FEA492007D55FF480103168086203
:102A8000300001F007FC29E038060CD55FEA086049
:102A900002D45FEA092006D5706F002802D030000A
:102AA000716F88471AE0780606D55FEA486003D55B
:102AB000300000F0A8FC11E0380206D55FEA4800BB
:102AC00003D5300001F0E7FB08E0F80106D5B8F1C6
:102AD000000F03D5300001F0DFFBFFE7BDE8F08712
:102AE000FEFFFFEF0100001020010004ED3300089D
:102AF0002DE9F84F86B0040000262068DFF8A818FA
:102B00008842FFD0A1682069014360690143E06900
:102B1000014320680268DFF8940802400A432068F5
:102B200002602068426832F44052E0680243206844
:102B30004260D4F818802068DFF86C28904202D0F8
:102B4000206A50EA080820688168DFF864080140BC
:102B500058EA0101206881602068C16A09090901F9
:102B6000606A01432068C1622068DFF84818884223
:102B70001FD1DFF84408006810F0380000280AD0A0
:102B800008280AD010280AD018280AD020280AD0ED
:102B900028280AD00BE0012770E104276EE10827FE
:102BA0006CE110276AE1202768E1402766E1802771
:102BB00064E12068DFF8041888421DD1DFF8F807C7
:102BC000006810F00700002808D002280AD007D3B8
:102BD00004280BD008D305280AD00BE000274DE1CC
:102BE00004274BE1082749E1102747E1202745E169
:102BF000402743E1802741E12068DFF8C41788427D
:102C00001DD1DFF8B407006810F00700002808D0D5
:102C100002280AD007D304280BD008D305280AD0ED
:102C20000BE000272AE1042728E1082726E11027E6
:102C300024E1202722E1402720E180271EE12068AF
:102C4000DFF8801788421DD1DFF86C07006810F0AC
:102C50000700002808D002280AD007D304280BD088
:102C600008D305280AD00BE0002707E1042705E177
:102C7000082703E1102701E12027FFE04027FDE0BE
:102C80008027FBE02068DFF8401788421DD1DFF87D
:102C90002807006810F00700002808D002280AD092
:102CA00007D304280BD008D305280AD00BE000274F
:102CB000E4E00427E2E00827E0E01027DEE0202738
:102CC000DCE04027DAE08027D8E02068DFF8FC1657
:102CD00088421FD1DFF8E006006810F038000028B5
:102CE0000AD008280AD010280AD018280AD020288C
:102CF0000AD028280AD00BE00127BFE00427BDE056
:102D00000827BBE01027B9E02027B7E04027B5E04F
:102D10008027B3E02068DFF8B81688421DD1DFF8BD
:102D20009806006810F00700002808D002280AD092
:102D300007D304280BD008D305280AD00BE00027BE
:102D40009CE004279AE0082798E0102796E02027C7
:102D500094E0402792E0802790E02068DFF8741626
:102D600088421DD1DFF85006006810F007000028E7
:102D700008D002280AD007D304280BD008D305288E
:102D80000AD00BE0002779E0042777E0082775E0F8
:102D9000102773E0202771E040276FE080276DE067
:102DA0002068DFF8341688421FD1DFF80C0600686F
:102DB00010F0380000280AD008280AD010280AD0BD
:102DC00018280AD020280AD028280AD00BE001278A
:102DD00054E0042752E0082750E010274EE0202757
:102DE0004CE040274AE0802748E02068DFF8EC15F7
:102DF00088421FD1DFF8C005006810F038000028B5
:102E00000AD008280AD010280AD018280AD020286A
:102E10000AD028280AD00BE001272FE004272DE054
:102E200008272BE0102729E0202727E0402725E06E
:102E3000802723E02068DFF8701588421DD1DFF875
:102E4000A005006810F00700002808D002280AD06A
:102E500007D304280BD008D305280AD00BE002279B
:102E60000CE004270AE0082708E0102706E02027E6
:102E700004E0402702E0802700E080272068DFF898
:102E80002815884273D13800C0B202280AD004281D
:102E90000CD0082810D0102814D0202824D0402886
:102EA00025D027E0FEF749FA814627E003A8FEF780
:102EB00055FADDF8109021E06846FEF76FFBDDF86B
:102EC00004901BE0DFF81C050068800609D5DFF8D8
:102ED0001895DFF810050068C0F3C10039FA00F951
:102EE00001E0DFF8049509E0DFF83C9506E04FF4D7
:102EF000004903E05FF0000901200600B9F1000F6E
:102F000000F00081DFF82405616A30F81100B9FB98
:102F1000F0F082466168032041438A4505D3616829
:102F20004FF480504143514502D201200600E9E0B0
:102F3000DFF8F804616A30F81100B9FBF0F24FF4E1
:102F40008073606840080021E3FB0201626800238F
:102F500001F0B8F90500B5F5407F05D3B5F5801F40
:102F600002D22068C560CDE001200600CAE0E06919
:102F7000B0F5004F69D13800C0B200280CD001284C
:102F80000ED0042810D0082814D0102818D02028DB
:102F900028D0402829D02BE0FFF74FF981462BE0BD
:102FA000FFF758F9814627E003A8FEF7D7F9DDF8C7
:102FB000109021E06846FEF7F1FADDF804901BE07E
:102FC000DFF820040068800609D5DFF81C94DFF8DC
:102FD00014040068C0F3C10039FA00F901E0DFF819
:102FE000089409E0DFF8409406E04FF4004903E05C
:102FF0005FF0000901200600B9F1000F00F08280A7
:10300000DFF82804616A30F81100B9FBF0F061685C
:10301000490811EB40016068B1FBF0F080B2050097
:10302000102D0FD3B5F5803F0CD24FF6F07129402B
:103030002800C0F3420001438B46584680B2216805
:10304000C8605FE0012006005CE03800C0B20028E4
:103050000CD001280ED0042810D0082814D0102835
:1030600018D0202828D0402829D02BE0FFF7E5F8F9
:1030700081462BE0FFF7EEF8814627E003A8FEF734
:103080006DF9DDF8109021E06846FEF787FADDF86B
:1030900004901BE0DFF84C030068800609D5DFF8D8
:1030A0004893DFF840030068C0F3C10039FA00F923
:1030B00001E0DFF8349309E0DFF86C9306E04FF4A9
:1030C000004903E05FF0000901200600B9F1000F9C
:1030D00018D0DFF85803616A30F81100B9FBF0F03E
:1030E000616810EB51006168B0FBF1F080B205003F
:1030F000102D05D3B5F5803F02D22068C56001E0F0
:10310000012006000120A4F86A000120A4F868004C
:1031100000202067002060673000C0B207B0BDE823
:10312000F08F0000100002402800024040000240E2
:10313000580002407000024088000240A000024097
:10314000B80002401004024028040240400402403B
:10315000580402407004024088040240A004024067
:10316000B804024090F82810C90707D501684A68DA
:1031700032F40032C16A0A4301684A6090F82810AC
:10318000890707D501684A6832F48032016B0A4327
:1031900001684A6090F82810490707D501684A6815
:1031A00032F48022416B0A4301684A6090F828108B
:1031B000090707D501684A6832F40042816B0A4367
:1031C00001684A6090F82810C90607D501688A6826
:1031D00032F48052C16B0A4301688A6090F828106B
:1031E000890607D501688A6832F40052016C0A43E7
:1031F00001688A6090F82810490613D501684A686A
:1032000032F48012416C0A4301684A60416CB1F5A6
:10321000801F07D101684A6832F4C002816C0A43FA
:1032200001684A6090F82810090607D501684A68C5
:1032300032F40022C16C0A4301684A60704738B515
:1032400004000020C4F88C00FEF73CFD0500206857
:10325000006800070DD57FF07E4000902B00002213
:103260005FF40011200000F023F8002801D00320B3
:103270001DE02068006840070DD57FF07E4000907B
:103280002B0000225FF48001200000F011F80028DC
:1032900001D003200BE02020C4F884002020C4F8D3
:1032A00088000020E066002084F88000002032BD05
:1032B0002DE9F04105000E0090461F00069C28688D
:1032C000C0693040B04201D1012000E000204146F9
:1032D000C9B2884246D114F1010FF0D0FEF7F2FCDA
:1032E000C01B844201D3002C16D12868006830F43A
:1032F000D070296808602868806840084000296804
:1033000088602020C5F884002020C5F888000020AF
:1033100085F88000032026E0286800684007CED5A5
:103320002868C0690005CAD54FF4006029680862A2
:103330002868006830F4D0702968086028688068C0
:1033400040084000296888602020C5F884002020BB
:10335000C5F888002020C5F88C00002085F8800082
:10336000032000E00020BDE8F0810168096831F425
:1033700090710268116001688A68DFF8B4100A4031
:1033800001688A60C16E012905D10168096831F0C0
:103390001001026811602021C0F888100021C16668
:1033A0000021016770470000000C0058F369FFCF4F
:1033B000FFF4FF1100100140544402580044004043
:1033C00000480040004C0040005000400014014004
:1033D00000780040007C004000180140001C0140C3
:1033E00058440258004402580090D00338B50400F5
:1033F000A56B0020A5F85E000020A5F85600280067
:1034000000F046FF31BD10B504002068006830F0C0
:103410004000216808602020C4F884000020606714
:10342000200001F067F810BD00093D005886000833
:10343000FEFFFFEF81B0DFF87405006850F0020076
:10344000DFF868150860DFF86405006810F0020016
:103450000090009801B0704710B5B4B00400142279
:10346000002101A801F047F8B822002106A801F0C8
:1034700042F82068DFF83815884250D15FF4002008
:1034800006902020079081200890022009900220B9
:103490000A9002200B9040200C9000200D900020FC
:1034A0000E900020309006A8FCF700FF002801D005
:1034B00001F07EFFDFF8FC04006850F02000DFF828
:1034C000F4140860DFF8EC04006810F020000090AD
:1034D0000098DFF8E404006850F00400DFF8D81426
:1034E0000860DFF8D404006810F004000090009831
:1034F00031200190032002900020039001A9DFF801
:10350000BC0401F057FF5FF080615FF0806002F063
:10351000C2F85FF000615FF0006002F0BCF834B008
:1035200010BD10B5B4B0040014220021684600F0AC
:10353000E2FFB822002106A800F0DDFF2068DFF8D6
:103540008014884257D14FF48050069000201E907E
:1035500006A8FCF7ABFE002801D001F029FFDFF838
:103560006404006850F48040DFF858140860DFF805
:103570005404006810F4804005900598DFF8380482
:10358000006850F00400DFF830140860DFF8280409
:10359000006810F0040005900598DFF81C0400682E
:1035A00050F00200DFF810140860DFF80C04006827
:1035B00010F0020005900598022000900220019072
:1035C0000020029002200390052004906946DFF855
:1035D000EC0301F0EFFE4FF4C04000900220019098
:1035E0000020029002200390052004906946DFF835
:1035F000D80301F0DFFE34B010BD81B00168DFF800
:10360000CC2391420FD1DFF8C813096851F00101B2
:10361000DFF8BC231160DFF8B813096811F001016D
:103620000091009912E00168B1F1804F0ED1DFF8EE
:103630009413096851F00101DFF888231160DFF865
:103640008413096811F001010091009901B07047DD
:1036500010B586B0040014220021684600F04BFF2C
:103660002068DFF8701388424BD1DFF858030068F8
:1036700050F00200DFF84C130860DFF848030068E0
:1036800010F0020005900598DFF82C03006850F058
:103690000100DFF824130860DFF81C03006810F055
:1036A000010005900598DFF81003006850F0020053
:1036B000DFF804130860DFF80003006810F0020070
:1036C00005900598C02000900220019000200290F3
:1036D00000200390022004906946DFF8FC0201F00C
:1036E00069FE03200090022001900020029000203B
:1036F0000390022004906946DFF8CC0201F05AFEE4
:1037000069E02068DFF8D41288422ED1DFF8B402D5
:10371000006850F00400DFF8AC120860DFF8A40283
:10372000006810F0040005900598DFF88C0200682E
:1037300050F00800DFF880120860DFF87C020068B3
:1037400010F00800059005984FF47040009002209A
:10375000019000200290002003900220049069460E
:10376000DFF87C0201F026FE35E02068DFF87412F5
:10377000884230D1DFF85802006850F00200DFF8CC
:1037800050120860DFF84802006810F0020005904F
:1037900005988948006850F0040087490860864809
:1037A000006810F004000590059880200090022029
:1037B00001900020029000200390032004906946AD
:1037C0007E4801F0F7FD002200212E20FEF723FEA7
:1037D0002E20FEF732FE06B010BD10B586B00400F4
:1037E00014220021684600F086FE2068774988424E
:1037F0001BD17148006850F010006F4908606E4896
:10380000006810F01000059005984FF4804000907B
:1038100002200190002002900020039001200490DB
:103820006946714801F0C6FD1EE02068B0F1804F86
:103830001AD16148006850F002005F4908605E4894
:10384000006810F00200059005984FF400600090A9
:10385000022001900020029000200390012004909B
:103860006946594801F0A6FD06B010BD10B5B4B0C8
:10387000040014220021684600F03DFEB822002119
:1038800006A800F038FE20685849884255D101202A
:1038900006900020269006A8FCF708FD002801D01D
:1038A00001F086FD4A48006850F010004849086061
:1038B0004748006810F01000059005983E480068E1
:1038C00050F002003C4908603B48006810F00200DC
:1038D000059005983848006850F0010036490860A6
:1038E0003548006810F00100059005984FF400403D
:1038F00000900220019000200290002003900420FC
:1039000004906946304801F055FD4FF40070009076
:1039100002200190002002900020039007200490D4
:1039200069462D4801F046FD002200212520FEF7C2
:1039300072FD2520FEF781FD35E020682C49884284
:1039400031D1022006900020259006A8FCF7AEFC9D
:10395000002801D001F02CFD1A48006850F48020A6
:10396000184908601748006810F4802005900598F1
:103970001148006850F008000F4908600E480068C0
:1039800010F00800059005984FF440700090022058
:1039900001900020029000200390072004906946C7
:1039A0000F4801F007FD34B010BD00005445025827
:1039B000002102403845025840450258000802588C
:1039C00000380040484502580004025800000140F9
:1039D0005045025800040040000002580008004012
:1039E000000C025800040140001002580010014071
:1039F000004800402DE9F0410400FEF763F907009C
:103A0000002C01D101205DE294F83500022806D097
:103A100080206065002084F83400012052E2206894
:103A2000DFF80C1888424AD02068DFF8081888426E
:103A300045D02068DFF80018884240D02068DFF8C1
:103A4000FC1788423BD02068DFF8F417884236D054
:103A50002068DFF8F017884231D02068DFF8E817D7
:103A600088422CD02068DFF8E417884227D02068ED
:103A7000DFF8DC17884222D02068DFF8D8178842A8
:103A80001DD02068DFF8D017884218D02068DFF8F2
:103A9000CC17884213D02068DFF8C41788420ED0B4
:103AA0002068DFF8C017884209D02068DFF8B8170F
:103AB000884204D02068DFF81014884201D1012028
:103AC00000E00020C0B200280ED02068006830F06E
:103AD0001E00216808602068406930F0800021687D
:103AE0004861D4F8008007E02068006830F00E00DC
:103AF00021680860D4F800802068DFF83417884215
:103B000072D02068DFF82C1788426DD02068DFF86B
:103B10002817884268D02068DFF82017884263D0D1
:103B20002068DFF81C1788425ED02068DFF8141781
:103B3000884259D02068DFF81017884254D0206896
:103B4000DFF8081788424FD02068DFF80417884252
:103B50004AD02068DFF8FC16884245D02068DFF89C
:103B6000F816884240D02068DFF8F01688423BD033
:103B70002068DFF8EC16884236D02068DFF8E416BB
:103B8000884231D02068DFF8E01688422CD02068C7
:103B9000DFF83413884227D02068DFF830138842DA
:103BA00022D02068DFF8281388421DD02068DFF873
:103BB0002413884218D02068DFF81C13884213D0E1
:103BC0002068DFF8181388420ED02068DFF8101341
:103BD000884209D02068DFF80C13884204D020689E
:103BE000DFF80413884201D1012000E00020C0B2B8
:103BF000002805D0206E006830F48070216E0860C7
:103C00002068DFF82C16884249D02068DFF8241697
:103C1000884244D02068DFF8201688423FD02068D0
:103C2000DFF8181688423AD02068DFF81416884268
:103C300035D02068DFF80C16884230D02068DFF8D5
:103C4000081688422BD02068DFF80016884226D05C
:103C50002068DFF8FC15884221D02068DFF8F415D1
:103C600088421CD02068DFF8F015884217D0206801
:103C7000DFF8E815884212D02068DFF8E4158842A2
:103C80000DD02068DFF8DC15884208D02068DFF806
:103C9000D815884203D020688B49884206D1206815
:103CA0000068400840002168086005E0206800685E
:103CB0004008400021680860D8F80000C0070ED511
:103CC000FEF700F8C01B0628F6D320206065002010
:103CD00084F83400032084F835000120F2E02068E5
:103CE000DFF84C15884249D02068DFF84815884233
:103CF00044D02068DFF8401588423FD02068DFF8C4
:103D00003C1588423AD02068DFF83415884235D017
:103D10002068DFF83015884230D02068DFF8281599
:103D200088422BD02068DFF82415884226D02068EE
:103D3000DFF81C15884221D02068DFF8181588426A
:103D40001CD02068DFF81015884217D02068DFF8F3
:103D50000C15884212D02068DFF8041588420DD077
:103D60002068DFF80015884208D02068DFF8F814D2
:103D7000884203D020685449884201D1012000E0E4
:103D80000020C0B2002809D0A06D05003F2094F8A3
:103D90005C1011F01F018840A86008E0A06D0600CB
:103DA000012094F85C1011F01F01884070602068B9
:103DB000DFF87C14884269D02068DFF878148842E4
:103DC00064D02068DFF8701488425FD02068DFF884
:103DD0006C1488425AD02068DFF86414884255D0A9
:103DE0002068DFF86014884250D02068DFF858144B
:103DF00088424BD02068DFF85414884246D02068AF
:103E0000DFF84C14884241D02068DFF8481488421B
:103E10003CD02068DFF84014884237D02068DFF8B3
:103E20003C14884232D02068DFF8341488422DD008
:103E30002068DFF83014884228D02068DFF8281482
:103E4000884223D02068204988421FD020681F491B
:103E500088421BD020681E49884217D020681D491F
:103E6000884213D020681C4988420FD020681B4923
:103E700088420BD020681A49884207D02068194927
:103E8000884203D020681849884201D1012000E00F
:103E90000020C0B200280ED0A06E616E4860E06EB7
:103EA000002808D0E06E006830F48070E16E086091
:103EB000606F216F4860002084F83400012084F88E
:103EC00035000020BDE8F081B804024008540258D3
:103ED0001C54025830540258445402585854025842
:103EE0006C540258805402589454025838B5040057
:103EF000002C01D101209AE194F83500022803D06A
:103F000080206065012092E12068DFF82413884258
:103F10004AD02068DFF81C13884245D02068DFF8BB
:103F20001813884240D02068DFF8101388423BD035
:103F30002068DFF80C13884236D02068DFF80413BD
:103F4000884231D02068DFF8001388422CD02068E6
:103F5000DFF8F812884227D02068DFF8F412884290
:103F600022D02068DFF8EC1288421DD02068DFF8EC
:103F7000E812884218D02068DFF8E012884213D097
:103F80002068DFF8DC1288420ED02068DFF8D412F7
:103F9000884209D02068DFF8D012884204D0206817
:103FA000DFF8C812884201D1012000E00020C0B231
:103FB000002850D0042084F8350020689C498842AD
:103FC0003BD020689B49884237D020689A49884274
:103FD00033D02068994988422FD020689849884278
:103FE0002BD020689749884227D02068964988427C
:103FF00023D02068954988421FD020689449884280
:104000001BD020689349884217D020689249884283
:1040100013D02068914988420FD020689049884287
:104020000BD020688F49884207D020688E4988428B
:1040300003D020688D49884206D120680068400876
:10404000400021680860F1E02068006840084000F6
:1040500021680860EAE02068006830F00E002168FE
:1040600008602068724988423BD0206871498842C4
:1040700037D020687049884233D020686F49884221
:104080002FD020686E4988422BD020686D49884225
:1040900027D020686C49884223D020686B49884229
:1040A0001FD020686A4988421BD02068694988422D
:1040B00017D020686849884213D020686749884231
:1040C0000FD02068664988420BD020686549884235
:1040D00007D020686449884203D020686349884239
:1040E00006D120680068400840002168086005E0AB
:1040F00020680068400840002168086020684C493A
:10410000884263D020684B4988425FD020684A4982
:1041100088425BD020684949884257D02068484986
:10412000884253D02068474988424FD0206846498A
:1041300088424BD020684549884247D0206844498E
:10414000884243D02068434988423FD02068424992
:1041500088423BD020684149884237D02068404996
:10416000884233D020683F4988422FD020683E499A
:1041700088422BD020683D49884227D02068DFF84C
:10418000F010884222D02068DFF8E81088421DD065
:104190002068DFF8E410884218D02068DFF8DC10CF
:1041A000884213D02068DFF8D81088420ED02068EB
:1041B000DFF8D010884209D02068DFF8CC108842A0
:1041C00004D02068DFF8C410884201D1012000E04B
:1041D0000020C0B200281DD0206E006830F480702E
:1041E000216E0860A06D0500012094F85C1011F0AC
:1041F0001F0188406860A06E616E4860E06E002814
:1042000008D0E06E006830F48070E16E0860606F86
:10421000216F4860002084F83400012084F83500C4
:10422000206D002802D02000216D8847002032BD7B
:1042300010000240280002404000024058000240A6
:104240007000024088000240A0000240B800024016
:104250001004024028040240400402405804024076
:104260007004024088040240A0040240B8040240E6
:10427000085402581C5402583054025844540258EE
:10428000585402586C54025880540258945402589E
:10429000704770477047704770470EE00268436888
:1042A000024408305FEAC37C44BF4B445B1E52F8B3
:1042B00004CB43F804CB091FF9D150F8041B0029A3
:1042C000ECD17047BBBBE1B1B2F5803F80F07E809E
:1042D000022A1ED98C46B1FBF2F102FB11C31B046A
:1042E00043EA1043B3FBF2FC02FB1C3380B240EA0A
:1042F0000343B3FBF2F002FB103240EA0C40002310
:104300007047022A05D98446B0FBF2F002FB10C2C6
:1043100070474AB105D100F0010249085FEA300058
:10432000704700220023704701F0C8B90B0002005B
:10433000002100207047904271EB030CF6D3B3F5D7
:10434000803F2FD2F0B5B3FA83F7B1FA81F4A7F129
:104350000F0E3D1B5340CEF1200602FA0EF2F34140
:104360005340B5F10F0746D80F3C2C444140C4F1EF
:104370002006A040F1414140B1FBF3F603FB1611CA
:10438000A2FB0645001BA94102D2761E80185941A6
:1043900080EA010221FA0EF362FA0EF200215A407D
:1043A0003046F0BD30B4B1FBF3FC03FB1C11A2FBA3
:1043B0000C45001BA94103D2ACF1010C80185941F6
:1043C00030BC02460B46604600217047B2F1807F48
:1043D00065D3F0B5B2FA82F7B1FA81F4C7F10F06EE
:1043E0003D1B22FA06F307F1110EF24120355A4027
:1043F000B5F10F07B8D94140C4F12006A040F14102
:104400004140B1FBF3FC03FB1C11A2FB0C45001B5C
:10441000A94103D2BCF1010C801859410F2F12D3CE
:104420000F3FC90341EA5041B1FBF3F603FB1611FC
:10443000A2FB0645D4EBC030A94102D2761E8018FB
:10444000594146EACC3C07B34140C7F12006B84089
:10445000F1414140B1FBF3F603FB1611A2FB064507
:10446000001BA94102D2761E8018594180EA010240
:1044700021FA0EF3C7F1200462FA0EF20CFA07F0EB
:104480005A402CFA04F13043F0BD80EA010221FACF
:104490000EF3002162FA0EF260465A40F0BD8C46DF
:1044A000B1FBF2F102FB11C31B0243EA1063B3FB41
:1044B000F2FC02FB1C331B024CEA002043EA1063AF
:1044C000B3FBF2FC02FB1C331B024CEA002043EA64
:1044D0001063B3FBF2FC02FB1C331B024CEA00200E
:1044E00043EA1063B3FBF2FC02FB1C324CEA0020EF
:1044F00000237047704710B5044610460A4601462F
:10450000204601F0DDF8204610BD00002DE9FF47F0
:1045100004000D0016001F005FF004085FF00009A2
:104520000DF1040A4A464146504601F0C9F88DF89B
:1045300004508DF805408DF806708DF80760002254
:104540004FF48071DFF8840C01F04DF84FF4FA70ED
:104550000090042302AA01A9DFF8740C01F064FCA6
:1045600001224FF48071DFF8640C01F03CF8BDE8E3
:10457000FF872DE9FC4104000D00022600270DF104
:1045800004083A003100404601F09AF88DF80450D2
:104590008DF8054000224FF48071DFF8300C01F0F7
:1045A00022F84FF4FA70009002230DF1060201A9DF
:1045B000DFF81C0C01F038FC01224FF48071DFF8A9
:1045C0000C0C01F010F8BDE8F3810168DFF8042C51
:1045D000914222D1017F012905D10168496BDFF8A1
:1045E000F82B116007E0017F022904D10168896B73
:1045F000DFF8E82B1160DFF8E41B0968DFF8D82B3F
:104600001268914209DADFF8D01B0A68DFF8CC1B88
:104610000968521ADFF82C1D0A6070472DE9F04F27
:104620008BB001F009F800F0FEF900F0D9FD00F0C0
:1046300049FD00F063FA00F0CAFA00F02FFB00F029
:10464000B4FB00F008FC00F075FC00F07DFD00F00C
:10465000E0FC0C21DFF8F00C01F0E3FE0C21DFF8A8
:10466000EC0C01F0DEFE0021DFF8E40C01F0DAFFD3
:104670000421DFF8DC0C01F0D5FF08A8DFF8D41C1A
:1046800091E81C0080E81C0000208DF80F0000203D
:104690008DF80E0000208DF80D0000208DF80C0024
:1046A00000208DF80B0000208DF80A0000208DF806
:1046B000090000208DF8080000208DF80700002078
:1046C0008DF8060000208DF8050000208DF804000C
:1046D0009DF80F00002808D101208DF80F006023FD
:1046E000042220210020FFF711FF9DF80F00002871
:1046F00006D000208DF80F0060210020FFF739FF61
:104700009DF80E00002808D101208DF80E006023CE
:10471000042221210020FFF7F9FE9DF80E00002859
:1047200006D000208DF80E0060210020FFF721FF49
:104730009DF80D00002808D101208DF80D004023C0
:10474000082220210820FFF7E1FE9DF80D00002837
:1047500006D000208DF80D0040210020FFF709FF52
:104760009DF80C00002808D101208DF80C00402392
:10477000082220210020FFF7C9FE9DF80C00002828
:1047800006D000208DF80C0040210020FFF7F1FE3C
:104790009DF80B00002808D101208DF80B00402364
:1047A000042220210020FFF7B1FE9DF80B00002815
:1047B00006D000208DF80B0040210020FFF7D9FE25
:1047C0009DF80A00002808D101208DF80A00402336
:1047D000042220210420FFF799FE9DF80A000028FA
:1047E00006D000208DF80A0040210020FFF7C1FE0E
:1047F0009DF80900002808D101208DF80900402308
:10480000022220210020FFF781FE9DF809000028E8
:1048100006D000208DF8090040210020FFF7A9FEF6
:104820009DF80800002808D101208DF808004023D9
:10483000022220210220FFF769FE9DF808000028CF
:1048400006D000208DF8080040210020FFF791FEDF
:104850009DF80700002808D101208DF8070060238B
:10486000022220210020FFF751FE9DF807000028BA
:1048700006D000208DF8070060210020FFF779FEA8
:104880009DF80600002808D101208DF8060060235D
:10489000022220218020FFF739FE9DF80600002823
:1048A00006D000208DF8060060210020FFF761FE91
:1048B0009DF80500002808D101208DF8050040234F
:1048C000102220210020FFF721FE9DF8050000287E
:1048D00006D000208DF8050040210020FFF749FE9A
:1048E0009DF80400002808D101208DF80400402321
:1048F000102220211020FFF709FE9DF80400002857
:1049000006D000208DF8040040210020FFF731FE82
:104910000A25002604AC32002900200000F0D0FE59
:1049200000240A2C13DA0A23012208A800EB040150
:10493000DFF8240AFDF7DDFD0A23012204A800EBBD
:104940000401DFF8140AFDF745FE641CE9E70A20BC
:104950000790002404AD22000799280000F0B0FE63
:104960000A230A2208A9DFF8F009FDF7C2FD0A238D
:104970000A2204A9DFF8E009FDF72CFE0A2500262B
:1049800004AF32002900380000F09AFE0A2000909F
:104990000A2304AA08A9DFF8380801F045FA0A2713
:1049A0005FF000080DF1100942463900484600F05A
:1049B00087FE0A230A2208A9DFF8140800F075FF11
:1049C0000A230A2204A9DFF8080801F0CCF85FF0F6
:1049D0000A095FF0000A0DF1100B5246494658468D
:1049E00000F06EFE5FF0000BBBF10A0F14DA0A2331
:1049F000012208A800EB0B01DFF8D40700F055FFF7
:104A00000A23012204A800EB0B01DFF8C40701F020
:104A1000AAF81BF1010BE7E70020B0F57A7FBFF69B
:104A200057AE401CF9E710B59CB04C21002209ACF0
:104A3000200000F045FE2021002201AC200000F003
:104A40003FFE042002F040FB00200090DFF80C093C
:104A5000006830F44040DFF804190860DFF8FC0813
:104A6000006810F4404000900098DFF8F0080068FB
:104A70008004FAD5DFF8E808006880088000DFF8D5
:104A8000E01808600220099001200C9040200D9051
:104A900002201290002013900420149008201590FA
:104AA0000220169001201790022018900C201990D7
:104AB00000201A9000201B9009A802F053FB002848
:104AC00001D000F075FC3F200190002002900020F2
:104AD00003900020049040200590402006904FF461
:104AE0008060079040200890022101A8FDF7F0F8AF
:104AF000002801D000F05CFC1CB010BD18B587B0D8
:104B00001C2100226C46200000F0DAFDDFF854087A
:104B1000DFF8541808600020DFF84C1848600020C7
:104B2000DFF8441888600020DFF83C18C8600420D3
:104B3000DFF8341808610020DFF82C180875002011
:104B4000DFF8241848750120DFF81C188861002060
:104B5000DFF8141808770020DFF80C1848620020EE
:104B6000DFF8041888620020DFF8FC17C862002014
:104B7000DFF8F41708630020DFF8EC174863002023
:104B8000DFF8E41781F83800DFF8DC0702F00DFFEA
:104B9000002801D000F00CFC0120009006200190BC
:104BA0000020029040F2FF70039004200490002047
:104BB000059000208DF819006946DFF8AC0703F076
:104BC0000DF8002801D000F0F3FB08B010BD80B54F
:104BD000DFF89807DFF8F81508605FF48000DFF869
:104BE000F01548600020DFF8E81588600720DFF83E
:104BF000E015C8600020DFF8D81508610020DFF854
:104C0000D01548615FF08060DFF8C41588615FF0FF
:104C10004050DFF8BC15C8610020DFF8B415086209
:104C20000020DFF8AC1548620020DFF8A415886288
:104C30000020DFF89C15C8625FF08040DFF8901517
:104C400048630020DFF8881588630020DFF88015AE
:104C5000C8630020DFF8781508640020DFF87015BD
:104C600048640020DFF8681588640020DFF86015CC
:104C7000C8640020DFF8581508650020DFF85015DB
:104C800048650020DFF848158865DFF8440500F026
:104C90004BFD002801D000F08BFB01BD18B595B08D
:104CA0000C2100226C46200000F00AFD1C2100228D
:104CB0000EAC200000F004FD2C21002203AC2000EB
:104CC00000F0FEFCDFF8A806DFF87C160860002084
:104CD000DFF8741648600020DFF86C1688604FF427
:104CE0007A40DFF86416C8600020DFF85C160861BF
:104CF0000020DFF8541648610020DFF84C16886168
:104D0000DFF8440601F050FB002801D000F050FB12
:104D10000020009000200190002002906946DFF8FA
:104D2000280603F0F3F9002801D000F041FB6020D1
:104D30000E904FF4FA400F90002010900020129037
:104D400000201390002014900C220EA9DFF8F80523
:104D500001F087FE002801D000F02AFB002003901C
:104D6000002004900020059000200690002007906D
:104D70004FF4005008900020099000200A905FF046
:104D800000700B9000200C9000200D9003A9DFF81C
:104D9000B80503F00AFA002801D000F009FBDFF89B
:104DA000A805FEF71AFD16B010BD10B58AB00C218B
:104DB00000226C46200000F083FC1C21002203AC82
:104DC000200000F07DFC5FF08040DFF88015086077
:104DD0000020DFF8781548600020DFF87015886043
:104DE000DFF89005DFF86415C8600020DFF85C1577
:104DF00008610020DFF854158861DFF8500501F0E4
:104E0000D3FA002801D000F0D3FA0020009000204F
:104E100002906946DFF8340503F078F9002801D0E4
:104E200000F0C6FA60200390DFF84C0504900020E3
:104E30000590002007900C2203A9DFF8100501F06F
:104E400010FE002801D000F0B3FADFF80005FEF7ED
:104E5000C4FC0AB010BD18B587B00C21002204AC08
:104E6000200000F02DFC102100226C46200000F0F4
:104E700027FCDFF80805DFF8081508600020DFF8D8
:104E8000001548600020DFF8F81488604FF6FF70C6
:104E9000DFF8EC14C8600020DFF8E414086100209B
:104EA000DFF8DC148861DFF8D80401F07BFB002810
:104EB00001D000F07DFA002004900020069004A9A3
:104EC000DFF8BC0403F022F9002801D000F070FAEA
:104ED000002000900120019000200290002003900B
:104EE00000226946DFF8980401F056FD002801D041
:104EF00000F05EFA04226946DFF8840401F04CFDFC
:104F0000002801D000F054FA08226946DFF8700446
:104F100001F042FD002801D000F04AFA0C22694657
:104F2000DFF85C0401F038FD002801D000F040FA01
:104F300008B010BD18B587B00C21002204AC2000C9
:104F400000F0BEFB102100226C46200000F0B8FBF0
:104F5000DFF83004DFF8301408600020DFF8281490
:104F600048600020DFF8201488604FF6FF70DFF8FB
:104F70001814C8600020DFF8101408610020DFF862
:104F800008148861DFF8000401F00CFB002801D050
:104F900000F00EFA002004900020069004A9DFF82B
:104FA000E80303F0B3F8002801D000F001FA002074
:104FB0000090012001900020029000200390002228
:104FC0006946DFF8C40301F0E7FC002801D000F0D7
:104FD000EFF904226946DFF8B00301F0DDFC002898
:104FE00001D000F0E5F908226946DFF89C0301F0E2
:104FF000D3FC002801D000F0DBF90C226946DFF871
:10500000880301F0C9FC002801D000F0D1F908B0F4
:1050100010BD18B587B00C21002204AC200000F0B0
:105020004FFB102100226C46200000F049FB69482C
:10503000C74908600020C64948600020C44988600C
:105040004FF6FF70C249C8600020C14908610020C6
:10505000BF4948610020BE498861BD4801F0A2FAFD
:10506000002801D000F0A4F9002004900020059051
:105070000020069004A9B64803F048F8002801D0A3
:1050800000F096F90220009002200190002002908A
:105090000020039000226946AD4801F07DFC002805
:1050A00001D000F085F90020009001200190042239
:1050B0006946A74801F070FC002801D000F078F99B
:1050C00008B010BD80B5B148A34908605FF4E13075
:1050D000A14948600020A049886000209E49C8601E
:1050E00000209D4908610C209B49486100209A4995
:1050F000886100209849C861002097490862002013
:10510000954948620020944988629348FDF7B2F9B6
:10511000002801D000F04CF900218F4803F0C4F8BA
:10512000002801D000F044F900218B4803F0E7F893
:10513000002801D000F03CF9874803F08DF80028E2
:1051400001D000F035F901BD80B591489149086062
:105150005FF4E1308F49486000208E49886000206C
:105160008C49C86000208B4908610C20894948613E
:1051700000208849886100208649C861002085494F
:105180000862002083494862002082498862814881
:10519000FDF770F9002801D000F00AF900217D48E0
:1051A00003F082F8002801D000F002F900217948CC
:1051B00003F0A5F8002801D000F0FAF8754803F0D4
:1051C0004BF8002801D000F0F3F801BD00040258AC
:1051D0003001002000040140980300209C030020BF
:1051E00010B586B0142100226C46200000F068FA49
:1051F0006948006850F01000674908606648006818
:1052000010F01000059005986348006850F0040005
:10521000614908606048006810F004000590059836
:105220005D48006850F001005B4908605A4800681A
:1052300010F00100059005985748006850F00200F2
:10524000554908605448006810F002000590059820
:105250005148006850F008004F4908604E48006807
:1052600010F008000590059800224FF482714B4819
:1052700000F0B9F900224FF40041494800F0B3F9B9
:1052800000226021474800F0AEF941F6FF7000901F
:1052900000200190002002906946414800F08AF801
:1052A00040F638500090002001900020029069469E
:1052B0003D4800F07FF84FF482700090012001908B
:1052C00000200290002003906946344800F072F8F4
:1052D0004FF4004000900120019000200290002037
:1052E000039069462E4800F065F84FF48050009016
:1052F000002001900020029069462C4800F05AF8E6
:105300001820009000200190002002906946254856
:1053100000F050F8602000900120019000200290E1
:105320000020039069461F4800F044F8F8200090E0
:1053300000200190002002906946184800F03AF8D9
:1053400006B010BDA00300201C020020680200204F
:105350004C030020A08600081000002018480258C6
:105360002844025800210240B801002000380040C3
:105370000000014000C4090000E2040000040040F5
:10538000B40200200008004000030020001001408B
:1053900000480040A0000020404502580004025888
:1053A00000100258000C0258000002580008025871
:1053B00072B6FEE7F8B403000025DFF8446208681F
:1053C000E840002800F00D8108680127AF40384010
:1053D0000200002A00F003814868012808D04868CC
:1053E000022805D04868112802D04868122824D124
:1053F0009F685FF0030C2800C0B240001CFA00FC5C
:1054000037EA0C07D1F80CC02800C0B240001CFAE3
:1054100000FC5CEA07079F6058685FF0010C1CFA0B
:1054200005FC30EA0C00D1F804C0CCF3001C1CFAD7
:1054300005FC5CEA000004005C60DF685FF0030CC0
:105440002800C0B240001CFA00FC37EA0C07D1F873
:1054500008C02800C0B240001CFA00FC5CEA070744
:10546000DF604868022802D0486812281ED1280050
:10547000C00803EB8000046A5FF00F0C15F0070012
:10548000C0B280001CFA00FC34EA0C04D1F810C051
:1054900015F00700C0B280001CFA00FC5CEA0404AE
:1054A00027002800C00803EB800007621C685FF03B
:1054B000030C2800C0B240001CFA00FC34EA0C04C3
:1054C00091F804C01CF0030C2800C0B240001CFA84
:1054D00000FC5CEA04041C604868C00040F17F8066
:1054E000DFF82001006850F00200DFF81871386022
:1054F000DFF81001006810F0020000900098DFF85B
:1055000008012F00BF0850F827705FF00F0C15F04E
:105510000300C0B280001CFA00FC37EA0C073B48CD
:10552000834201D100242DE03948834201D1012476
:1055300028E03848834201D1022423E036488342E0
:1055400001D103241EE03548834201D1042419E02F
:105550003348834201D1052414E03248834201D10B
:1055600006240FE03048834201D107240AE02F4887
:10557000834201D1082405E02D48834201D109244A
:1055800000E00A2415F00300C0B2800084402743E5
:105590001D482C00A40840F82470306890434C68E3
:1055A000E40300D510433060746894434F68BF0330
:1055B00000D5144374605FF0B040006890434F68BA
:1055C000FF0200D510435FF0B0442060194C2468FE
:1055D00094434F68BF0200D51443164804606D1C05
:1055E000EDE6F1BC70471300DBB2002B03D00B00DB
:1055F0009BB2836103E00B009BB21B048361704785
:105600008000005854450258080400580000025811
:105610000004025800080258000C025800100258FA
:105620000014025800180258001C025800200258AA
:10563000002402580400005810B50320FCF7E5FED2
:10564000FCF7CAFC0400DFF86000DFF860100968AE
:10565000C1F30321405C10F01F00C440DFF8480094
:10566000DFF84810096811F00F01405C10F01F00CE
:105670002100C140DFF838000160DFF83800046025
:105680000020FCF71FFE002801D0012002E0FDF7FA
:10569000D1FE002010BDDFF82020126882430A43AB
:1056A000DFF814301A6070477086000818440258FA
:1056B0000800002004000020040400587047000087
:1056C00062F30F2262F31F42401810F0030308D068
:1056D000C91A1FD3DB0748BF00F8012D28BF20F8E7
:1056E000022D130030B414461546103928BF20E9A6
:1056F0003C00FAD8490728BF20E90C0048BF40F811
:10570000042D890028BF20F8022D48BF00F8012D84
:1057100030BC7047C91818BF00F8012DCB0728BF4F
:1057200000F8012D7047000070B504000025002C22
:1057300001D10120B8E0606A00280020A062206842
:10574000DFF8281B88420ED02068DFF8241B88422F
:1057500009D02068DFF81C1B884204D0E0681028BC
:1057600001D30120A0E0200000F012FE0600206816
:10577000DFF8F81A88420BD02068DFF8F41A884264
:1057800006D02068DFF8EC1A884201D0092E10D22A
:105790002068DFF8D81A884209D02068DFF8D01ACC
:1057A000884204D02068DFF8CC1A884203D1112E39
:1057B00001D3012078E094F88100002805D1002071
:1057C00084F880002000FDF7ACFE022084F8810000
:1057D000206800684008400021680860A069B0F1B6
:1057E000806F13D16068B0F5800F02D1A06B0028E4
:1057F00006D06068002809D1A06BB0F1805F05D1A8
:105800002068006850F4805021680860E169A06A4F
:1058100001432943E06B0143E06801432068816054
:10582000616B606A0143A06B0143A0690143206979
:10583000014360690143206A014360680143E06CF1
:105840000143A0680143A06C0143A06D014320689F
:10585000C160606800280FD12068806830F4C050B3
:1058600050F40060216888602068806830F4C0606F
:1058700050F48060216888602068006D4008400016
:10588000216808656068400207D52068C16821F07A
:105890000041606D01432068C1600020C4F88400AD
:1058A000012084F88100002070BD2DE9F843060036
:1058B0000D0017001C005FF0000896F8800001281A
:1058C00001D102204DE1012086F88000FCF7FAF9B1
:1058D000814696F88100012805D00220002186F833
:1058E0008010C0B23DE1002D03D0380080B2002806
:1058F00005D10120002186F88010C0B231E10320DB
:1059000086F881000020C6F88400F565A6F860706E
:10591000A6F86270002070660020A6F868000020DB
:10592000A6F86A000020706700203067B068B0F504
:10593000C02F05D13068006850F4006031680860FD
:1059400030684168090C0904380080B201433068AE
:1059500041603068006850F001003168086070688C
:10596000B0F5800F05D13068006850F400703168E0
:105970000860F068102831D3B6F86200002800F003
:10598000D0803068406980070CD5F06D00683168C0
:105990000862F06D001DF065B6F86200401EA6F8C2
:1059A0006200E9E7FCF78EF9B0EB0900A04202D3F0
:1059B00014F1010F01D1002CDED1300000F05CFCAD
:1059C000002086F88000D6F8840050F48070C6F875
:1059D0008400012086F881000120C2E0F0680828D8
:1059E00045D3B6F86200002800F09B80306840691B
:1059F000800720D5B6F8620002280FD3F06B00288C
:105A00000CD0F06D006831680862F06D001DF06523
:105A1000B6F86200801EA6F86200E2E7F06D00882A
:105A200031680884F06D801CF065B6F86200401E95
:105A3000A6F86200D5E7FCF745F9B0EB0900A042F3
:105A400002D314F1010F01D1002CCAD1300000F0B3
:105A500013FC002086F88000D6F8840050F4807093
:105A6000C6F88400012086F88100012079E0B6F8AC
:105A70006200002855D030684069800735D5B6F8F7
:105A8000620004280FD3F06B41280CD3F06D00683E
:105A900031680862F06D001DF065B6F86200001F05
:105AA000A6F86200E3E7B6F8620002280FD3F06BB5
:105AB00000280CD0F06D008831680884F06D801CDF
:105AC000F065B6F86200801EA6F86200CFE7F06DC0
:105AD0000078316881F82000F06D401CF065B6F860
