:020000040800F2
:10000000200800241DAA000881A8000883A8000871
:1000100085A8000887A8000889A80008000000003B
:100020000000000000000000000000008BA8000895
:100030008DA80008000000008FA8000891A8000803
:1000400065AA000869AA00086DAA000871AA00083C
:1000500075AA000879AA00087DAA000881AA0008EC
:1000600085AA000889AA00088DAA000899A8000896
:1000700091AA000895AA000899AA00089DAA00085C
:10008000A1AA0008A5AA0008A9AA0008ADAA00080C
:10009000B1AA0008B5AA0008B9AA0008BDAA0008BC
:1000A000C1AA0008C5AA0008C9AA0008CDAA00086C
:1000B000D1AA0008A3A80008D5AA0008D9AA000858
:1000C000DDAA0008E1AA0008E5AA0008E9AA0008DC
:1000D000EDAA0008ADA80008F1AA0008F5AA0008DA
:1000E000F9AA0008FDAA000801AB000805AB00084A
:1000F00009AB00080DAB0008B7A8000811AB000859
:1001000015AB000819AB00081DAB000821AB0008B7
:1001100025AB000829AB00082DAB000831AB000867
:1001200035AB000839AB00083DAB000841AB000817
:1001300045AB0008000000000000000049AB0008CB
:100140004DAB000851AB000855AB000859AB000897
:100150005DAB000861AB000865AB000869AB000847
:100160006DAB000871AB000875AB000879AB0008F7
:100170007DAB000881AB000885AB000800000000E3
:1001800089AB00088DAB000891AB000895AB000867
:1001900099AB00089DAB0008A1AB0008A5AB000817
:1001A000A9AB0008ADAB0008B1AB0008B5AB0008C7
:1001B000B9AB0008BDAB0008C1AB0008C5AB000877
:1001C000C9AB0008CDAB0008000000000000000033
:1001D0000000000000000000D1AB0008000000009B
:1001E000000000000000000000000000000000000F
:1001F0000000000000000000D5AB0008D9AB0008EB
:10020000DDAB0008E1AB000800000000E5AB000832
:10021000E9AB0008EDAB0008F1AB0008F5AB000856
:10022000F9AB0008FDAB000801AC000800000000BD
:1002300005AC000809AC0008000000000DAC000887
:1002400011AC000815AC000819AC00081DAC000882
:1002500021AC000825AC000829AC00082DAC000832
:1002600031AC000835AC000839AC00083DAC0008E2
:1002700041AC000845AC000849AC00080000000093
:100280004DAC000851AC00080000000055AC00085F
:100290000000000059AC00085DAC00080000000040
:1002A0000000000061AC000865AC00082DE9F041D9
:1002B000040002F0B9FA0700002C01D10120B2E2DB
:1002C0002068DFF8681588424AD02068DFF860159A
:1002D000884245D02068DFF85C15884240D020680D
:1002E000DFF8541588423BD02068DFF8501588426B
:1002F00036D02068DFF84815884231D02068DFF812
:10030000441588422CD02068DFF83C15884227D05D
:100310002068DFF83815884222D02068DFF83015D1
:1003200088421DD02068DFF82C15884218D020683C
:10033000DFF82415884213D02068DFF820158842A2
:100340000ED02068DFF81815884209D02068DFF841
:100350001415884204D02068DFF80C15884201D1BA
:10036000012000E00020C0B2002800F0E580606AB3
:100370000028002084F83400022084F8350020682A
:10038000DFF8A81488424AD02068DFF8A414884215
:1003900045D02068DFF89C14884240D02068DFF800
:1003A000981488423BD02068DFF89014884236D0F9
:1003B0002068DFF88C14884231D02068DFF884147C
:1003C00088422CD02068DFF88014884227D020682B
:1003D000DFF87814884222D02068DFF8741488424D
:1003E0001DD02068DFF86C14884218D02068DFF830
:1003F0006814884213D02068DFF8601488420ED059
:100400002068DFF85C14884209D02068DFF85414B3
:10041000884204D02068DFF85014884206D1206852
:100420000068400840002168086005E02068006816
:10043000400840002168086020680068C0070BD5AC
:1004400002F0F2F9C01B0628F6D3202060650320D5
:1004500084F835000120E6E120680168DFF80C042B
:100460000140A0680143E0680143206901436069DD
:100470000143A0690143E0690143206A0143606AC6
:10048000042803D1E06A0143206B014360682928F6
:1004900002D360682F2817D360683F2802D36068B2
:1004A000432811D36068472802D3606849280BD3DA
:1004B00060684F2802D36068532805D360687428A9
:1004C00004D36068782801D2012000E00020C0B287
:1004D000002801D051F48011206801602068D0F814
:1004E00014805FEAD8085FEAC808606A50EA080822
:1004F000606A042811D1A06A50EA0808E06A00285E
:100500000BD0200002F068F8002806D0402060657B
:10051000012084F83500012085E12068C0F81480AE
:10052000200001F0CBFF05003F2094F85C1011F093
:100530001F018840A860CCE02068DFF80C158842D5
:100540004AD02068DFF80415884245D02068DFF8DB
:100550000015884240D02068DFF8F81488423BD06C
:100560002068DFF8F414884236D02068DFF8EC14F5
:10057000884231D02068DFF8E81488422CD0206807
:10058000DFF8E014884227D02068DFF8DC148842C6
:1005900022D02068DFF8D41488421DD02068DFF80C
:1005A000D014884218D02068DFF8C814884213D0CD
:1005B0002068DFF8C41488420ED02068DFF8BC142D
:1005C000884209D02068DFF8B814884204D0206837
:1005D000DFF8B014884201D1012000E00020C0B251
:1005E00000286FD02068DFF88014884222D020686D
:1005F000DFF8781488421DD02068DFF87414884230
:1006000018D02068DFF86C14884213D02068DFF817
:10061000681488420ED02068DFF86014884209D040
:100620002068DFF85C14884204D02068DFF8541496
:10063000884201D1012000E00020C0B20028002043
:1006400084F83400022084F835002068D0F8008057
:100650006FF31018A068402801D1102006E0A068B0
:10066000802802D14FF4804000E0002050EA0808C2
:10067000E06858EAD008206958EAD008606958EA6A
:10068000D008A06958EAD008E06958EAD008206A82
:1006900058EA10182068C0F800802168DFF8E803E5
:1006A00041181420B1FBF0F08000E065200001F05B
:1006B00005FF0600012094F85C1011F01F0188402E
:1006C000706006E040206065032084F8350001205A
:1006D000A9E02068DFF85411884272D02068DFF862
:1006E000501188426DD02068DFF84811884268D0E8
:1006F0002068DFF84411884263D02068DFF83C119D
:1007000088425ED02068DFF83811884259D02068CE
:10071000DFF83011884254D02068DFF82C1188426D
:100720004FD02068DFF8241188424AD02068DFF8D3
:100730002011884245D02068DFF81811884240D047
:100740002068DFF8141188423BD02068DFF80C11D4
:10075000884236D02068DFF80811884231D02068FE
:10076000DFF8001188422CD02068DFF8FC108842A6
:1007700027D02068DFF8F012884222D02068DFF806
:10078000EC1288421DD02068DFF8E412884218D0AD
:100790002068DFF8E012884213D02068DFF8D81212
:1007A00088420ED02068DFF8D412884209D0206831
:1007B000DFF8CC12884204D02068DFF8C8128842E3
:1007C00001D1012000E00020C0B2002825D0200087
:1007D00001F04FFFA068802801D1002060602079DF
:1007E00000F0FF00216E0860A06E616E48606068D6
:1007F00000280CD06068092809D2200001F08FFF82
:100800000020E16E0860606F216F486005E0002005
:10081000E0660020206700206067002060650120FE
:1008200084F835000020BDE8F0810000100002408F
:100830002800024040000240580002407000024080
:1008400088000240A0000240B800024010040240AC
:100850002804024040040240580402407004024050
:1008600088040240A0040240B80402403F8010FE09
:100870002DE9F04104000D0016001F005FF0000894
:10088000002C01D10120DDE094F83400012801D1D1
:100890000220D7E0012084F8340094F835000128C4
:1008A00040F0C680022084F8350000206065206892
:1008B000DFF86C1588424AD02068DFF86815884256
:1008C00045D02068DFF86015884240D02068DFF806
:1008D0005C1588423BD02068DFF85415884236D03A
:1008E0002068DFF85015884231D02068DFF84815BD
:1008F00088422CD02068DFF84415884227D0206831
:10090000DFF83C15884222D02068DFF8381588428D
:100910001DD02068DFF83015884218D02068DFF835
:100920002C15884213D02068DFF8241588420ED099
:100930002068DFF82015884209D02068DFF81815F4
:10094000884204D02068DFF8E819884206D1206880
:100950000068400840002168086005E020680068E1
:1009600040084000216808603B0032002900200058
:1009700001F04AFC2068DFF8A81488424AD02068B9
:10098000DFF8A014884245D02068DFF89C14884224
:1009900040D02068DFF8941488423BD02068DFF80C
:1009A0009014884236D02068DFF88814884231D00D
:1009B0002068DFF8841488422CD02068DFF87C148B
:1009C000884227D02068DFF87814884222D0206837
:1009D000DFF8701488421DD02068DFF86C1488425C
:1009E00018D02068DFF86414884213D02068DFF83C
:1009F000601488420ED02068DFF85814884209D06D
:100A00002068DFF85414884204D02068DFF82019E9
:100A1000884206D12068006850F001002168086013
:100A20000EE02068006850F001002168086007E0CF
:100A3000002084F834004FF4006060650120804697
:100A40004046C0B2BDE8F081082C02481C2C024888
:100A5000302C0248442C0248582C02486C2C024886
:100A6000802C0248942C0248085402581C54025806
:100A70003054025844540258585402586C54025886
:100A80008054025894540258F8ABFDA72DE9F04168
:100A900004000D0016001F005FF00008002C01D1BB
:100AA0000120BAE194F83400012801D10220B4E118
:100AB000012084F8340094F83500012840F0A38127
:100AC000022084F83500002060652068DFF85013AC
:100AD00088424AD02068DFF84C13884245D020680D
:100AE000DFF84413884240D02068DFF84013884282
:100AF0003BD02068DFF83813884236D02068DFF812
:100B00003413884231D02068DFF82C1388422CD06F
:100B10002068DFF82813884227D02068DFF82013E8
:100B2000884222D02068DFF81C1388421DD020683C
:100B3000DFF81413884218D02068DFF810138842B9
:100B400013D02068DFF8081388420ED02068DFF841
:100B50000413884209D02068DFF8FC12884204D0D0
:100B60002068DFF8CC17884206D12068006840086A
:100B700040002168086005E02068006840084000E7
:100B8000216808603B0032002900200001F03CFB96
:100B90002068A34988423CD02068A249884238D0C6
:100BA0002068A149884234D02068A049884230D0CA
:100BB00020689F4988422CD020689E49884228D0CE
:100BC00020689D49884224D020689C49884220D0D2
:100BD00020689B4988421CD020689A49884218D0D6
:100BE00020689949884214D020689849884210D0DA
:100BF0002068974988420CD020689649884208D0DE
:100C000020689549884204D02068DFF8241788427C
:100C100001D1012000E00020C0B2002811D02068DE
:100C2000006830F01E0050F0160021680860206C4B
:100C3000002817D02068006850F00800216808607C
:100C400010E02068006830F00E0050F00A002168C3
:100C50000860206C002805D02068006850F004006F
:100C60002168086020686E49884264D020686D4918
:100C7000884260D020686C4988425CD020686B490B
:100C8000884258D020686A49884254D0206869490F
:100C9000884250D02068684988424CD02068674913
:100CA000884248D020686649884244D02068654917
:100CB000884240D02068644988423CD0206863491B
:100CC000884238D020686249884234D0206861491F
:100CD000884230D02068604988422CD02068DFF8F4
:100CE0005016884227D02068DFF84816884222D064
:100CF0002068DFF8441688421DD02068DFF83C16D3
:100D0000884218D02068DFF83816884213D020684F
:100D1000DFF8301688420ED02068DFF82C168842A3
:100D200009D02068DFF82416884204D02068DFF854
:100D30002016884201D1012000E00020C0B2002826
:100D400012D0206E0068C00305D5206E006850F4F4
:100D50008070216E0860E06E002805D0E06E0068AB
:100D600050F48070E16E086020682D4988423CD0C4
:100D700020682C49884238D020682B49884234D0DA
:100D800020682A49884230D02068294988422CD0DE
:100D900020682849884228D020682749884224D0E2
:100DA00020682649884220D02068254988421CD0E6
:100DB00020682449884218D020682349884214D0EA
:100DC00020682249884210D02068214988420CD0EE
:100DD00020682049884208D020681F49884204D0F2
:100DE0002068DFF84C15884206D12068006850F072
:100DF0000100216808600EE02068006850F00100E2
:100E00002168086007E0002084F834004FF4006097
:100E10006065012080464046C0B2BDE8F081000018
:100E200010000240280002404000024058000240EA
:100E30007000024088000240A0000240B80002405A
:100E400010040240280402404004024058040240BA
:100E50007004024088040240A00402402DE9F041E1
:100E6000040001F0E1FC0700002C01D101205DE24B
:100E700094F83500022806D080206065002084F8B0
:100E80003400012052E22068DFF80C1888424AD072
:100E90002068DFF80818884245D02068DFF800187D
:100EA000884240D02068DFF8FC1788423BD0206899
:100EB000DFF8F417884236D02068DFF8F017884250
:100EC00031D02068DFF8E81788422CD02068DFF89E
:100ED000E417884227D02068DFF8DC17884222D048
:100EE0002068DFF8D81788421DD02068DFF8D017B7
:100EF000884218D02068DFF8CC17884213D02068C9
:100F0000DFF8C41788420ED02068DFF8C017884287
:100F100009D02068DFF8B817884204D02068DFF8CD
:100F20001014884201D1012000E00020C0B2002846
:100F30000ED02068006830F01E002168086020682C
:100F4000406930F0800021684861D4F8008007E0F3
:100F50002068006830F00E0021680860D4F8008036
:100F60002068DFF83417884272D02068DFF82C1729
:100F700088426DD02068DFF82817884268D0206842
:100F8000DFF82017884263D02068DFF81C178842FA
:100F90005ED02068DFF81417884259D02068DFF847
:100FA0001017884254D02068DFF8081788424FD0C5
:100FB0002068DFF8041788424AD02068DFF8FC1662
:100FC000884245D02068DFF8F816884240D0206873
:100FD000DFF8F01688423BD02068DFF8EC16884234
:100FE00036D02068DFF8E416884231D02068DFF878
:100FF000E01688422CD02068DFF83413884227D0CE
:101000002068DFF83013884222D02068DFF82813E8
:1010100088421DD02068DFF82413884218D0206849
:10102000DFF81C13884213D02068DFF818138842B9
:101030000ED02068DFF81013884209D02068DFF84E
:101040000C13884204D02068DFF80413884201D1D1
:10105000012000E00020C0B2002805D0206E00680A
:1010600030F48070216E08602068DFF82C1688420A
:1010700049D02068DFF82416884244D02068DFF881
:10108000201688423FD02068DFF8181688423AD0F0
:101090002068DFF81416884235D02068DFF80C1677
:1010A000884230D02068DFF8081688422BD02068AC
:1010B000DFF80016884226D02068DFF8FC15884249
:1010C00021D02068DFF8F41588421CD02068DFF8B2
:1010D000F015884217D02068DFF8E815884212D052
:1010E0002068DFF8E41588420DD02068DFF8DC15B1
:1010F000884208D02068DFF8D815884203D02068DD
:101100008B49884206D12068006840084000216869
:10111000086005E020680068400840002168086019
:10112000D8F80000C0070ED501F07EFBC01B0628D2
:10113000F6D320206065002084F83400032084F872
:1011400035000120F2E02068DFF84C15884249D0D4
:101150002068DFF84815884244D02068DFF8401541
:1011600088423FD02068DFF83C1588423AD020689A
:10117000DFF83415884235D02068DFF83015884212
:1011800030D02068DFF8281588422BD02068DFF89F
:101190002415884226D02068DFF81C15884221D00B
:1011A0002068DFF8181588421CD02068DFF8101579
:1011B000884217D02068DFF80C15884212D02068CA
:1011C000DFF8041588420DD02068DFF8001588424A
:1011D00008D02068DFF8F814884203D0206854490A
:1011E000884201D1012000E00020C0B2002809D0CF
:1011F000A06D05003F2094F85C1011F01F0188409D
:10120000A86008E0A06D0600012094F85C1011F0C1
:101210001F01884070602068DFF87C14884269D024
:101220002068DFF87814884264D02068DFF87014F2
:1012300088425FD02068DFF86C1488425AD020685A
:10124000DFF86414884255D02068DFF860148842C3
:1012500050D02068DFF8581488424BD02068DFF85F
:101260005414884246D02068DFF84C14884241D09C
:101270002068DFF8481488423CD02068DFF840142A
:10128000884237D02068DFF83C14884232D020688A
:10129000DFF8341488422DD02068DFF830148842FB
:1012A00028D02068DFF82814884223D020682049FD
:1012B00088421FD020681F4988421BD020681E49E1
:1012C000884217D020681D49884213D020681C49E5
:1012D00088420FD020681B4988420BD020681A49E9
:1012E000884207D020681949884203D020681849ED
:1012F000884201D1012000E00020C0B200280ED0B9
:10130000A06E616E4860E06E002808D0E06E006854
:1013100030F48070E16E0860606F216F48600020DB
:1013200084F83400012084F835000020BDE8F08105
:10133000B8040240085402581C5402583054025851
:1013400044540258585402586C540258805402585D
:101350009454025838B50400002C01D101209AE1C0
:1013600094F83500022803D080206065012092E1C6
:101370002068DFF8241388424AD02068DFF81C1365
:10138000884245D02068DFF81813884240D0206892
:10139000DFF8101388423BD02068DFF80C13884236
:1013A00036D02068DFF80413884231D02068DFF897
:1013B000001388422CD02068DFF8F812884227D02A
:1013C0002068DFF8F412884222D02068DFF8EC129F
:1013D00088421DD02068DFF8E812884218D02068C3
:1013E000DFF8E012884213D02068DFF8DC12884270
:1013F0000ED02068DFF8D412884209D02068DFF8C8
:10140000D012884204D02068DFF8C812884201D187
:10141000012000E00020C0B2002850D0042084F851
:10142000350020689C4988423BD020689B4988420F
:1014300037D020689A49884233D020689949884239
:101440002FD02068984988422BD02068974988423D
:1014500027D020689649884223D020689549884241
:101460001FD02068944988421BD020689349884245
:1014700017D020689249884213D020689149884249
:101480000FD02068904988420BD020688F4988424D
:1014900007D020688E49884203D020688D49884251
:1014A00006D1206800684008400021680860F1E02B
:1014B000206800684008400021680860EAE0206871
:1014C000006830F00E002168086020687249884288
:1014D0003BD020687149884237D0206870498842E3
:1014E00033D020686F4988422FD020686E498842E7
:1014F0002BD020686D49884227D020686C498842EB
:1015000023D020686B4988421FD020686A498842EE
:101510001BD020686949884217D0206868498842F2
:1015200013D02068674988420FD0206866498842F6
:101530000BD020686549884207D0206864498842FA
:1015400003D020686349884206D1206800684008BB
:1015500040002168086005E02068006840084000FD
:101560002168086020684C49884263D020684B4954
:1015700088425FD020684A4988425BD02068494948
:10158000884257D020684849884253D0206847494C
:1015900088424FD02068464988424BD02068454950
:1015A000884247D020684449884243D02068434954
:1015B00088423FD02068424988423BD02068414958
:1015C000884237D020684049884233D020683F495C
:1015D00088422FD020683E4988422BD020683D4960
:1015E000884227D02068DFF8F010884222D0206897
:1015F000DFF8E81088421DD02068DFF8E410884248
:1016000018D02068DFF8DC10884213D02068DFF89B
:10161000D81088420ED02068DFF8D010884209D058
:101620002068DFF8CC10884204D02068DFF8C410AE
:10163000884201D1012000E00020C0B200281DD066
:10164000206E006830F48070216E0860A06D050087
:10165000012094F85C1011F01F0188406860A06EB2
:10166000616E4860E06E002808D0E06E006830F4DB
:101670008070E16E0860606F216F4860002084F820
:101680003400012084F83500206D002802D02000AD
:10169000216D8847002032BD100002402800024022
:1016A00040000240580002407000024088000240A2
:1016B000A0000240B800024010040240280402408A
:1016C0004004024058040240700402408804024072
:1016D000A0040240B8040240085402581C540258A6
:1016E0003054025844540258585402586C5402580A
:1016F00080540258945402582DE9FC4704000020FD
:101700000090DFF8C00A00684FF41651B0FBF1F604
:10171000A76DD4F85880D7F80090D8F800A02068BA
:10172000DFF8A41A88424AD02068DFF8A01A88425D
:1017300045D02068DFF8981A884240D02068DFF84A
:10174000941A88423BD02068DFF88C1A884236D041
:101750002068DFF8881A884231D02068DFF8801AC4
:1017600088422CD02068DFF87C1A884227D0206875
:10177000DFF8741A884222D02068DFF8701A884295
:101780001DD02068DFF8681A884218D02068DFF87A
:10179000641A884213D02068DFF85C1A88420ED0A1
:1017A0002068DFF8581A884209D02068DFF8501AFC
:1017B000884204D02068DFF84C1A884201D1012009
:1017C00000E00020C0B2002800F03083082094F828
:1017D0005C1011F01F01884019EA000F6BD02068DF
:1017E000DFF8E41988424AD02068DFF8E01988421F
:1017F00045D02068DFF8D819884240D02068DFF84B
:10180000D41988423BD02068DFF8CC19884236D002
:101810002068DFF8C819884231D02068DFF8C01985
:1018200088422CD02068DFF8BC19884227D0206875
:10183000DFF8B419884222D02068DFF8B019884256
:101840001DD02068DFF8A819884218D02068DFF87A
:10185000A419884213D02068DFF89C1988420ED062
:101860002068DFF89819884209D02068DFF89019BD
:10187000884204D02068DFF88C19884204D120689F
:10188000006810F0040003E02068006810F0080011
:10189000002810D02068006830F00400216808603B
:1018A000082094F85C1011F01F018840B860606D4A
:1018B00050F00100606594F85C0010F01F0049468C
:1018C000C140C80764D52068DFF8FC1888424AD0B8
:1018D0002068DFF8F818884245D02068DFF8F01853
:1018E000884240D02068DFF8EC1888423BD020685E
:1018F000DFF8E418884236D02068DFF8E018884224
:1019000031D02068DFF8D81888422CD02068DFF862
:10191000D418884227D02068DFF8CC18884222D01B
:101920002068DFF8C81888421DD02068DFF8C0188A
:10193000884218D02068DFF8BC18884213D020688D
:10194000DFF8B41888420ED02068DFF8B01888425B
:1019500009D02068DFF8A818884204D02068DFF892
:10196000A418884204D12068406910F0800002E089
:1019700020680068002000280AD0012094F85C103C
:1019800011F01F018840B860606D50F00200606582
:10199000042094F85C1011F01F01884019EA000F30
:1019A00064D02068DFF8201888424AD02068DFF829
:1019B0001C18884245D02068DFF81418884240D0AF
:1019C0002068DFF8101888423BD02068DFF808183C
:1019D000884236D02068DFF80418884231D0206869
:1019E000DFF8FC1788422CD02068DFF8F81788420F
:1019F00027D02068DFF8F017884222D02068DFF86F
:101A0000EC1788421DD02068DFF8E417884218D010
:101A10002068DFF8E017884213D02068DFF8D81775
:101A200088420ED02068DFF8D417884209D0206899
:101A3000DFF8CC17884204D02068DFF8C817884246
:101A400004D12068006810F0020002E020680068FD
:101A5000002000280AD0042094F85C1011F01F0127
:101A60008840B860606D50F004006065102094F804
:101A70005C1011F01F01884019EA000F00F0888007
:101A80002068DFF8441788424AD02068DFF83C1706
:101A9000884245D02068DFF83817884240D0206857
:101AA000DFF8301788423BD02068DFF82C178842D7
:101AB00036D02068DFF82417884231D02068DFF85C
:101AC000201788422CD02068DFF81817884227D0CA
:101AD0002068DFF81417884222D02068DFF80C173E
:101AE00088421DD02068DFF80817884218D0206887
:101AF000DFF80017884213D02068DFF8FC16884210
:101B00000ED02068DFF8F416884209D02068DFF88C
:101B1000F016884204D02068DFF8E816884204D125
:101B20002068006810F0080003E02068006810F0EA
:101B3000040000282CD0102094F85C1011F01F0134
:101B40008840B86020680068400311D520680068AC
:101B5000000306D4206C00281AD02000216C88478E
:101B600016E0A06C002813D02000A16C88470FE07D
:101B700020680068C00505D42068006830F00800BF
:101B800021680860206C002802D02000216C884762
:101B9000202094F85C1011F01F01884019EA000F12
:101BA00000F0BE802068DFF8201688424AD0206806
:101BB000DFF81816884245D02068DFF814168842EE
:101BC00040D02068DFF80C1688423BD02068DFF850
:101BD0000816884236D02068DFF80016884231D0D7
:101BE0002068DFF8FC1588422CD02068DFF8F41557
:101BF000884227D02068DFF8F015884222D020687C
:101C0000DFF8E81588421DD02068DFF8E415884227
:101C100018D02068DFF8DC15884213D02068DFF880
:101C2000D81588420ED02068DFF8D015884209D038
:101C30002068DFF8CC15884204D02068DFF8C4158E
:101C4000884204D12068006810F0100003E020688A
:101C5000006810F00200002862D0202094F85C1088
:101C600011F01F018840B86094F8350004282BD18A
:101C70002068006830F0160021680860206840691C
:101C800030F0800021684861206C002802D1A06CEF
:101C9000002805D02068006830F00800216808603E
:101CA0003F2094F85C1011F01F018840B8600020BC
:101CB00084F83400012084F83500206D002802D01B
:101CC0002000216D88477AE220680068400311D522
:101CD00020680068000306D4606C002820D0200033
:101CE000616C88471CE0E06B002819D02000E16B94
:101CF000884715E020680068C0050BD4206800689C
:101D000030F0100021680860002084F834000120C1
:101D100084F83500E06B002802D02000E16B884792
:101D2000606D002800F04B82606DC00776D50420FE
:101D300084F835002068DFF8901488424AD0206883
:101D4000DFF88814884245D02068DFF88414884280
:101D500040D02068DFF87C1488423BD02068DFF850
:101D60007814884236D02068DFF87014884231D069
:101D70002068DFF86C1488422CD02068DFF86414E7
:101D8000884227D02068DFF86014884222D020687B
:101D9000DFF8581488421DD02068DFF854148842B8
:101DA00018D02068DFF84C14884213D02068DFF880
:101DB000481488420ED02068DFF84014884209D0C9
:101DC0002068DFF83C14884204D02068DFF834141F
:101DD000884206D1206800684008400021680860F9
:101DE00005E020680068400840002168086000980D
:101DF000401C0090864203D320680068C007F6D4D8
:101E0000002084F8340020680068C00703D5032050
:101E100084F8350002E0012084F83500E06C0028E9
:101E200000F0CD812000E16C8847C8E12068DFF830
:101E3000681788424AD02068DFF86017884245D08A
:101E40002068DFF85C17884240D02068DFF854171C
:101E500088423BD02068DFF85017884236D020688F
:101E6000DFF84817884231D02068DFF844178842ED
:101E70002CD02068DFF83C17884227D02068DFF894
:101E80003817884222D02068DFF8301788421DD0EA
:101E90002068DFF82C17884218D02068DFF8241754
:101EA000884213D02068DFF8201788420ED02068BF
:101EB000DFF81817884209D02068DFF81417884225
:101EC00004D02068DFF80C17884201D1012000E01F
:101ED0000020C0B2002800F0728120680068050070
:101EE000042094F85C1011F01F0188401AEA000FDA
:101EF00074D0680772D5042094F85C1011F01F01AB
:101F00008840C8F80400280411D5E80307D4A06C61
:101F1000002800F054812000A16C88474FE1206C1C
:101F2000002800F04C812000216C884747E1A8067A
:101F30004CD42068A44988423BD02068A3498842F9
:101F400037D02068A249884233D02068A14988420E
:101F50002FD02068A04988422BD020689F49884212
:101F600027D020689E49884223D020689D49884216
:101F70001FD020689C4988421BD020689B4988421A
:101F800017D020689A49884213D02068994988421E
:101F90000FD02068984988420BD020689749884222
:101FA00007D020689649884203D020689549884226
:101FB00006D12068006830F008002168086005E05C
:101FC0002068006830F0040021680860206C002858
:101FD00000F0F5802000216C8847F0E0022094F8A2
:101FE0005C1011F01F0188401AEA000F79D0A80791
:101FF00077D5022094F85C1011F01F018840C8F8D2
:102000000400280411D5E80307D4606C002800F010
:10201000D6802000616C8847D1E0E06B002800F09A
:10202000CE802000E16B8847C9E0A80652D4206822
:10203000654988423BD020686449884237D020688F
:102040006349884233D02068624988422FD0206893
:10205000614988422BD020686049884227D0206897
:102060005F49884223D020685E4988421FD020689B
:102070005D4988421BD020685C49884217D020689F
:102080005B49884213D020685A4988420FD02068A3
:10209000594988420BD020685849884207D02068A7
:1020A0005749884203D020685649884206D12068A3
:1020B000006830F014002168086005E020680068BE
:1020C00030F00A0021680860002084F83400012004
:1020D00084F83500E06B002871D02000E16B884760
:1020E0006DE0082094F85C1011F01F0188401AEA96
:1020F000000F64D0280762D52068334988423BD05E
:1021000020683249884237D020683149884233D02C
:102110002068304988422FD020682F4988422BD030
:1021200020682E49884227D020682D49884223D034
:1021300020682C4988421FD020682B4988421BD038
:1021400020682A49884217D020682949884213D03C
:102150002068284988420FD02068274988420BD040
:1021600020682649884207D020682549884203D044
:1021700020682449884206D12068006830F01C009D
:102180002168086005E02068006830F00E002168D2
:102190000860012094F85C1011F01F018840C8F815
:1021A000040001206065002084F83400012084F8D8
:1021B0003500E06C002802D02000E16C8847BDE8C3
:1021C000F3870000040000241000024028000240B1
:1021D0004000024058000240700002408800024067
:1021E000A0000240B800024010040240280402404F
:1021F0004004024058040240700402408804024037
:10220000A0040240B8040240F0B4856D866D0468F5
:10221000DFF88C75BC4272D00468DFF88875BC4268
:102220006DD00468DFF88075BC4268D00468DFF8C0
:102230007C75BC4263D00468DFF87475BC425ED024
:102240000468DFF87075BC4259D00468DFF868751F
:10225000BC4254D00468DFF86475BC424FD00468B7
:10226000DFF85C75BC424AD00468DFF85875BC42A0
:1022700045D00468DFF85075BC4240D00468DFF8F0
:102280004C75BC423BD00468DFF84475BC4236D084
:102290000468DFF84075BC4231D00468DFF8387557
:1022A000BC422CD00468DFF83475BC4227D00468E7
:1022B000DFF80473BC4222D00468DFF80073BC422C
:1022C0001DD00468DFF8F872BC4218D00468DFF84B
:1022D000F472BC4213D00468DFF8EC72BC420ED03A
:1022E0000468DFF8E872BC4209D00468DFF8E072E5
:1022F000BC4204D00468DFF8E874BC4201D1012478
:1023000000E00024E4B2002C08D0846E476E7C60AC
:10231000C46E002C02D0446F076F7C600468DFF845
:102320008074BC424AD00468DFF87874BC4245D05F
:102330000468DFF87474BC4240D00468DFF86C7441
:10234000BC423BD00468DFF86874BC4236D00468F5
:10235000DFF86074BC4231D00468DFF85C74BC42C2
:102360002CD00468DFF85474BC4227D00468DFF82E
:102370005074BC4222D00468DFF84874BC421DD0BF
:102380000468DFF84474BC4218D00468DFF83C7479
:10239000BC4213D00468DFF83874BC420ED0046825
:1023A000DFF83074BC4209D00468DFF82C74BC42FA
:1023B00004D00468DFF82474BC4201D1012400E099
:1023C0000024E4B2002C1BD03F2490F85C7017F07E
:1023D0001F07BC40AC600468246834F4802407689C
:1023E0003C60046863608468402C04D10468A26087
:1023F0000468E16060E00468A1600468E2605BE09A
:102400000468654FBC423CD00468644FBC4238D07D
:102410000468634FBC4234D00468624FBC4230D081
:102420000468614FBC422CD00468604FBC4228D085
:1024300004685F4FBC4224D004685E4FBC4220D089
:1024400004685D4FBC421CD004685C4FBC4218D08D
:1024500004685B4FBC4214D004685A4FBC4210D091
:102460000468594FBC420CD00468584FBC4208D095
:102470000468574FBC4204D00468DFF86473BC4260
:1024800001D1012400E00024E4B2002C14D0012486
:1024900090F85C7017F01F07BC40746004686360BC
:1024A0008468402C04D10468A2600468E16003E001
:1024B0000468A1600468E260F0BC70470168DFF85E
:1024C000E022914241D00168DFF8D82291423CD00D
:1024D0000168DFF8D422914237D00168DFF8CC22BE
:1024E000914232D00168DFF8C82291422DD00168B4
:1024F000DFF8C022914228D00168DFF8BC22914267
:1025000023D00168AD4A91421FD00168AC4A914284
:102510001BD00168AB4A914217D00168AA4A914288
:1025200013D00168A94A91420FD00168A84A91428C
:102530000BD00168A74A914207D00168A64A914290
:1025400003D00168A54A914201D1012100E0002198
:10255000C9B2002918D0017801F0FF011039182202
:10256000B1FBF2F19F4A11F00703D25CC265042966
:1025700005D30268920A9202121D826508E0026881
:10258000920A9202826503E00168090A09028165E4
:10259000806D704700000000082C02481C2C024887
:1025A000302C0248442C0248582C02486C2C02481B
:1025B000802C0248942C0248085402581C5402589B
:1025C0003054025844540258585402586C5402581B
:1025D0008054025894540258020000209169002946
:1025E00017D1916A002905D0022903D008D3032905
:1025F0000DD00DE0D16AC90101D50121080036E0F6
:10260000D16AB1F1C07F01D1012108002FE02EE095
:102610002DE09169B1F5005F19D1916A002905D0CB
:10262000022903D005D3032909D00FE001210800B6
:102630001DE0D16AC90101D50121080017E0D16A66
:10264000B1F1C07F01D10121080010E00FE0916AD3
:102650000029022902D9C91E03D008E0012108007F
:1026600005E0D16AC90101D501210800FFE7C0B228
:10267000704710B4026801685B4B99421BD0016837
:102680005A4B994217D00168594B994213D00168AF
:10269000584B99420FD00168574B99420BD00168B3
:1026A000564B994207D00168554B994203D00168B7
:1026B0004B4B994201D1012100E00021C9B2002910
:1026C00012D0017801F0FF0108391423B1FBF3F3B4
:1026D0004C4911EB830101664B494166012413F01B
:1026E0001F018C40846618E0017801F0FF01103969
:1026F0001823B1FBF3F345498A4203D230498A4299
:1027000000D30833424911EB830101664149416618
:10271000012413F01F018C40846610BC70470179BE
:1027200001F0FF01002939D0092937D202682E4B68
:102730009A421BD002682D4B9A4217D002682C4B4C
:102740009A4213D002682B4B9A420FD002682A4B50
:102750009A420BD00268294B9A4207D00268284B54
:102760009A4203D002681E4B9A4201D1012200E036
:102770000022D2B2002A06D0274A12EB8102C2669A
:10278000264A026705E0264A12EB8102C266254A04
:102790000267012311F1FF02934043677047000075
:1027A0001000024028000240400002405800024051
:1027B0007000024088000240A0000240B8000240C1
:1027C0001004024028040240400402405804024021
:1027D0007004024088040240A0040240B804024091
:1027E0009454025848AA0008085402581C5402582D
:1027F0003054025844540258585402586C540258E9
:10280000805402580058025880580258B9040240B7
:102810000008024080080240FC5802584059025803
:10282000FC0802404009024001480068704700BFB0
:102830001C0400242DE9F041040000275FF000088B
:102840002068000135D5A06E002809D0B0F5801FA2
:102850000FD0B0F5001F12D0B0F5401F16D016E013
:10286000DFF8840A006850F40030DFF87C1A086052
:102870000FE00221201D01F09FFB070009E002216B
:1028800014F1240001F034FC070002E001E0012013
:1028900007003800C0B200280AD1DFF8500A0168EA
:1028A00031F44011A06E0143DFF8400A016000E0FE
:1028B000B8462068C00533D5606D002806D00228D0
:1028C00013D00CD3042818D016D317E0DFF8180A59
:1028D000006850F40030DFF8101A086010E00021A2
:1028E000201D01F069FB07000AE0002114F124001B
:1028F00001F0FEFB070003E002E001E00120070019
:102900003800C0B200280AD1DFF8E0090168C90820
:10291000C900606D0143DFF8D409016000E0B846EA
:10292000206880053AD5A06D00280CD0402813D02F
:10293000802817D0C0281CD0B0F5807F1AD0B0F501
:10294000A07F18D018E0DFF8A009006850F400302C
:10295000DFF89419086011E00021201D01F02CFB24
:1029600007000BE0002114F1240001F0C1FB070077
:1029700004E003E002E001E0012007003800C0B2FB
:1029800000280AD1DFF86409016831F4E071A06D14
:102990000143DFF85809016000E0B84620684005AF
:1029A0003DD5E06D00280FD0B0F5007F15D0B0F513
:1029B000806F18D0B0F5C06F1CD0B0F5006F1AD082
:1029C000B0F5206F18D018E0DFF81C09006850F44B
:1029D0000030DFF81419086011E00021201D01F01B
:1029E000EBFA07000BE0002114F1240001F080FB5A
:1029F000070004E003E002E001E0012007003800E6
:102A0000C0B200280AD1DFF8E408016831F460613F
:102A1000E06D0143DFF8D408016000E0B8462068AB
:102A200080012CD5A06C002816D0102804D02028B6
:102A30000BD030280FD010E0DFF8AC08006850F45D
:102A40000030DFF8A418086009E00221201D01F021
:102A5000B3FA070003E002E001E0012007003800BC
:102A6000C0B200280AD1DFF88808016831F03001CF
:102A7000A06C0143DFF87808016000E0B8462068E8
:102A8000C00439D5206E00280CD0B0F5805F12D07C
:102A9000B0F5005F15D0B0F5405F19D0B0F5804FAC
:102AA00017D017E0DFF84008006850F40030DFF876
:102AB0003818086010E00021201D01F07DFA0700A1
:102AC0000AE0002114F1240001F012FB070003E0EA
:102AD00002E001E0012007003800C0B200280AD15E
:102AE000DFF80808016831F4E041206E0143DFF8A7
:102AF000FC07016000E0B8462068800435D5606EB0
:102B000000280FD0B0F5803F0DD0B0F5003F10D0B9
:102B1000B0F5403F14D0B0F5802F12D0B0F5A02F03
:102B200010D010E011E00121201D01F045FA07004E
:102B30000BE0012114F1240001F0DAFA070004E0AF
:102B400003E002E001E0012007003800C0B20028E5
:102B50000AD1DFF89807016831F4E021606E014383
:102B6000DFF88807016000E0B846206840043BD5E4
:102B7000D4F8AC00002812D0B0F1805F10D0B0F1D2
:102B8000005F13D0B0F1405F17D0B0F1804F15D087
:102B9000B0F1A04F13D0B0F1C04F11D011E012E04E
:102BA0000121201D01F008FA07000CE0012114F1B9
:102BB000240001F09DFA070005E004E003E002E0D4
:102BC00001E0012007003800C0B200280BD1DFF877
:102BD0002407016831F0E041D4F8AC000143DFF88C
:102BE0001407016000E0B846206800042BD5606F30
:102BF000002815D0B0F1805F03D0B0F1005F09D09C
:102C00000FE0DFF8E406006850F40030DFF8D81673
:102C1000086008E00121201D01F0CEF9070002E064
:102C200001E0012007003800C0B200280AD1DFF817
:102C3000BC06016831F04051606F0143DFF8AC061B
:102C4000016000E0B8462068C0012BD5606C002808
:102C500015D002280CD002D303280FD010E0DFF8E3
:102C60008806006850F40030DFF87C16086009E040
:102C70000221201D01F0A0F9070003E002E001E0BD
:102C8000012007003800C0B200280AD1DFF8600632
:102C9000016889088900606C0143DFF8540601600F
:102CA00000E0B8462068400240F18780DFF848061F
:102CB000006850F48070DFF840160860FFF7B4FD3C
:102CC0000600DFF834060068C00506D4FFF7ACFD47
:102CD000801B6528F5D3032007003800C0B2002808
:102CE0006AD1DFF81806006810F44070D4F8B0100C
:102CF00011F44071884218D0DFF80006006830F403
:102D000040700500DFF8F405006850F48030DFF80B
:102D1000EC150860DFF8E405006830F48030DFF877
:102D2000DC150860DFF8D4050560D4F8B000B0F514
:102D3000807F10D1FFF778FD0600DFF8C00500683E
:102D4000800708D4FFF770FD801B41F2893188426B
:102D5000F3D3032007003800C0B200282AD1D4F8EA
:102D6000B00010F44070B0F5407F0FD1DFF890054F
:102D7000006830F47C50D4F8B010DFF8882512EAEF
:102D800011121043DFF87815086007E0DFF87005CE
:102D9000006830F47C50DFF868150860DFF85C05E7
:102DA0000068D4F8B0100905090D0843DFF84C1588
:102DB000086002E0B84600E0B8462078C00732D587
:102DC000D4F8800000280AD0082809D010280DD097
:102DD000182812D0202811D0282810D010E011E097
:102DE0000121201D01F0E8F807000BE0012114F19A
:102DF000240001F07DF9070004E003E002E001E0B7
:102E0000012007003800C0B200280BD1DFF8F80419
:102E1000016831F03801D4F880000143DFF8E8049C
:102E2000016000E0B846207880072ED5E06F0028CA
:102E300008D002280DD006D3042812D010D30528BC
:102E400010D010E011E00121201D01F0B5F80700BD
:102E50000BE0012114F1240001F04AF9070004E01D
:102E600003E002E001E0012007003800C0B20028C2
:102E70000AD1DFF894040168C908C900E06F014372
:102E8000DFF88404016000E0B8462078400730D5C0
:102E9000D4F89800002808D002280DD006D30428C2
:102EA00012D010D3052810D010E011E00121201D10
:102EB00001F082F807000BE0012114F1240001F079
:102EC00017F9070004E003E002E001E00120070039
:102ED0003800C0B200280BD1DFF818040168C90817
:102EE000C900D4F898000143DFF80804016000E04D
:102EF000B8462078800637D5D4F8940000280FD043
:102F0000B0F1805F0DD0B0F1005F10D0B0F1405F44
:102F100014D0B0F1804F12D0B0F1A04F10D010E01B
:102F200011E00021201D01F047F807000BE002210D
:102F300014F1240001F0DCF8070004E003E002E0F3
:102F400001E0012007003800C0B200280BD1DFF8F3
:102F5000B803016831F0E041D4F894000143DFF890
:102F6000A803016000E0B8462078400637D5D4F8C1
:102F7000A00000280FD0B0F5806F0DD0B0F5006F25
:102F800010D0B0F5406F14D0B0F5805F12D0B0F51E
:102F9000A05F10D010E011E00021201D01F00CF81E
:102FA00007000BE0022114F1240001F0A1F8070052
:102FB00004E003E002E001E0012007003800C0B2B5
:102FC00000280BD1DFF82C03016831F4E051D4F86C
:102FD000A0000143DFF81C03016000E0B846207840
:102FE000000637D5D4F8A40000280FD0B0F5005F54
:102FF0000DD0B0F5804F10D0B0F5C04F14D0B0F563
:10300000004F12D0B0F5204F10D010E011E0002199
:10301000201D00F0D1FF07000BE0022114F1240075
:1030200001F066F8070004E003E002E001E001209F
:1030300007003800C0B200280BD1DFF8B8020168E1
:1030400031F46041D4F8A4000143DFF8A802016024
:1030500000E0B8462078000718D5D4F88800B0F50D
:10306000805F08D1022114F1240001F041F800280A
:1030700001D001208046DFF89002016831F4405110
:10308000D4F888000143DFF8800201602078C00690
:1030900018D5D4F89C00B0F5807F08D1022114F136
:1030A000240001F025F8002801D001208046DFF837
:1030B0004402016831F44071D4F89C000143DFF808
:1030C00034020160206800032BD5D4F8A800002842
:1030D00006D0B0F5803F09D0B0F5003F0DD00DE02F
:1030E0000021201D00F068FF070009E0022114F113
:1030F000240000F0FDFF070002E001E001200700CE
:103100003800C0B200280BD1DFF8E801016831F4C3
:103110004031D4F8A8000143DFF8D801016000E095
:10312000B846206840032DD5D4F88C00B0F5801F38
:1031300006D0B0F5001F0AD0B0F5401F0ED00EE04B
:103140006948006850F400306749086009E00121CF
:1031500014F1240000F0CCFF070002E001E00120A0
:1031600007003800C0B200280BD1DFF89C010168CD
:1031700031F44011D4F88C000143DFF88C01016078
:1031800000E0B8462068C00325D5E06C002803D0D5
:10319000B0F5803F07D00CE05348006850F4003091
:1031A0005149086007E00221201D00F005FF0700DB
:1031B00001E0012007003800C0B200280AD1DFF882
:1031C0003001016831F48031E06C0143DFF8200107
:1031D000016000E0B8462068800008D5022114F1A3
:1031E000240000F085FF002801D0012080462068DF
:1031F000800328D5D4F88400002812D0B0F5807F51
:1032000006D0B0F5007F0AD0B0F5407F08D009E0C5
:103210003548006850F400303349086004E003E0AA
:1032200002E001E0012007003800C0B2002809D107
:103230003548016831F44071D4F8840001433248C4
:10324000016000E0B8462068C00207D52748016841
:1032500021F00041A06F01432448016020688002F2
:1032600007D52248016831F08071E06E01431F48A4
:1032700001602068000507D51E48016831F0006133
:10328000206F01431B480160206840000CD51C489A
:10329000006830F400401A49086019480168D4F801
:1032A000B4000143164801602068002807D5104883
:1032B000016831F04051206D01430D4801602068E4
:1032C000000208D51048016831F44001D4F890009C
:1032D00001430D4801604046C0B2002801D10020E2
:1032E00000E00120BDE8F0812C440258504402580F
:1032F0004C4402585844025800480258704402583E
:1033000010440258CFFFFF0054440258F0B589B072
:103310000500B5F5807F65D1DFF8340A006810F04C
:1033200007000600002E06D0022E1CD00FD3042E5C
:1033300025D052D354E0DFF85C0C0068800104D53E
:1033400006A800F013FD079800E00020B7E2DFF8C0
:10335000440C0068000104D5684600F0C3FA0098E8
:1033600000E00020ABE2DFF82C0C0068800004D500
:1033700003A800F0D7FB039800E000209FE2DFF8ED
:10338000E409006810F040500400DFF8080C006801
:1033900040070AD5002C08D1DFF8FC0BDFF8F41B3E
:1033A0000968C1F3C101C84016E0DFF8E80B006806
:1033B000C00505D5B4F1805F02D1DFF8AC090BE0A0
:1033C000DFF8D00B0068800305D5B4F1005F02D1AF
:1033D000DFF8C80B00E0002071E2DFF8C40B6EE2FA
:1033E00000206CE2B5F5007F69D1DFF86409006860
:1033F00010F4E07006003000002809D0402813D0F7
:1034000080281DD0C02855D0B0F5807F24D054E04E
:10341000DFF8800B0068800104D506A800F0A6FC48
:10342000079800E000204AE2DFF8680B006800011E
:1034300004D5684600F056FA009800E000203EE20D
:10344000DFF8500B0068800004D503A800F06AFB89
:10345000039800E0002032E2DFF80809006810F06D
:1034600040500400DFF82C0B006840070AD5002C00
:1034700008D1DFF8240BDFF81C1B0968C1F3C10178
:10348000C84016E0DFF80C0B0068C00505D5B4F1A4
:10349000805F02D1DFF8D0080BE0DFF8F80A00689F
:1034A000800305D5B4F1005F02D1DFF8F00A00E037
:1034B000002004E2DFF8E80A01E20020FFE1B5F5B0
:1034C000806F6CD1DFF88808006810F46060060037
:1034D000300000280CD0B0F5007F15D0B0F5806F1B
:1034E0001ED0B0F5C06F55D0B0F5006F24D054E0B9
:1034F000DFF8A00A0068800104D506A800F036FCB9
:10350000079800E00020DAE1DFF8880A006800018F
:1035100004D5684600F0E6F9009800E00020CEE10E
:10352000DFF8700A0068800004D503A800F0FAFAFA
:10353000039800E00020C2E1DFF82808006810F0DE
:1035400040500400DFF84C0A006840070AD5002C00
:1035500008D1DFF8440ADFF83C1A0968C1F3C10159
:10356000C84016E0DFF82C0A0068C00505D5B4F1A4
:10357000805F02D1DFF8F0070BE0DFF8180A00687F
:10358000800305D5B4F1005F02D1DFF8100A00E036
:10359000002094E1DFF8080A91E100208FE1B5F501
:1035A000805F6CD1DFF8A807006810F4E0400700E6
:1035B000380000280CD0B0F5805F15D0B0F5005F62
:1035C0001ED0B0F5405F55D0B0F5804F24D054E008
:1035D000DFF8C0090068800104D506A800F0C6FB2A
:1035E000079800E000206AE1DFF8A8090068000100
:1035F00004D5684600F076F9009800E000205EE10E
:10360000DFF890090068800004D503A800F08AFA6A
:10361000039800E0002052E1DFF84807006810F04E
:1036200040500400DFF86C09006840070AD5002C00
:1036300008D1DFF86409DFF85C190968C1F3C1013A
:10364000C84016E0DFF84C090068C00505D5B4F1A4
:10365000805F02D1DFF810070BE0DFF8380900685F
:10366000800305D5B4F1005F02D1DFF8300900E036
:10367000002024E1DFF8280921E100201FE1B5F551
:10368000002F57D1DFF82C09006810F440300700F4
:103690003800002806D0B0F5803F0FD0B0F5003FCD
:1036A00018D045E0DFF8EC080068000104D5684652
:1036B00000F018F9009800E0002000E1DFF8D408DD
:1036C0000068800004D503A800F02CFA059800E0FB
:1036D0000020F4E0DFF88C06006810F04050040091
:1036E000DFF8B008006840070AD5002C08D1DFF8E1
:1036F000A808DFF8A0180968C1F3C101C84016E0A6
:10370000DFF890080068C00505D5B4F1805F02D1EC
:10371000DFF854060BE0DFF87C080068800305D56D
:10372000B4F1005F02D1DFF8740800E00020C6E0C9
:103730000020C4E0B5F5803F26D1DFF828060068F8
:1037400010F4803007003800002803D0B0F5803F27
:103750000CD017E0DFF83C080068800104D506A80B
:1037600000F004FB079800E00020A8E0DFF8240840
:103770000068000104D5684600F0B4F8029800E043
:1037800000209CE000209AE0B5F5804F5FD1DFF883
:103790002408006810F0E04007003800002812D02C
:1037A000B0F1805F12D0B0F1005F1BD0B0F1405F8C
:1037B00024D0B0F1804F31D0B0F1A04F38D0B0F16B
:1037C000C04F3FD041E000F07CF878E0DFF8C4075C
:1037D0000068000104D5684600F084F8019800E014
:1037E00000206CE0DFF8AC070068800004D503A877
:1037F00000F098F9049800E0002060E0DFF89407FA
:103800000068400708D5DFF89007DFF888170968D7
:10381000C1F3C101C84000E0002050E0DFF87407A8
:103820000068C00502D5DFF8400500E0002046E052
:10383000DFF860070068800302D5DFF8600700E06A
:1038400000203CE0DFF8580739E0002037E0B5F50C
:10385000004F33D1DFF8F804006810F04050070043
:103860003800002806D0B0F1805F0DD0B0F1005FC5
:1038700016D021E0DFF81C070068800302D5DFF8CE
:103880001C0700E000201AE0DFF80807006880014C
:1038900004D506A800F06AFA079800E000200EE0C0
:1038A000DFF8F0060068000104D5684600F01AF859
:1038B000019800E0002002E0002000E0002009B0B4
:1038C000F0BD80B500F059FFDFF82018DFF850296F
:1038D0001268C2F30212895C11F01F01C84002BDD8
:1038E0000000000030B48C490A6812F003028A49D3
:1038F0000968C1F305318A4B1B68C3F30013DFF875
:1039000024492468C4F3CC0404FB03F401EE104AF8
:10391000B8EE411A002900F0F080002A03D0022AF4
:1039200072D051D390E0DFF86C462468A4062BD502
:10393000DFF86446DFF85C562D68C5F3C105EC403E
:1039400001EE904AB0EE610AF8EE401A02EE101A4B
:10395000B8EE422AC1EE821ADFF8CC482468E405AA
:10396000E40D02EE104AB8EE422ADFED682AC1EEFD
:10397000222A32EE222AF7EE002A32EE222A61EEC5
:10398000821AF0EE610A1EE001EE901AF8EE611A5A
:103990009FED5F2AC2EE211ADFF88C482468E40507
:1039A000E40D02EE104AB8EE422ADFED582AC1EECD
:1039B000222A32EE222AF7EE002A32EE222A61EE85
:1039C000821AF0EE610A5EE001EE901AF8EE611ADA
:1039D0009FED502AC2EE211ADFF84C482468E40516
:1039E000E40D02EE104AB8EE422ADFED482AC1EE9D
:1039F000222A32EE222AF7EE002A32EE222A61EE45
:103A0000821AF0EE610A3EE001EE901AF8EE611AB9
:103A10009FED422AC2EE211ADFF80C482468E40523
:103A2000E40D02EE104AB8EE422ADFED382AC1EE6C
:103A3000222A32EE222AF7EE002A32EE222A61EE04
:103A4000821AF0EE610A1EE001EE901AF8EE611A99
:103A50009FED302AC2EE211ADFF8CC472468E40536
:103A6000E40D02EE104AB8EE422ADFED282AC1EE3C
:103A7000222A32EE222AF7EE002A32EE222A61EEC4
:103A8000821AF0EE610ADFF8A0472468C4F34624E6
:103A900001EE904AF8EE611AB7EE002A71EE821A32
:103AA000C0EEA11AFCEEE11AC0ED001ADFF878476B
:103AB0002468C4F3064401EE904AF8EE611AB7EEAA
:103AC000002A71EE821AC0EEA11AFCEEE11AC0EDD6
:103AD000011ADFF854472468C4F3066401EE904AE3
:103AE000F8EE611AB7EE002A71EE821AC0EEA11A42
:103AF000FCEEE11AC0ED021A05E000240460002487
:103B000044600024846030BC704700000000004620
:103B10000024744C0024744A28440258001BB74BFC
:103B20002C44025830B4DFF804170A6812F003027C
:103B3000DFF8F8160968C1F30551DFF8F4361B68A1
:103B4000C3F30023DFF8EC462468C4F3CC0404FB81
:103B500003F401EE104AB8EE411A002900F0F0809B
:103B6000002A03D0022A72D051D390E0DFF8244417
:103B70002468A4062BD5DFF82044DFF818542D68FC
:103B8000C5F3C105EC4001EE904AB0EE610AF8EED3
:103B9000401A02EE101AB8EE422AC1EE821ADFF87D
:103BA00098462468E405E40D02EE104AB8EE422A75
:103BB000DFED682AC1EE222A32EE222AF7EE002A31
:103BC00032EE222A61EE821AF0EE610A1EE001EE68
:103BD000901AF8EE611A9FED602AC2EE211ADFF802
:103BE00058462468E405E40D02EE104AB8EE422A75
:103BF000DFED582AC1EE222A32EE222AF7EE002A01
:103C000032EE222A61EE821AF0EE610A5EE001EEE7
:103C1000901AF8EE611A9FED512AC2EE211ADFF8D0
:103C200018462468E405E40D02EE104AB8EE422A74
:103C3000DFED482AC1EE222A32EE222AF7EE002AD0
:103C400032EE222A61EE821AF0EE610A3EE001EEC7
:103C5000901AF8EE611A9FED422AC2EE211ADFF89F
:103C6000D8452468E405E40D02EE104AB8EE422A75
:103C7000DFED382AC1EE222A32EE222AF7EE002AA0
:103C800032EE222A61EE821AF0EE610A1EE001EEA7
:103C9000901AF8EE611A9FED312AC2EE211ADFF870
:103CA00098452468E405E40D02EE104AB8EE422A75
:103CB000DFED282AC1EE222A32EE222AF7EE002A70
:103CC00032EE222A61EE821AF0EE610ADFF86845D0
:103CD0002468C4F3462401EE904AF8EE611AB7EE68
:103CE000002A71EE821AC0EEA11AFCEEE11AC0EDB4
:103CF000001ADFF844452468C4F3064401EE904AF4
:103D0000F8EE611AB7EE002A71EE821AC0EEA11A1F
:103D1000FCEEE11AC0ED011ADFF81C452468C4F37B
:103D2000066401EE904AF8EE611AB7EE002A71EED1
:103D3000821AC0EEA11AFCEEE11AC0ED021A05E0EB
:103D400000240460002444600024846030BC704778
:103D500050440258000000460024744C0024744A69
:103D6000001BB74B4C44025800093D0030B4DFF84B
:103D7000BC140A6812F00302DFF8B0140968C1F33A
:103D80000511DFF8AC341B6813F00103DFF8AC4415
:103D90002468C4F3CC0404FB03F401EE104AB8EE2B
:103DA000411A002900F0EE80002A03D0022A70D0C8
:103DB0004FD38EE0774C2468A4062AD5DFF88044E0
:103DC000744D2D68C5F3C105EC4001EE904AB0EE8C
:103DD000610AF8EE401A02EE101AB8EE422AC1EE5D
:103DE000821ADFF860442468E405E40D02EE104A0C
:103DF000B8EE422ADFED6B2AC1EE222A32EE222AE9
:103E0000F7EE002A32EE222A61EE821AF0EE610A03
:103E10001EE001EE901AF8EE611A9FED632AC2EEE1
:103E2000211ADFF820442468E405E40D02EE104A6C
:103E3000B8EE422ADFED5B2AC1EE222A32EE222AB8
:103E4000F7EE002A32EE222A61EE821AF0EE610AC3
:103E50005EE001EE901AF8EE611A9FED542AC2EE70
:103E6000211ADFF8E0432468E405E40D02EE104A6D
:103E7000B8EE422ADFED4B2AC1EE222A32EE222A88
:103E8000F7EE002A32EE222A61EE821AF0EE610A83
:103E90003EE001EE901AF8EE611A9FED452AC2EE5F
:103EA000211ADFF8A0432468E405E40D02EE104A6D
:103EB000B8EE422ADFED3B2AC1EE222A32EE222A58
:103EC000F7EE002A32EE222A61EE821AF0EE610A43
:103ED0001EE001EE901AF8EE611A9FED332AC2EE51
:103EE000211ADFF860432468E405E40D02EE104A6D
:103EF000B8EE422ADFED2B2AC1EE222A32EE222A28
:103F0000F7EE002A32EE222A61EE821AF0EE610A02
:103F1000DFF830432468C4F3462401EE904AF8EEFB
:103F2000611AB7EE002A71EE821AC0EEA11AFCEEF9
:103F3000E11AC0ED001ADFF80C432468C4F306440C
:103F400001EE904AF8EE611AB7EE002A71EE821A7D
:103F5000C0EEA11AFCEEE11AC0ED011ADFF8E4424E
:103F60002468C4F3066401EE904AF8EE611AB7EED5
:103F7000002A71EE821AC0EEA11AFCEEE11AC0ED21
:103F8000021A05E0002404600024446000248460D8
:103F900030BC7047004402580090D00300366E01D8
:103FA0000080BB00000000460024744C0024744ACA
:103FB000001BB74B584402582DE9F04105000C0096
:103FC00000269A48006810F00300032801D1012060
:103FD00088E09D48006830F080609B490860FEF7EB
:103FE00023FC070098480068000106D5FEF71CFC7A
:103FF000C01B0328F6D3032074E08C48006830F41B
:104000007C30296850EA0130884908606868401EA1
:10401000C005C00DA968491E490211F47E4108433C
:10402000E968491E090411F4FE0108432969491E83
:10403000090611F0FE4108437B4908607C4801688D
:1040400031F0C0016869014379480160784801682E
:1040500031F02001A8690143754801607448006887
:1040600030F01000724908606E4800686FF3CF00AE
:10407000E96950EAC1006B4908606D48006850F07A
:1040800010006B490860002C06D16948006850F4A4
:104090000020674908600EE0012C06D164480068E2
:1040A00050F480106249086005E06148006850F4EF
:1040B00000105F4908606448006850F08060624901
:1040C0000860FEF7B1FB80465F480068000107D436
:1040D000FEF7AAFBB0EB08000328F5D3032001E0AC
:1040E0003000C0B2BDE8F081000000000CAA00085A
:1040F0002DE9F04105000C0000264C48006810F046
:104100000300032801D1012088E04F48006830F007
:1041100080504D490860FEF787FB07004A48006859
:10412000800006D5FEF780FBC01B0328F6D30320D2
:1041300074E03E48006830F07C70296850EA015015
:104140003A4908606868401EC005C00DA968491E4C
:10415000490211F47E410843E968491E090411F43B
:10416000FE0108432969491E090611F0FE41084372
:10417000314908602E48016831F4406168690143A3
:104180002B4801602A48016831F40071A869014395
:10419000274801602648006830F480702449086090
:1041A000244800686FF3CF00E96950EAC100214953
:1041B00008601F48006850F480701D490860002C9A
:1041C00006D11B48006850F48000194908600EE0D1
:1041D000012C06D11648006850F40000144908600C
:1041E00005E01348006850F08070114908601648D7
:1041F000006850F0805014490860FEF715FB8046B7
:1042000011480068800007D4FEF70EFBB0EB0800F1
:104210000328F5D3032001E03000C0B2BDE8F081EF
:10422000204402583C44025838440258284402585A
:104230002C44025844440258404402583444025822
:104240000090D0033044025800440258F8B50400EE
:104250000D00002C01D101207AE1DFF8A0050068F3
:1042600010F00F00A84211D2DFF890050068000995
:1042700000012843DFF884150860DFF88005006836
:1042800010F00F00A84201D0012061E12078400722
:1042900011D5DFF88405006810F0700021698842AC
:1042A00009D2DFF87405016831F07001206901431B
:1042B000DFF8640501602078000711D5DFF85C05A0
:1042C000006810F070006169884209D2DFF84C057F
:1042D000016831F0700160690143DFF84005016059
:1042E0002078C00611D5DFF83405006810F4E060CE
:1042F000A169884209D2DFF82405016831F4E06140
:10430000A0690143DFF8140501602078800611D50B
:10431000DFF80C05006810F07000E169884209D2EE
:10432000DFF8FC04016831F07001E0690143DFF857
:10433000F00401602078800711D5DFF8DC04006804
:1043400010F00F00E168884209D2DFF8CC04016860
:1043500009090901E0680143DFF8BC040160207825
:10436000C0074DD5DFF8B004016831F47061A06872
:104370000143DFF8A40401606068022806D1DFF879
:104380008004006880031CD40120E1E060680328F9
:1043900006D1DFF86C040068800112D40120D7E058
:1043A0006068012806D1DFF858040068C00508D409
:1043B0000120CDE0DFF848040068400701D4012067
:1043C000C6E0DFF840040168C908C900606801431D
:1043D000DFF830040160FEF727FA0600DFF8240456
:1043E000006810F038006168B0EBC10F08D0FEF72C
:1043F0001BFA801B41F289318842EFD30320A7E0EA
:104400002078800711D5E068DFF80C14096811F0F6
:104410000F01884209D2DFF8000401680909090187
:10442000E0680143DFF8F0030160DFF8D0030068C3
:1044300010F00F00854211D2DFF8C00300680009B8
:1044400000012843DFF8B4130860DFF8B003006808
:1044500010F00F00A84201D0012079E02078400739
:1044600011D52069DFF8B013096811F07001884296
:1044700009D2DFF8A403016831F07001206901431B
:10448000DFF8940301602078000711D56069DFF838
:104490008C13096811F07001884209D2DFF87C039F
:1044A000016831F0700160690143DFF87003016059
:1044B0002078C00611D5A069DFF86013096811F4EF
:1044C000E061884209D2DFF85403016831F4E06109
:1044D000A0690143DFF8440301602078800611D50C
:1044E000E069DFF83C13096811F07001884209D2D5
:1044F000DFF82C03016831F07001E0690143DFF857
:104500002003016000F026F80700DFF82803DFF839
:1045100008130968C1F30321405C10F01F00C74075
:10452000DFF81003DFF8F012096811F00F01405CAA
:1045300010F01F003900C140DFF8D4020160DFF83D
:10454000CC020760DFF8CC02006800F079F9C0B255
:10455000F2BD000010B4DFF8AC02006810F03800C3
:10456000002806D0082815D0102816D0182817D0F3
:1045700000E1DFF88C020068800608D5DFF88802C9
:10458000DFF87C422468C4F3C104E04001E0DFF8B6
:104590007802F0E0DFF8A002EDE0DFF8A002EAE048
:1045A000DFF88002006810F003000200DFF87402F8
:1045B0000068C0F305100100DFF86C02006810F01D
:1045C00001000300DFF868020068C0F3CC0000FBC4
:1045D00003F002EE100AB8EE422AB0EE421A0029A9
:1045E00000F0C680002A03D0022A72D051D38FE097
:1045F000DFF80C02006880062BD5DFF80C02DFF82C
:1046000000422468C4F3C104E04002EE100AF0EE58
:10461000420AB8EE602A02EE901AF8EE622A82EEA2
:10462000222ADFF808020068C005C00D02EE900AD9
:10463000F8EE622A9FED6D3A81EE033A72EE832A1C
:10464000B7EE003A72EE832A22EE222AF0EE421AE8
:104650001EE002EE101AB8EE422ADFED652A82EE65
:10466000822ADFF8C8010068C005C00D02EE900A7A
:10467000F8EE622A9FED5D3A81EE033A72EE832AEC
:10468000B7EE003A72EE832A22EE222AF0EE421AA8
:104690005CE002EE101AB8EE422ADFED562A82EEF6
:1046A000822ADFF888010068C005C00D02EE900A7A
:1046B000F8EE622A9FED4D3A81EE033A72EE832ABC
:1046C000B7EE003A72EE832A22EE222AF0EE421A68
:1046D0003CE002EE101AB8EE422ADFED472A82EEE5
:1046E000822A52480068C005C00D02EE900AF8EE1A
:1046F000622A9FED3E3A81EE033A72EE832AB7EECC
:10470000003A72EE832A22EE222AF0EE421A1DE0CF
:1047100002EE101AB8EE422ADFED362A82EE822A25
:1047200042480068C005C00D02EE900AF8EE622A09
:104730009FED2E3A81EE033A72EE832AB7EE003AED
:1047400072EE832A22EE222AF0EE421A37480068DF
:10475000C0F34620401C02EE100AB0EE420AB8EE4A
:10476000402A81EE822ABCEEC22A12EE100A00E034
:10477000002000E0304810BC704780B5FFF7EAFE2B
:1047800001002C48244A1268C2F30322805C10F016
:104790001F00C1402748204A126812F00F02805CB7
:1047A00010F01F000A00C24019480260174801605B
:1047B0001748006802BD80B5FFF7DFFF1D49174AA3
:1047C0001268C2F30212895C11F01F01C84002BDD9
:1047D00080B5FFF7D2FF1749104A1268C2F30222D0
:1047E000895C11F01F01C84002BD000000000046B6
:1047F0000024744C0024744A001BB74B0020005264
:1048000000440258104402580090D00304000024D1
:104810000800002400000024184402581C440258D8
:1048200020440258284402582C440258304402586C
:10483000344402580CAA000800093D0000366E01FD
:1048400010B5040011480078002801D101201CE0B7
:104850004FF47A700D490978B0FBF1F00C49096802
:10486000B1FBF0F000F0AEF8002801D001200CE020
:10487000102C09D2002221005FF0FF3000F089F8EF
:1048800004480460002000E0012010BD0C0000245A
:10489000040000240000002410F00703DFF83011AA
:1048A0000A684FF6FF010A4052EA0322DFF824119A
:1048B0000A43DFF81C110A607047DFF81401006832
:1048C000C0F3022070470000010009B200290AD499
:1048D000012210F01F018A40DFF8FC1003001BB218
:1048E0005B0941F82320704710B4020012B2002A7D
:1048F00005D40A01394B040024B21A5508E00A0114
:10490000374B040024B214F00F04234403F8042CA2
:1049100010BC704770B4030013F00704D4F1070013
:10492000052801D3042001E0D4F10700251D072D3F
:1049300001D2002500E0E51E012616FA00F0401E17
:104940000140A940012010FA05F56D1E2A401143CF
:10495000080070BC704710B50400601EB0F1807F85
:1049600001D301200EE0601E1E4908600F215FF098
:10497000FF30FFF7B9FF00201B49086007201B49E3
:104980000860002010BD10B504002000FFF784FF70
:1049900010BDF8B504000D001600FFF78EFF0700EC
:1049A000320029003800FFF7B5FF0100200000B2F7
:1049B000FFF79AFFF1BD10B50400200000B2FFF729
:1049C00083FF10BD10B504002000FFF7C4FF10BD29
:1049D0000CED00E00000FA0500E100E000E400E07A
:1049E00018ED00E014E000E018E000E010E000E066
:1049F00010B50400002C01D1012035E094F83D00F1
:104A0000002805D1002084F83C00200001F05FF967
:104A1000022084F83D00211D206800F0EFFD0120F8
:104A200084F84800012084F83E00012084F83F000B
:104A3000012084F84000012084F84100012084F81E
:104A40004200012084F84300012084F84400012042
:104A500084F84500012084F84600012084F84700CE
:104A6000012084F83D00002010BD70B505000C0049
:104A7000002C02D195F83E0015E0042C02D195F8E7
:104A80003F0010E0082C02D195F840000BE00C2C00
:104A900002D195F8410006E0102C02D195F84200B1
:104AA00001E095F84300012801D001208BE0002CA3
:104AB00004D1022085F83E00C0B21FE0042C04D1CE
:104AC000022085F83F00C0B218E0082C04D1022073
:104AD00085F84000C0B211E00C2C04D1022085F80A
:104AE0004100C0B20AE0102C04D1022085F8420037
:104AF000C0B203E0022085F84300C0B201222100C9
:104B0000286800F0EFFF2868DFF8BC10884213D057
:104B10002868DFF8B81088420ED02868DFF8C41083
:104B2000884209D02868DFF8C010884204D028687D
:104B3000DFF8AC10884201D1012000E00020C0B2B3
:104B4000002805D02868406C50F40040296848646B
:104B50002868DFF8741088421CD02868B0F1804FB4
:104B600018D02868DFF86810884213D02868DFF86A
:104B7000641088420ED02868DFF85C10884209D0A3
:104B80002868DFF84810884204D02868DFF84C1005
:104B9000884211D128688168DFF8CC0001400E00FE
:104BA000062E0FD0B6F5803F0CD02868006850F074
:104BB00001002968086005E02868006850F00100DD
:104BC00029680860002070BD000001400004014019
:104BD0000004004000080040000C004000180040A5
:104BE00000480140004001400044014010B504006D
:104BF000002C01D1012035E094F83D00002805D1BA
:104C0000002084F83C00200001F0B2F8022084F873
:104C10003D00211D206800F0F1FC012084F84800CF
:104C2000012084F83E00012084F83F00012084F830
:104C30004000012084F84100012084F84200012056
:104C400084F84300012084F84400012084F84500E2
:104C5000012084F84600012084F84700012084F8F0
:104C60003D00002010BD0000070001002DE9F041CB
:104C700005000C00002C02D195F83E7015E0042CC4
:104C800002D195F83F7010E0082C02D195F84070E1
:104C90000BE00C2C02D195F8417006E0102C02D1EB
:104CA00095F8427001E095F84370002C02D195F818
:104CB00044800BE0042C02D195F8458006E0082CD6
:104CC00002D195F8468001E095F847803800C0B2DF
:104CD000012803D14046C0B2012801D00120A5E03F
:104CE000002C04D1022085F83E00C0B21FE0042C45
:104CF00004D1022085F83F00C0B218E0082C04D18E
:104D0000022085F84000C0B211E00C2C04D1022032
:104D100085F84100C0B20AE0102C04D1022085F8C9
:104D20004200C0B203E0022085F84300C0B2002C6C
:104D300004D1022085F84400C0B211E0042C04D153
:104D4000022085F84500C0B20AE0082C04D10220F8
:104D500085F84600C0B203E0022085F84700C0B2E3
:104D60002000002806D004280BD0082810D00C28DA
:104D700015D01BE02868C06850F002002968C860A0
:104D800014E02868C06850F004002968C8600DE08D
:104D90002868C06850F008002968C86006E02868E4
:104DA000C06850F010002968C860FFE701222100A8
:104DB000286800F097FE2868DFF8201388421CD08E
:104DC0002868B0F1804F18D02868DFF8181388429F
:104DD00013D02868DFF8101388420ED02868DFF857
:104DE0000C13884209D02868DFF8F412884204D0F6
:104DF0002868DFF8FC12884211D128688168DFF842
:104E0000F40201400E00062E0FD0B6F5803F0CD004
:104E10002868006850F001002968086005E02868EB
:104E2000006850F00100296808600020BDE8F081AA
:104E30002DE9F04706000C0015001F00002C02D1E0
:104E400096F83E9015E0042C02D196F83F9010E0C1
:104E5000082C02D196F840900BE00C2C02D196F869
:104E6000419006E0102C02D196F8429001E096F8AD
:104E70004390002C02D196F844A00BE0042C02D100
:104E800096F845A006E0082C02D196F846A001E06D
:104E900096F847A04846C0B2022803D05046C0B298
:104EA000022801D1022016E14846C0B2012855D19E
:104EB0005046C0B2012851D1002D05D1380080B232
:104EC000002801D0012006E1002C04D1022086F840
:104ED0003E00C0B21FE0042C04D1022086F83F003F
:104EE000C0B218E0082C04D1022086F84000C0B2FD
:104EF00011E00C2C04D1022086F84100C0B20AE077
:104F0000102C04D1022086F84200C0B203E0022037
:104F100086F84300C0B2002C04D1022086F8440079
:104F2000C0B211E0042C04D1022086F84500C0B2C2
:104F30000AE0082C04D1022086F84600C0B203E043
:104F4000022086F84700C0B22000002808D00428BC
:104F500026D0082844D00C2862D081E00120BAE095
:104F6000DFF89401716AC863DFF89001716A086420
:104F7000DFF88C01716AC8643B009BB22A0030687C
:104F800010F13401706AFBF773FC002801D0012096
:104F9000A1E03068C06850F400703168C8605FE01C
:104FA000DFF85401B16AC863DFF85001B16A0864E0
:104FB000DFF84C01B16AC8643B009BB22A0030683C
:104FC00010F13801B06AFBF761FD002801D0012023
:104FD00081E03068C06850F480603168C8603FE0AC
:104FE000DFF81401F16AC863DFF81001F16A0864A0
:104FF000DFF80C01F16AC8643B009BB22A003068FC
:1050000010F13C01F06AFBF741FD002801D00120BE
:1050100061E03068C06850F400603168C8601FE02B
:10502000DFF8D400316BC863DFF8D000316B08645F
:10503000DFF8CC00316BC8643B009BB22A003068BB
:1050400010F14001306BFBF721FD002801D0012059
:1050500041E03068C06850F480503168C860FFE7B4
:1050600001222100306800F03DFD30681B49884274
:1050700017D03068B0F1804F13D03068194988429A
:105080000FD03068184988420BD0306817498842E1
:1050900007D030681249884203D0306814498842EA
:1050A00012D130688168DFF84C0001408846B8F1C1
:1050B000060F0FD0B8F5803F0CD03068006850F074
:1050C00001003168086005E03068006850F00100B8
:1050D000316808600020BDE8F08700000000014052
:1050E000000401400004004000080040000C0040A3
:1050F000001800400700010025550008BD550008B4
:10510000BD54000810B504002068006980071AD556
:105110002068C068800716D57FF00200216808610A
:10512000012020772068806910F0030F03D0200051
:1051300001F097F805E0200002F06CF8200002F082
:105140006AF8002020772068006940071AD5206897
:10515000C068400716D57FF004002168086102206E
:1051600020772068806910F4407F03D0200001F090
:1051700078F805E0200002F04DF8200002F04BF82E
:10518000002020772068006900071AD52068C068D1
:10519000000716D57FF008002168086104202077F9
:1051A0002068C06910F0030F03D0200001F059F807
:1051B00005E0200002F02EF8200002F02CF800207C
:1051C000207720680069C0061AD52068C068C0062C
:1051D00016D57FF01000216808610820207720682C
:1051E000C06910F4407F03D0200001F03AF805E0D8
:1051F000200002F00FF8200002F00DF800202077C8
:1052000020680069C0070AD52068C068C00706D5B5
:105210007FF0010021680861200001F0FDFF206897
:10522000006900060AD52068C068000606D57FF030
:10523000800021680861200001F0EFFF206800690C
:10524000C0050AD52068C068000606D57FF48070C6
:1052500021680861200001F0E1FF20680069400634
:105260000AD52068C068400606D57FF04000216856
:105270000861200001F0D3FF2068006980060AD58C
:105280002068C068800606D57FF02000216808618C
:10529000200001F0C5FF10BD70B505000E00140020
:1052A00095F83C00012801D1022059E0012085F841
:1052B0003C00002C12D1F36872683168286800F055
:1052C00070FB2868806930F00C00296888612868C4
:1052D0008169B0680143286881613DE0042C13D1E5
:1052E000F36872683168286800F095FB2868806967
:1052F00030F440602968886128688069B16850EAA4
:1053000001202968886127E0082C12D1F3687268AF
:105310003168286800F09AFB2868C06930F00C00FA
:105320002968C8612868C169B06801432868C161FB
:1053300012E0F36872683168286800F0A1FB286801
:10534000C06930F440602968C8612868C069B168E4
:1053500050EA01202968C861002085F83C0000203F
:1053600070BD70B504000D00160094F83C000128D3
:1053700001D10220A1E0012084F83C003000002887
:105380000AD004281FD0082835D00C284AD010286D
:1053900060D0142875D08CE02900206800F093F9C3
:1053A0002068806950F00800216888612068806961
:1053B00030F0040021688861206881692869014310
:1053C0002068816175E02900206800F0CCF9206830
:1053D000806950F40060216888612068806930F439
:1053E00080602168886120688069296950EA01200D
:1053F000216888615DE02900206800F0FEF92068DE
:10540000C06950F008002168C8612068C06930F0A8
:1054100004002168C8612068C169286901432068C7
:10542000C16146E02900206800F02EFA2068C069BA
:1054300050F400602168C8612068C06930F4806061
:105440002168C8612068C069296950EA0120216883
:10545000C8612EE02900206800F04AFA2068406DFB
:1054600050F00800216848652068406D30F0040065
:10547000216848652068416D2869014320684165BD
:1054800017E02900206800F05FFA2068406D50F4B2
:105490000060216848652068406D30F480602168B4
:1054A00048652068406D296950EA012021684865F7
:1054B000FFE7002084F83C00002070BD38B50400F0
:1054C000A56B686A844206D101202877012085F8FF
:1054D0003E00C0B220E0A86A844206D102202877AC
:1054E000012085F83F00C0B216E0E86A844206D188
:1054F00004202877012085F84000C0B20CE0286B1A
:10550000844206D108202877012085F84100C0B2E6
:1055100002E0012085F83D00280001F082FE002015
:10552000287731BD38B50400A56B686A84420DD177
:1055300001202877E06900283AD1012085F83E0053
:10554000C0B2012085F84400C0B231E0A86A8442AC
:105550000DD102202877E069002829D1012085F8A3
:105560003F00C0B2012085F84500C0B220E0E86AE3
:1055700084420DD104202877E069002818D1012049
:1055800085F84000C0B2012085F84600C0B20FE0A7
:10559000286B84420CD108202877E069002807D1C5
:1055A000012085F84100C0B2012085F84700C0B253
:1055B000280000F056FE0020287731BD38B50400E1
:1055C000A56B686A844202D10120287710E0A86A9E
:1055D000844202D1022028770AE0E86A844202D19C
:1055E0000420287704E0286B844201D10820287722
:1055F000280001F017FE0020287731BD0368DFF88E
:10560000B824904212D0B0F1804F0FD0DFF8AC2414
:1056100090420BD0DFF8A824904207D0DFF8A424F2
:10562000904203D0DFF8A024904203D133F07003FE
:105630004A681343DFF8802490421ED0B0F1804FB7
:105640001BD0DFF87824904217D0DFF87424904202
:1056500013D0DFF8702490420FD0DFF86C24904212
:105660000BD0DFF86824904207D0DFF86424904222
:1056700003D0DFF86024904203D133F44073CA684A
:10568000134333F080034A69134303608A68C2629C
:105690000A688262DFF8202490420FD0DFF82824C5
:1056A00090420BD0DFF82424904207D0DFF820246A
:1056B000904203D0DFF81C24904201D10A690263B2
:1056C00001224261704730B4026A520852000262FD
:1056D000056A43688469DFF800241440A408A40024
:1056E0000A68144335F002058A681543DFF8C823B9
:1056F00090420FD0DFF8D02390420BD0DFF8CC23BC
:10570000904207D0DFF8C823904203D0DFF8C423CB
:10571000904205D135F00805CA68154335F00405F7
:10572000DFF8942390420FD0DFF89C2390420BD0F7
:10573000DFF89823904207D0DFF89423904203D0FB
:10574000DFF89023904207D133F4807333F4007371
:105750004A6913438A691343436084614A68426318
:10576000056230BC704730B4026A32F01002026247
:10577000056A43688469DFF86423144034F4407494
:105780000A6854EA022435F020058A6855EA0215B1
:10579000DFF82423904203D0DFF82C23904206D177
:1057A00035F08005CA6855EA021535F04005DFF886
:1057B000082390420FD0DFF8102390420BD0DFF87F
:1057C0000C23904207D0DFF80823904203D0DFF883
:1057D0000423904209D133F4806333F400634A69AF
:1057E00053EA82038A6953EA8203436084614A6808
:1057F0008263056230BC7047000030B4026A32F444
:1058000080720262056A4368C46934F07004A408B7
:10581000A4000A68144335F400758A6855EA022525
:10582000DFF89422904203D0DFF89C22904206D108
:1058300035F40065CA6855EA022535F48065DFF85D
:10584000782290420FD0DFF8802290420BD0DFF810
:105850007C22904207D0DFF87822904203D0DFF814
:105860007422904209D133F4805333F400534A69CF
:1058700053EA02138A6953EA02134360C4614A6817
:10588000C263056230BC704730B4026A32F48052A1
:105890000262036A4468C26932F4E04232F4407240
:1058A0000D6852EA052233F400538D6853EA05333C
:1058B000DFF80452A8420FD0DFF80C52A8420BD0F8
:1058C000DFF80852A84207D0DFF80452A84203D0FC
:1058D000DFF80052A84204D134F480444D6954EA00
:1058E00085144460C2614D680564036230BC704732
:1058F00030B4026A32F480320262046A4568436D51
:1059000033F070030A68134334F400348A6854EAAD
:105910000244694A90420BD06B4A904208D06B4ACD
:10592000904205D06A4A904202D06A4A904204D11D
:1059300035F480354A6955EA0225456043654A6871
:105940008265046230BC704730B4026A32F480125F
:105950000262036A4468426D32F4E0420D6852EA22
:10596000052233F400138D6853EA0553524DA842C3
:105970000BD0554DA84208D0544DA84205D0544DE7
:10598000A84202D0534DA84204D134F400344D69EA
:1059900054EA8524446042654D68C565036230BCA5
:1059A000704770B4046A6408640004628569066A1A
:1059B000414CA04214D0B0F1804F11D03F4CA042D6
:1059C0000ED03F4CA0420BD03E4CA04208D03E4CE3
:1059D000A04205D0424CA04202D03C4CA04201D192
:1059E000012400E00024E4B2002C03D0AD08AD0097
:1059F000154301E055F0010535F0F0051C0114F0E8
:105A0000F004254336F00A0611F00A0426438561A6
:105A1000066270BC704770B4046A34F0100404620B
:105A20008469056A34F4407454EA022434F47044FE
:105A30001E0316F47046344335F0A0050E0116F02F
:105A4000A00635438461056270BC704770B4046A77
:105A500034F480740462C469056AA408A400144381
:105A600034F0F0041E0116F0F006344335F42065DE
:105A70000E0216F420663543C461056270BC70479F
:105A800070B4046A34F480540462C469056A34F45E
:105A9000407454EA022434F470441E0316F4704631
:105AA000344335F420450E0316F420463543C461D3
:105AB000056270BC70470000000001400004004017
:105AC00000080040000C004000040140004001407C
:105AD00000440140004801408FFFFEFFFF8FFFFEA2
