:020000040800F2
:1000000050070020696A0008416A0008436A000836
:10001000456A0008476A0008496A000800000000B5
:100020000000000000000000000000004B6A000813
:100030004D6A0008000000004F6A0008516A00087D
:10004000A56A0008A96A0008AD6A0008B16A00083C
:10005000B56A0008B96A0008BD6A0008C16A0008EC
:10006000C56A0008C96A0008CD6A0008D16A00089C
:10007000D56A0008D96A0008DD6A0008E16A00084C
:10008000E56A0008E96A0008ED6A0008F16A0008FC
:10009000F56A0008F96A0008FD6A0008016B0008AB
:1000A000056B0008096B00080D6B0008116B000858
:1000B000156B0008196B00081D6B0008216B000808
:1000C000256B0008296B00082D6B0008316B0008B8
:1000D000356B0008396B00083D6B0008416B000868
:1000E000456B0008496B00084D6B0008516B000818
:1000F000556B0008596B00085D6B0008616B0008C8
:10010000656B0008696B00086D6B0008716B000877
:10011000756B0008796B00087D6B0008816B000827
:10012000856B0008896B00088D6B0008916B0008D7
:10013000956B00080000000000000000996B0008AB
:100140009D6B0008A16B0008A56B0008A96B000857
:10015000AD6B0008B16B0008B56B0008B96B000807
:10016000BD6B0008C16B0008C56B0008C96B0008B7
:10017000CD6B0008D16B0008D56B000800000000B3
:10018000D96B0008DD6B0008E16B0008E56B000827
:10019000E96B0008ED6B0008F16B0008F56B0008D7
:1001A000F96B0008FD6B0008016C0008056C000885
:1001B000096C00080D6C0008116C0008156C000833
:1001C000196C00081D6C0008000000000000000011
:1001D0000000000000000000216C0008000000008A
:1001E000000000000000000000000000000000000F
:1001F0000000000000000000256C0008296C0008C9
:100200002D6C0008316C000800000000356C0008FF
:10021000396C00083D6C0008416C0008456C000812
:10022000496C00084D6C0008516C0008000000008B
:10023000556C0008596C0008000000005D6C000857
:10024000616C0008656C0008696C00086D6C000842
:10025000716C0008756C0008796C00087D6C0008F2
:10026000816C0008856C0008896C00088D6C0008A2
:10027000916C0008956C0008996C00080000000063
:100280009D6C0008A16C000800000000A56C00082F
:1002900000000000A96C0008AD6C00080000000020
:1002A00000000000B16C0008B56C00082DE9F041B9
:1002B000040000275FF000082068000135D5A06E1B
:1002C000002809D0B0F5801F0FD0B0F5001F12D064
:1002D000B0F5401F16D016E0DFF8840A006850F42D
:1002E0000030DFF87C1A08600FE00221201D01F0C9
:1002F0009FFB070009E0022114F1240001F034FC07
:10030000070002E001E0012007003800C0B2002829
:100310000AD1DFF8500A016831F44011A06E0143A0
:10032000DFF8400A016000E0B8462068C00533D518
:10033000606D002806D0022813D00CD3042818D0F2
:1003400016D317E0DFF8180A006850F40030DFF821
:10035000101A086010E00021201D01F069FB070061
:100360000AE0002114F1240001F0FEFB070003E085
:1003700002E001E0012007003800C0B200280AD1E5
:10038000DFF8E0090168C908C900606D0143DFF8C2
:10039000D409016000E0B846206880053AD5A06D18
:1003A00000280CD0402813D0802817D0C0281CD09B
:1003B000B0F5807F1AD0B0F5A07F18D018E0DFF834
:1003C000A009006850F40030DFF89419086011E0CB
:1003D0000021201D01F02CFB07000BE0002114F18F
:1003E000240001F0C1FB070004E003E002E001E0AB
:1003F000012007003800C0B200280AD1DFF86409E4
:10040000016831F4E071A06D0143DFF85809016023
:1004100000E0B846206840053DD5E06D00280FD0CB
:10042000B0F5007F15D0B0F5806F18D0B0F5C06F73
:100430001CD0B0F5006F1AD0B0F5206F18D018E0BE
:10044000DFF81C09006850F40030DFF81419086068
:1004500011E00021201D01F0EBFA07000BE0002164
:1004600014F1240001F080FB070004E003E002E047
:1004700001E0012007003800C0B200280AD1DFF8EF
:10048000E408016831F46061E06D0143DFF8D408ED
:10049000016000E0B846206880012CD5A06C0028DF
:1004A00016D0102804D020280BD030280FD010E010
:1004B000DFF8AC08006850F40030DFF8A4180860DA
:1004C00009E00221201D01F0B3FA070003E002E079
:1004D00001E0012007003800C0B200280AD1DFF88F
:1004E0008808016831F03001A06C0143DFF878081A
:1004F000016000E0B8462068C00439D5206E0028AD
:100500000CD0B0F5805F12D0B0F5005F15D0B0F51B
:10051000405F19D0B0F5804F17D017E0DFF84008E2
:10052000006850F40030DFF83818086010E000214F
:10053000201D01F07DFA07000AE0002114F12400DB
:1005400001F012FB070003E002E001E001200700D8
:100550003800C0B200280AD1DFF80808016831F479
:10056000E041206E0143DFF8FC07016000E0B8467F
:100570002068800435D5606E00280FD0B0F5803F2C
:100580000DD0B0F5003F10D0B0F5403F14D0B0F51D
:10059000802F12D0B0F5A02F10D010E011E0012173
:1005A000201D01F045FA07000BE0012114F12400A1
:1005B00001F0DAFA070004E003E002E001E00120C4
:1005C00007003800C0B200280AD1DFF89807016898
:1005D00031F4E021606E0143DFF88807016000E03C
:1005E000B846206840043BD5D4F8AC00002812D0AF
:1005F000B0F1805F10D0B0F1005F13D0B0F1405F78
:1006000017D0B0F1804F15D0B0F1A04F13D0B0F19A
:10061000C04F11D011E012E00121201D01F008FAB5
:1006200007000CE0012114F1240001F09DFA0700FD
:1006300005E004E003E002E001E0012007003800EB
:10064000C0B200280BD1DFF82407016831F0E04187
:10065000D4F8AC000143DFF81407016000E0B846AD
:10066000206800042BD5606F002815D0B0F1805FA2
:1006700003D0B0F1005F09D00FE0DFF8E4060068B6
:1006800050F40030DFF8D816086008E00121201D82
:1006900001F0CEF9070002E001E001200700380078
:1006A000C0B200280AD1DFF8BC06016831F0405121
:1006B000606F0143DFF8AC06016000E0B8462068D7
:1006C000C0012BD5606C002815D002280CD002D3B5
:1006D00003280FD010E0DFF88806006850F40030DF
:1006E000DFF87C16086009E00221201D01F0A0F966
:1006F000070003E002E001E0012007003800C0B27B
:1007000000280AD1DFF86006016889088900606C5A
:100710000143DFF85406016000E0B846206840025B
:1007200040F18780DFF84806006850F48070DFF8F9
:100730004016086001F0C6FA0600DFF834060068CB
:10074000C00506D401F0BEFA801B6528F5D303204E
:1007500007003800C0B200286AD1DFF81806006828
:1007600010F44070D4F8B01011F44071884218D0E1
:10077000DFF80006006830F440700500DFF8F4058B
:10078000006850F48030DFF8EC150860DFF8E4050D
:10079000006830F48030DFF8DC150860DFF8D4053D
:1007A0000560D4F8B000B0F5807F10D101F08AFA6E
:1007B0000600DFF8C0050068800708D401F082FA5F
:1007C000801B41F289318842F3D3032007003800AF
:1007D000C0B200282AD1D4F8B00010F44070B0F5AF
:1007E000407F0FD1DFF89005006830F47C50D4F8DA
:1007F000B010DFF8882512EA11121043DFF87815DF
:10080000086007E0DFF87005006830F47C50DFF81E
:1008100068150860DFF85C050068D4F8B0100905B9
:10082000090D0843DFF84C15086002E0B84600E007
:10083000B8462078C00732D5D4F8800000280AD006
:10084000082809D010280DD0182812D0202811D03F
:10085000282810D010E011E00121201D01F0E8F857
:1008600007000BE0012114F1240001F07DF90700DD
:1008700004E003E002E001E0012007003800C0B21C
:1008800000280BD1DFF8F804016831F03801D4F802
:1008900080000143DFF8E804016000E0B8462078FA
:1008A00080072ED5E06F002808D002280DD006D38F
:1008B000042812D010D3052810D010E011E0012137
:1008C000201D01F0B5F807000BE0012114F1240010
:1008D00001F04AF9070004E003E002E001E0012032
:1008E00007003800C0B200280AD1DFF8940401687C
:1008F000C908C900E06F0143DFF88404016000E02B
:10090000B8462078400730D5D4F89800002808D0A1
:1009100002280DD006D3042812D010D3052810D0F9
:1009200010E011E00121201D01F082F807000BE02A
:10093000012114F1240001F017F9070004E003E09D
:1009400002E001E0012007003800C0B200280BD10E
:10095000DFF818040168C908C900D4F898000143F9
:10096000DFF80804016000E0B8462078800637D53B
:10097000D4F8940000280FD0B0F1805F0DD0B0F112
:10098000005F10D0B0F1405F14D0B0F1804F12D0B2
:10099000B0F1A04F10D010E011E00021201D01F0B7
:1009A00047F807000BE0022114F1240001F0DCF805
:1009B000070004E003E002E001E001200700380046
:1009C000C0B200280BD1DFF8B803016831F0E04174
:1009D000D4F894000143DFF8A803016000E0B846B2
:1009E0002078400637D5D4F8A00000280FD0B0F505
:1009F000806F0DD0B0F5006F10D0B0F5406F14D0FF
:100A0000B0F5805F12D0B0F5A05F10D010E011E01B
:100A10000021201D01F00CF807000BE0022114F169
:100A2000240001F0A1F8070004E003E002E001E087
:100A3000012007003800C0B200280BD1DFF82C03DA
:100A4000016831F4E051D4F8A0000143DFF81C0341
:100A5000016000E0B8462078000637D5D4F8A4003D
:100A600000280FD0B0F5005F0DD0B0F5804F10D04A
:100A7000B0F5C04F14D0B0F5004F12D0B0F5204FF4
:100A800010D010E011E00021201D00F0D1FF070080
:100A90000BE0022114F1240001F066F8070004E0E5
:100AA00003E002E001E0012007003800C0B20028A6
:100AB0000BD1DFF8B802016831F46041D4F8A4002A
:100AC0000143DFF8A802016000E0B8462078000783
:100AD00018D5D4F88800B0F5805F08D1022114F150
:100AE000240001F041F8002801D001208046DFF801
:100AF0009002016831F44051D4F888000143DFF8D6
:100B0000800201602078C00618D5D4F89C00B0F5AA
:100B1000807F08D1022114F1240001F025F800287B
:100B200001D001208046DFF84402016831F44071B1
:100B3000D4F89C000143DFF8340201602068000310
:100B40002BD5D4F8A800002806D0B0F5803F09D0F6
:100B5000B0F5003F0DD00DE00021201D00F068FF32
:100B6000070009E0022114F1240000F0FDFF070056
:100B700002E001E0012007003800C0B200280BD1DC
:100B8000DFF8E801016831F44031D4F8A8000143EE
:100B9000DFF8D801016000E0B846206840032DD599
:100BA000D4F88C00B0F5801F06D0B0F5001F0AD035
:100BB000B0F5401F0ED00EE06948006850F40030D8
:100BC0006749086009E0012114F1240000F0CCFF1E
:100BD000070002E001E0012007003800C0B2002851
:100BE0000BD1DFF89C01016831F44011D4F88C007E
:100BF0000143DFF88C01016000E0B8462068C003C3
:100C000025D5E06C002803D0B0F5803F07D00CE07C
:100C10005348006850F400305149086007E0022151
:100C2000201D00F005FF070001E00120070038004B
:100C3000C0B200280AD1DFF83001016831F48031F8
:100C4000E06C0143DFF82001016000E0B846206855
:100C5000800008D5022114F1240000F085FF00284F
:100C600001D0012080462068800328D5D4F8840074
:100C7000002812D0B0F5807F06D0B0F5007F0AD0F2
:100C8000B0F5407F08D009E03548006850F40030E6
:100C90003349086004E003E002E001E001200700BE
:100CA0003800C0B2002809D13548016831F44071DC
:100CB000D4F8840001433248016000E0B84620685F
:100CC000C00207D52748016821F00041A06F014309
:100CD000244801602068800207D52248016831F06D
:100CE0008071E06E01431F4801602068000507D550
:100CF0001E48016831F00061206F01431B4801600C
:100D0000206840000CD51C48006830F400401A49A7
:100D1000086019480168D4F8B4000143164801601E
:100D20002068002807D51048016831F04051206D37
:100D300001430D4801602068000208D51048016891
:100D400031F44001D4F8900001430D480160404661
:100D5000C0B2002801D1002000E00120BDE8F081F0
:100D60002C440258504402584C44025858440258EB
:100D7000004802587044025810440258CFFFFF0048
:100D800054440258F0B589B00500B5F5807F65D1AF
:100D9000DFF8340A006810F007000600002E06D0C5
:100DA000022E1CD00FD3042E25D052D354E0DFF8EE
:100DB0005C0C0068800104D506A800F013FD0798BC
:100DC00000E00020B7E2DFF8440C0068000104D521
:100DD000684600F0C3FA009800E00020ABE2DFF8BC
:100DE0002C0C0068800004D503A800F0D7FB039802
:100DF00000E000209FE2DFF8E409006810F04050B6
:100E00000400DFF8080C006840070AD5002C08D160
:100E1000DFF8FC0BDFF8F41B0968C1F3C101C8401F
:100E200016E0DFF8E80B0068C00505D5B4F1805F77
:100E300002D1DFF8AC090BE0DFF8D00B00688003CB
:100E400005D5B4F1005F02D1DFF8C80B00E0002047
:100E500071E2DFF8C40B6EE200206CE2B5F5007FB2
:100E600069D1DFF86409006810F4E0700600300012
:100E7000002809D0402813D080281DD0C02855D084
:100E8000B0F5807F24D054E0DFF8800B006880014B
:100E900004D506A800F0A6FC079800E000204AE26E
:100EA000DFF8680B0068000104D5684600F056FAC8
:100EB000009800E000203EE2DFF8500B0068800060
:100EC00004D503A800F06AFB039800E0002032E29A
:100ED000DFF80809006810F040500400DFF82C0B20
:100EE000006840070AD5002C08D1DFF8240BDFF892
:100EF0001C1B0968C1F3C101C84016E0DFF80C0BE8
:100F00000068C00505D5B4F1805F02D1DFF8D008D4
:100F10000BE0DFF8F80A0068800305D5B4F1005F44
:100F200002D1DFF8F00A00E0002004E2DFF8E80A6E
:100F300001E20020FFE1B5F5806F6CD1DFF8880891
:100F4000006810F460600600300000280CD0B0F596
:100F5000007F15D0B0F5806F1ED0B0F5C06F55D0B2
:100F6000B0F5006F24D054E0DFF8A00A00688001DB
:100F700004D506A800F036FC079800E00020DAE16E
:100F8000DFF8880A0068000104D5684600F0E6F939
:100F9000009800E00020CEE1DFF8700A00688000D1
:100FA00004D503A800F0FAFA039800E00020C2E19B
:100FB000DFF82808006810F040500400DFF84C0A01
:100FC000006840070AD5002C08D1DFF8440ADFF892
:100FD0003C1A0968C1F3C101C84016E0DFF82C0AC9
:100FE0000068C00505D5B4F1805F02D1DFF8F007D5
:100FF0000BE0DFF8180A0068800305D5B4F1005F44
:1010000002D1DFF8100A00E0002094E1DFF8080ABE
:1010100091E100208FE1B5F5805F6CD1DFF8A80782
:10102000006810F4E0400700380000280CD0B0F54C
:10103000805F15D0B0F5005F1ED0B0F5405F55D091
:10104000B0F5804F24D054E0DFF8C009006880017B
:1010500004D506A800F0C6FB079800E000206AE16E
:10106000DFF8A8090068000104D5684600F076F9A9
:10107000009800E000205EE1DFF890090068800041
:1010800004D503A800F08AFA039800E0002052E19A
:10109000DFF84807006810F040500400DFF86C09E2
:1010A000006840070AD5002C08D1DFF86409DFF892
:1010B0005C190968C1F3C101C84016E0DFF84C09AA
:1010C0000068C00505D5B4F1805F02D1DFF81007D4
:1010D0000BE0DFF838090068800305D5B4F1005F44
:1010E00002D1DFF8300900E0002024E1DFF8280910
:1010F00021E100201FE1B5F5002F57D1DFF82C09C1
:10110000006810F4403007003800002806D0B0F521
:10111000803F0FD0B0F5003F18D045E0DFF8EC0875
:101120000068000104D5684600F018F9009800E056
:10113000002000E1DFF8D4080068800004D503A88F
:1011400000F02CFA059800E00020F4E0DFF88C06AF
:10115000006810F040500400DFF8B0080068400755
:101160000AD5002C08D1DFF8A808DFF8A018096814
:10117000C1F3C101C84016E0DFF890080068C0055F
:1011800005D5B4F1805F02D1DFF854060BE0DFF83B
:101190007C080068800305D5B4F1005F02D1DFF858
:1011A000740800E00020C6E00020C4E0B5F5803FF0
:1011B00026D1DFF82806006810F4803007003800D8
:1011C000002803D0B0F5803F0CD017E0DFF83C08D2
:1011D0000068800104D506A800F004FB079800E031
:1011E0000020A8E0DFF824080068000104D5684664
:1011F00000F0B4F8029800E000209CE000209AE0A3
:10120000B5F5804F5FD1DFF82408006810F0E040AA
:1012100007003800002812D0B0F1805F12D0B0F182
:10122000005F1BD0B0F1405F24D0B0F1804F31D0CF
:10123000B0F1A04F38D0B0F1C04F3FD041E000F046
:101240007CF878E0DFF8C4070068000104D5684640
:1012500000F084F8019800E000206CE0DFF8AC07B3
:101260000068800004D503A800F098F9049800E015
:10127000002060E0DFF894070068400708D5DFF839
:101280009007DFF888170968C1F3C101C84000E082
:10129000002050E0DFF874070068C00502D5DFF8D1
:1012A000400500E0002046E0DFF8600700688003AA
:1012B00002D5DFF8600700E000203CE0DFF85807C7
:1012C00039E0002037E0B5F5004F33D1DFF8F804FE
:1012D000006810F0405007003800002806D0B0F138
:1012E000805F0DD0B0F1005F16D021E0DFF81C0761
:1012F0000068800302D5DFF81C0700E000201AE038
:10130000DFF808070068800104D506A800F06AFA33
:10131000079800E000200EE0DFF8F006006800010A
:1013200004D5684600F01AF8019800E0002002E0B9
:10133000002000E0002009B0F0BD80B500F05FFFA4
:10134000DFF82018DFF850291268C2F30212895C16
:1013500011F01F01C84002BD0000000030B48C49EC
:101360000A6812F003028A490968C1F305318A4B01
:101370001B68C3F30013DFF824492468C4F3CC04CA
:1013800004FB03F401EE104AB8EE411A002900F004
:10139000F080002A03D0022A72D051D390E0DFF807
:1013A0006C462468A4062BD5DFF86446DFF85C564B
:1013B0002D68C5F3C105EC4001EE904AB0EE610A1C
:1013C000F8EE401A02EE101AB8EE422AC1EE821A66
:1013D000DFF8CC482468E405E40D02EE104AB8EECC
:1013E000422ADFED682AC1EE222A32EE222AF7EEE7
:1013F000002A32EE222A61EE821AF0EE610A1EE025
:1014000001EE901AF8EE611A9FED5F2AC2EE211AE2
:10141000DFF88C482468E405E40D02EE104AB8EECB
:10142000422ADFED582AC1EE222A32EE222AF7EEB6
:10143000002A32EE222A61EE821AF0EE610A5EE0A4
:1014400001EE901AF8EE611A9FED502AC2EE211AB1
:10145000DFF84C482468E405E40D02EE104AB8EECB
:10146000422ADFED482AC1EE222A32EE222AF7EE86
:10147000002A32EE222A61EE821AF0EE610A3EE084
:1014800001EE901AF8EE611A9FED422AC2EE211A7F
:10149000DFF80C482468E405E40D02EE104AB8EECB
:1014A000422ADFED382AC1EE222A32EE222AF7EE56
:1014B000002A32EE222A61EE821AF0EE610A1EE064
:1014C00001EE901AF8EE611A9FED302AC2EE211A51
:1014D000DFF8CC472468E405E40D02EE104AB8EECC
:1014E000422ADFED282AC1EE222A32EE222AF7EE26
:1014F000002A32EE222A61EE821AF0EE610ADFF84B
:10150000A0472468C4F3462401EE904AF8EE611A1D
:10151000B7EE002A71EE821AC0EEA11AFCEEE11AB3
:10152000C0ED001ADFF878472468C4F3064401EEE2
:10153000904AF8EE611AB7EE002A71EE821AC0EEF8
:10154000A11AFCEEE11AC0ED011ADFF85447246835
:10155000C4F3066401EE904AF8EE611AB7EE002A71
:1015600071EE821AC0EEA11AFCEEE11AC0ED021A69
:1015700005E000240460002444600024846030BC42
:1015800070470000000000460024744C0024744A98
:1015900028440258001BB74B2C44025830B4DFF8E3
:1015A00004170A6812F00302DFF8F8160968C1F39D
:1015B0000551DFF8F4361B68C3F30023DFF8EC466F
:1015C0002468C4F3CC0404FB03F401EE104AB8EE23
:1015D000411A002900F0F080002A03D0022A72D0BC
:1015E00051D390E0DFF824442468A4062BD5DFF81B
:1015F0002044DFF818542D68C5F3C105EC4001EE16
:10160000904AB0EE610AF8EE401A02EE101AB8EEF7
:10161000422AC1EE821ADFF898462468E405E40DF8
:1016200002EE104AB8EE422ADFED682AC1EE222A05
:1016300032EE222AF7EE002A32EE222A61EE821AD8
:10164000F0EE610A1EE001EE901AF8EE611A9FEDCD
:10165000602AC2EE211ADFF858462468E405E40D3A
:1016600002EE104AB8EE422ADFED582AC1EE222AD5
:1016700032EE222AF7EE002A32EE222A61EE821A98
:10168000F0EE610A5EE001EE901AF8EE611A9FED4D
:10169000512AC2EE211ADFF818462468E405E40D49
:1016A00002EE104AB8EE422ADFED482AC1EE222AA5
:1016B00032EE222AF7EE002A32EE222A61EE821A58
:1016C000F0EE610A3EE001EE901AF8EE611A9FED2D
:1016D000422AC2EE211ADFF8D8452468E405E40D59
:1016E00002EE104AB8EE422ADFED382AC1EE222A75
:1016F00032EE222AF7EE002A32EE222A61EE821A18
:10170000F0EE610A1EE001EE901AF8EE611A9FED0C
:10171000312AC2EE211ADFF898452468E405E40D69
:1017200002EE104AB8EE422ADFED282AC1EE222A44
:1017300032EE222AF7EE002A32EE222A61EE821AD7
:10174000F0EE610ADFF868452468C4F3462401EE30
:10175000904AF8EE611AB7EE002A71EE821AC0EED6
:10176000A11AFCEEE11AC0ED001ADFF84445246826
:10177000C4F3064401EE904AF8EE611AB7EE002A6F
:1017800071EE821AC0EEA11AFCEEE11AC0ED011A48
:10179000DFF81C452468C4F3066401EE904AF8EEB5
:1017A000611AB7EE002A71EE821AC0EEA11AFCEEA1
:1017B000E11AC0ED021A05E0002404600024446030
:1017C0000024846030BC704750440258000000463A
:1017D0000024744C0024744A001BB74B4C4402583C
:1017E00000093D0030B4DFF8BC140A6812F00302AF
:1017F000DFF8B0140968C1F30511DFF8AC341B68D9
:1018000013F00103DFF8AC442468C4F3CC0404FBF8
:1018100003F401EE104AB8EE411A002900F0EE8000
:10182000002A03D0022A70D04FD38EE0774C246870
:10183000A4062AD5DFF88044744D2D68C5F3C10590
:10184000EC4001EE904AB0EE610AF8EE401A02EE6A
:10185000101AB8EE422AC1EE821ADFF860442468FA
:10186000E405E40D02EE104AB8EE422ADFED6B2AE1
:10187000C1EE222A32EE222AF7EE002A32EE222A86
:1018800061EE821AF0EE610A1EE001EE901AF8EEA7
:10189000611A9FED632AC2EE211ADFF82044246802
:1018A000E405E40D02EE104AB8EE422ADFED5B2AB1
:1018B000C1EE222A32EE222AF7EE002A32EE222A46
:1018C00061EE821AF0EE610A5EE001EE901AF8EE27
:1018D000611A9FED542AC2EE211ADFF8E043246812
:1018E000E405E40D02EE104AB8EE422ADFED4B2A81
:1018F000C1EE222A32EE222AF7EE002A32EE222A06
:1019000061EE821AF0EE610A3EE001EE901AF8EE06
:10191000611A9FED452AC2EE211ADFF8A043246820
:10192000E405E40D02EE104AB8EE422ADFED3B2A50
:10193000C1EE222A32EE222AF7EE002A32EE222AC5
:1019400061EE821AF0EE610A1EE001EE901AF8EEE6
:10195000611A9FED332AC2EE211ADFF86043246832
:10196000E405E40D02EE104AB8EE422ADFED2B2A20
:10197000C1EE222A32EE222AF7EE002A32EE222A85
:1019800061EE821AF0EE610ADFF830432468C4F396
:10199000462401EE904AF8EE611AB7EE002A71EE85
:1019A000821AC0EEA11AFCEEE11AC0ED001ADFF8AF
:1019B0000C432468C4F3064401EE904AF8EE611A21
:1019C000B7EE002A71EE821AC0EEA11AFCEEE11AFF
:1019D000C0ED011ADFF8E4422468C4F3066401EEA6
:1019E000904AF8EE611AB7EE002A71EE821AC0EE44
:1019F000A11AFCEEE11AC0ED021A05E00024046011
:101A0000002444600024846030BC704700440258C5
:101A10000090D00300366E010080BB00000000463D
:101A20000024744C0024744A001BB74B58440258DD
:101A30002DE9F04105000C0000269A48006810F0DE
:101A40000300032801D1012088E09D48006830F0A0
:101A500080609B49086000F035F9070098480068ED
:101A6000000106D500F02EF9C01B0328F6D3032091
:101A700074E08C48006830F47C30296850EA01300A
:101A8000884908606868401EC005C00DA968491EE5
:101A9000490211F47E410843E968491E090411F422
:101AA000FE0108432969491E090611F0FE41084359
:101AB0007B4908607C48016831F0C00168690143D6
:101AC000794801607848016831F02001A869014334
:101AD000754801607448006830F010007249086071
:101AE0006E4800686FF3CF00E96950EAC1006B49A6
:101AF00008606D48006850F010006B490860002CC9
:101B000006D16948006850F40020674908600EE07B
:101B1000012C06D16448006850F4801062490860C6
:101B200005E06148006850F400105F4908606448AF
:101B3000006850F080606249086000F0C3F8804699
:101B40005F480068000107D400F0BCF8B0EB080063
:101B50000328F5D3032001E03000C0B2BDE8F081D6
:101B600000000000586A00082DE9F04105000C0053
:101B700000264C48006810F00300032801D1012022
:101B800088E04F48006830F080504D49086000F010
:101B900099F807004A480068800006D500F092F8DE
:101BA000C01B0328F6D3032074E03E48006830F0E1
:101BB0007C70296850EA01503A4908606868401E04
:101BC000C005C00DA968491E490211F47E410843B1
:101BD000E968491E090411F4FE0108432969491EF8
:101BE000090611F0FE410843314908602E4801689A
:101BF00031F44061686901432B4801602A4801685B
:101C000031F40071A8690143274801602648006843
:101C100030F4807024490860244800686FF3CF00D6
:101C2000E96950EAC100214908601F48006850F482
:101C300080701D490860002C06D11B48006850F4D4
:101C40008000194908600EE0012C06D11648006892
:101C500050F400001449086005E01348006850F093
:101C60008070114908601648006850F0805014498F
:101C7000086000F027F8804611480068800007D40B
:101C800000F020F8B0EB08000328F5D3032001E0B2
:101C90003000C0B2BDE8F081204402583C440258F4
:101CA00038440258284402582C44025844440258EC
:101CB00040440258344402580090D0033044025843
:101CC0000044025801480068704700BF4C030020E0
:101CD000F8B504000D00002C01D101207AE1DFF8F5
:101CE000A005006810F00F00A84211D2DFF890059F
:101CF0000068000900012843DFF884150860DFF858
:101D00008005006810F00F00A84201D0012061E1B9
:101D10002078400711D5DFF88405006810F07000C6
:101D20002169884209D2DFF87405016831F0700139
:101D300020690143DFF8640501602078000711D5B0
:101D4000DFF85C05006810F070006169884209D214
:101D5000DFF84C05016831F0700160690143DFF87C
:101D6000400501602078C00611D5DFF83405006811
:101D700010F4E060A169884209D2DFF82405016807
:101D800031F4E061A0690143DFF8140501602078B7
:101D9000800611D5DFF80C05006810F07000E169CD
:101DA000884209D2DFF8FC04016831F07001E06973
:101DB0000143DFF8F00401602078800711D5DFF8D7
:101DC000DC04006810F00F00E168884209D2DFF8F7
:101DD000CC04016809090901E0680143DFF8BC048B
:101DE00001602078C0074DD5DFF8B004016831F4F8
:101DF0007061A0680143DFF8A404016060680228F4
:101E000006D1DFF88004006880031CD40120E1E0E3
:101E10006068032806D1DFF86C040068800112D4E2
:101E20000120D7E06068012806D1DFF85804006877
:101E3000C00508D40120CDE0DFF848040068400761
:101E400001D40120C6E0DFF840040168C908C900D8
:101E500060680143DFF830040160FFF733FF0600DC
:101E6000DFF82404006810F038006168B0EBC10F9F
:101E700008D0FFF727FF801B41F289318842EFD35A
:101E80000320A7E02078800711D5E068DFF80C1464
:101E9000096811F00F01884209D2DFF800040168D7
:101EA00009090901E0680143DFF8F0030160DFF888
:101EB000D003006810F00F00854211D2DFF8C00394
:101EC0000068000900012843DFF8B4130860DFF858
:101ED000B003006810F00F00A84201D0012079E0A3
:101EE0002078400711D52069DFF8B013096811F098
:101EF0007001884209D2DFF8A403016831F0700153
:101F000020690143DFF8940301602078000711D5B0
:101F10006069DFF88C13096811F07001884209D2FA
:101F2000DFF87C03016831F0700160690143DFF87C
:101F3000700301602078C00611D5A069DFF8601336
:101F4000096811F4E061884209D2DFF8540301689E
:101F500031F4E061A0690143DFF8440301602078B7
:101F6000800611D5E069DFF83C13096811F07001B3
:101F7000884209D2DFF82C03016831F07001E06972
:101F80000143DFF82003016000F026F80700DFF8C6
:101F90002803DFF808130968C1F30321405C10F03F
:101FA0001F00C740DFF81003DFF8F012096811F0D6
:101FB0000F01405C10F01F003900C140DFF8D4026F
:101FC0000160DFF8CC020760DFF8CC02006800F0A7
:101FD00079F9C0B2F2BD000010B4DFF8AC020068BD
:101FE00010F03800002806D0082815D0102816D088
:101FF000182817D000E1DFF88C020068800608D5A9
:10200000DFF88802DFF87C422468C4F3C104E040B2
:1020100001E0DFF87802F0E0DFF8A002EDE0DFF8A1
:10202000A002EAE0DFF88002006810F0030002007E
:10203000DFF874020068C0F305100100DFF86C02DD
:10204000006810F001000300DFF868020068C0F3C8
:10205000CC0000FB03F002EE100AB8EE422AB0EE0C
:10206000421A002900F0C680002A03D0022A72D04A
:1020700051D38FE0DFF80C02006880062BD5DFF823
:102080000C02DFF800422468C4F3C104E04002EE11
:10209000100AF0EE420AB8EE602A02EE901AF8EE4C
:1020A000622A82EE222ADFF808020068C005C00D0D
:1020B00002EE900AF8EE622A9FED6D3A81EE033A45
:1020C00072EE832AB7EE003A72EE832A22EE222ABB
:1020D000F0EE421A1EE002EE101AB8EE422ADFEDD0
:1020E000652A82EE822ADFF8C8010068C005C00DAB
:1020F00002EE900AF8EE622A9FED5D3A81EE033A15
:1021000072EE832AB7EE003A72EE832A22EE222A7A
:10211000F0EE421A5CE002EE101AB8EE422ADFED51
:10212000562A82EE822ADFF888010068C005C00DB9
:1021300002EE900AF8EE622A9FED4D3A81EE033AE4
:1021400072EE832AB7EE003A72EE832A22EE222A3A
:10215000F0EE421A3CE002EE101AB8EE422ADFED31
:10216000472A82EE822A52480068C005C00D02EE5E
:10217000900AF8EE622A9FED3E3A81EE033A72EE43
:10218000832AB7EE003A72EE832A22EE222AF0EE7C
:10219000421A1DE002EE101AB8EE422ADFED362A8E
:1021A00082EE822A42480068C005C00D02EE900A05
:1021B000F8EE622A9FED2E3A81EE033A72EE832A00
:1021C000B7EE003A72EE832A22EE222AF0EE421A8D
:1021D00037480068C0F34620401C02EE100AB0EEFB
:1021E000420AB8EE402A81EE822ABCEEC22A12EEE2
:1021F000100A00E0002000E0304810BC704780B5B5
:10220000FFF7EAFE01002C48244A1268C2F30322B9
:10221000805C10F01F00C1402748204A126812F06D
:102220000F02805C10F01F000A00C24019480260D3
:10223000174801601748006802BD80B5FFF7DFFF4F
:102240001D49174A1268C2F30212895C11F01F017E
:10225000C84002BD80B5FFF7D2FF1749104A126887
:10226000C2F30222895C11F01F01C84002BD0000C8
:10227000000000460024744C0024744A001BB74B35
:102280000020005200440258104402580090D0032D
:10229000040000200800002000000020184402581C
:1022A0001C44025820440258284402582C44025826
:1022B0003044025834440258586A000800093D006E
:1022C00000366E0110B5040011480078002801D1D5
:1022D00001201CE04FF47A700D490978B0FBF1F051
:1022E0000C490968B1FBF0F000F097F8002801D024
:1022F00001200CE0102C09D2002221005FF0FF30F9
:1023000000F079F804480460002000E0012010BDCE
:102310000C000020040000200000002010F0070343
:10232000DFF804110A684FF6FF010A4052EA03225F
:10233000DFF8F8100A43DFF8F0100A607047DFF8A2
:10234000E8000068C0F302207047000010B40200EB
:1023500012B2002A05D40A01354B040024B21A55E2
:1023600008E00A01334B040024B214F00F042344A4
:1023700003F8042C10BC704770B4030013F007047A
:10238000D4F10700052801D3042001E0D4F10700AF
:10239000251D072D01D2002500E0E51E012616FAB5
:1023A00000F0401E0140A940012010FA05F56D1E05
:1023B0002A401143080070BC704710B50400601E2D
:1023C000B0F1807F01D301200EE0601E1A49086041
:1023D0000F215FF0FF30FFF7B9FF002017490860B9
:1023E000072017490860002010BD10B50400200028
:1023F000FFF794FF10BDF8B504000D001600FFF7BD
:102400009EFF0700320029003800FFF7B5FF0100EA
:10241000200000B2FFF79AFFF1BD10B504002000C4
:10242000FFF7CBFF10BD00000CED00E00000FA0547
:1024300000E400E018ED00E014E000E018E000E047
:1024400010E000E010B50400002C01D1012037E0BD
:10245000A0690028FFD1D4F88400002805D100200D
:1024600084F88000200000F063FF2420C4F884007A
:10247000206800684008400021680860200000F0E3
:1024800037F9012801D101201AE0A06A002802D002
:10249000200000F047FC2068406830F4904021683C
:1024A00048602068806830F02A00216888602068D1
:1024B000006850F0010021680860200000F09FFCD7
:1024C00010BD2DE9FC4706000D0017009846D6F810
:1024D0008400202863D1002D03D0380080B200286A
:1024E00001D101205CE096F88000012801D1022092
:1024F00056E0012086F880000020C6F88C002120DC
:10250000C6F88400FFF7DEFB8146A6F85470A6F8F3
:102510005670B068B0F5805F05D13069002802D1EF
:102520000024AA4602E02C005FF0000A002086F892
:102530008000B6F85600002820D0CDF800804B4629
:1025400000228021300000F093FC002801D00320FD
:1025500026E0002C08D1BAF80000C005C00D316893
:1025600088621AF1020A03E0207831688862641CEC
:10257000B6F85600401EA6F85600DAE7CDF80080FF
:102580004B4600224021300000F072FC002801D0B0
:10259000032005E02020C6F88400002000E002208F
:1025A000BDE8F6872DE9F84F83460D0016001F00A1
:1025B000DBF88800202840F09880002D03D0300000
:1025C00080B2002801D1012090E09BF88000012812
:1025D00001D102208AE001208BF880000020CBF896
:1025E0008C002220CBF888000020CBF86C00FFF78D
:1025F00069FB8046ABF85C60ABF85E60DBF8080016
:10260000B0F5805F0CD1DBF81000002804D140F257
:10261000FF10ABF8600027E0FF20ABF8600023E07C
:10262000DBF8080000280BD1DBF81000002803D1EC
:10263000FF20ABF8600017E07F20ABF8600013E0EC
:10264000DBF80800B0F1805F0BD1DBF81000002848
:1026500003D17F20ABF8600006E03F20ABF86000BC
:1026600002E00020ABF86000BBF86090DBF80800E7
:10267000B0F5805F06D1DBF81000002802D10024FD
:10268000AA4602E02C005FF0000A00208BF88000D0
:10269000BBF85E00002823D000974346002220218B
:1026A000584600F0E5FB002801D003201EE0002C76
:1026B00009D1DBF80000406A19EA0000AAF800001E
:1026C0001AF1020A06E0DBF80000406A19EA00008D
:1026D0002070641CBBF85E00401EABF85E00D7E7BC
:1026E0002020CBF88800002000E00220BDE8F28F17
:1026F0002DE9F84F86B0040000262068DFF82C187A
:102700008842FFD0A1682069014360690143E06904
:10271000014320680268DFF8180802400A43206875
:1027200002602068426832F44052E0680243206848
:102730004260D4F818802068DFF8F027904202D079
:10274000206A50EA080820688168DFF8E80701403D
:1027500058EA0101206881602068C16A09090901FD
:10276000606A01432068C1622068DFF8CC178842A4
:102770001FD1DFF8C807006810F0380000280AD021
:1027800008280AD010280AD018280AD020280AD0F1
:1027900028280AD00BE0012770E104276EE1082702
:1027A0006CE110276AE1202768E1402766E1802775
:1027B00064E12068DFF8881788421DD1DFF87C07C4
:1027C000006810F00700002808D002280AD007D3BC
:1027D00004280BD008D305280AD00BE000274DE1D0
:1027E00004274BE1082749E1102747E1202745E16D
:1027F000402743E1802741E12068DFF848178842FD
:102800001DD1DFF83807006810F00700002808D055
:1028100002280AD007D304280BD008D305280AD0F1
:102820000BE000272AE1042728E1082726E11027EA
:1028300024E1202722E1402720E180271EE12068B3
:10284000DFF8041788421DD1DFF8F006006810F0A9
:102850000700002808D002280AD007D304280BD08C
:1028600008D305280AD00BE0002707E1042705E17B
:10287000082703E1102701E12027FFE04027FDE0C2
:102880008027FBE02068DFF8C41688421DD1DFF8FE
:10289000AC06006810F00700002808D002280AD013
:1028A00007D304280BD008D305280AD00BE0002753
:1028B000E4E00427E2E00827E0E01027DEE020273C
:1028C000DCE04027DAE08027D8E02068DFF88016D7
:1028D00088421FD1DFF86406006810F03800002835
:1028E0000AD008280AD010280AD018280AD0202890
:1028F0000AD028280AD00BE00127BFE00427BDE05A
:102900000827BBE01027B9E02027B7E04027B5E053
:102910008027B3E02068DFF83C1688421DD1DFF83D
:102920001C06006810F00700002808D002280AD012
:1029300007D304280BD008D305280AD00BE00027C2
:102940009CE004279AE0082798E0102796E02027CB
:1029500094E0402792E0802790E02068DFF8F815A7
:1029600088421DD1DFF8D405006810F00700002868
:1029700008D002280AD007D304280BD008D3052892
:102980000AD00BE0002779E0042777E0082775E0FC
:10299000102773E0202771E040276FE080276DE06B
:1029A0002068DFF8B81588421FD1DFF8900500686D
:1029B00010F0380000280AD008280AD010280AD0C1
:1029C00018280AD020280AD028280AD00BE001278E
:1029D00054E0042752E0082750E010274EE020275B
:1029E0004CE040274AE0802748E02068DFF8701577
:1029F00088421FD1DFF84405006810F03800002835
:102A00000AD008280AD010280AD018280AD020286E
:102A10000AD028280AD00BE001272FE004272DE058
:102A200008272BE0102729E0202727E0402725E072
:102A3000802723E02068DFF8F41488421DD1DFF8F6
:102A40002405006810F00700002808D002280AD0EA
:102A500007D304280BD008D305280AD00BE002279F
:102A60000CE004270AE0082708E0102706E02027EA
:102A700004E0402702E0802700E080272068DFF89C
:102A8000AC14884273D13800C0B202280AD004289E
:102A90000CD0082810D0102814D0202824D040288A
:102AA00025D027E0FEF749FC814627E003A8FEF782
:102AB00055FCDDF8109021E06846FEF76FFDDDF86B
:102AC00004901BE0DFF8A0040068800609D5DFF859
:102AD0009C94DFF894040068C0F3C10039FA00F94F
:102AE00001E0DFF8889409E0DFF8849406E04FF411
:102AF000004903E05FF0000901200600B9F1000F72
:102B000000F00081DFF86C04616A30F81100B9FB55
:102B1000F0F082466168032041438A4505D361682D
:102B20004FF480504143514502D201200600E9E0B4
:102B3000DFF84004616A30F81100B9FBF0F24FF49D
:102B40008073606840080021E3FB02016268002393
:102B500000F0A8FC0500B5F5407F05D3B5F5801F52
:102B600002D22068C560CDE001200600CAE0E0691D
:102B7000B0F5004F69D13800C0B200280CD0012850
:102B80000ED0042810D0082814D0102818D02028DF
:102B900028D0402829D02BE0FFF74FFB81462BE0BF
:102BA000FFF758FB814627E003A8FEF7D7FBDDF8C7
:102BB000109021E06846FEF7F1FCDDF804901BE080
:102BC000DFF8A4030068800609D5DFF8A093DFF8DA
:102BD00098030068C0F3C10039FA00F901E0DFF89A
:102BE0008C9309E0DFF8889306E04FF4004903E096
:102BF0005FF0000901200600B9F1000F00F08280AB
:102C0000DFF87003616A30F81100B9FBF0F0616819
:102C1000490811EB40016068B1FBF0F080B205009B
:102C2000102D0FD3B5F5803F0CD24FF6F07129402F
:102C30002800C0F3420001438B46584680B2216809
:102C4000C8605FE0012006005CE03800C0B20028E8
:102C50000CD001280ED0042810D0082814D0102839
:102C600018D0202828D0402829D02BE0FFF7E5FAFB
:102C700081462BE0FFF7EEFA814627E003A8FEF736
:102C80006DFBDDF8109021E06846FEF787FCDDF86B
:102C900004901BE0DFF8D0020068800609D5DFF859
:102CA000CC92DFF8C4020068C0F3C10039FA00F921
:102CB00001E0DFF8B89209E0DFF8B49206E04FF4E3
:102CC000004903E05FF0000901200600B9F1000FA0
:102CD00018D0DFF8A002616A30F81100B9FBF0F0FB
:102CE000616810EB51006168B0FBF1F080B2050043
:102CF000102D05D3B5F5803F02D22068C56001E0F4
:102D0000012006000120A4F86A000120A4F8680050
:102D100000202067002060673000C0B207B0BDE827
:102D2000F08F000090F82810C90707D501684A689D
:102D300032F40032C16A0A4301684A6090F82810F0
:102D4000890707D501684A6832F48032016B0A436B
:102D500001684A6090F82810490707D501684A6859
:102D600032F48022416B0A4301684A6090F82810CF
:102D7000090707D501684A6832F40042816B0A43AB
:102D800001684A6090F82810C90607D501688A686A
:102D900032F48052C16B0A4301688A6090F82810AF
:102DA000890607D501688A6832F40052016C0A432B
:102DB00001688A6090F82810490613D501684A68AE
:102DC00032F48012416C0A4301684A60416CB1F5EB
:102DD000801F07D101684A6832F4C002816C0A433F
:102DE00001684A6090F82810090607D501684A680A
:102DF00032F40022C16C0A4301684A60704738B55A
:102E000004000020C4F88C00FEF75CFF0500206879
:102E1000006800070DD57FF07E4000902B00002257
:102E20005FF40011200000F023F8002801D00320F7
:102E30001DE02068006840070DD57FF07E400090BF
:102E40002B0000225FF48001200000F011F8002820
:102E500001D003200BE02020C4F884002020C4F817
:102E600088000020E066002084F88000002032BD49
:102E70002DE9F04105000E0090461F00069C2868D1
:102E8000C0693040B04201D1012000E0002041463D
:102E9000C9B2884246D114F1010FF0D0FEF712FFFB
:102EA000C01B844201D3002C16D12868006830F47E
:102EB000D070296808602868806840084000296848
:102EC00088602020C5F884002020C5F888000020F4
:102ED00085F88000032026E0286800684007CED5EA
:102EE0002868C0690005CAD54FF4006029680862E7
:102EF0002868006830F4D070296808602868806805
:102F000040084000296888602020C5F884002020FF
:102F1000C5F888002020C5F88C00002085F88000C6
:102F2000032000E00020BDE8F0810000000C005804
:102F3000F369FFCFFFF4FF11001001405444025821
:102F40000044004000480040004C00400050004059
:102F50000014014000780040007C0040001801404F
:102F6000001C014058440258004402580090D0030D
:102F700000093D00106A000881B0DFF8E404006831
:102F800050F00200DFF8D8140860DFF8D4040068BD
:102F900010F002000090009801B0704710B5B4B076
:102FA00004001422002101A800F094FBB8220021A3
:102FB00006A800F08FFB2068DFF8A814884250D1E3
:102FC0005FF40020069020200790812008900220C6
:102FD000099002200A9002200B9040200C900020C3
:102FE0000D9000200E900020309006A8FDF75EF9AD
:102FF000002801D001F050F8DFF86C04006850F0B0
:103000002000DFF864140860DFF85C04006810F04A
:10301000200000900098DFF85404006850F004008D
:10302000DFF848140860DFF84404006810F004007A
:10303000009000983120019003200290002003901E
:1030400001A9DFF82C0401F029F85FF080615FF03E
:10305000806001F094F95FF000615FF0006001F0C2
:103060008EF934B010BD10B5B4B0040014220021A4
:10307000684600F02FFBB822002106A800F02AFBCA
:103080002068DFF8F013884257D14FF48050069043
:1030900000201E9006A8FDF709F9002801D000F0D5
:1030A000FBFFDFF8D403006850F48040DFF8C8135A
:1030B0000860DFF8C403006810F4804005900598AC
:1030C000DFF8A803006850F00400DFF8A0130860E0
:1030D000DFF89803006810F0040005900598DFF809
:1030E0008C03006850F00200DFF880130860DFF8FE
:1030F0007C03006810F00200059005980220009003
:1031000002200190002002900020039005200490EE
:103110006946DFF85C0300F0C1FF4FF4C040009047
:1031200002200190002002900020039005200490CE
:103130006946DFF8480300F0B1FF34B010BD81B03C
:103140000168DFF83C2391420FD1DFF8381309689A
:1031500051F00101DFF82C231160DFF82813096812
:1031600011F001010091009912E00168B1F1804F66
:103170000ED1DFF80413096851F00101DFF8F822DD
:103180001160DFF8F412096811F001010091009953
:1031900001B0704710B586B00400142200216846C3
:1031A00000F098FA2068DFF8E01288424AD1DFF890
:1031B000C802006850F00200DFF8BC120860DFF8B7
:1031C000B802006810F0020005900598DFF89C0234
:1031D000006850F00100DFF894120860DFF88C02FC
:1031E000006810F0010005900598DFF88002006883
:1031F00050F00200DFF874120860DFF87002006817
:1032000010F0020005900598C02000900220019067
:103210000020029000200390022004906946DFF80D
:103220006C0200F03BFF0320009002200190002080
:103230000290002003900220049069468F4800F01D
:103240002DFF2AE020689249884226D18A480068EA
:1032500050F00400884908608748006810F00400B6
:10326000059005988148006850F008007F49086083
:103270007E48006810F00800059005984FF47040F3
:103280000090022001900020029000200390022074
:10329000049069467F4800F001FF06B010BD10B5EC
:1032A00086B0040014220021684600F013FA20685A
:1032B000734988421BD16D48006850F010006B497B
:1032C00008606A48006810F01000059005984FF4F7
:1032D0008040009002200190002002900020039086
:1032E0000120049069466C4800F0D8FE1EE020687A
:1032F000B0F1804F1AD15D48006850F002005B4980
:1033000008605A48006810F00200059005984FF4D4
:1033100000600090022001900020029000200390A5
:10332000012004906946554800F0B8FE06B010BD73
:1033300010B5B4B0040014220021684600F0CAF9A8
:10334000B822002106A800F0C5F920685349884238
:103350004DD1012006900020269006A8FCF7A6FF7C
:10336000002801D000F098FE4648006850F0100098
:10337000444908604348006810F010000590059823
:103380003A48006850F00200384908603748006841
:1033900010F00200059005983448006850F00100D4
:1033A000324908603148006810F001000590059826
:1033B0004FF4004000900220019000200290002075
:1033C00003900420049069462C4800F067FE4FF4F7
:1033D00000700090022001900020029000200390D5
:1033E000072004906946294800F058FE35E020681F
:1033F0002B49884231D1022006900020259006A852
:10340000FCF754FF002801D000F046FE1A4800687F
:1034100050F48020184908601748006810F4802094
:10342000059005981148006850F008000F490860A1
:103430000E48006810F00800059005984FF44070A1
:1034400000900220019000200290002003900720AD
:10345000049069460F4800F021FE34B010BD000012
:103460005445025800210240384502584045025850
:10347000000802580038004048450258000402582D
:10348000000001405045025800040040000002586E
:1034900000080040000C02580010025800100140C3
:1034A00000480040BBBBE1B1B2F5803F80F07E80B8
:1034B000022A1ED98C46B1FBF2F102FB11C31B0498
:1034C00043EA1043B3FBF2FC02FB1C3380B240EA38
:1034D0000343B3FBF2F002FB103240EA0C4000233E
:1034E0007047022A05D98446B0FBF2F002FB10C2F5
:1034F00070474AB105D100F0010249085FEA300087
:10350000704700220023704700F04CBF0B00020000
:10351000002100207047904271EB030CF6D3B3F505
:10352000803F2FD2F0B5B3FA83F7B1FA81F4A7F157
:103530000F0E3D1B5340CEF1200602FA0EF2F3416E
:103540005340B5F10F0746D80F3C2C444140C4F11D
:103550002006A040F1414140B1FBF3F603FB1611F8
:10356000A2FB0645001BA94102D2761E80185941D4
:1035700080EA010221FA0EF362FA0EF200215A40AB
:103580003046F0BD30B4B1FBF3FC03FB1C11A2FBD1
:103590000C45001BA94103D2ACF1010C8018594124
:1035A00030BC02460B46604600217047B2F1807F76
:1035B00065D3F0B5B2FA82F7B1FA81F4C7F10F061C
:1035C0003D1B22FA06F307F1110EF24120355A4055
:1035D000B5F10F07B8D94140C4F12006A040F14130
:1035E0004140B1FBF3FC03FB1C11A2FB0C45001B8B
:1035F000A94103D2BCF1010C801859410F2F12D3FD
:103600000F3FC90341EA5041B1FBF3F603FB16112A
:10361000A2FB0645D4EBC030A94102D2761E801829
:10362000594146EACC3C07B34140C7F12006B840B7
:10363000F1414140B1FBF3F603FB1611A2FB064535
:10364000001BA94102D2761E8018594180EA01026E
:1036500021FA0EF3C7F1200462FA0EF20CFA07F019
:103660005A402CFA04F13043F0BD80EA010221FAFD
:103670000EF3002162FA0EF260465A40F0BD8C460D
:10368000B1FBF2F102FB11C31B0243EA1063B3FB6F
:10369000F2FC02FB1C331B024CEA002043EA1063DD
:1036A000B3FBF2FC02FB1C331B024CEA002043EA92
:1036B0001063B3FBF2FC02FB1C331B024CEA00203C
:1036C00043EA1063B3FBF2FC02FB1C324CEA00201D
:1036D0000023704710B5044610460A4601462046AE
:1036E00000F076FE204610BD78B587B000F018FED9
:1036F00000F078F800F0EAFB00F064FB00F0DDF881
:1037000000F044F900F0A9F900F02EFA00F082FA76
:1037100000F0EFFA00F098FB0C21DFF8140900F03C
:10372000C8FE0C21DFF80C0900F0C3FE04A8DFF886
:10373000081991E81C0080E81C000A25002601AC4D
:1037400032002900200000F043FE00240A2C15DA84
:103750004FF4FA73012204A800EB0401DFF8DC083F
:10376000FEF7AFFE4FF4FA73012201A800EB04014B
:10377000DFF8C808FEF716FF641CE7E70A250026F5
:1037800001AC32002900200000F022FE00240A2CA7
:1037900015DA4FF4FA73012204A800EB0401DFF8F4
:1037A000A008FEF78EFE4FF4FA73012201A800EB89
:1037B0000401DFF88C08FEF7F5FE641CE7E70A2435
:1037C000002501AE2A002100300000F001FE4FF478
:1037D000FA7000900A2301AA04A9DFF8680801F032
:1037E000C2FBAAE710B59CB04C21002209AC200016
:1037F00000F0EEFD2021002201AC200000F0E8FDE9
:10380000042001F071FE00200090DFF83C08006801
:1038100030F44040DFF830180860DFF82C0800680A
:1038200010F4404000900098DFF81C080068800405
:10383000FAD5DFF81808006880088000DFF80C1857
:1038400008600220099001200C9040200D90022079
:10385000129000201390042014900820159002204C
:10386000169001201790022018900C20199000202B
:103870001A9000201B9009A801F084FE002801D0B6
:1038800000F00AFC3F2001900020029000200390ED
:103890000020049040200590402006904FF4806066
:1038A000079040200890022101A8FEF711FA002895
:1038B00001D000F0F1FB1CB010BD18B587B01C2181
:1038C00000226C46200000F083FDDFF88407DFF85B
:1038D000841708600020DFF87C1748600020DFF8BC
:1038E000741788600020DFF86C17C8600420DFF8C8
:1038F000641708610020DFF85C1708750020DFF806
:10390000541748750120DFF84C1788610020DFF854
:10391000441708770020DFF83C1748620020DFF8E2
:10392000341788620020DFF82C17C8620020DFF807
:10393000241708630020DFF81C1748630020DFF815
:10394000141781F83800DFF80C0702F03EFA00285F
:1039500001D000F0A1FB0120009006200190002082
:10396000029040F2FF700390042004900020059024
:1039700000208DF819006946DFF8D80602F03EFBFA
:10398000002801D000F088FB08B010BD80B5DFF83A
:10399000C806DFF8B01608605FF48000DFF8A416F0
:1039A00048600020DFF89C1688600720DFF8941636
:1039B000C8600020DFF88C1608610020DFF884164C
:1039C00048615FF08060DFF87C1688615FF08050AE
:1039D000DFF87016C8610020DFF868160862002062
:1039E000DFF8601648620020DFF858168862002071
:1039F000DFF85016C8625FF08040DFF84816486371
:103A00000020DFF8401688630020DFF83816C8630E
:103A10000020DFF8301608640020DFF8281648641C
:103A20000020DFF8201688640020DFF81816C8642C
:103A30000020DFF8101608650020DFF8081648653A
:103A40000020DFF800168865DFF8F80501F0CAF9F4
:103A5000002801D000F020FB01BD18B595B00C2165
:103A600000226C46200000F0B3FC1C2100220EACAA
:103A7000200000F0ADFC2C21002203AC200000F05F
:103A8000A7FCDFF8D805DFF8A81508600020DFF8EC
:103A9000A01548600020DFF8981588604FF47A4040
:103AA000DFF88C15C8600020DFF88415086100205D
:103AB000DFF87C1548610020DFF874158861DFF8B5
:103AC000700500F0B9FC002801D000F0E5FA0020F4
:103AD000009000200190002002906946DFF8500518
:103AE00002F024FD002801D000F0D6FA60200E90EC
:103AF0004FF4FA400F900020109000201290002008
:103B00001390002014900C220EA9DFF8240500F079
:103B100036FE002801D000F0BFFA002003900020FC
:103B200004900020059000200690002007904FF49C
:103B3000005008900020099000200A905FF000706B
:103B40000B9000200C9000200D9003A9DFF8E004FA
:103B500002F03BFD002801D000F09EFADFF8D0040F
:103B6000FFF79DFB16B010BD10B58AB00C210022E6
:103B70006C46200000F02CFC1C21002203AC20002D
:103B800000F026FC5FF08040DFF8A81408600020F9
:103B9000DFF8A01448600020DFF898148860DFF890
:103BA000C004DFF89014C8600020DFF888140861B2
:103BB0000020DFF880148861DFF8780400F03CFC16
:103BC000002801D000F068FA002000900020029048
:103BD0006946DFF8600402F0A9FC002801D000F07B
:103BE0005BFA60200390DFF87C04049000200590CD
:103BF000002007900C2203A9DFF8380400F0BFFD75
:103C0000002801D000F048FADFF82804FFF747FB4E
:103C10000AB010BD18B587B00C21002204AC2000FA
:103C200000F0D6FB102100226C46200000F0D0FBF3
:103C3000DFF83404DFF8341408600020DFF82C14B7
:103C400048600020DFF8241488604FF6FF70DFF82A
:103C50001C14C8600020DFF8141408610020DFF88D
:103C60000C148861DFF8040400F0E4FC002801D0A3
:103C700000F012FA002004900020069004A9DFF85A
:103C8000EC0302F053FC002801D000F005FA0020FC
:103C9000009001200190002002900020039000225B
:103CA0006946DFF8C80300F005FD002801D000F0E8
:103CB000F3F904226946DFF8B40300F0FBFC0028A6
:103CC00001D000F0E9F908226946DFF8A00300F00E
:103CD000F1FC002801D000F0DFF90C226946DFF882
:103CE0008C0300F0E7FC002801D000F0D5F908B003
:103CF00010BD18B587B00C21002204AC200000F0E4
:103D000067FB102100226C46200000F061FBDFF809
:103D10006003DFF8601308600020DFF85813486084
:103D20000020DFF8501388604FF6FF70DFF844136F
:103D3000C8600020DFF83C1308610020DFF834136E
:103D40008861CC4800F076FC002801D000F0A4F98E
:103D5000002004900020069004A9C64802F0E6FB6B
:103D6000002801D000F098F9002000900120019077
:103D7000002002900020039000226946BD4800F018
:103D800099FC002801D000F087F904226946B9485F
:103D900000F090FC002801D000F07EF9082269466E
:103DA000B44800F087FC002801D000F075F90C221F
:103DB0006946B04800F07EFC002801D000F06CF9A4
:103DC00008B010BD80B5AC489C4908605FF4E13094
:103DD0009A49486000209949886000209749C86046
:103DE0000020964908610C209449486100209349BD
:103DF000886100209149C861002090490862002034
:103E00008E49486200208D4988628C48FEF71AFB73
:103E1000002801D000F040F90021884802F04FFC52
:103E2000002801D000F038F90021844802F072FC2B
:103E3000002801D000F030F9804802F01DFC002875
:103E400001D000F029F901BD80B58C487C4908609B
:103E50005FF4E1307A4948600020794988600020A9
:103E60007749C8600020764908610C207449486190
:103E700000207349886100207149C86100207049A1
:103E8000086200206E49486200206D4988626C48D3
:103E9000FEF7D8FA002801D000F0FEF800216848AB
:103EA00002F00DFC002801D000F0F6F80021644873
:103EB00002F030FC002801D000F0EEF8604802F07B
:103EC000DBFB002801D000F0E7F801BD10B586B09B
:103ED000142100226C46200000F07AFA684800683D
:103EE00050F01000664908606548006810F0100046
:103EF000059005986248006850F004006049086029
:103F00005F48006810F00400059005985C48006860
:103F100050F001005A4908605948006810F001004B
:103F2000059005985648006850F002005449086012
:103F30005348006810F0020005900598504800684A
:103F400050F008004E4908604D48006810F0080025
:103F50000590059800224FF482714A4800F0B7F9A5
:103F600000224FF40041484800F0B1F900226021DE
:103F7000464800F0ACF941F6FF7000900020019037
:103F8000002002906946404800F088F840F638501A
:103F90000090002001900020029069463C4800F00B
:103FA0007DF84FF482700090012001900020029073
:103FB000002003906946334800F070F84FF4004049
:103FC000009001200190002002900020039069469B
:103FD0002D4800F063F84FF48050009000200190CD
:103FE0000020029069462B4800F058F818200090F5
:103FF00000200190002002906946244800F04EF80D
:104000006020009001200190002002900020039089
:1040100069461E4800F042F8F82000900020019008
:10402000002002906946174800F038F806B010BD2D
:104030001C02002068020020886A0008100000208E
:10404000A0000020300100201848025828440258DF
:1040500000210240B801002000380040000001406B
:1040600000C4090000E2040000040040B402002083
:1040700000080040000300200010014000480040FC
:10408000404502580004025800100258000C025823
:10409000000002580008025872B6FEE7F8B40300A8
:1040A0000025DFF844620868E840002800F00D8130
:1040B00008680127AF4038400200002A00F0038161
:1040C0004868012808D04868022805D048681128A7
:1040D00002D04868122824D19F685FF0030C2800A2
:1040E000C0B240001CFA00FC37EA0C07D1F80CC043
:1040F0002800C0B240001CFA00FC5CEA07079F6081
:1041000058685FF0010C1CFA05FC30EA0C00D1F88D
:1041100004C0CCF3001C1CFA05FC5CEA000004009F
:104120005C60DF685FF0030C2800C0B240001CFA3E
:1041300000FC37EA0C07D1F808C02800C0B24000E4
:104140001CFA00FC5CEA0707DF604868022802D01E
:10415000486812281ED12800C00803EB8000046ABA
:104160005FF00F0C15F00700C0B280001CFA00FCD5
:1041700034EA0C04D1F810C015F00700C0B280007A
:104180001CFA00FC5CEA040427002800C00803EBCA
:10419000800007621C685FF0030C2800C0B240007A
:1041A0001CFA00FC34EA0C0491F804C01CF0030C67
:1041B0002800C0B240001CFA00FC5CEA04041C6049
:1041C0004868C00040F17F80DFF82001006850F0AF
:1041D0000200DFF818713860DFF81001006810F095
:1041E000020000900098DFF808012F00BF0850F887
:1041F00027705FF00F0C15F00300C0B280001CFAAE
:1042000000FC37EA0C073B48834201D100242DE033
:104210003948834201D1012428E03848834201D142
:10422000022423E03648834201D103241EE03548AE
:10423000834201D1042419E03348834201D105248B
:1042400014E03248834201D106240FE03048834213
:1042500001D107240AE02F48834201D1082405E058
:104260002D48834201D1092400E00A2415F00300FF
:10427000C0B28000844027431D482C00A40840F8A9
:104280002470306890434C68E40300D510433060DC
:10429000746894434F68BF0300D5144374605FF0A3
:1042A000B040006890434F68FF0200D510435FF0B4
:1042B000B0442060194C246894434F68BF0200D575
:1042C0001443164804606D1CEDE6F1BC7047130002
:1042D000DBB2002B03D00B009BB2836103E00B0029
:1042E0009BB21B04836170478000005854450258FC
:1042F0000804005800000258000402580008025840
:10430000000C0258001002580014025800180258FD
:10431000001C0258002002580024025804000058D3
:1043200010B50320FEF761F8FDF756FE0400DFF834
:104330006000DFF860100968C1F30321405C10F0F1
:104340001F00C440DFF84800DFF84810096811F08A
:104350000F01405C10F01F002100C140DFF8380061
:104360000160DFF8380004600020FDF7ABFF002893
:1043700001D0012002E0FEF7FFFD002010BDDFF8B4
:104380002020126882430A43DFF814301A60704715
:10439000586A000818440258080000200400002051
:1043A0000404005870470EE0026843680244083075
:1043B0005FEAC37C44BF4B445B1E52F804CB43F816
:1043C00004CB091FF9D150F8041B0029ECD1704728
:1043D00062F30F2262F31F42401810F0030308D06B
:1043E000C91A1FD3DB0748BF00F8012D28BF20F8EA
:1043F000022D130030B414461546103928BF20E9A9
:104400003C00FAD8490728BF20E90C0048BF40F813
:10441000042D890028BF20F8022D48BF00F8012D87
:1044200030BC7047C91818BF00F8012DCB0728BF52
:1044300000F8012D7047000010B50400002C01D1D8
:10444000012035E094F83D00002805D1002084F8D3
:104450003C002000FEF773FE022084F83D00211D81
:10446000206800F039FA012084F84800012084F81F
:104470003E00012084F83F00012084F84000012024
:1044800084F84100012084F84200012084F84300B0
:10449000012084F84400012084F84500012084F8BC
:1044A0004600012084F84700012084F83D000020E8
:1044B00010BD70B505000C00002C02D195F83E002F
:1044C00015E0042C02D195F83F0010E0082C02D131
:1044D00095F840000BE00C2C02D195F8410006E065
:1044E000102C02D195F8420001E095F84300012814
:1044F00001D001208BE0002C04D1022085F83E0081
:10450000C0B21FE0042C04D1022085F83F00C0B2E5
:1045100018E0082C04D1022085F84000C0B211E058
:104520000C2C04D1022085F84100C0B20AE0102C06
:1045300004D1022085F84200C0B203E0022085F8D1
:104540004300C0B201222100286800F039FC28682D
:10455000DFF8BC10884213D02868DFF8B810884212
:104560000ED02868DFF8C410884209D02868DFF828
:10457000C010884204D02868DFF8AC10884201D10E
:10458000012000E00020C0B2002805D02868406C5F
:1045900050F40040296848642868DFF874108842A5
:1045A0001CD02868B0F1804F18D02868DFF8681058
:1045B000884213D02868DFF8641088420ED028683B
:1045C000DFF85C10884209D02868DFF8481088427C
:1045D00004D02868DFF84C10884211D1286881681F
:1045E000DFF8CC0001400E00062E0FD0B6F5803F5C
:1045F0000CD02868006850F001002968086005E0C8
:104600002868006850F0010029680860002070BD2B
:104610000000014000040140000400400008004088
:10462000000C0040001800400048014000400140DC
:104630000044014010B50400002C01D1012035E0F8
:1046400094F83D00002805D1002084F83C002000AB
:10465000FEF7A0FD022084F83D00211D206800F037
:104660003BF9012084F84800012084F83E00012035
:1046700084F83F00012084F84000012084F84100C4
:10468000012084F84200012084F84300012084F8CE
:104690004400012084F84500012084F846000120F0
:1046A00084F84700012084F83D00002010BD000080
:1046B0000700010070B505000E00140095F83C00DD
:1046C000012801D1022059E0012085F83C00002C8E
:1046D00012D1F36872683168286800F0D0FA28684F
:1046E000806930F00C002968886128688169B068A9
:1046F0000143286881613DE0042C13D1F36872689E
:104700003168286800F0F5FA2868806930F4406064
:104710002968886128688069B16850EA01202968A1
:10472000886127E0082C12D1F36872683168286824
:1047300000F0FAFA2868C06930F00C002968C861F6
:104740002868C169B06801432868C16112E0F36854
:1047500072683168286800F001FB2868C06930F48D
:1047600040602968C8612868C069B16850EA0120C2
:104770002968C861002085F83C00002070BD70B534
:1047800004000D00160094F83C00012801D102201D
:10479000A1E0012084F83C00300000280AD0042861
:1047A0001FD0082835D00C284AD0102860D01428F3
:1047B00075D08CE02900206800F0F3F8206880694B
:1047C00050F00800216888612068806930F004009A
:1047D00021688861206881692869014320688161B6
:1047E00075E02900206800F02CF92068806950F4F9
:1047F0000060216888612068806930F480602168E9
:10480000886120688069296950EA012021688861EF
:104810005DE02900206800F05EF92068C06950F072
:1048200008002168C8612068C06930F00400216870
:10483000C8612068C169286901432068C16146E0F8
:104840002900206800F08EF92068C06950F40060EB
:104850002168C8612068C06930F480602168C8613F
:104860002068C069296950EA01202168C8612EE0EA
:104870002900206800F0AAF92068406D50F0080077
:10488000216848652068406D30F004002168486563
:104890002068416D286901432068416517E02900BF
:1048A000206800F0BFF92068406D50F40060216876
:1048B00048652068406D30F4806021684865206854
:1048C000406D296950EA012021684865FFE7002012
:1048D00084F83C00002070BD0368DFF8B8249042E3
:1048E00012D0B0F1804F0FD0DFF8AC2490420BD043
:1048F000DFF8A824904207D0DFF8A424904203D028
:10490000DFF8A024904203D133F070034A681343C8
:10491000DFF8802490421ED0B0F1804F1BD0DFF82A
:104920007824904217D0DFF87424904213D0DFF837
:10493000702490420FD0DFF86C2490420BD0DFF847
:104940006824904207D0DFF86424904203D0DFF857
:104950006024904203D133F44073CA68134333F0A8
:1049600080034A69134303608A68C2620A688262EC
:10497000DFF8202490420FD0DFF8282490420BD09B
:10498000DFF82424904207D0DFF82024904203D09F
:10499000DFF81C24904201D10A69026301224261BE
:1049A000704730B4026A520852000262056A4368D6
:1049B0008469DFF800241440A408A4000A681443A2
:1049C00035F002058A681543DFF8C82390420FD0FE
:1049D000DFF8D02390420BD0DFF8CC23904207D0F1
:1049E000DFF8C823904203D0DFF8C423904205D1FA
:1049F00035F00805CA68154335F00405DFF894233F
:104A000090420FD0DFF89C2390420BD0DFF8982320
:104A1000904207D0DFF89423904203D0DFF8902330
:104A2000904207D133F4807333F400734A6913431F
:104A30008A691343436084614A684263056230BCFB
:104A4000704730B4026A32F010020262056A4368AD
:104A50008469DFF86423144034F440740A6854EA2B
:104A6000022435F020058A6855EA0215DFF8242370
:104A7000904203D0DFF82C23904206D135F0800518
:104A8000CA6855EA021535F04005DFF80823904260
:104A90000FD0DFF8102390420BD0DFF80C239042A8
:104AA00007D0DFF80823904203D0DFF804239042B8
:104AB00009D133F4806333F400634A6953EA820313
:104AC0008A6953EA8203436084614A6882630562AB
:104AD00030BC7047000030B4026A32F48072026267
:104AE000056A4368C46934F07004A408A4000A6825
:104AF000144335F400758A6855EA0225DFF89422DC
:104B0000904203D0DFF89C22904206D135F4006534
:104B1000CA6855EA022535F48065DFF878229042AC
:104B20000FD0DFF8802290420BD0DFF87C22904239
:104B300007D0DFF87822904203D0DFF87422904249
:104B400009D133F4805333F400534A6953EA021312
:104B50008A6953EA02134360C4614A68C26305620A
:104B600030BC704730B4026A32F480520262036A89
:104B70004468C26932F4E04232F440720D6852EA8D
:104B8000052233F400538D6853EA0533DFF80452ED
:104B9000A8420FD0DFF80C52A8420BD0DFF8085221
:104BA000A84207D0DFF80452A84203D0DFF8005231
:104BB000A84204D134F480444D6954EA8514446019
:104BC000C2614D680564036230BC704730B4026A4C
:104BD00032F480320262046A4568436D33F0700338
:104BE0000A68134334F400348A6854EA0244694A78
:104BF00090420BD06B4A904208D06B4A904205D04D
:104C00006A4A904202D06A4A904204D135F4803513
:104C10004A6955EA0225456043654A68826504622F
:104C200030BC704730B4026A32F480120262036A08
:104C30004468426D32F4E0420D6852EA052233F4D2
:104C400000138D6853EA0553524DA8420BD0554DC1
:104C5000A84208D0544DA84205D0544DA84202D0D5
:104C6000534DA84204D134F400344D6954EA8524EC
:104C7000446042654D68C565036230BC704770B4DE
:104C8000046A6408640004628569066A414CA042B3
:104C900014D0B0F1804F11D03F4CA0420ED03F4C09
:104CA000A0420BD03E4CA04208D03E4CA04205D0C2
:104CB000424CA04202D03C4CA04201D1012400E071
:104CC0000024E4B2002C03D0AD08AD00154301E090
:104CD00055F0010535F0F0051C0114F0F0042543F2
:104CE00036F00A0611F00A0426438561066270BC9C
:104CF000704770B4046A34F0100404628469056A71
:104D000034F4407454EA022434F470441E0316F45C
:104D10007046344335F0A0050E0116F0A006354369
:104D20008461056270BC704770B4046A34F48074A6
:104D30000462C469056AA408A400144334F0F004B2
:104D40001E0116F0F006344335F420650E0216F409
:104D500020663543C461056270BC704770B4046A54
:104D600034F480540462C469056A34F4407454EA2B
:104D7000022434F470441E0316F47046344335F4B0
:104D800020450E0316F420463543C461056270BC0D
:104D9000704700000000014000040040000800408F
:104DA000000C00400004014000400140004401406C
:104DB000004801408FFFFEFFFF8FFFFE00180040FC
:104DC00030B4012411F01F0314FA03F3046A9C4366
:104DD0000462046A11F01F0512FA05F52C430462FF
:104DE00030BC704770B504000025002C01D10120B3
:104DF000B8E0606A00280020A0622068DFF8AC15E7
:104E000088420ED02068DFF8A815884209D02068B3
:104E1000DFF8A015884204D0E068102801D30120F3
:104E2000A0E0200000F054FB06002068DFF87C15AD
:104E300088420BD02068DFF87815884206D02068B9
:104E4000DFF87015884201D0092E10D22068DFF8F3
:104E50005C15884209D02068DFF85415884204D0D8
:104E60002068DFF85015884203D1112E01D30120AC
:104E700078E094F88100002805D1002084F88000B3
:104E80002000FEF7F0F8022084F881002068006816
:104E90004008400021680860A069B0F1806F13D11C
:104EA0006068B0F5800F02D1A06B002806D0606862
:104EB000002809D1A06BB0F1805F05D1206800689F
:104EC00050F4805021680860E169A06A01432943D9
:104ED000E06B0143E068014320688160616B606AB8
:104EE0000143A06B0143A06901432069014360694C
:104EF0000143206A014360680143E06C0143A068FC
:104F00000143A06C0143A06D01432068C16060684B
:104F100000280FD12068806830F4C05050F4006041
:104F2000216888602068806830F4C06050F4806038
:104F3000216888602068006D40084000216808658D
:104F40006068400207D52068C16821F00041606DAB
:104F500001432068C1600020C4F88400012084F867
:104F60008100002070BD2DE9F34F83B006001500CD
:104F70001F000E9C5FF0000896F88000012801D108
:104F800002200FE2012086F88000FCF79BFE81469C
:104F9000BA46BB4696F881008DF80400706802900E
:104FA0009DF80400012810D00298B0F5800F06D1BA
:104FB000B068002803D19DF80400042805D0022021
:104FC000002186F88010C0B2ECE10498002805D0DA
:104FD000002D03D0380080B2002805D10120002127
:104FE00086F88010C0B2DDE196F88100042802D076
:104FF000052086F881000020C6F884007566A6F8B2
:105000006A70A6F868700498F065A6F86270A6F851
:105010006070002030670020706730684168090CBC
:105020000904380080B2014330684160306800688C
:1050300050F00100316808607068B0F5800F05D14C
:105040003068006850F4007031680860F06810281B
:1050500054D3504680B2002804D1584680B200286C
:1050600000F0808130684069800712D5504680B2D8
:1050700000280ED0F06D006831680862F06D001DE8
:10508000F065B6F86200401EA6F86200B6F862004D
:1050900082463068406948F20801084212D05846FA
:1050A00080B200280ED03068006B716E0860706EA0
:1050B000001D7066B6F86A00401EA6F86A00B6F8D1
:1050C0006A008346FCF7FEFDB0EB0900A04202D364
:1050D00014F1010F01D1002CBBD1300000F06CF9AC
:1050E000002086F88000D6F8840050F48070C6F85E
:1050F0008400012086F88100012053E1F06808282F
:10510000C0F07F80504680B2002804D1584680B25B
:10511000002800F0278130684069800729D5504673
:1051200080B2002825D0504680B2022812D3F06BFE
:1051300000280FD0F06D006831680862F06D001D26
:10514000F065B6F86200801EA6F86200B6F862004C
:1051500082460EE0F06D008831680884F06D801C96
:10516000F065B6F86200401EA6F86200B6F862006C
:1051700082463068406910F4604F26D0584680B2AD
:10518000002822D03068406900040FD53068006BD9
:10519000716E0860706E001D7066B6F86A00801E41
:1051A000A6F86A00B6F86A0083460EE03068008E02
:1051B000716E0880706E801C7066B6F86A00401EC2
:1051C000A6F86A00B6F86A008346FCF77BFDB0EBF0
:1051D0000900A04202D314F1010F01D1002C91D19A
:1051E000300000F0E9F8002086F88000D6F884004E
:1051F00050F48070C6F88400012086F881000120F8
:10520000D0E0504680B2002804D1584680B2002831
:1052100000F0A88030684069800741D5504680B2D0
:1052200000283DD0504680B2042812D3F06B4128AC
:105230000FD3F06D006831680862F06D001DF065F5
:10524000B6F86200001FA6F86200B6F86200824657
:1052500026E0504680B2022812D3F06B00280FD00F
:10526000F06D008831680884F06D801CF065B6F838
:105270006200801EA6F86200B6F8620082460FE067
:10528000F06D0078316881F82000F06D401CF06509
:10529000B6F86200401EA6F86200B6F862008246C8
:1052A0003068406910F4604F3FD0584680B2002803
:1052B0003BD03068406900040FD53068006B716ED8
:1052C0000860706E001D7066B6F86A00001FA6F8D0
:1052D0006A00B6F86A00834627E03068406910F437
:1052E000C04042F2010188420FD33068008E716ED7
:1052F0000880706E801C7066B6F86A00801EA6F882
:105300006A00B6F86A0083460FE0306890F8300013
:10531000716E0870706E401C7066B6F86A00401EB0
:10532000A6F86A00B6F86A008346FCF7CBFCB0EB3F
:105330000900A04202D314F1010F02D1002C7FF426
:1053400060AF300000F038F8002086F88000D6F812
:10535000840050F48070C6F88400012086F8810033
:1053600001201FE000944B4600220821300000F08D
:105370008DF8002805D0D6F8840050F02000C6F83B
:105380008400300000F018F8002086F8800001202A
:1053900086F88100D6F88400002801D0012001E0C1
:1053A0004046C0B205B0BDE8F08F000000300140BB
:1053B00000380040003C004001684A690168896982
:1053C00051F00801036899610168896951F0100181
:1053D0000368996101680968490849000368196010
:1053E00001680B6928490B4001680B6101688968F5
:1053F00031F440410368996090F8811004290DD080
:1054000091060BD5D0F8841051F08001C0F88410BB
:105410000168896951F020010368996190F8811051
:1054200003290DD051060BD5D0F8841051F004019A
:10543000C0F884100168896951F0400103689961DE
:1054400091050BD5D0F8841051F00101C0F88410FB
:105450000168896951F4007103689961D1050BD520
:10546000D0F8841051F00801C0F8841001688969EF
:1054700051F48071036899610021A0F86210002145
:10548000A0F86A107047000090FCFFFF2DE9F04182
:1054900005000E0090461F00069C286840693040B9
:1054A000B04201D1012000E000204146C9B288424B
:1054B0000BD1FCF707FCC01BA04202D314F1010F73
:1054C00001D1002CE9D1032000E00020BDE8F081EB
:1054D0000100C86B4009401CCA68521CD21DD2088A
:1054E00000FB02F07047000038B50400DFF88C00C4
:1054F000006810F0070006280AD0DFF88000006876
:1055000010F03F00A04201D0012035E0002033E040
:10551000DFF868000068800980012043DFF85C1034
:105520000860FCF7CFFB0500DFF85400006880043A
:1055300008D4FCF7C7FB401B40F2E9318842F3D3A3
:10554000012019E01E2C05D02E2C03D01D2C01D0DB
:105550002D2C10D1FCF7B6FB0500DFF82000006809
:10556000C00308D4FCF7AEFB401B40F2E93188428F
:10557000F3D3012000E0002032BD00000C480258A7
:10558000044802582DE9F8430400002C01D1012001
:1055900060E32078C00740F1B980DFF8BC060568F9
:1055A00015F03805DFF8B406D0F80090102D05D0BE
:1055B000182D0FD119F0030002280BD1DFF8A00637
:1055C0000068800340F1A2806068002840F09E805F
:1055D00001203FE36068B0F5803F08D1DFF8800626
:1055E000006850F48030DFF8781608606DE060687D
:1055F000002818D1DFF86806006830F48030DFF842
:1056000060160860DFF85806006830F48010DFF894
:1056100050160860DFF84806006830F48020DFF894
:105620004016086051E06068B0F5A02F18D1DFF88F
:105630003006006850F48020DFF824160860DFF898
:105640002006006830F48010DFF814160860DFF8D8
:105650001006006850F48030DFF80416086034E06B
:105660006068B0F5A81F18D1DFF8F405006850F4A1
:105670008020DFF8EC150860DFF8E405006850F4DE
:105680008010DFF8DC150860DFF8D405006850F4FE
:105690008030DFF8CC15086017E0DFF8C40500683B
:1056A00030F48030DFF8B8150860DFF8B405006822
:1056B00030F48020DFF8A8150860DFF8A405006842
:1056C00030F48010DFF898150860606800280ED06C
:1056D000FCF7F8FA0600DFF888050068800315D4A7
:1056E000FCF7F0FA801B6528F5D30320B2E2FCF743
:1056F000E9FA0600DFF868050068800306D5FCF7C4
:10570000E1FA801B6528F5D30320A3E22078800707
:1057100064D5DFF84405056815F03805DFF83C0569
:10572000D0F80090002D04D0182D18D119F0030FD7
:1057300015D1DFF82C050068400704D5E068002883
:1057400001D1012086E2DFF81C05006830F0FE4040
:10575000216950EA0160DFF80C1508603EE0E0685E
:10576000002824D0DFF8F804016831F01901E0685E
:105770000143DFF8EC040160FCF7A4FA0600DFF84F
:10578000E0040068400706D4FCF79CFA801B03285D
:10579000F5D303205EE2DFF8CC04006830F0FE4071
:1057A000216950EA0160DFF8BC14086016E0DFF8F8
:1057B000B004006840084000DFF8A4140860FCF75B
:1057C00081FA0600DFF898040068400706D5FCF768
:1057D00079FA801B0328F5D303203BE22078C0062A
:1057E00063D5DFF87404056815F03805DFF86C043C
:1057F000D0F80090082D05D0182D19D119F003000C
:10580000012815D1DFF858040068C00504D5E06907
:10581000802801D001201DE2DFF84C04006830F040
:105820007C50216A50EA0160DFF83C1408603CE0DB
:10583000E069002822D0DFF82804006850F08000DA
:10584000DFF81C140860FCF73DFA0600DFF81004CE
:105850000068C00506D4FCF735FA801B0328F5D391
:105860000320F7E1DFF80004006830F07C50216A83
:1058700050EA0160DFF8F013086016E0DFF8E0039B
:10588000006830F08000DFF8D8130860FCF71AFADF
:105890000600DFF8CC030068C00506D5FCF712FA55
:1058A000801B0328F5D30320D4E12078000730D5EE
:1058B0006069002816D0DFF8B403006850F00100DA
:1058C000DFF8A8130860FCF7FDF90600DFF89C0379
:1058D000006880071DD4FCF7F5F9801B0328F5D379
:1058E0000320B7E1DFF88403006840084000DFF8D8
:1058F0007C130860FCF7E6F90600DFF87003006827
:10590000800706D5FCF7DEF9801B0328F5D30320BA
:10591000A0E12078800630D5A069002816D0DFF8F5
:105920004003006850F48050DFF834130860FCF73F
:10593000C9F90600DFF82803006880041DD4FCF7CD
:10594000C1F9801B0328F5D3032083E1DFF810039E
:10595000006830F48050DFF808130860FCF7B2F9F3
:105960000600DFF8FC020068800406D5FCF7AAF9FF
:10597000801B0328F5D303206CE12078400740F119
:105980009580BB48006850F48070B9490860FCF706
:1059900099F90500B6480068C00506D4FCF792F9ED
:1059A000401B6528F6D3032054E1A068012806D1E6
:1059B000B048006850F00100AE49086053E0A068AC
:1059C000002812D1AB48006840084000A94908608F
:1059D000A848006830F08000A6490860A548006823
:1059E00030F00400A34908603DE0A068052812D10A
:1059F000A048006850F004009E4908609D48006877
:105A000030F080009B4908609A48006850F001001F
:105A10009849086027E0A068852812D19548006859
:105A200050F00400934908609248006850F08000EC
:105A3000904908608F48006850F001008D49086067
:105A400011E08C480068400840008A490860894895
:105A5000006830F00400874908608648006830F02C
:105A6000800084490860A06800280FD0FCF72AF95C
:105A7000060080480068800718D4FCF723F9801BD3
:105A800041F289318842F4D30320E3E0FCF71AF9AC
:105A9000060078480068800708D5FCF713F9801BDA
:105AA00041F289318842F4D30320D3E0606A0028B0
:105AB00000F0CF806848006810F03800182800F027
:105AC0009A80606A022840F082806548006830F061
:105AD000807063490860FCF7F5F8050060480068CD
