:020000040800F2
:10000000C8050020B54A00088D4A00088F4A00083C
:10001000914A0008934A0008954A00080000000031
:10002000000000000000000000000000974A0008E7
:10003000994A0008000000009B4A00089D4A0008F9
:10004000E54A0008E94A0008ED4A0008F14A0008BC
:10005000F54A0008F94A0008FD4A0008014B00086B
:10006000054B0008094B00080D4B0008114B000818
:10007000154B0008194B00081D4B0008214B0008C8
:10008000254B0008294B00082D4B0008314B000878
:10009000354B0008394B00083D4B0008414B000828
:1000A000454B0008494B00084D4B0008514B0008D8
:1000B000554B0008594B00085D4B0008614B000888
:1000C000654B0008694B00086D4B0008714B000838
:1000D000754B0008794B00087D4B0008814B0008E8
:1000E000854B0008894B00088D4B0008914B000898
:1000F000954B0008994B00089D4B0008A14B000848
:10010000A54B0008A94B0008AD4B0008B14B0008F7
:10011000B54B0008B94B0008BD4B0008C14B0008A7
:10012000C54B0008C94B0008CD4B0008D14B000857
:10013000D54B00080000000000000000D94B00086B
:10014000DD4B0008E14B0008E54B0008E94B0008D7
:10015000ED4B0008F14B0008F54B0008F94B000887
:10016000FD4B0008014C0008054C0008094C000834
:100170000D4C0008114C0008154C00080000000050
:10018000194C00081D4C0008214C0008254C0008A3
:10019000294C00082D4C0008314C0008354C000853
:1001A000394C00083D4C0008414C0008454C000803
:1001B000494C00084D4C0008514C0008554C0008B3
:1001C000594C00085D4C00080000000000000000D1
:1001D0000000000000000000614C0008000000006A
:1001E000000000000000000000000000000000000F
:1001F0000000000000000000654C0008694C000889
:100200006D4C0008714C000800000000754C00089F
:10021000794C00087D4C0008814C0008854C000892
:10022000894C00088D4C0008914C0008000000002B
:10023000954C0008994C0008000000009D4C0008F7
:10024000A14C0008A54C0008A94C0008AD4C0008C2
:10025000B14C0008B54C0008B94C0008BD4C000872
:10026000C14C0008C54C0008C94C0008CD4C000822
:10027000D14C0008D54C0008D94C00080000000003
:10028000DD4C0008E14C000800000000E54C0008CF
:1002900000000000E94C0008ED4C000800000000E0
:1002A00000000000F14C0008F54C00082DE9F04179
:1002B000040000275FF000082068000135D5A06E1B
:1002C000002809D0B0F5801F0FD0B0F5001F12D064
:1002D000B0F5401F16D016E0DFF8840A006850F42D
:1002E0000030DFF87C1A08600FE00221201D00F0CA
:1002F0009BFF070009E0022114F1240001F030F80F
:10030000070002E001E0012007003800C0B2002829
:100310000AD1DFF8500A016831F44011A06E0143A0
:10032000DFF8400A016000E0B8462068C00533D518
:10033000606D002806D0022813D00CD3042818D0F2
:1003400016D317E0DFF8180A006850F40030DFF821
:10035000101A086010E00021201D00F065FF070062
:100360000AE0002114F1240000F0FAFF070003E086
:1003700002E001E0012007003800C0B200280AD1E5
:10038000DFF8E0090168C908C900606D0143DFF8C2
:10039000D409016000E0B846206880053AD5A06D18
:1003A00000280CD0402813D0802817D0C0281CD09B
:1003B000B0F5807F1AD0B0F5A07F18D018E0DFF834
:1003C000A009006850F40030DFF89419086011E0CB
:1003D0000021201D00F028FF07000BE0002114F190
:1003E000240000F0BDFF070004E003E002E001E0AC
:1003F000012007003800C0B200280AD1DFF86409E4
:10040000016831F4E071A06D0143DFF85809016023
:1004100000E0B846206840053DD5E06D00280FD0CB
:10042000B0F5007F15D0B0F5806F18D0B0F5C06F73
:100430001CD0B0F5006F1AD0B0F5206F18D018E0BE
:10044000DFF81C09006850F40030DFF81419086068
:1004500011E00021201D00F0E7FE07000BE0002165
:1004600014F1240000F07CFF070004E003E002E048
:1004700001E0012007003800C0B200280AD1DFF8EF
:10048000E408016831F46061E06D0143DFF8D408ED
:10049000016000E0B846206880012CD5A06C0028DF
:1004A00016D0102804D020280BD030280FD010E010
:1004B000DFF8AC08006850F40030DFF8A4180860DA
:1004C00009E00221201D00F0AFFE070003E002E07A
:1004D00001E0012007003800C0B200280AD1DFF88F
:1004E0008808016831F03001A06C0143DFF878081A
:1004F000016000E0B8462068C00439D5206E0028AD
:100500000CD0B0F5805F12D0B0F5005F15D0B0F51B
:10051000405F19D0B0F5804F17D017E0DFF84008E2
:10052000006850F40030DFF83818086010E000214F
:10053000201D00F079FE07000AE0002114F12400DC
:1005400000F00EFF070003E002E001E001200700D9
:100550003800C0B200280AD1DFF80808016831F479
:10056000E041206E0143DFF8FC07016000E0B8467F
:100570002068800435D5606E00280FD0B0F5803F2C
:100580000DD0B0F5003F10D0B0F5403F14D0B0F51D
:10059000802F12D0B0F5A02F10D010E011E0012173
:1005A000201D00F041FE07000BE0012114F12400A2
:1005B00000F0D6FE070004E003E002E001E00120C5
:1005C00007003800C0B200280AD1DFF89807016898
:1005D00031F4E021606E0143DFF88807016000E03C
:1005E000B846206840043BD5D4F8AC00002812D0AF
:1005F000B0F1805F10D0B0F1005F13D0B0F1405F78
:1006000017D0B0F1804F15D0B0F1A04F13D0B0F19A
:10061000C04F11D011E012E00121201D00F004FEB6
:1006200007000CE0012114F1240000F099FE0700FE
:1006300005E004E003E002E001E0012007003800EB
:10064000C0B200280BD1DFF82407016831F0E04187
:10065000D4F8AC000143DFF81407016000E0B846AD
:10066000206800042BD5606F002815D0B0F1805FA2
:1006700003D0B0F1005F09D00FE0DFF8E4060068B6
:1006800050F40030DFF8D816086008E00121201D82
:1006900000F0CAFD070002E001E001200700380079
:1006A000C0B200280AD1DFF8BC06016831F0405121
:1006B000606F0143DFF8AC06016000E0B8462068D7
:1006C000C0012BD5606C002815D002280CD002D3B5
:1006D00003280FD010E0DFF88806006850F40030DF
:1006E000DFF87C16086009E00221201D00F09CFD67
:1006F000070003E002E001E0012007003800C0B27B
:1007000000280AD1DFF86006016889088900606C5A
:100710000143DFF85406016000E0B846206840025B
:1007200040F18780DFF84806006850F48070DFF8F9
:100730004016086000F0BCFE0600DFF834060068D2
:10074000C00506D400F0B4FE801B6528F5D3032055
:1007500007003800C0B200286AD1DFF81806006828
:1007600010F44070D4F8B01011F44071884218D0E1
:10077000DFF80006006830F440700500DFF8F4058B
:10078000006850F48030DFF8EC150860DFF8E4050D
:10079000006830F48030DFF8DC150860DFF8D4053D
:1007A0000560D4F8B000B0F5807F10D100F080FE75
:1007B0000600DFF8C0050068800708D400F078FE66
:1007C000801B41F289318842F3D3032007003800AF
:1007D000C0B200282AD1D4F8B00010F44070B0F5AF
:1007E000407F0FD1DFF89005006830F47C50D4F8DA
:1007F000B010DFF8882512EA11121043DFF87815DF
:10080000086007E0DFF87005006830F47C50DFF81E
:1008100068150860DFF85C050068D4F8B0100905B9
:10082000090D0843DFF84C15086002E0B84600E007
:10083000B8462078C00732D5D4F8800000280AD006
:10084000082809D010280DD0182812D0202811D03F
:10085000282810D010E011E00121201D00F0E4FC58
:1008600007000BE0012114F1240000F079FD0700DE
:1008700004E003E002E001E0012007003800C0B21C
:1008800000280BD1DFF8F804016831F03801D4F802
:1008900080000143DFF8E804016000E0B8462078FA
:1008A00080072ED5E06F002808D002280DD006D38F
:1008B000042812D010D3052810D010E011E0012137
:1008C000201D00F0B1FC07000BE0012114F1240011
:1008D00000F046FD070004E003E002E001E0012033
:1008E00007003800C0B200280AD1DFF8940401687C
:1008F000C908C900E06F0143DFF88404016000E02B
:10090000B8462078400730D5D4F89800002808D0A1
:1009100002280DD006D3042812D010D3052810D0F9
:1009200010E011E00121201D00F07EFC07000BE02B
:10093000012114F1240000F013FD070004E003E09E
:1009400002E001E0012007003800C0B200280BD10E
:10095000DFF818040168C908C900D4F898000143F9
:10096000DFF80804016000E0B8462078800637D53B
:10097000D4F8940000280FD0B0F1805F0DD0B0F112
:10098000005F10D0B0F1405F14D0B0F1804F12D0B2
:10099000B0F1A04F10D010E011E00021201D00F0B8
:1009A00043FC07000BE0022114F1240000F0D8FC06
:1009B000070004E003E002E001E001200700380046
:1009C000C0B200280BD1DFF8B803016831F0E04174
:1009D000D4F894000143DFF8A803016000E0B846B2
:1009E0002078400637D5D4F8A00000280FD0B0F505
:1009F000806F0DD0B0F5006F10D0B0F5406F14D0FF
:100A0000B0F5805F12D0B0F5A05F10D010E011E01B
:100A10000021201D00F008FC07000BE0022114F16A
:100A2000240000F09DFC070004E003E002E001E088
:100A3000012007003800C0B200280BD1DFF82C03DA
:100A4000016831F4E051D4F8A0000143DFF81C0341
:100A5000016000E0B8462078000637D5D4F8A4003D
:100A600000280FD0B0F5005F0DD0B0F5804F10D04A
:100A7000B0F5C04F14D0B0F5004F12D0B0F5204FF4
:100A800010D010E011E00021201D00F0CDFB070088
:100A90000BE0022114F1240000F062FC070004E0E6
:100AA00003E002E001E0012007003800C0B20028A6
:100AB0000BD1DFF8B802016831F46041D4F8A4002A
:100AC0000143DFF8A802016000E0B8462078000783
:100AD00018D5D4F88800B0F5805F08D1022114F150
:100AE000240000F03DFC002801D001208046DFF802
:100AF0009002016831F44051D4F888000143DFF8D6
:100B0000800201602078C00618D5D4F89C00B0F5AA
:100B1000807F08D1022114F1240000F021FC00287C
:100B200001D001208046DFF84402016831F44071B1
:100B3000D4F89C000143DFF8340201602068000310
:100B40002BD5D4F8A800002806D0B0F5803F09D0F6
:100B5000B0F5003F0DD00DE00021201D00F064FB3A
:100B6000070009E0022114F1240000F0F9FB07005E
:100B700002E001E0012007003800C0B200280BD1DC
:100B8000DFF8E801016831F44031D4F8A8000143EE
:100B9000DFF8D801016000E0B846206840032DD599
:100BA000D4F88C00B0F5801F06D0B0F5001F0AD035
:100BB000B0F5401F0ED00EE06948006850F40030D8
:100BC0006749086009E0012114F1240000F0C8FB26
:100BD000070002E001E0012007003800C0B2002851
:100BE0000BD1DFF89C01016831F44011D4F88C007E
:100BF0000143DFF88C01016000E0B8462068C003C3
:100C000025D5E06C002803D0B0F5803F07D00CE07C
:100C10005348006850F400305149086007E0022151
:100C2000201D00F001FB070001E001200700380053
:100C3000C0B200280AD1DFF83001016831F48031F8
:100C4000E06C0143DFF82001016000E0B846206855
:100C5000800008D5022114F1240000F081FB002857
:100C600001D0012080462068800328D5D4F8840074
:100C7000002812D0B0F5807F06D0B0F5007F0AD0F2
:100C8000B0F5407F08D009E03548006850F40030E6
:100C90003349086004E003E002E001E001200700BE
:100CA0003800C0B2002809D13548016831F44071DC
:100CB000D4F8840001433248016000E0B84620685F
:100CC000C00207D52748016821F00041A06F014309
:100CD000244801602068800207D52248016831F06D
:100CE0008071E06E01431F4801602068000507D550
:100CF0001E48016831F00061206F01431B4801600C
:100D0000206840000CD51C48006830F400401A49A7
:100D1000086019480168D4F8B4000143164801601E
:100D20002068002807D51048016831F04051206D37
:100D300001430D4801602068000208D51048016891
:100D400031F44001D4F8900001430D480160404661
:100D5000C0B2002801D1002000E00120BDE8F081F0
:100D60002C440258504402584C44025858440258EB
:100D7000004802587044025810440258CFFFFF0048
:100D80005444025880B500F030FEDFF8D015DFF88B
:100D900000271268C2F30212895C11F01F01C840DB
:100DA00002BD000030B48C490A6812F003028A497F
:100DB0000968C1F305318A4B1B68C3F30013DFF8E0
:100DC000D4462468C4F3CC0404FB03F401EE104AB7
:100DD000B8EE411A002900F0F080002A03D0022A60
:100DE00072D051D390E0DFF838442468A4062BD5A4
:100DF000DFF83044DFF828542D68C5F3C105EC4016
:100E000001EE904AB0EE610AF8EE401A02EE101AB6
:100E1000B8EE422AC1EE821ADFF87C462468E40567
:100E2000E40D02EE104AB8EE422ADFED682AC1EE68
:100E3000222A32EE222AF7EE002A32EE222A61EE30
:100E4000821AF0EE610A1EE001EE901AF8EE611AC5
:100E50009FED5F2AC2EE211ADFF83C462468E405C4
:100E6000E40D02EE104AB8EE422ADFED582AC1EE38
:100E7000222A32EE222AF7EE002A32EE222A61EEF0
:100E8000821AF0EE610A5EE001EE901AF8EE611A45
:100E90009FED502AC2EE211ADFF8FC452468E405D4
:100EA000E40D02EE104AB8EE422ADFED482AC1EE08
:100EB000222A32EE222AF7EE002A32EE222A61EEB0
:100EC000821AF0EE610A3EE001EE901AF8EE611A25
:100ED0009FED422AC2EE211ADFF8BC452468E405E2
:100EE000E40D02EE104AB8EE422ADFED382AC1EED8
:100EF000222A32EE222AF7EE002A32EE222A61EE70
:100F0000821AF0EE610A1EE001EE901AF8EE611A04
:100F10009FED302AC2EE211ADFF87C452468E405F3
:100F2000E40D02EE104AB8EE422ADFED282AC1EEA7
:100F3000222A32EE222AF7EE002A32EE222A61EE2F
:100F4000821AF0EE610ADFF850452468C4F34624A3
:100F500001EE904AF8EE611AB7EE002A71EE821A9D
:100F6000C0EEA11AFCEEE11AC0ED001ADFF8284528
:100F70002468C4F3064401EE904AF8EE611AB7EE15
:100F8000002A71EE821AC0EEA11AFCEEE11AC0ED41
:100F9000011ADFF804452468C4F3066401EE904AA0
:100FA000F8EE611AB7EE002A71EE821AC0EEA11AAD
:100FB000FCEEE11AC0ED021A05E0002404600024F2
:100FC00044600024846030BC70470000000000468C
:100FD0000024744C0024744A28440258001BB74B68
:100FE0002C44025830B4DFF8B4140A6812F003023B
:100FF000DFF8A8140968C1F30551DFF8A4341B68B1
:10100000C3F30023DFF89C442468C4F3CC0404FB3E
:1010100003F401EE104AB8EE411A002900F0F08006
:10102000002A03D0022A72D051D390E0DFF8F041B9
:101030002468A4062BD5DFF8EC41DFF8E4512D68D5
:10104000C5F3C105EC4001EE904AB0EE610AF8EE3E
:10105000401A02EE101AB8EE422AC1EE821ADFF8E8
:1010600048442468E405E40D02EE104AB8EE422A32
:10107000DFED672AC1EE222A32EE222AF7EE002A9D
:1010800032EE222A61EE821AF0EE610A1EE001EED3
:10109000901AF8EE611A9FED5F2AC2EE211ADFF86E
:1010A00008442468E405E40D02EE104AB8EE422A32
:1010B000DFED572AC1EE222A32EE222AF7EE002A6D
:1010C00032EE222A61EE821AF0EE610A5EE001EE53
:1010D000901AF8EE611A9FED502AC2EE211ADFF83D
:1010E000C8432468E405E40D02EE104AB8EE422A33
:1010F000DFED472AC1EE222A32EE222AF7EE002A3D
:1011000032EE222A61EE821AF0EE610A3EE001EE32
:10111000901AF8EE611A9FED412AC2EE211ADFF80B
:1011200088432468E405E40D02EE104AB8EE422A32
:10113000DFED372AC1EE222A32EE222AF7EE002A0C
:1011400032EE222A61EE821AF0EE610A1EE001EE12
:10115000901AF8EE611A9FED302AC2EE211ADFF8DC
:1011600048432468E405E40D02EE104AB8EE422A32
:10117000DFED272AC1EE222A32EE222AF7EE002ADC
:1011800032EE222A61EE821AF0EE610ADFF818438D
:101190002468C4F3462401EE904AF8EE611AB7EED3
:1011A000002A71EE821AC0EEA11AFCEEE11AC0ED1F
:1011B000001ADFF8F4422468C4F3064401EE904AB2
:1011C000F8EE611AB7EE002A71EE821AC0EEA11A8B
:1011D000FCEEE11AC0ED011ADFF8CC422468C4F33A
:1011E000066401EE904AF8EE611AB7EE002A71EE3D
:1011F000821AC0EEA11AFCEEE11AC0ED021A05E057
:1012000000240460002444600024846030BC7047E3
:10121000000000460024744C0024744A001BB74BA5
:10122000004402580090D0032DE9F04105000C0065
:1012300000269A48006810F00300032801D101201D
:1012400088E09A48006830F080609849086000F0B3
:101250002FF9070095480068000106D500F028F92D
:10126000C01B0328F6D3032074E08C48006830F4D8
:101270007C30296850EA0130884908606868401E5F
:10128000C005C00DA968491E490211F47E410843FA
:10129000E968491E090411F4FE0108432969491E41
:1012A000090611F0FE4108437B4908607C4801684B
:1012B00031F0C001686901437948016078480168EC
:1012C00031F02001A8690143754801607448006845
:1012D00030F01000724908606E4800686FF3CF006C
:1012E000E96950EAC1006B4908606D48006850F038
:1012F00010006B490860002C06D16948006850F462
:101300000020674908600EE0012C06D1644800689F
:1013100050F480106249086005E06148006850F4AC
:1013200000105F4908606148006850F080605F49C4
:10133000086000F0BDF880465C480068000107D4F2
:1013400000F0B6F8B0EB08000328F5D3032001E065
:101350003000C0B2BDE8F08100000000A44A0008DF
:101360002DE9F04105000C0000264C48006810F003
:101370000300032801D1012088E04C48006830F0C8
:1013800080504A49086000F093F807004748006819
:10139000800006D500F08CF8C01B0328F6D303208C
:1013A00074E03E48006830F07C70296850EA0150D3
:1013B0003A4908606868401EC005C00DA968491E0A
:1013C000490211F47E410843E968491E090411F4F9
:1013D000FE0108432969491E090611F0FE41084330
:1013E000314908602E48016831F440616869014361
:1013F0002B4801602A48016831F40071A869014353
:10140000274801602648006830F48070244908604D
:10141000244800686FF3CF00E96950EAC100214910
:1014200008601F48006850F480701D490860002C57
:1014300006D11B48006850F48000194908600EE08E
:10144000012C06D11648006850F4000014490860C9
:1014500005E01348006850F0807011490860134897
:10146000006850F080501149086000F021F8804673
:101470000E480068800007D400F01AF8B0EB0800AE
:101480000328F5D3032001E03000C0B2BDE8F081AD
:10149000204402583C440258384402582844025818
:1014A0002C44025844440258404402580044025814
:1014B00001480068704700BFC0010020F8B5040073
:1014C0000D00002C01D101207AE1DFF8A0050068B1
:1014D00010F00F00A84211D2DFF890050068000953
:1014E00000012843DFF884150860DFF880050068F4
:1014F00010F00F00A84201D0012061E120784007E0
:1015000011D5DFF88405006810F070002169884269
:1015100009D2DFF87405016831F0700120690143D8
:10152000DFF8640501602078000711D5DFF85C055D
:10153000006810F070006169884209D2DFF84C053C
:10154000016831F0700160690143DFF84005016016
:101550002078C00611D5DFF83405006810F4E0608B
:10156000A169884209D2DFF82405016831F4E061FD
:10157000A0690143DFF8140501602078800611D5C9
:10158000DFF80C05006810F07000E169884209D2AC
:10159000DFF8FC04016831F07001E0690143DFF815
:1015A000F00401602078800711D5DFF8DC040068C2
:1015B00010F00F00E168884209D2DFF8CC0401681E
:1015C00009090901E0680143DFF8BC0401602078E3
:1015D000C0074DD5DFF8B004016831F47061A06830
:1015E0000143DFF8A40401606068022806D1DFF837
:1015F0008004006880031CD40120E1E060680328B7
:1016000006D1DFF86C040068800112D40120D7E015
:101610006068012806D1DFF858040068C00508D4C6
:101620000120CDE0DFF848040068400701D4012024
:10163000C6E0DFF840040168C908C90060680143DA
:10164000DFF830040160FFF733FF0600DFF8240401
:10165000006810F038006168B0EBC10F08D0FFF7E8
:1016600027FF801B41F289318842EFD30320A7E096
:101670002078800711D5E068DFF80C14096811F0B4
:101680000F01884209D2DFF8000401680909090145
:10169000E0680143DFF8F0030160DFF8D003006881
:1016A00010F00F00854211D2DFF8C0030068000976
:1016B00000012843DFF8B4130860DFF8B0030068C6
:1016C00010F00F00A84201D0012079E020784007F7
:1016D00011D52069DFF8B013096811F07001884254
:1016E00009D2DFF8A403016831F0700120690143D9
:1016F000DFF8940301602078000711D56069DFF8F6
:101700008C13096811F07001884209D2DFF87C035C
:10171000016831F0700160690143DFF87003016016
:101720002078C00611D5A069DFF86013096811F4AC
:10173000E061884209D2DFF85403016831F4E061C6
:10174000A0690143DFF8440301602078800611D5C9
:10175000E069DFF83C13096811F07001884209D292
:10176000DFF82C03016831F07001E0690143DFF814
:101770002003016000F026F80700DFF82803DFF8F7
:1017800008130968C1F30321405C10F01F00C74033
:10179000DFF81003DFF8F012096811F00F01405C68
:1017A00010F01F003900C140DFF8D4020160DFF8FB
:1017B000CC020760DFF8CC02006800F079F9C0B213
:1017C000F2BD000010B4DFF8AC02006810F0380081
:1017D000002806D0082815D0102816D0182817D0B1
:1017E00000E1DFF88C020068800608D5DFF8880287
:1017F000DFF87C422468C4F3C104E04001E0DFF874
:101800007802F0E0DFF8A002EDE0DFF8A002EAE005
:10181000DFF88002006810F003000200DFF87402B5
:101820000068C0F305100100DFF86C02006810F0DA
:1018300001000300DFF868020068C0F3CC0000FB81
:1018400003F002EE100AB8EE422AB0EE421A002966
:1018500000F0C680002A03D0022A72D051D38FE054
:10186000DFF80C02006880062BD5DFF80C02DFF8E9
:1018700000422468C4F3C104E04002EE100AF0EE16
:10188000420AB8EE602A02EE901AF8EE622A82EE60
:10189000222ADFF808020068C005C00D02EE900A97
:1018A000F8EE622A9FED6D3A81EE033A72EE832ADA
:1018B000B7EE003A72EE832A22EE222AF0EE421AA6
:1018C0001EE002EE101AB8EE422ADFED652A82EE23
:1018D000822ADFF8C8010068C005C00D02EE900A38
:1018E000F8EE622A9FED5D3A81EE033A72EE832AAA
:1018F000B7EE003A72EE832A22EE222AF0EE421A66
:101900005CE002EE101AB8EE422ADFED562A82EEB3
:10191000822ADFF888010068C005C00D02EE900A37
:10192000F8EE622A9FED4D3A81EE033A72EE832A79
:10193000B7EE003A72EE832A22EE222AF0EE421A25
:101940003CE002EE101AB8EE422ADFED472A82EEA2
:10195000822A52480068C005C00D02EE900AF8EED7
:10196000622A9FED3E3A81EE033A72EE832AB7EE89
:10197000003A72EE832A22EE222AF0EE421A1DE08D
:1019800002EE101AB8EE422ADFED362A82EE822AE3
:1019900042480068C005C00D02EE900AF8EE622AC7
:1019A0009FED2E3A81EE033A72EE832AB7EE003AAB
:1019B00072EE832A22EE222AF0EE421A374800689D
:1019C000C0F34620401C02EE100AB0EE420AB8EE08
:1019D000402A81EE822ABCEEC22A12EE100A00E0F2
:1019E000002000E0304810BC704780B5FFF7EAFEE9
:1019F00001002C48244A1268C2F30322805C10F0D4
:101A00001F00C1402748204A126812F00F02805C74
:101A100010F01F000A00C240194802601748016018
:101A20001748006802BD80B5FFF7DFFF1D49174A60
:101A30001268C2F30212895C11F01F01C84002BD96
:101A400080B5FFF7D2FF1749104A1268C2F302228D
:101A5000895C11F01F01C84002BD00000000004673
:101A60000024744C0024744A001BB74B0020005221
:101A700000440258104402580090D0030400002093
:101A80000800002000000020184402581C4402589E
:101A900020440258284402582C440258304402582A
:101AA00034440258A44A000800093D0000366E0183
:101AB00010B5040011480078002801D101201CE075
:101AC0004FF47A700D490978B0FBF1F00C490968C0
:101AD000B1FBF0F000F097F8002801D001200CE0F5
:101AE000102C09D2002221005FF0FF3000F079F8BD
:101AF00004480460002000E0012010BD0C0000201C
:101B0000040000200000002010F00703DFF804119B
:101B10000A684FF6FF010A4052EA0322DFF8F81084
:101B20000A43DFF8F0100A607047DFF8E800006849
:101B3000C0F302207047000010B4020012B2002A65
:101B400005D40A01354B040024B21A5508E00A01F5
:101B5000334B040024B214F00F04234403F8042C84
:101B600010BC704770B4030013F00704D4F10700F1
:101B7000052801D3042001E0D4F10700251D072D1D
:101B800001D2002500E0E51E012616FA00F0401EF5
:101B90000140A940012010FA05F56D1E2A401143AD
:101BA000080070BC704710B50400601EB0F1807F63
:101BB00001D301200EE0601E1A4908600F215FF07A
:101BC000FF30FFF7B9FF00201749086007201749C9
:101BD0000860002010BD10B504002000FFF794FF3E
:101BE00010BDF8B504000D001600FFF79EFF0700BA
:101BF000320029003800FFF7B5FF0100200000B2D5
:101C0000FFF79AFFF1BD10B504002000FFF7CBFFEE
:101C100010BD00000CED00E00000FA0500E400E05B
:101C200018ED00E014E000E018E000E010E000E053
:101C300010B50400002C01D1012037E0A069002874
:101C4000FFD1D4F88400002805D1002084F880005A
:101C5000200000F049FD2420C4F8840020680068BA
:101C60004008400021680860200000F020F80128AA
:101C700001D101201AE0A06A002802D0200000F063
:101C800030FB2068406830F490402168486020684C
:101C9000806830F02A00216888602068006850F071
:101CA000010021680860200000F088FB10BD2DE9CC
:101CB000F84F86B0040000262068DFF82C18884210
:101CC000FFD0A1682069014360690143E0690143D5
:101CD00020680268DFF8140802400A4320680260A6
:101CE0002068426832F44052E06802432068426053
:101CF000D4F818802068DFF8F027904202D0206ADC
:101D000050EA080820688168DFF8E407014058EAD3
:101D10000101206881602068C16A09090901606ABF
:101D200001432068C1622068DFF8C81788421FD1CC
:101D3000DFF8C407006810F0380000280AD008282F
:101D40000AD010280AD018280AD020280AD028281B
:101D50000AD00BE0012770E104276EE108276CE14F
:101D600010276AE1202768E1402766E1802764E1C7
:101D70002068DFF8881788421DD1DFF87C070068EB
:101D800010F00700002808D002280AD007D3042842
:101D90000BD008D305280AD00BE000274DE104271B
:101DA0004BE1082749E1102747E1202745E140277B
:101DB00043E1802741E12068DFF8441788421DD1C4
:101DC000DFF83407006810F00700002808D0022868
:101DD0000AD007D304280BD008D305280AD00BE07B
:101DE00000272AE1042728E1082726E1102724E11B
:101DF000202722E1402720E180271EE12068DFF82C
:101E0000041788421DD1DFF8F006006810F00700C3
:101E1000002808D002280AD007D304280BD008D302
:101E200005280AD00BE0002707E1042705E1082771
:101E300003E1102701E12027FFE04027FDE0802794
:101E4000FBE02068DFF8C01688421DD1DFF8A80645
:101E5000006810F00700002808D002280AD007D335
:101E600004280BD008D305280AD00BE00027E4E0B3
:101E70000427E2E00827E0E01027DEE02027DCE08E
:101E80004027DAE08027D8E02068DFF88016884213
:101E90001FD1DFF86406006810F0380000280AD06F
:101EA00008280AD010280AD018280AD020280AD0DA
:101EB00028280AD00BE00127BFE00427BDE008274F
:101EC000BBE01027B9E02027B7E04027B5E0802726
:101ED000B3E02068DFF8381688421DD1DFF8180615
:101EE000006810F00700002808D002280AD007D3A5
:101EF00004280BD008D305280AD00BE000279CE06B
:101F000004279AE0082798E0102796E0202794E01D
:101F1000402792E0802790E02068DFF8F81588429B
:101F20001DD1DFF8D405006810F00700002808D0A4
:101F300002280AD007D304280BD008D305280AD0DA
:101F40000BE0002779E0042777E0082775E01027E9
:101F500073E0202771E040276FE080276DE0206864
:101F6000DFF8B41588421FD1DFF88C05006810F047
:101F7000380000280AD008280AD010280AD01828CB
:101F80000AD020280AD028280AD00BE0012754E0E4
:101F9000042752E0082750E010274EE020274CE0AD
:101FA00040274AE0802748E02068DFF87015884223
:101FB0001FD1DFF84405006810F0380000280AD06F
:101FC00008280AD010280AD018280AD020280AD0B9
:101FD00028280AD00BE001272FE004272DE008274E
:101FE0002BE0102729E0202727E0402725E0802745
:101FF00023E02068DFF8F01488421DD1DFF82005C7
:10200000006810F00700002808D002280AD007D383
:1020100004280BD008D305280AD00BE002270CE0D7
:1020200004270AE0082708E0102706E0202704E03C
:10203000402702E0802700E080272068DFF8A8140E
:10204000884273D13800C0B202280AD004280CD0CC
:10205000082810D0102814D0202824D0402825D0BB
:1020600027E0FEF78FFE814627E003A8FEF79AFEE1
:10207000DDF8109021E06846FEF7B4FFDDF804902B
:102080001BE0DFF8A0040068800609D5DFF898940B
:10209000DFF890040068C0F3C10039FA00F901E0EC
:1020A000DFF8849409E0DFF8849406E04FF40049F7
:1020B00003E05FF0000901200600B9F1000F00F015
:1020C0000081DFF86C04616A30F81100B9FBF0F0B0
:1020D00082466168032041438A4505D361684FF415
:1020E00080504143514502D201200600E9E0DFF86B
:1020F0004004616A30F81100B9FBF0F24FF48073CC
:10210000606840080021E3FB02016268002300F0E0
:1021100045FB0500B5F5407F05D3B5F5801F02D21C
:102120002068C560CDE001200600CAE0E069B0F596
:10213000004F69D13800C0B200280CD001280ED061
:10214000042810D0082814D0102818D0202828D00F
:10215000402829D02BE0FFF766FC81462BE0FFF7F3
:102160006FFC814627E003A8FEF71CFEDDF8109007
:1021700021E06846FEF736FFDDF804901BE0DFF84B
:10218000A4030068800609D5DFF89C93DFF8940368
:102190000068C0F3C10039FA00F901E0DFF8889364
:1021A00009E0DFF8889306E04FF4004903E05FF0B0
:1021B000000901200600B9F1000F00F08280DFF86D
:1021C0007003616A30F81100B9FBF0F061684908EA
:1021D00011EB40016068B1FBF0F080B20500102DFA
:1021E0000FD3B5F5803F0CD24FF6F071294028008F
:1021F000C0F3420001438B46584680B22168C86054
:102200005FE0012006005CE03800C0B200280CD07E
:1022100001280ED0042810D0082814D0102818D077
:10222000202828D0402829D02BE0FFF7FCFB81464E
:102230002BE0FFF705FC814627E003A8FEF7B2FD7F
:10224000DDF8109021E06846FEF7CCFEDDF8049042
:102250001BE0DFF8D0020068800609D5DFF8C892DD
:10226000DFF8C0020068C0F3C10039FA00F901E0EC
:10227000DFF8B49209E0DFF8B49206E04FF40049C9
:1022800003E05FF0000901200600B9F1000F18D04B
:10229000DFF89C02616A30F81100B9FBF0F0616868
:1022A00010EB51006168B0FBF1F080B20500102D19
:1022B00005D3B5F5803F02D22068C56001E001205A
:1022C00006000120A4F86A000120A4F8680000209C
:1022D0002067002060673000C0B207B0BDE8F08F13
:1022E000000090F82810C90707D501684A6832F441
:1022F0000032C16A0A4301684A6090F828108907D1
:1023000007D501684A6832F48032016B0A430168DC
:102310004A6090F82810490707D501684A6832F4E6
:102320008022416B0A4301684A6090F8281009072F
:1023300007D501684A6832F40042816B0A4301689C
:102340004A6090F82810C90607D501688A6832F4F7
:102350008052C16B0A4301688A6090F82810890690
:1023600007D501688A6832F40052016C0A4301689B
:102370008A6090F82810490613D501684A6832F43B
:102380008012416C0A4301684A60416CB1F5801FBC
:1023900007D101684A6832F4C002816C0A430168BF
:1023A0004A6090F82810090607D501684A6832F497
:1023B0000022C16C0A4301684A60704738B50400C6
:1023C0000020C4F88C00FFF773F80500206800684F
:1023D00000070DD57FF07E4000902B0000225FF4B7
:1023E0000011200000F023F8002801D003201DE098
:1023F0002068006840070DD57FF07E4000902B00DC
:1024000000225FF48001200000F011F8002801D0C4
:1024100003200BE02020C4F884002020C4F88800AA
:102420000020E066002084F88000002032BD2DE905
:10243000F04105000E0090461F00069C2868C06908
:102440003040B04201D1012000E000204146C9B235
:10245000884246D114F1010FF0D0FFF729F8C01BD4
:10246000844201D3002C16D12868006830F4D07063
:1024700029680860286880684008400029688860EA
:102480002020C5F884002020C5F88800002085F8A9
:102490008000032026E0286800684007CED5286821
:1024A000C0690005CAD54FF4006029680862286831
:1024B000006830F4D0702968086028688068400897
:1024C0004000296888602020C5F884002020C5F8D5
:1024D00088002020C5F88C00002085F880000320AB
:1024E00000E00020BDE8F081000C0058F369FFCF48
:1024F000FFF4FF1100100140544402580044004012
:1025000000480040004C00400050004000140140D2
:1025100000780040007C004000180140001C014091
:1025200058440258004402580090D00300093D006E
:102530005C4A000881B08F48006850F002008D4965
:1025400008608C48006810F002000090009801B00C
:10255000704710B5B4B0040014220021684600F0A2
:1025600035FAB822002106A800F030FA2068824926
:1025700088424CD14FF48050069000201E9006A84F
:10258000FDF794FE002801D000F060FE7B48006853
:1025900050F48050794908607848006810F4805001
:1025A000059005987648006850F00100744908606D
:1025B0007348006810F001000590059870480068A5
:1025C00050F040006E4908606D48006810F040000F
:1025D00005900598A0200090022001900020029014
:1025E00000200390052004906946664800F030FE04
:1025F0004FF4007000900220019000200290002013
:1026000003900520049069465F4800F021FE34B035
:1026100010BD81B00168B1F1804F0CD15B490968F0
:1026200051F00101594A11605849096811F001013E
:10263000009100990FE00168554A91420BD153492E
:10264000096851F00201514A11605049096811F0BE
:1026500002010091009901B0704710B586B00400E6
:1026600014220021684600F0B1F92068B0F1804FD3
:102670001AD14348006850F00100414908604048C1
:10268000006810F0010005900598012000900220DC
:1026900001900020029000200390012004906946E0
:1026A000384800F0D5FD1DE020683949884219D12D
:1026B0003348006850F00100314908603048006834
:1026C00010F0010005900598402000900220019034
:1026D00000200290002003900220049069462948BF
:1026E00000F0B6FD06B010BD10B5B4B00400142261
:1026F000002101A800F06AF9B822002106A800F024
:1027000065F920682349884231D1012006900020D4
:10271000269006A8FDF7CAFD002801D000F096FD1E
:102720001648006850F0100014490860134800680B
:1027300010F01000009000981148006850F002005E
:102740000F4908600E48006810F0020000900098E1
:102750004FF440400190022002900020039000209E
:1027600004900420059001A90B4800F071FD34B0DD
:1027700010BD000054450258003001405045025839
:1027800040450258000002580018025848450258B7
:10279000000400400010014000040258BBBBE1B13E
:1027A000B2F5803F80F07E80022A1ED98C46B1FBB4
:1027B000F2F102FB11C31B0443EA1043B3FBF2FC2A
:1027C00002FB1C3380B240EA0343B3FBF2F002FB8E
:1027D000103240EA0C4000237047022A05D9844693
:1027E000B0FBF2F002FB10C270474AB105D100F015
:1027F000010249085FEA3000704700220023704759
:1028000000F074BE0B0002000021002070479042CF
:1028100071EB030CF6D3B3F5803F2FD2F0B5B3FACA
:1028200083F7B1FA81F4A7F10F0E3D1B5340CEF1AF
:10283000200602FA0EF2F3415340B5F10F0746D8D5
:102840000F3C2C444140C4F12006A040F1414140DE
:10285000B1FBF3F603FB1611A2FB0645001BA941D1
:1028600002D2761E8018594180EA010221FA0EF345
:1028700062FA0EF200215A403046F0BD30B4B1FB8E
:10288000F3FC03FB1C11A2FB0C45001BA94103D266
:10289000ACF1010C8018594130BC02460B46604631
:1028A00000217047B2F1807F65D3F0B5B2FA82F7AC
:1028B000B1FA81F4C7F10F063D1B22FA06F307F1C6
:1028C000110EF24120355A40B5F10F07B8D94140F9
:1028D000C4F12006A040F1414140B1FBF3FC03FBF1
:1028E0001C11A2FB0C45001BA94103D2BCF1010C39
:1028F000801859410F2F12D30F3FC90341EA5041AD
:10290000B1FBF3F603FB1611A2FB0645D4EBC03076
:10291000A94102D2761E8018594146EACC3C07B341
:102920004140C7F12006B840F1414140B1FBF3F608
:1029300003FB1611A2FB0645001BA94102D2761E1D
:102940008018594180EA010221FA0EF3C7F12004F0
:1029500062FA0EF20CFA07F05A402CFA04F13043F6
:10296000F0BD80EA010221FA0EF3002162FA0EF2B4
:1029700060465A40F0BD8C46B1FBF2F102FB11C338
:102980001B0243EA1063B3FBF2FC02FB1C331B0285
:102990004CEA002043EA1063B3FBF2FC02FB1C3359
:1029A0001B024CEA002043EA1063B3FBF2FC02FB7B
:1029B0001C331B024CEA002043EA1063B3FBF2FC19
:1029C00002FB1C324CEA00200023704710B504467D
:1029D00010460A460146204600F09EFD204610BDE6
:1029E00080B500F0CDFD00F0C8F900F05DFB00F00F
:1029F00022FA00F086FA00F015FB00F0CBFA4FF453
:102A00008071DFF8100800F03CFD012805D101229B
:102A10000421DFF8040800F03FFD4FF40071DFF8F7
:102A2000F40700F02EFD012816D100220821DFF85E
:102A3000E80700F031FD01220821DFF8E00700F08F
:102A40002BFD0121DFF8D80700F0D2FD0122102173
:102A5000DFF8C80700F020FD4FF48061DFF8B4070D
:102A600000F00FFD012816D100220821DFF8A80789
:102A700000F012FD00220821DFF8A00700F00CFD95
:102A80000121DFF89C0700F0B3FD01221021DFF8DF
:102A90008C0700F001FD4FF40071DFF8780700F0BB
:102AA000F0FC002818D14FF48061DFF8680700F0CF
:102AB000E8FC002810D10121DFF8640700F098FD40
:102AC00000220821DFF8500700F0E6FC0022102168
:102AD000DFF8480700F0E0FC4FF40061DFF834074E
:102AE00000F0CFFC01280DD14FF40071DFF824076E
:102AF00000F0C7FC012805D100221021DFF81C07D7
:102B000000F0CAFC4FF48051DFF8080700F0B9FC70
:102B100001280DD14FF48061DFF8F80600F0B1FC18
:102B2000012805D100221021DFF8F00600F0B4FCE6
:102B30004FF40051DFF8DC0600F0A3FC012816D1A9
:102B400000222021DFF8D00600F0A6FC012220217F
:102B5000DFF8C80600F0A0FC0121DFF8C80600F08D
:102B6000C3FD01224021DFF8B40600F095FC4FF4CC
:102B70008041DFF8A00600F084FC012816D1002275
:102B80002021DFF8940600F087FC00222021DFF8E6
:102B90008C0600F081FC0121DFF8880600F0A4FD1E
:102BA00001224021DFF8740600F076FC4FF400515A
:102BB000DFF8600600F065FC002818D14FF4804172
:102BC000DFF8500600F05DFC002810D10121DFF88D
:102BD000540600F00DFD00222021DFF83C0600F035
:102BE0005BFC00224021DFF8340600F055FC4FF476
:102BF0000041DFF8200600F044FC01280DD14FF41D
:102C00000051DFF8100600F03CFC012805D100223D
:102C10004021DFF8080600F03FFC0421DFF8080639
:102C200000F02FFC01280DD14FF48041DFF8E405BE
:102C300000F027FC012805D100224021DFF8DC0547
:102C400000F02AFC0821DFF8E00500F01AFC01285A
:102C500005D100221021DFF8C00500F01DFC08217D
:102C6000DFF8C40500F00DFC002805D10122102179
:102C7000DFF8A40500F010FC1021DFF8AC0500F02F
:102C800000FC012805D100221021DFF88C0500F09E
:102C900003FC1021DFF8900500F0F3FB002805D1BC
:102CA00001221021DFF8700500F0F6FB4021DFF86B
:102CB0007C0500F0E6FB012805D101228021DFF828
:102CC0005C0500F0E9FB4021DFF8600500F0D9FB6E
:102CD000002805D100228021DFF8400500F0DCFB50
:102CE0004FF48071DFF8440500F0CBFB01280DD1D3
:102CF00001224FF48071DFF8240500F0CDFB0022A3
:102D00004FF40071DFF8140500F0C6FB4FF40071BA
:102D1000DFF8180500F0B5FB01280DD100224FF4B3
:102D20008071DFF8F80400F0B7FB01224FF4007166
:102D3000DFF8E80400F0B0FB4FF48071DFF8EC043A
:102D400000F09FFB00287FF45AAE4FF40071DFF8CB
:102D5000DC0400F096FB00287FF451AE00224FF413
:102D60008071DFF8B80400F097FB00224FF4007187
:102D7000DFF8A80400F090FB41E680B59CB04C223F
:102D8000002109A8FFF722FE2022002101A8FFF759
:102D90001DFE00200090DFF89804006830F44040E9
:102DA000DFF88C140860DFF88804006810F44040F5
:102DB00000900098DFF8780400688004FAD50220BB
:102DC000099001200C9040200D90022012900020CC
:102DD00013900420149008201590022016900120D2
:102DE0001790022018900C20199000201A900020B3
:102DF0001B9009A800F02CFD002801D000F026FA55
:102E00003F200190002002900020039000200490B9
:102E100040200590402006904FF4806007904020AD
:102E20000890022101A8FEF749FB002801D000F01C
:102E30000DFA1DB000BD80B5DFF8F803DFF8F81318
:102E400008605FF48000DFF8F01348600020DFF8CE
:102E5000E81388600320DFF8E013C8600020DFF883
:102E6000D81308610020DFF8D01348615FF080605C
:102E7000DFF8C41388610020DFF8BC13C8610020AC
:102E8000DFF8B41308620020DFF8AC1348620020BA
:102E9000DFF8A41388620020DFF89C13C8625FF09B
:102EA0008040DFF8941348630020DFF88C138863B8
:102EB0000020DFF88413C8630020DFF87C13086467
:102EC0000020DFF8741348640020DFF86C13886476
:102ED0000020DFF86413C8640020DFF85C13086585
:102EE0000020DFF8541348650020DFF84C13886594
:102EF000DFF8440301F02EF8002801D000F0A6F915
:102F000001BD80B58AB00C2200216846FFF75EFD46
:102F10001C22002103A8FFF759FD5FF08040C04943
:102F200008600020BE4948600020BD4988605FF00D
:102F3000FF30BB49C8600020B94908610020B8498A
:102F40008861B74801F0DAF8002801D000F07EF976
:102F500000200090002002906946B14800F00AFC71
:102F6000002801D000F072F9602003900020049046
:102F70000020059000200790002203A9A84801F036
:102F8000FAF8002801D000F061F9A548FFF765FBC9
:102F90000BB000BD80B58AB00C2200216846FFF757
:102FA00015FD1C22002103A8FFF710FDA3489D4931
:102FB000086000209B49486000209A4988604FF6CD
:102FC000FF709849C8600020964908610020954923
:102FD0008861944801F092F8002801D000F036F999
:102FE000002000900020029069468E4800F0C2FB4D
:102FF000002801D000F02AF96020039000200490FE
:103000000020059000200790002203A9854801F0C8
:10301000B2F8002801D000F019F98248FFF71DFB33
:103020000BB000BD80B58648864908605FF4E1308A
:103030008449486000208349886000208149C86035
:103040000020804908610C207E49486100207D49AC
:10305000886100207B49C86100207A49086200200D
:10306000784948620020774988627648FEF7E0FD9B
:10307000002801D000F0EAF80021724801F045FB79
:10308000002801D000F0E2F800216E4801F068FB52
:10309000002801D000F0DAF86A4801F013FB00289C
:1030A00001D000F0D3F801BD80B586B01422002114
:1030B0006846FFF78BFC6448006850F010006249D6
:1030C00008606148006810F01000059005985E489F
:1030D000006850F004005C4908605B48006810F02C
:1030E0000400059005985848006850F020005649A3
:1030F00008605548006810F0200005900598524877
:10310000006850F00100504908604F48006810F016
:103110000100059005984C48006850F002004A49AB
:1031200008604948006810F002000590059846487C
:10313000006850F00800444908604348006810F0F7
:103140000800059005984048006850F040003E494E
:1031500008603D48006810F0400005900598002286
:103160007C212D4800F098F9002242F201012F48FD
:1031700000F092F9002240F2FF71284800F08CF92B
:103180007C200090012001900020029000200390FC
:103190006946214800F05CF842F2010000900120ED
:1031A0000190002002900020039069461F4800F023
:1031B0004FF840F2FF700090012001900020029033
:1031C000002003906946154800F042F84FF47F4014
:1031D0000090002001900020029069460D4800F008
:1031E00037F84FF4FE70009000200190002002900C
:1031F00069460D4800F02CF84FF4707000900020E4
:103200000190002002906946084800F021F807B0BC
:1032100000BD0000000C02580010025800140258B3
:1032200028010020740100200018025800080258EC
:103230001848025800300140A0000020000400405F
:1032400000100140100000204045025872B6FEE711
:10325000F8B403000025DFF85C620868E840002845
:1032600000F00D8108680127AF4038400200002AB5
:1032700000F003814868012808D04868022805D07A
:103280004868112802D04868122824D19F685FF04E
:10329000030C2800C0B240001CFA00FC37EA0C07FF
:1032A000D1F80CC02800C0B240001CFA00FC5CEA57
:1032B00007079F6058685FF0010C1CFA05FC30EAB4
:1032C0000C00D1F804C0CCF3001C1CFA05FC5CEA2D
:1032D000000004005C60DF685FF0030C2800C0B2EF
:1032E00040001CFA00FC37EA0C07D1F808C028009F
:1032F000C0B240001CFA00FC5CEA0707DF604868C7
:10330000022802D0486812281ED12800C00803EB0A
:103310008000046A5FF00F0C15F00700C0B2800057
:103320001CFA00FC34EA0C04D1F810C015F00700B8
:10333000C0B280001CFA00FC5CEA040427002800EC
:10334000C00803EB800007621C685FF0030C2800D4
:10335000C0B240001CFA00FC34EA0C0491F804C02E
:103360001CF0030C2800C0B240001CFA00FC5CEA10
:1033700004041C604868C00040F17F80DFF8380119
:10338000006850F00200DFF830713860DFF8280183
:10339000006810F0020000900098DFF820012F0074
:1033A000BF0850F827705FF00F0C15F00300C0B293
:1033B00080001CFA00FC37EA0C074148834201D127
:1033C00000242DE03F48834201D1012428E03E48FB
:1033D000834201D1022423E03C48834201D10324EB
:1033E0001EE03B48834201D1042419E0394883425E
:1033F00001D1052414E03848834201D106240FE0AE
:103400003648834201D107240AE03548834201D17E
:10341000082405E03348834201D1092400E00A244E
:1034200015F00300C0B280008440274323482C00DD
:10343000A40840F82470306890434C68E40300D539
:1034400010433060746894434F68BF0300D5144341
:1034500074605FF0B040006890434F68FF0200D591
:1034600010435FF0B04420601F4C246894434F68C1
:10347000BF0200D514431C4804606D1CEDE6F1BC8E
:103480007047020010690B009BB2184201D0012066
:1034900000E00020C0B270471300DBB2002B03D065
:1034A0000B009BB2836103E00B009BB21B048361A2
:1034B0007047000080000058544502580804005826
:1034C000000002580004025800080258000C02587C
:1034D000001002580014025800180258001C02582C
:1034E00000200258002402580400005870470EE0E3
:1034F00002684368024408305FEAC37C44BF4B441F
:103500005B1E52F804CB43F804CB091FF9D150F8E5
:10351000041B0029ECD1704762F30F2262F31F42B3
:10352000401810F0030308D0C91A1FD3DB0748BFA7
:1035300000F8012D28BF20F8022D130030B41446E6
:103540001546103928BF20E93C00FAD8490728BFA2
:1035500020E90C0048BF40F8042D890028BF20F85E
:10356000022D48BF00F8012D30BC7047C91818BFA4
:1035700000F8012DCB0728BF00F8012D704700008F
:1035800010B50320FEF727FBFEF71CF90400DFF857
:103590005000DFF850100968C1F30321405C10F0BF
:1035A0001F00C440DFF83800DFF83810096811F058
:1035B0000F01405C10F01F002100C140DFF828001F
:1035C0000160DFF8280004600020FEF771FA00288F
:1035D00001D0012002E0FEF7ADFF002010BD000089
:1035E000A44A0008184402580800002004000020E3
:1035F00070B505000C00002C02D195F844000BE0DA
:10360000042C02D195F8450006E0082C02D195F86B
:10361000460001E095F84700012801D001205BE059
:10362000002C04D1022085F84400C0B211E0042C23
:1036300004D1022085F84500C0B20AE0082C04D16C
:10364000022085F84600C0B203E0022085F847005A
:10365000C0B204222100286800F0E8F82868406C15
:1036600050F40040296848642868DFF8A8118842AF
:103670001AD02868B0F1804F16D02868DFF898116A
:10368000884211D02868DFF8941188420CD028684D
:10369000DFF88C11884207D028681049884203D08F
:1036A00028680F49884210D1286881680D48014078
:1036B0000E00062E0FD0B6F5803F0CD028680068AB
:1036C00050F001002968086005E02868006850F0A3
:1036D000010029680860002070BD0000000401405E
:1036E00000180040070001002DE9F04705000C001C
:1036F000002C01D1042600E0002695F83E7095F8D4
:103700003F8095F8449095F845A03800C0B2012854
:103710000BD14046C0B2012807D14846C0B20128AB
:1037200003D15046C0B2012801D0012020E0022080
:1037300085F83E00C0B2022085F83F00C0B20220EA
:1037400085F84400C0B2022085F84500C0B20422CA
:103750002100286800F06AF801223100286800F092
:103760009FFF2868406C50F400402968486400209E
:10377000BDE8F08730B4020092F83C00012801D186
:10378000022044E0012082F83C00022082F83D0043
:10379000106843681068846810681E4DA84203D002
:1037A0001068204DA84203D133F4700348680343E6
:1037B00033F0700308680343106843601068154DC8
:1037C000A84217D01068B0F1804F13D01068124D86
:1037D000A8420FD01068114DA8420BD01068104DB0
:1037E000A84207D010680F4DA84203D010680E4DB4
:1037F000A84205D134F080048868044310688460CE
:10380000012082F83D00002082F83C00002030BCFE
:103810007047000000000140000400400008004024
:10382000000C0040000401400018004030B40424A3
:1038300011F01F0314FA03F3046A9C430462046A40
:1038400011F01F0512FA05F52C43046230BC7047D5
:103850002DE9F8430400002C01D1012060E3207819
:10386000C00740F1B980DFF8BC06056815F03805DF
:10387000DFF8B406D0F80090102D05D0182D0FD128
:1038800019F0030002280BD1DFF8A00600688003BE
:1038900040F1A2806068002840F09E8001203FE354
:1038A0006068B0F5803F08D1DFF88006006850F40A
:1038B0008030DFF8781608606DE06068002818D165
:1038C000DFF86806006830F48030DFF860160860C2
:1038D000DFF85806006830F48010DFF850160860F2
:1038E000DFF84806006830F48020DFF840160860F2
:1038F00051E06068B0F5A02F18D1DFF830060068FD
:1039000050F48020DFF824160860DFF820060068F5
:1039100030F48010DFF814160860DFF81006006835
:1039200050F48030DFF80416086034E06068B0F5C9
:10393000A81F18D1DFF8F405006850F48020DFF8E4
:10394000EC150860DFF8E405006850F48010DFF83B
:10395000DC150860DFF8D405006850F48030DFF82B
:10396000CC15086017E0DFF8C405006830F480303B
:10397000DFF8B8150860DFF8B405006830F480207F
:10398000DFF8A8150860DFF8A405006830F480109F
:10399000DFF898150860606800280ED0FDF788FDF4
:1039A0000600DFF888050068800315D4FDF780FD68
:1039B000801B6528F5D30320B2E2FDF779FD0600F0
:1039C000DFF868050068800306D5FDF771FD801BF0
:1039D0006528F5D30320A3E22078800764D5DFF8BB
:1039E0004405056815F03805DFF83C05D0F800906F
:1039F000002D04D0182D18D119F0030F15D1DFF8C0
:103A00002C050068400704D5E068002801D101209A
:103A100086E2DFF81C05006830F0FE40216950EABC
:103A20000160DFF80C1508603EE0E068002824D053
:103A3000DFF8F804016831F01901E0680143DFF8AC
:103A4000EC040160FDF734FD0600DFF8E0040068D7
:103A5000400706D4FDF72CFD801B0328F5D3032077
:103A60005EE2DFF8CC04006830F0FE40216950EAE5
:103A70000160DFF8BC14086016E0DFF8B0040068ED
:103A800040084000DFF8A4140860FDF711FD0600AF
:103A9000DFF898040068400706D5FDF709FD801B94
:103AA0000328F5D303203BE22078C00663D5DFF876
:103AB0007404056815F03805DFF86C04D0F8009040
:103AC000082D05D0182D19D119F00300012815D1A2
:103AD000DFF858040068C00504D5E069802801D0EB
:103AE00001201DE2DFF84C04006830F07C50216AB0
:103AF00050EA0160DFF83C1408603CE0E06900280F
:103B000022D0DFF82804006850F08000DFF81C1491
:103B10000860FDF7CDFC0600DFF810040068C00562
:103B200006D4FDF7C5FC801B0328F5D30320F7E17D
:103B3000DFF80004006830F07C50216A50EA016030
:103B4000DFF8F013086016E0DFF8E003006830F0FB
:103B50008000DFF8D8130860FDF7AAFC0600DFF844
:103B6000CC030068C00506D5FDF7A2FC801B032826
:103B7000F5D30320D4E12078000730D56069002810
:103B800016D0DFF8B403006850F00100DFF8A81386
:103B90000860FDF78DFC0600DFF89C0300688007D5
:103BA0001DD4FDF785FC801B0328F5D30320B7E166
:103BB000DFF88403006840084000DFF87C130860E9
:103BC000FDF776FC0600DFF870030068800706D575
:103BD000FDF76EFC801B0328F5D30320A0E12078BD
:103BE000800630D5A069002816D0DFF840030068B1
:103BF00050F48050DFF834130860FDF759FC0600DC
:103C0000DFF82803006880041DD4FDF751FC801BF9
:103C10000328F5D3032083E1DFF81003006830F4B4
:103C20008050DFF808130860FDF742FC0600DFF85B
:103C3000FC020068800406D5FDF73AFC801B0328CF
:103C4000F5D303206CE12078400740F19580BB4814
:103C5000006850F48070B9490860FDF729FC050040
:103C6000B6480068C00506D4FDF722FC401B652855
:103C7000F6D3032054E1A068012806D1B0480068BB
:103C800050F00100AE49086053E0A068002812D14E
:103C9000AB48006840084000A9490860A84800688F
:103CA00030F08000A6490860A548006830F00400A4
:103CB000A34908603DE0A068052812D1A04800682B
:103CC00050F004009E4908609D48006830F0800074
:103CD0009B4908609A48006850F0010098490860C4
:103CE00027E0A068852812D19548006850F00400AC
:103CF000934908609248006850F08000904908603D
:103D00008F48006850F001008D49086011E08C4830
:103D10000068400840008A4908608948006830F01F
:103D20000400874908608648006830F080008449B4
:103D30000860A06800280FD0FDF7BAFB0600804895
:103D40000068800718D4FDF7B3FB801B41F289316E
:103D50008842F4D30320E3E0FDF7AAFB060078488D
:103D60000068800708D5FDF7A3FB801B41F289316D
:103D70008842F4D30320D3E0606A002800F0CF80AB
:103D80006848006810F03800182800F09A80606ACF
:103D9000022840F082806548006830F080706349F6
:103DA0000860FDF785FB050060480068800106D5C6
:103DB000FDF77EFB401B0328F6D30320B0E05A48F2
:103DC000016860480140A06A0143E06A51EA0011BD
:103DD00055480160206B401EC005C00D616B491E37
:103DE000490211F47E410843A16B491E090411F4F4
:103DF000FE010843E16B491E090611F0FE4108432C
:103E00005149086051480068400840004F49086027
:103E10004F4800686FF3CF00A16C50EAC1004C49D5
:103E200008604A48016831F00C01206C01434748A2
:103E300001604648016831F00201606C014343486B
:103E400001604248006850F48030404908603F48B3
:103E5000006850F400303D4908603C48006850F468
:103E600080203A4908603948006850F0010037491D
:103E700008602E48006850F080702C490860FDF7FB
:103E800017FB060029480068800148D4FDF710FBA5
:103E9000801B0328F6D3032042E02448006830F05A
:103EA000807022490860FDF703FB06001F48006888
:103EB000800134D5FDF7FCFA801B0328F6D30320DC
:103EC0002EE01948006807001F4800688046606AB5
:103ED000012822D017F00300A16A88421DD1C7F340
:103EE0000510E16A884218D15FEAC850C00D216B05
:103EF000491E884211D1C8F34620616B491E884291
:103F00000BD1C8F30640A16B491E884205D1C8F306
:103F10000660E16B491E884201D0012000E00020CC
:103F2000BDE8F28310440258284402580044025865
:103F3000044402580C440258744402580048025881
:103F4000704402580CFCFFFF304402582C440258C5
:103F50003444025870B504000025002C01D1012022
:103F6000B8E0606A00280020A0622068DFF86811CD
:103F700088420ED02068DFF86411884209D020689A
:103F8000DFF85C11884204D0E068102801D30120DA
:103F9000A0E0200000F0A6F806002068DFF8381145
:103FA00088420BD02068DFF83411884206D02068A0
:103FB000DFF82C11884201D0092E10D22068DFF8DA
:103FC0001811884209D02068DFF81011884204D007
:103FD0002068DFF80C11884203D1112E01D3012093
:103FE00078E094F88100002805D1002084F8800052
:103FF0002000FEF7AEFA022084F8810020680068F5
:104000004008400021680860A069B0F1806F13D1BA
:104010006068B0F5800F02D1A06B002806D0606800
:10402000002809D1A06BB0F1805F05D1206800683D
:1040300050F4805021680860E169A06A0143294377
:10404000E06B0143E068014320688160616B606A56
:104050000143A06B0143A0690143206901436069EA
:104060000143206A014360680143E06C0143A0689A
:104070000143A06C0143A06D01432068C1606068EA
:1040800000280FD12068806830F4C05050F40060E0
:10409000216888602068806830F4C06050F48060D7
:1040A000216888602068006D40084000216808652C
:1040B0006068400207D52068C16821F00041606D4A
:1040C00001432068C1600020C4F88400012084F806
:1040D0008100002070BD0000003001400038004029
:1040E000003C00400100C86B4009401CCA68521CDB
:1040F000D21DD20800FB02F07047000010B504008A
:10410000002C01D1012035E094F83D00002805D1B4
:10411000002084F83C002000FEF77BFA022084F89F
:104120003D00211D206800F0D3F8012084F84800EC
:10413000012084F83E00012084F83F00012084F82B
:104140004000012084F84100012084F84200012051
:1041500084F84300012084F84400012084F84500DD
:10416000012084F84600012084F84700012084F8EB
:104170003D00002010BD70B504000D00160094F83D
:104180003C00012801D10220A1E0012084F83C007C
:10419000300000280AD004281FD0082835D00C2869
:1041A0004AD0102860D0142875D08CE029002068EF
:1041B00000F0F3F82068806950F0080021688861F9
:1041C0002068806930F00400216888612068816976
:1041D000286901432068816175E02900206800F0AA
:1041E0002CF92068806950F400602168886120689B
:1041F000806930F48060216888612068806929695D
:1042000050EA0120216888615DE02900206800F003
:104210005EF92068C06950F008002168C861206814
:10422000C06930F004002168C8612068C16928694C
:1042300001432068C16146E02900206800F08EF942
:104240002068C06950F400602168C8612068C069B6
:1042500030F480602168C8612068C069296950EA2B
:1042600001202168C8612EE02900206800F0AAF929
:104270002068406D50F00800216848652068406D56
:1042800030F00400216848652068416D28690143C9
:104290002068416517E02900206800F0BFF9206818
:1042A000406D50F40060216848652068406D30F42E
:1042B0008060216848652068406D296950EA0120C6
:1042C00021684865FFE7002084F83C00002070BDAD
:1042D0000368DFF8A423904212D0B0F1804F0FD0D2
:1042E000DFF8982390420BD0DFF89423904207D058
:1042F000DFF89023904203D0DFF88C23904203D163
:1043000033F070034A681343DFF86C2390421ED0E9
:10431000B0F1804F1BD0DFF86423904217D0DFF854
:104320006023904213D0DFF85C2390420FD0DFF877
:10433000582390420BD0DFF85423904207D0DFF887
:104340005023904203D0DFF84C23904203D133F442
:104350004073CA68134333F080034A691343036010
:104360008A68C2620A688262DFF80C2390420FD02A
:10437000DFF8142390420BD0DFF81023904207D0CF
:10438000DFF80C23904203D0DFF80823904201D1DC
:104390000A69026301224261704730B4026A52081E
:1043A00052000262056A43688469DFF8EC22144017
:1043B000A408A4000A68144335F002058A6815436E
:1043C000DFF8B42290420FD0DFF8BC2290420BD02D
:1043D000DFF8B822904207D0DFF8B422904203D031
:1043E000DFF8B022904205D135F00805CA681543C0
:1043F00035F00405DFF8802290420FD0DFF88822E4
:1044000090420BD0DFF88422904207D0DFF8802260
:10441000904203D0DFF87C22904207D133F48073BE
:1044200033F400734A6913438A6913434360846118
:104430004A684263056230BC704730B4026A32F0A9
:1044400010020262056A43688469DFF85022144052
:1044500034F440740A6854EA022435F020058A686E
:1044600055EA0215DFF81022904203D0DFF8182237
:10447000904206D135F08005CA6855EA021535F03C
:104480004005DFF8F42190420FD0DFF8FC21904284
:104490000BD0DFF8F821904207D0DFF8F4219042EA
:1044A00003D0DFF8F021904209D133F4806333F474
:1044B00000634A6953EA82038A6953EA82034360CC
:1044C00084614A688263056230BC7047000030B482
:1044D000026A32F480720262056A4368C46934F089
:1044E0007004A408A4000A68144335F400758A68AF
:1044F00055EA0225DFF88021904203D0DFF88821B9
:10450000904206D135F40065CA6855EA022535F4B3
:104510008065DFF8642190420FD0DFF86C21904273
:104520000BD0DFF86821904207D0DFF86421904279
:1045300003D0DFF86021904209D133F4805333F483
:1045400000534A6953EA02138A6953EA021343602B
:10455000C4614A68C263056230BC704730B4026A05
:1045600032F480520262036A4468C26932F4E04263
:1045700032F440720D6852EA052233F400538D681C
:1045800053EA0533DFF8F050A8420FD0DFF8F850B7
:10459000A8420BD0DFF8F450A84207D0DFF8F05063
:1045A000A84203D0DFF8EC50A84204D134F4804490
:1045B0004D6954EA85144460C2614D680564036224
:1045C00030BC704730B4026A32F480320262046A4E
:1045D0004568436D33F070030A68134334F40034C4
:1045E0008A6854EA0244244A90420BD0264A9042F8
:1045F00008D0264A904205D0254A904202D0254A4A
:10460000904204D135F480354A6955EA0225456067
:1046100043654A688265046230BC704730B4026A00
:1046200032F480120262036A4468426D32F4E0425E
:104630000D6852EA052233F400138D6853EA0553DE
:104640000D4DA8420BD0104DA84208D00F4DA842E6
:1046500005D00F4DA84202D00E4DA84204D134F42B
:1046600000344D6954EA8524446042654D68C5654F
:10467000036230BC704700000000014000040040AD
:1046800000080040000C00400004014000400140D0
:1046900000440140004801408FFFFEFFFF8FFFFEF6
:1046A00030B4012411F01F0314FA03F3046A9C438D
:1046B0000462046A11F01F0512FA05F52C43046226
:1046C00030BC7047010091F88000012801D1022020
:1046D0001AE0012081F880002420C1F884000868D5
:1046E000026808680068400840000B68186032F0F3
:1046F000005200204866086802602020C1F884004B
:10470000002081F880000020704770B504000D0083
:1047100094F88000012801D1022020E0012084F8D3
:1047200080002420C4F8840020680668206800689F
:1047300040084000216808602068806820F06040E0
:10474000284321688860200000F035F82068066062
:104750002020C4F88400002084F88000002070BD70
:1047600070B504000D0094F88000012801D10220EA
:1047700020E0012084F880002420C4F88400206810
:1047800006682068006840084000216808602068CA
:10479000806830F06060284321688860200000F065
:1047A0000AF8206806602020C4F88400002084F8FD
:1047B0008000002070BDF0B4416E002906D10121B7
:1047C000A0F86A100121A0F868102BE010210A005F
:1047D00010210B0001688968490E11F007010C00D7
:1047E00001688968490F0D001E00F6B20E492F00BE
:1047F000FFB2C95D4E430D492F00FFB2C95D96FB64
:10480000F1F1A0F86A101600F6B207492700FFB2CE
:10481000C95D4E4305492700FFB2C95D96FBF1F122
:10482000A0F86810F0BC7047D44A0008DC4A0008C1
:104830003148006850F470002F4908602F48006824
:1048400010F00F00032807D22C480068000900016F
:1048500050F00300294908602948006850F0010021
:104860002749086000202749086025480168264834
:104870000140234801602148006810F00F0004281F
:1048800007D31E4800680009000150F003001B49CF
:10489000086000201D49086000201D4908600020B4
:1048A0001C4908601C481D4908601D481D490860D6
:1048B0001D481E49086000201D4908601A481D490E
:1048C000086000201C49086017481C490860002047
:1048D0001B4908600A48006830F4802008490860D5
:1048E00000201849086043F2D200174908605FF0C1
:1048F000006016490860704788ED00E00020005213
:1049000000440258104402587FEDF6EA1844025859
:104910001C44025820440258000202022844025853
:104920000000FF012C44025880020101304402586B
:1049300034440258384402583C4402584044025817
:1049400044440258604402580040005208ED00E020
:1049500030B4002512E050F8042BD30744BF4A447A
:10496000521E091F042942F8045BFAD213468C0731
:1049700044BF15809B1CC90748BF1D7050F8041B1D
:104980000029E8D130BC704710B507497944183187
:10499000064C7C44163404E00A68081D114488471C
:1049A0000146A142F8D110BD2C0000004C000000CF
:1049B0004EF68851CEF20001086840F4700008609D
:1049C000BFF34F8FBFF36F8F4FF00070E1EE100A0F
:1049D000704700007DFFFFFFB401000010000020C1
:1049E000000000000BEBFFFF10000000D8000000EB
:1049F000000000200000000000F00DF8002801D0A9
:104A0000FFF7C2FFAFF300800020AFF30080FDF797
:104A1000E7FF00F002F80120704700F001B8000045
:104A20000746384600F002F8FBE7000080B5AFF318
:104A30000080024A11001820ABBEFBE726000200EE
:104A40000548014603B4684680F30988AFF3008047
:104A5000FFF7AEFFFFF7D0FFA5EDF5FE0100020066
:104A60000400060008000A000C00100020004000AE
:104A70008000000103480068034909784018014993
:104A800008607047C00100200C000020FEE7FEE730
:104A9000FEE7FEE7FEE770477047704780B5FFF717
:104AA000E9FF01BD0000000001020304010203044C
:104AB00006070809014880470148004731480008B7
:104AC000414A0008100000000090D0030090D0037D
:104AD00001000000010101030701000008040204B5
:104AE00008010101FFF7FEBFFFF7FEBFFFF7FEBFA2
:104AF000FFF7FEBFFFF7FEBFFFF7FEBFFFF7FEBFEA
:104B0000FFF7FEBFFFF7FEBFFFF7FEBFFFF7FEBFD9
:104B1000FFF7FEBFFFF7FEBFFFF7FEBFFFF7FEBFC9
:104B2000FFF7FEBFFFF7FEBFFFF7FEBFFFF7FEBFB9
:0400000508004A4164
:00000001FF
