:020000040800F2
:10000000C0070020797200083171000833710008C0
:1000100035710008377100083971000800000000D0
:100020000000000000000000000000003B7100081C
:100030003D710008000000003F7100084171000898
:10004000A9720008AD720008B1720008B57200080C
:10005000B9720008BD720008C1720008C5720008BC
:10006000C9720008CD720008D1720008D57200086C
:10007000D9720008DD720008E1720008E57200081C
:10008000E9720008ED720008F1720008F5720008CC
:10009000F9720008FD72000801730008057300087A
:1000A000097300080D730008117300081573000828
:1000B0001973000849710008537100081D73000886
:1000C0002173000825730008297300082D730008A8
:1000D0003173000835730008397300083D73000858
:1000E0004173000845730008497300084D73000808
:1000F0005173000855730008597300085D730008B8
:100100006173000865730008697300086D73000867
:100110007173000875730008797300087D73000817
:100120008173000885730008897300088D730008C7
:1001300091730008000000000000000095730008A3
:10014000997300089D730008A1730008A573000847
:10015000A9730008AD730008B1730008B5730008F7
:10016000B9730008BD730008C1730008C5730008A7
:10017000C9730008CD730008D173000800000000A7
:10018000D5730008D9730008DD730008E173000817
:10019000E5730008E9730008ED730008F1730008C7
:1001A000F5730008F9730008FD7300080174000876
:1001B00005740008097400080D7400081174000823
:1001C0001574000819740008000000000000000009
:1001D00000000000000000001D7400080000000086
:1001E000000000000000000000000000000000000F
:1001F00000000000000000002174000825740008C1
:10020000297400082D7400080000000031740008F3
:1002100035740008397400083D7400084174000802
:1002200045740008497400084D740008000000007F
:10023000517400085574000800000000597400084B
:100240005D74000861740008657400086974000832
:100250006D740008717400087574000879740008E2
:100260007D74000881740008857400088974000892
:100270008D74000891740008957400080000000057
:10028000997400089D74000800000000A174000823
:1002900000000000A5740008A97400080000000018
:1002A00000000000AD740008B17400082DE9F041B1
:1002B000040000275FF000082068000135D5A06E1B
:1002C000002809D0B0F5801F0FD0B0F5001F12D064
:1002D000B0F5401F16D016E0DFF8840A006850F42D
:1002E0000030DFF87C1A08600FE00221201D01F0C9
:1002F0009FFB070009E0022114F1240001F034FC07
:10030000070002E001E0012007003800C0B2002829
:100310000AD1DFF8500A016831F44011A06E0143A0
:10032000DFF8400A016000E0B8462068C00533D518
:10033000606D002806D0022813D00CD3042818D0F2
:1003400016D317E0DFF8180A006850F40030DFF821
:10035000101A086010E00021201D01F069FB070061
:100360000AE0002114F1240001F0FEFB070003E085
:1003700002E001E0012007003800C0B200280AD1E5
:10038000DFF8E0090168C908C900606D0143DFF8C2
:10039000D409016000E0B846206880053AD5A06D18
:1003A00000280CD0402813D0802817D0C0281CD09B
:1003B000B0F5807F1AD0B0F5A07F18D018E0DFF834
:1003C000A009006850F40030DFF89419086011E0CB
:1003D0000021201D01F02CFB07000BE0002114F18F
:1003E000240001F0C1FB070004E003E002E001E0AB
:1003F000012007003800C0B200280AD1DFF86409E4
:10040000016831F4E071A06D0143DFF85809016023
:1004100000E0B846206840053DD5E06D00280FD0CB
:10042000B0F5007F15D0B0F5806F18D0B0F5C06F73
:100430001CD0B0F5006F1AD0B0F5206F18D018E0BE
:10044000DFF81C09006850F40030DFF81419086068
:1004500011E00021201D01F0EBFA07000BE0002164
:1004600014F1240001F080FB070004E003E002E047
:1004700001E0012007003800C0B200280AD1DFF8EF
:10048000E408016831F46061E06D0143DFF8D408ED
:10049000016000E0B846206880012CD5A06C0028DF
:1004A00016D0102804D020280BD030280FD010E010
:1004B000DFF8AC08006850F40030DFF8A4180860DA
:1004C00009E00221201D01F0B3FA070003E002E079
:1004D00001E0012007003800C0B200280AD1DFF88F
:1004E0008808016831F03001A06C0143DFF878081A
:1004F000016000E0B8462068C00439D5206E0028AD
:100500000CD0B0F5805F12D0B0F5005F15D0B0F51B
:10051000405F19D0B0F5804F17D017E0DFF84008E2
:10052000006850F40030DFF83818086010E000214F
:10053000201D01F07DFA07000AE0002114F12400DB
:1005400001F012FB070003E002E001E001200700D8
:100550003800C0B200280AD1DFF80808016831F479
:10056000E041206E0143DFF8FC07016000E0B8467F
:100570002068800435D5606E00280FD0B0F5803F2C
:100580000DD0B0F5003F10D0B0F5403F14D0B0F51D
:10059000802F12D0B0F5A02F10D010E011E0012173
:1005A000201D01F045FA07000BE0012114F12400A1
:1005B00001F0DAFA070004E003E002E001E00120C4
:1005C00007003800C0B200280AD1DFF89807016898
:1005D00031F4E021606E0143DFF88807016000E03C
:1005E000B846206840043BD5D4F8AC00002812D0AF
:1005F000B0F1805F10D0B0F1005F13D0B0F1405F78
:1006000017D0B0F1804F15D0B0F1A04F13D0B0F19A
:10061000C04F11D011E012E00121201D01F008FAB5
:1006200007000CE0012114F1240001F09DFA0700FD
:1006300005E004E003E002E001E0012007003800EB
:10064000C0B200280BD1DFF82407016831F0E04187
:10065000D4F8AC000143DFF81407016000E0B846AD
:10066000206800042BD5606F002815D0B0F1805FA2
:1006700003D0B0F1005F09D00FE0DFF8E4060068B6
:1006800050F40030DFF8D816086008E00121201D82
:1006900001F0CEF9070002E001E001200700380078
:1006A000C0B200280AD1DFF8BC06016831F0405121
:1006B000606F0143DFF8AC06016000E0B8462068D7
:1006C000C0012BD5606C002815D002280CD002D3B5
:1006D00003280FD010E0DFF88806006850F40030DF
:1006E000DFF87C16086009E00221201D01F0A0F966
:1006F000070003E002E001E0012007003800C0B27B
:1007000000280AD1DFF86006016889088900606C5A
:100710000143DFF85406016000E0B846206840025B
:1007200040F18780DFF84806006850F48070DFF8F9
:100730004016086001F0C6FA0600DFF834060068CB
:10074000C00506D401F0BEFA801B6528F5D303204E
:1007500007003800C0B200286AD1DFF81806006828
:1007600010F44070D4F8B01011F44071884218D0E1
:10077000DFF80006006830F440700500DFF8F4058B
:10078000006850F48030DFF8EC150860DFF8E4050D
:10079000006830F48030DFF8DC150860DFF8D4053D
:1007A0000560D4F8B000B0F5807F10D101F08AFA6E
:1007B0000600DFF8C0050068800708D401F082FA5F
:1007C000801B41F289318842F3D3032007003800AF
:1007D000C0B200282AD1D4F8B00010F44070B0F5AF
:1007E000407F0FD1DFF89005006830F47C50D4F8DA
:1007F000B010DFF8882512EA11121043DFF87815DF
:10080000086007E0DFF87005006830F47C50DFF81E
:1008100068150860DFF85C050068D4F8B0100905B9
:10082000090D0843DFF84C15086002E0B84600E007
:10083000B8462078C00732D5D4F8800000280AD006
:10084000082809D010280DD0182812D0202811D03F
:10085000282810D010E011E00121201D01F0E8F857
:1008600007000BE0012114F1240001F07DF90700DD
:1008700004E003E002E001E0012007003800C0B21C
:1008800000280BD1DFF8F804016831F03801D4F802
:1008900080000143DFF8E804016000E0B8462078FA
:1008A00080072ED5E06F002808D002280DD006D38F
:1008B000042812D010D3052810D010E011E0012137
:1008C000201D01F0B5F807000BE0012114F1240010
:1008D00001F04AF9070004E003E002E001E0012032
:1008E00007003800C0B200280AD1DFF8940401687C
:1008F000C908C900E06F0143DFF88404016000E02B
:10090000B8462078400730D5D4F89800002808D0A1
:1009100002280DD006D3042812D010D3052810D0F9
:1009200010E011E00121201D01F082F807000BE02A
:10093000012114F1240001F017F9070004E003E09D
:1009400002E001E0012007003800C0B200280BD10E
:10095000DFF818040168C908C900D4F898000143F9
:10096000DFF80804016000E0B8462078800637D53B
:10097000D4F8940000280FD0B0F1805F0DD0B0F112
:10098000005F10D0B0F1405F14D0B0F1804F12D0B2
:10099000B0F1A04F10D010E011E00021201D01F0B7
:1009A00047F807000BE0022114F1240001F0DCF805
:1009B000070004E003E002E001E001200700380046
:1009C000C0B200280BD1DFF8B803016831F0E04174
:1009D000D4F894000143DFF8A803016000E0B846B2
:1009E0002078400637D5D4F8A00000280FD0B0F505
:1009F000806F0DD0B0F5006F10D0B0F5406F14D0FF
:100A0000B0F5805F12D0B0F5A05F10D010E011E01B
:100A10000021201D01F00CF807000BE0022114F169
:100A2000240001F0A1F8070004E003E002E001E087
:100A3000012007003800C0B200280BD1DFF82C03DA
:100A4000016831F4E051D4F8A0000143DFF81C0341
:100A5000016000E0B8462078000637D5D4F8A4003D
:100A600000280FD0B0F5005F0DD0B0F5804F10D04A
:100A7000B0F5C04F14D0B0F5004F12D0B0F5204FF4
:100A800010D010E011E00021201D00F0D1FF070080
:100A90000BE0022114F1240001F066F8070004E0E5
:100AA00003E002E001E0012007003800C0B20028A6
:100AB0000BD1DFF8B802016831F46041D4F8A4002A
:100AC0000143DFF8A802016000E0B8462078000783
:100AD00018D5D4F88800B0F5805F08D1022114F150
:100AE000240001F041F8002801D001208046DFF801
:100AF0009002016831F44051D4F888000143DFF8D6
:100B0000800201602078C00618D5D4F89C00B0F5AA
:100B1000807F08D1022114F1240001F025F800287B
:100B200001D001208046DFF84402016831F44071B1
:100B3000D4F89C000143DFF8340201602068000310
:100B40002BD5D4F8A800002806D0B0F5803F09D0F6
:100B5000B0F5003F0DD00DE00021201D00F068FF32
:100B6000070009E0022114F1240000F0FDFF070056
:100B700002E001E0012007003800C0B200280BD1DC
:100B8000DFF8E801016831F44031D4F8A8000143EE
:100B9000DFF8D801016000E0B846206840032DD599
:100BA000D4F88C00B0F5801F06D0B0F5001F0AD035
:100BB000B0F5401F0ED00EE06948006850F40030D8
:100BC0006749086009E0012114F1240000F0CCFF1E
:100BD000070002E001E0012007003800C0B2002851
:100BE0000BD1DFF89C01016831F44011D4F88C007E
:100BF0000143DFF88C01016000E0B8462068C003C3
:100C000025D5E06C002803D0B0F5803F07D00CE07C
:100C10005348006850F400305149086007E0022151
:100C2000201D00F005FF070001E00120070038004B
:100C3000C0B200280AD1DFF83001016831F48031F8
:100C4000E06C0143DFF82001016000E0B846206855
:100C5000800008D5022114F1240000F085FF00284F
:100C600001D0012080462068800328D5D4F8840074
:100C7000002812D0B0F5807F06D0B0F5007F0AD0F2
:100C8000B0F5407F08D009E03548006850F40030E6
:100C90003349086004E003E002E001E001200700BE
:100CA0003800C0B2002809D13548016831F44071DC
:100CB000D4F8840001433248016000E0B84620685F
:100CC000C00207D52748016821F00041A06F014309
:100CD000244801602068800207D52248016831F06D
:100CE0008071E06E01431F4801602068000507D550
:100CF0001E48016831F00061206F01431B4801600C
:100D0000206840000CD51C48006830F400401A49A7
:100D1000086019480168D4F8B4000143164801601E
:100D20002068002807D51048016831F04051206D37
:100D300001430D4801602068000208D51048016891
:100D400031F44001D4F8900001430D480160404661
:100D5000C0B2002801D1002000E00120BDE8F081F0
:100D60002C440258504402584C44025858440258EB
:100D7000004802587044025810440258CFFFFF0048
:100D800054440258F0B589B00500B5F5807F65D1AF
:100D9000DFF8340A006810F007000600002E06D0C5
:100DA000022E1CD00FD3042E25D052D354E0DFF8EE
:100DB0005C0C0068800104D506A800F013FD0798BC
:100DC00000E00020B7E2DFF8440C0068000104D521
:100DD000684600F0C3FA009800E00020ABE2DFF8BC
:100DE0002C0C0068800004D503A800F0D7FB039802
:100DF00000E000209FE2DFF8E409006810F04050B6
:100E00000400DFF8080C006840070AD5002C08D160
:100E1000DFF8FC0BDFF8F41B0968C1F3C101C8401F
:100E200016E0DFF8E80B0068C00505D5B4F1805F77
:100E300002D1DFF8AC090BE0DFF8D00B00688003CB
:100E400005D5B4F1005F02D1DFF8C80B00E0002047
:100E500071E2DFF8C40B6EE200206CE2B5F5007FB2
:100E600069D1DFF86409006810F4E0700600300012
:100E7000002809D0402813D080281DD0C02855D084
:100E8000B0F5807F24D054E0DFF8800B006880014B
:100E900004D506A800F0A6FC079800E000204AE26E
:100EA000DFF8680B0068000104D5684600F056FAC8
:100EB000009800E000203EE2DFF8500B0068800060
:100EC00004D503A800F06AFB039800E0002032E29A
:100ED000DFF80809006810F040500400DFF82C0B20
:100EE000006840070AD5002C08D1DFF8240BDFF892
:100EF0001C1B0968C1F3C101C84016E0DFF80C0BE8
:100F00000068C00505D5B4F1805F02D1DFF8D008D4
:100F10000BE0DFF8F80A0068800305D5B4F1005F44
:100F200002D1DFF8F00A00E0002004E2DFF8E80A6E
:100F300001E20020FFE1B5F5806F6CD1DFF8880891
:100F4000006810F460600600300000280CD0B0F596
:100F5000007F15D0B0F5806F1ED0B0F5C06F55D0B2
:100F6000B0F5006F24D054E0DFF8A00A00688001DB
:100F700004D506A800F036FC079800E00020DAE16E
:100F8000DFF8880A0068000104D5684600F0E6F939
:100F9000009800E00020CEE1DFF8700A00688000D1
:100FA00004D503A800F0FAFA039800E00020C2E19B
:100FB000DFF82808006810F040500400DFF84C0A01
:100FC000006840070AD5002C08D1DFF8440ADFF892
:100FD0003C1A0968C1F3C101C84016E0DFF82C0AC9
:100FE0000068C00505D5B4F1805F02D1DFF8F007D5
:100FF0000BE0DFF8180A0068800305D5B4F1005F44
:1010000002D1DFF8100A00E0002094E1DFF8080ABE
:1010100091E100208FE1B5F5805F6CD1DFF8A80782
:10102000006810F4E0400700380000280CD0B0F54C
:10103000805F15D0B0F5005F1ED0B0F5405F55D091
:10104000B0F5804F24D054E0DFF8C009006880017B
:1010500004D506A800F0C6FB079800E000206AE16E
:10106000DFF8A8090068000104D5684600F076F9A9
:10107000009800E000205EE1DFF890090068800041
:1010800004D503A800F08AFA039800E0002052E19A
:10109000DFF84807006810F040500400DFF86C09E2
:1010A000006840070AD5002C08D1DFF86409DFF892
:1010B0005C190968C1F3C101C84016E0DFF84C09AA
:1010C0000068C00505D5B4F1805F02D1DFF81007D4
:1010D0000BE0DFF838090068800305D5B4F1005F44
:1010E00002D1DFF8300900E0002024E1DFF8280910
:1010F00021E100201FE1B5F5002F57D1DFF82C09C1
:10110000006810F4403007003800002806D0B0F521
:10111000803F0FD0B0F5003F18D045E0DFF8EC0875
:101120000068000104D5684600F018F9009800E056
:10113000002000E1DFF8D4080068800004D503A88F
:1011400000F02CFA059800E00020F4E0DFF88C06AF
:10115000006810F040500400DFF8B0080068400755
:101160000AD5002C08D1DFF8A808DFF8A018096814
:10117000C1F3C101C84016E0DFF890080068C0055F
:1011800005D5B4F1805F02D1DFF854060BE0DFF83B
:101190007C080068800305D5B4F1005F02D1DFF858
:1011A000740800E00020C6E00020C4E0B5F5803FF0
:1011B00026D1DFF82806006810F4803007003800D8
:1011C000002803D0B0F5803F0CD017E0DFF83C08D2
:1011D0000068800104D506A800F004FB079800E031
:1011E0000020A8E0DFF824080068000104D5684664
:1011F00000F0B4F8029800E000209CE000209AE0A3
:10120000B5F5804F5FD1DFF82408006810F0E040AA
:1012100007003800002812D0B0F1805F12D0B0F182
:10122000005F1BD0B0F1405F24D0B0F1804F31D0CF
:10123000B0F1A04F38D0B0F1C04F3FD041E000F046
:101240007CF878E0DFF8C4070068000104D5684640
:1012500000F084F8019800E000206CE0DFF8AC07B3
:101260000068800004D503A800F098F9049800E015
:10127000002060E0DFF894070068400708D5DFF839
:101280009007DFF888170968C1F3C101C84000E082
:10129000002050E0DFF874070068C00502D5DFF8D1
:1012A000400500E0002046E0DFF8600700688003AA
:1012B00002D5DFF8600700E000203CE0DFF85807C7
:1012C00039E0002037E0B5F5004F33D1DFF8F804FE
:1012D000006810F0405007003800002806D0B0F138
:1012E000805F0DD0B0F1005F16D021E0DFF81C0761
:1012F0000068800302D5DFF81C0700E000201AE038
:10130000DFF808070068800104D506A800F06AFA33
:10131000079800E000200EE0DFF8F006006800010A
:1013200004D5684600F01AF8019800E0002002E0B9
:10133000002000E0002009B0F0BD80B500F05FFFA4
:10134000DFF82018DFF850291268C2F30212895C16
:1013500011F01F01C84002BD0000000030B48C49EC
:101360000A6812F003028A490968C1F305318A4B01
:101370001B68C3F30013DFF824492468C4F3CC04CA
:1013800004FB03F401EE104AB8EE411A002900F004
:10139000F080002A03D0022A72D051D390E0DFF807
:1013A0006C462468A4062BD5DFF86446DFF85C564B
:1013B0002D68C5F3C105EC4001EE904AB0EE610A1C
:1013C000F8EE401A02EE101AB8EE422AC1EE821A66
:1013D000DFF8CC482468E405E40D02EE104AB8EECC
:1013E000422ADFED682AC1EE222A32EE222AF7EEE7
:1013F000002A32EE222A61EE821AF0EE610A1EE025
:1014000001EE901AF8EE611A9FED5F2AC2EE211AE2
:10141000DFF88C482468E405E40D02EE104AB8EECB
:10142000422ADFED582AC1EE222A32EE222AF7EEB6
:10143000002A32EE222A61EE821AF0EE610A5EE0A4
:1014400001EE901AF8EE611A9FED502AC2EE211AB1
:10145000DFF84C482468E405E40D02EE104AB8EECB
:10146000422ADFED482AC1EE222A32EE222AF7EE86
:10147000002A32EE222A61EE821AF0EE610A3EE084
:1014800001EE901AF8EE611A9FED422AC2EE211A7F
:10149000DFF80C482468E405E40D02EE104AB8EECB
:1014A000422ADFED382AC1EE222A32EE222AF7EE56
:1014B000002A32EE222A61EE821AF0EE610A1EE064
:1014C00001EE901AF8EE611A9FED302AC2EE211A51
:1014D000DFF8CC472468E405E40D02EE104AB8EECC
:1014E000422ADFED282AC1EE222A32EE222AF7EE26
:1014F000002A32EE222A61EE821AF0EE610ADFF84B
:10150000A0472468C4F3462401EE904AF8EE611A1D
:10151000B7EE002A71EE821AC0EEA11AFCEEE11AB3
:10152000C0ED001ADFF878472468C4F3064401EEE2
:10153000904AF8EE611AB7EE002A71EE821AC0EEF8
:10154000A11AFCEEE11AC0ED011ADFF85447246835
:10155000C4F3066401EE904AF8EE611AB7EE002A71
:1015600071EE821AC0EEA11AFCEEE11AC0ED021A69
:1015700005E000240460002444600024846030BC42
:1015800070470000000000460024744C0024744A98
:1015900028440258001BB74B2C44025830B4DFF8E3
:1015A00004170A6812F00302DFF8F8160968C1F39D
:1015B0000551DFF8F4361B68C3F30023DFF8EC466F
:1015C0002468C4F3CC0404FB03F401EE104AB8EE23
:1015D000411A002900F0F080002A03D0022A72D0BC
:1015E00051D390E0DFF824442468A4062BD5DFF81B
:1015F0002044DFF818542D68C5F3C105EC4001EE16
:10160000904AB0EE610AF8EE401A02EE101AB8EEF7
:10161000422AC1EE821ADFF898462468E405E40DF8
:1016200002EE104AB8EE422ADFED682AC1EE222A05
:1016300032EE222AF7EE002A32EE222A61EE821AD8
:10164000F0EE610A1EE001EE901AF8EE611A9FEDCD
:10165000602AC2EE211ADFF858462468E405E40D3A
:1016600002EE104AB8EE422ADFED582AC1EE222AD5
:1016700032EE222AF7EE002A32EE222A61EE821A98
:10168000F0EE610A5EE001EE901AF8EE611A9FED4D
:10169000512AC2EE211ADFF818462468E405E40D49
:1016A00002EE104AB8EE422ADFED482AC1EE222AA5
:1016B00032EE222AF7EE002A32EE222A61EE821A58
:1016C000F0EE610A3EE001EE901AF8EE611A9FED2D
:1016D000422AC2EE211ADFF8D8452468E405E40D59
:1016E00002EE104AB8EE422ADFED382AC1EE222A75
:1016F00032EE222AF7EE002A32EE222A61EE821A18
:10170000F0EE610A1EE001EE901AF8EE611A9FED0C
:10171000312AC2EE211ADFF898452468E405E40D69
:1017200002EE104AB8EE422ADFED282AC1EE222A44
:1017300032EE222AF7EE002A32EE222A61EE821AD7
:10174000F0EE610ADFF868452468C4F3462401EE30
:10175000904AF8EE611AB7EE002A71EE821AC0EED6
:10176000A11AFCEEE11AC0ED001ADFF84445246826
:10177000C4F3064401EE904AF8EE611AB7EE002A6F
:1017800071EE821AC0EEA11AFCEEE11AC0ED011A48
:10179000DFF81C452468C4F3066401EE904AF8EEB5
:1017A000611AB7EE002A71EE821AC0EEA11AFCEEA1
:1017B000E11AC0ED021A05E0002404600024446030
:1017C0000024846030BC704750440258000000463A
:1017D0000024744C0024744A001BB74B4C4402583C
:1017E00000093D0030B4DFF8BC140A6812F00302AF
:1017F000DFF8B0140968C1F30511DFF8AC341B68D9
:1018000013F00103DFF8AC442468C4F3CC0404FBF8
:1018100003F401EE104AB8EE411A002900F0EE8000
:10182000002A03D0022A70D04FD38EE0774C246870
:10183000A4062AD5DFF88044744D2D68C5F3C10590
:10184000EC4001EE904AB0EE610AF8EE401A02EE6A
:10185000101AB8EE422AC1EE821ADFF860442468FA
:10186000E405E40D02EE104AB8EE422ADFED6B2AE1
:10187000C1EE222A32EE222AF7EE002A32EE222A86
:1018800061EE821AF0EE610A1EE001EE901AF8EEA7
:10189000611A9FED632AC2EE211ADFF82044246802
:1018A000E405E40D02EE104AB8EE422ADFED5B2AB1
:1018B000C1EE222A32EE222AF7EE002A32EE222A46
:1018C00061EE821AF0EE610A5EE001EE901AF8EE27
:1018D000611A9FED542AC2EE211ADFF8E043246812
:1018E000E405E40D02EE104AB8EE422ADFED4B2A81
:1018F000C1EE222A32EE222AF7EE002A32EE222A06
:1019000061EE821AF0EE610A3EE001EE901AF8EE06
:10191000611A9FED452AC2EE211ADFF8A043246820
:10192000E405E40D02EE104AB8EE422ADFED3B2A50
:10193000C1EE222A32EE222AF7EE002A32EE222AC5
:1019400061EE821AF0EE610A1EE001EE901AF8EEE6
:10195000611A9FED332AC2EE211ADFF86043246832
:10196000E405E40D02EE104AB8EE422ADFED2B2A20
:10197000C1EE222A32EE222AF7EE002A32EE222A85
:1019800061EE821AF0EE610ADFF830432468C4F396
:10199000462401EE904AF8EE611AB7EE002A71EE85
:1019A000821AC0EEA11AFCEEE11AC0ED001ADFF8AF
:1019B0000C432468C4F3064401EE904AF8EE611A21
:1019C000B7EE002A71EE821AC0EEA11AFCEEE11AFF
:1019D000C0ED011ADFF8E4422468C4F3066401EEA6
:1019E000904AF8EE611AB7EE002A71EE821AC0EE44
:1019F000A11AFCEEE11AC0ED021A05E00024046011
:101A0000002444600024846030BC704700440258C5
:101A10000090D00300366E010080BB00000000463D
:101A20000024744C0024744A001BB74B58440258DD
:101A30002DE9F04105000C0000269A48006810F0DE
:101A40000300032801D1012088E09D48006830F0A0
:101A500080609B49086000F035F9070098480068ED
:101A6000000106D500F02EF9C01B0328F6D3032091
:101A700074E08C48006830F47C30296850EA01300A
:101A8000884908606868401EC005C00DA968491EE5
:101A9000490211F47E410843E968491E090411F422
:101AA000FE0108432969491E090611F0FE41084359
:101AB0007B4908607C48016831F0C00168690143D6
:101AC000794801607848016831F02001A869014334
:101AD000754801607448006830F010007249086071
:101AE0006E4800686FF3CF00E96950EAC1006B49A6
:101AF00008606D48006850F010006B490860002CC9
:101B000006D16948006850F40020674908600EE07B
:101B1000012C06D16448006850F4801062490860C6
:101B200005E06148006850F400105F4908606448AF
:101B3000006850F080606249086000F0C3F8804699
:101B40005F480068000107D400F0BCF8B0EB080063
:101B50000328F5D3032001E03000C0B2BDE8F081D6
:101B600000000000687200082DE9F04105000C003B
:101B700000264C48006810F00300032801D1012022
:101B800088E04F48006830F080504D49086000F010
:101B900099F807004A480068800006D500F092F8DE
:101BA000C01B0328F6D3032074E03E48006830F0E1
:101BB0007C70296850EA01503A4908606868401E04
:101BC000C005C00DA968491E490211F47E410843B1
:101BD000E968491E090411F4FE0108432969491EF8
:101BE000090611F0FE410843314908602E4801689A
:101BF00031F44061686901432B4801602A4801685B
:101C000031F40071A8690143274801602648006843
:101C100030F4807024490860244800686FF3CF00D6
:101C2000E96950EAC100214908601F48006850F482
:101C300080701D490860002C06D11B48006850F4D4
:101C40008000194908600EE0012C06D11648006892
:101C500050F400001449086005E01348006850F093
:101C60008070114908601648006850F0805014498F
:101C7000086000F027F8804611480068800007D40B
:101C800000F020F8B0EB08000328F5D3032001E0B2
:101C90003000C0B2BDE8F081204402583C440258F4
:101CA00038440258284402582C44025844440258EC
:101CB00040440258344402580090D0033044025843
:101CC0000044025801480068704700BFB803002074
:101CD000F8B504000D00002C01D101207AE1DFF8F5
:101CE000A005006810F00F00A84211D2DFF890059F
:101CF0000068000900012843DFF884150860DFF858
:101D00008005006810F00F00A84201D0012061E1B9
:101D10002078400711D5DFF88405006810F07000C6
:101D20002169884209D2DFF87405016831F0700139
:101D300020690143DFF8640501602078000711D5B0
:101D4000DFF85C05006810F070006169884209D214
:101D5000DFF84C05016831F0700160690143DFF87C
:101D6000400501602078C00611D5DFF83405006811
:101D700010F4E060A169884209D2DFF82405016807
:101D800031F4E061A0690143DFF8140501602078B7
:101D9000800611D5DFF80C05006810F07000E169CD
:101DA000884209D2DFF8FC04016831F07001E06973
:101DB0000143DFF8F00401602078800711D5DFF8D7
:101DC000DC04006810F00F00E168884209D2DFF8F7
:101DD000CC04016809090901E0680143DFF8BC048B
:101DE00001602078C0074DD5DFF8B004016831F4F8
:101DF0007061A0680143DFF8A404016060680228F4
:101E000006D1DFF88004006880031CD40120E1E0E3
:101E10006068032806D1DFF86C040068800112D4E2
:101E20000120D7E06068012806D1DFF85804006877
:101E3000C00508D40120CDE0DFF848040068400761
:101E400001D40120C6E0DFF840040168C908C900D8
:101E500060680143DFF830040160FFF733FF0600DC
:101E6000DFF82404006810F038006168B0EBC10F9F
:101E700008D0FFF727FF801B41F289318842EFD35A
:101E80000320A7E02078800711D5E068DFF80C1464
:101E9000096811F00F01884209D2DFF800040168D7
:101EA00009090901E0680143DFF8F0030160DFF888
:101EB000D003006810F00F00854211D2DFF8C00394
:101EC0000068000900012843DFF8B4130860DFF858
:101ED000B003006810F00F00A84201D0012079E0A3
:101EE0002078400711D52069DFF8B013096811F098
:101EF0007001884209D2DFF8A403016831F0700153
:101F000020690143DFF8940301602078000711D5B0
:101F10006069DFF88C13096811F07001884209D2FA
:101F2000DFF87C03016831F0700160690143DFF87C
:101F3000700301602078C00611D5A069DFF8601336
:101F4000096811F4E061884209D2DFF8540301689E
:101F500031F4E061A0690143DFF8440301602078B7
:101F6000800611D5E069DFF83C13096811F07001B3
:101F7000884209D2DFF82C03016831F07001E06972
:101F80000143DFF82003016000F026F80700DFF8C6
:101F90002803DFF808130968C1F30321405C10F03F
:101FA0001F00C740DFF81003DFF8F012096811F0D6
:101FB0000F01405C10F01F003900C140DFF8D4026F
:101FC0000160DFF8CC020760DFF8CC02006800F0A7
:101FD00079F9C0B2F2BD000010B4DFF8AC020068BD
:101FE00010F03800002806D0082815D0102816D088
:101FF000182817D000E1DFF88C020068800608D5A9
:10200000DFF88802DFF87C422468C4F3C104E040B2
:1020100001E0DFF87802F0E0DFF8A002EDE0DFF8A1
:10202000A002EAE0DFF88002006810F0030002007E
:10203000DFF874020068C0F305100100DFF86C02DD
:10204000006810F001000300DFF868020068C0F3C8
:10205000CC0000FB03F002EE100AB8EE422AB0EE0C
:10206000421A002900F0C680002A03D0022A72D04A
:1020700051D38FE0DFF80C02006880062BD5DFF823
:102080000C02DFF800422468C4F3C104E04002EE11
:10209000100AF0EE420AB8EE602A02EE901AF8EE4C
:1020A000622A82EE222ADFF808020068C005C00D0D
:1020B00002EE900AF8EE622A9FED6D3A81EE033A45
:1020C00072EE832AB7EE003A72EE832A22EE222ABB
:1020D000F0EE421A1EE002EE101AB8EE422ADFEDD0
:1020E000652A82EE822ADFF8C8010068C005C00DAB
:1020F00002EE900AF8EE622A9FED5D3A81EE033A15
:1021000072EE832AB7EE003A72EE832A22EE222A7A
:10211000F0EE421A5CE002EE101AB8EE422ADFED51
:10212000562A82EE822ADFF888010068C005C00DB9
:1021300002EE900AF8EE622A9FED4D3A81EE033AE4
:1021400072EE832AB7EE003A72EE832A22EE222A3A
:10215000F0EE421A3CE002EE101AB8EE422ADFED31
:10216000472A82EE822A52480068C005C00D02EE5E
:10217000900AF8EE622A9FED3E3A81EE033A72EE43
:10218000832AB7EE003A72EE832A22EE222AF0EE7C
:10219000421A1DE002EE101AB8EE422ADFED362A8E
:1021A00082EE822A42480068C005C00D02EE900A05
:1021B000F8EE622A9FED2E3A81EE033A72EE832A00
:1021C000B7EE003A72EE832A22EE222AF0EE421A8D
:1021D00037480068C0F34620401C02EE100AB0EEFB
:1021E000420AB8EE402A81EE822ABCEEC22A12EEE2
:1021F000100A00E0002000E0304810BC704780B5B5
:10220000FFF7EAFE01002C48244A1268C2F30322B9
:10221000805C10F01F00C1402748204A126812F06D
:102220000F02805C10F01F000A00C24019480260D3
:10223000174801601748006802BD80B5FFF7DFFF4F
:102240001D49174A1268C2F30212895C11F01F017E
:10225000C84002BD80B5FFF7D2FF1749104A126887
:10226000C2F30222895C11F01F01C84002BD0000C8
:10227000000000460024744C0024744A001BB74B35
:102280000020005200440258104402580090D0032D
:10229000040000200800002000000020184402581C
:1022A0001C44025820440258284402582C44025826
:1022B00030440258344402586872000800093D0056
:1022C00000366E0110B5040011480078002801D1D5
:1022D00001201CE04FF47A700D490978B0FBF1F051
:1022E0000C490968B1FBF0F000F0AEF8002801D00D
:1022F00001200CE0102C09D2002221005FF0FF30F9
:1023000000F089F804480460002000E0012010BDBE
:102310000C000020040000200000002010F0070343
:10232000DFF830110A684FF6FF010A4052EA032233
:10233000DFF824110A43DFF81C110A607047DFF848
:1023400014010068C0F3022070470000010009B2C8
:1023500000290AD4012210F01F018A40DFF8FC1086
:1023600003001BB25B0941F82320704710B4020040
:1023700012B2002A05D40A01394B040024B21A55BE
:1023800008E00A01374B040024B214F00F04234480
:1023900003F8042C10BC704770B4030013F007045A
:1023A000D4F10700052801D3042001E0D4F107008F
:1023B000251D072D01D2002500E0E51E012616FA95
:1023C00000F0401E0140A940012010FA05F56D1EE5
:1023D0002A401143080070BC704710B50400601E0D
:1023E000B0F1807F01D301200EE0601E1E4908601D
:1023F0000F215FF0FF30FFF7B9FF00201B49086095
:1024000007201B490860002010BD10B50400200003
:10241000FFF784FF10BDF8B504000D001600FFF7AC
:102420008EFF0700320029003800FFF7B5FF0100DA
:10243000200000B2FFF79AFFF1BD10B504002000A4
:1024400000B2FFF783FF10BD10B504002000FFF7B6
:10245000C4FF10BD0CED00E00000FA0500E100E053
:1024600000E400E018ED00E014E000E018E000E017
:1024700010E000E00168DFF8B42C91422AD1017F1E
:10248000012907D1DFF8A81C0968491CDFF8A02C36
:1024900011601FE0017F022907D1DFF8981C09684D
:1024A000491CDFF8902C116014E0017F042907D14A
:1024B000DFF8DC1C0968491CDFF8D42C116009E046
:1024C000017F082906D1DFF8CC1C0968491CDFF818
:1024D000C42C11600168DFF8C02C91422AD1017F21
:1024E000012907D1DFF8B41C0968491CDFF8AC2CBE
:1024F00011601FE0017F022907D1DFF8A41C0968E1
:10250000491CDFF89C2C116014E0017F042907D1DD
:10251000DFF8901C0968491CDFF8882C116009E07D
:10252000017F082906D1DFF8041D0968491CDFF87E
:10253000FC2C1160704710B504002000C0B20028C8
:1025400008D04FF4805000F0E6F843F2020000F0AB
:10255000E2F803E04FF4405000F0DDF810BD10B594
:1025600004002000C0B2002808D04FF4845000F0CE
:10257000D2F843F2020000F0CEF803E04FF44050EE
:1025800000F0C9F810BD10B504002000C0B200284A
:1025900008D041F2040000F0BEF842F2040000F05E
:1025A000BAF803E04FF4005000F0B5F810BD10B5D4
:1025B00004002000C0B2002808D04FF4805000F082
:1025C000AAF842F2040000F0A6F803E04FF400502D
:1025D00000F0A1F810BD10B504002000C0B2002822
:1025E00008D04FF4805000F096F842F2020000F05C
:1025F00092F803E04FF4005000F08DF810BD10B5D4
:1026000004002000C0B2002808D041F2020000F00F
:1026100082F842F2020000F07EF803E04FF400502E
:1026200000F079F810BD10B504002000C0B20028F9
:1026300008D04FF4805000F06EF842F2010000F034
:102640006AF803E04FF4005000F065F810BD10B5D3
:1026500004002000C0B2002808D041F2010000F0C0
:102660005AF842F2010000F056F803E04FF400502F
:1026700000F051F810BD10B504002000C0B20028D1
:1026800008D04FF4805000F046F843F2010000F00B
:1026900042F803E04FF4405000F03DF810BD10B593
:1026A00004002000C0B2002808D04FF4825000F08F
:1026B00032F843F2010000F02EF803E04FF44050EE
:1026C00000F029F810BD10B504002000C0B20028A9
:1026D00008D04FF4805000F01EF842F2080000F0DD
:1026E0001AF803E04FF4005000F015F810BD10B5D3
:1026F00004002000C0B2002808D041F2080000F019
:102700000AF842F2080000F006F803E04FF4005027
:1027100000F001F810BD1CB504000020ADF8000069
:10272000ADF8004000224FF48071DFF8D00C00F0CB
:10273000BBFF0A2301226946DFF8780B01F09FF8FE
:1027400001224FF48071DFF8B40C00F0ADFF13BD2F
:102750002DE9F84F84B001F0A3FA00F0F8F900F089
:10276000ABFD00F05FFA00F0C6FA00F02BFB00F0C2
:10277000AEFB00F002FC00F06EFC00F015FD00F076
:1027800057FD00F0D9FC01224FF48071DFF86C0C8A
:1027900000F08AFF0021DFF8680C01F0ABFC042197
:1027A000DFF85C0C01F0A6FC0821DFF8540C01F006
:1027B000A1FC0C21DFF8480C01F09CFC0021DFF8A3
:1027C000440C01F097FC0421DFF8380C01F092FC76
:1027D0000821DFF8300C01F08DFC0C21DFF8240C0F
:1027E00001F088FC0C21DFF8200C01F082FB0C21A9
:1027F000DFF8180C01F07DFBDFF8140C01F0CFFAC4
:1028000001220421DFF8F40B00F04EFF01224FF407
:102810000041DFF8000C00F047FFDFF8F40B006820
:10282000406A039001208DF8040000208DF8030019
:1028300000208DF8020000208DF8010000208DF8A6
:10284000000000240025002600275FF000085FF04C
:1028500000095FF0000A5FF0000B0121DFF8B40B04
:1028600000F017FF002806D100220421DFF88C0BAE
:1028700000F01AFF05E001220421DFF8800B00F0D0
:1028800013FF9DF80400002819D0DFF8840B0068BE
:10289000406A029002990398091A4FF6012081427A
:1028A0000DDB00208DF80400DFF8640B01F0BDFAA9
:1028B00000224FF40041DFF85C0B00F0F5FE4FF40E
:1028C0008051DFF8500B00F0E4FE01280AD19DF89A
:1028D0000300002810D101208DF803000120FFF72C
:1028E0002AFE09E09DF80300002805D000208DF89D
:1028F00003000020FFF71FFE4FF40061DFF8140B08
:1029000000F0C7FE01280AD19DF80200002810D16E
:1029100001208DF802000120FFF721FE09E09DF85B
:102920000200002805D000208DF802000020FFF7EB
:1029300016FE4FF48061DFF8DC0A00F0AAFE0128E1
:102940000AD19DF80100002810D101208DF8010066
:102950000120FFF718FE09E09DF80100002805D0CE
:1029600000208DF801000020FFF70DFE4FF40071EC
:10297000DFF8A00A00F08DFE01280AD19DF80000C2
:10298000002810D101208DF800000120FFF70FFE74
:1029900009E09DF80000002805D000208DF8000017
:1029A0000020FFF704FE4FF48071DFF8680A00F0A2
:1029B00070FE012809D12000C0B200280ED10120EC
:1029C00004000120FFF707FE08E02000C0B2002845
:1029D00004D0002004000020FFF7FDFD8021DFF877
:1029E000340A00F056FE012809D12800C0B20028A0
:1029F0000ED1012005000120FFF701FE08E02800AC
:102A0000C0B2002804D0002005000020FFF7F7FD29
:102A10004021DFF8000A00F03CFE012809D1300017
:102A2000C0B200280ED1012006000120FFF7FBFDF7
:102A300008E03000C0B2002804D0002006000020CA
:102A4000FFF7F1FD2021DFF8CC0900F022FE01287C
:102A500009D13800C0B200280ED1012007000120A2
:102A6000FFF7F5FD08E03800C0B2002804D00020D0
:102A700007000020FFF7EBFD1021DFF8980900F0B8
:102A800008FE012809D14046C0B200280ED101201D
:102A900080460120FFF7EFFD08E04046C0B2002865
:102AA00004D0002080460020FFF7E5FD0821DFF874
:102AB000640900F0EEFD012809D14846C0B20028A3
:102AC0000ED1012081460120FFF7E9FD08E04846CC
:102AD000C0B2002804D0002081460020FFF7DFFDAF
:102AE0000421DFF8300900F0D4FD012809D1504657
:102AF000C0B200280ED1012082460120FFF7E3FD7D
:102B000008E05046C0B2002804D0002082460020D1
:102B1000FFF7D9FD0221DFF8FC0800F0BAFD01281B
:102B20000AD15846C0B200287FF497AE01208346F0
:102B30000120FFF7DCFD90E65846C0B200283FF4C4
:102B40008CAE002083460020FFF7D1FD85E610B54E
:102B50009CB04C21002209AC200002F01DF820217D
:102B6000002201AC200002F017F8042002F048F81F
:102B700000200090DFF8A008006830F44040DFF843
:102B800098180860DFF89008006810F44040009042
:102B90000098DFF8840800688004FAD5DFF87C0824
:102BA000006880088000DFF874180860022009902F
:102BB00001200C9040200D900220129000201390D4
:102BC00004201490082015900220169001201790E0
:102BD000022018900C20199000201A9000201B90C1
:102BE00009A802F05BF8002801D000F037FC3F2074
:102BF00001900020029000200390002004904020CB
:102C00000590402006904FF4806007904020089087
:102C1000022101A8FFF75CF8002801D000F01EFC9B
:102C20001CB010BD18B587B01C2100226C462000D6
:102C300001F0B2FFDFF8E807DFF8E81708600020CE
:102C4000DFF8E01748600020DFF8D8178860002020
:102C5000DFF8D017C8600420DFF8C817086100202B
:102C6000DFF8C01708750020DFF8B8174875012095
:102C7000DFF8B01788610020DFF8A8170877002078
:102C8000DFF8A01748620020DFF89817886200205C
:102C9000DFF89017C8620020DFF88817086300206B
:102CA000DFF8801748630020DFF8781781F83800D4
:102CB000DFF8700702F015FC002801D000F0CEFB11
:102CC00001200090062001900020029040F2FF7049
:102CD0000390042004900020059000208DF8190036
:102CE0006946DFF8400702F015FD002801D000F02A
:102CF000B5FB08B010BD80B5DFF82C07DFF8B415C0
:102D000008605FF48000DFF8AC1548600020DFF851
:102D1000A41588600E20DFF89C15C8600020DFF83D
:102D2000941508610020DFF88C1548615FF0806021
:102D3000DFF8801588615FF0E040DFF87815C86142
:102D40000020DFF8701508620020DFF8681548627F
:102D50000020DFF8601588620020DFF85815C8628F
:102D60005FF08040DFF84C1548630020DFF8441521
:102D700088630020DFF83C15C8630020DFF83415B5
:102D800008640020DFF82C1548640020DFF82415C3
:102D900088640020DFF81C15C8640020DFF81415D3
:102DA00008650020DFF80C1548650020DFF80415E1
:102DB0008865DFF8000500F0A1FC002801D000F0D4
:102DC0004DFB01BD18B595B00C2100226C462000CA
:102DD00001F0E2FE1C2100220EAC200001F0DCFE1E
:102DE0002C21002203AC200001F0D6FEDFF83C06C7
:102DF000DFF8141608600020DFF80C164860002089
:102E0000DFF8041688602020DFF8FC15C860002079
:102E1000DFF8F41508610020DFF8EC1548610020A8
:102E2000DFF8E4158861DFF8E00501F025F80028F7
:102E300001D000F013FB0020009000200190002042
:102E400002906946DFF8C00502F0FCFE002801D0C0
:102E500000F004FB60200E9010200F9000201090D6
:102E60000020129000201390002014900C220EA934
:102E7000DFF8940501F05DFB002801D000F0EEFAC8
:102E80000020039000200490002005900020069070
:102E9000002007904FF40050089000200990002077
:102EA0000A905FF000700B9000200C9000200D90B5
:102EB00003A9DFF8540502F014FF002801D000F048
:102EC000CDFADFF8440503F01EF916B010BD10B5B9
:102ED0008AB00C2100226C46200001F05DFE1C210E
:102EE000002203AC200001F057FE5FF08040DFF8C5
:102EF0001C1508600020DFF8141548600020DFF87A
:102F00000C158860DFF82805DFF80015C860002080
:102F1000DFF8F81408610020DFF8F0148861DFF8AA
:102F2000EC0400F0A9FF002801D000F097FA00207F
:102F30000090002002906946DFF8D00402F082FE83
:102F4000002801D000F08AFA60200390DFF8E40442
:102F5000049000200590002007900C2203A9DFF8C0
:102F6000AC0401F0E6FA002801D000F077FADFF8AF
:102F70009C0403F0C8F80AB010BD18B587B00C2146
:102F8000002204AC200001F007FE102100226C4654
:102F9000200001F001FE6548DFF86414086000209D
:102FA000DFF85C1448600020DFF8541488604FF6A6
:102FB000FF70DFF84C14C8600020DFF8441408618B
:102FC0000020DFF83C148861DFF8340401F052F887
:102FD000002801D000F042FA002004900020069062
:102FE00004A9DFF81C0402F02DFE002801D000F037
:102FF00035FA00200090012001900020029000206E
:10300000039000226946DFF8F80301F02DFA00284A
:1030100001D000F023FA04226946DFF8E40301F04E
:1030200023FA002801D000F019FA08226946DFF8D7
:10303000D00301F019FA002801D000F00FFA0C2299
:103040006946DFF8BC0301F00FFA002801D000F058
:1030500005FA08B010BD18B587B00C21002204ACE9
:10306000200001F099FD102100226C46200001F0A3
:1030700093FD4948DFF88C1308600020DFF88413C3
:1030800048600020DFF87C1388604FF6FF70DFF89F
:103090007413C8600020DFF86C1308610020DFF8AB
:1030A00064138861DFF85C0300F0E4FF002801D0BE
:1030B00000F0D4F9002004900020069004A9DFF865
:1030C000440302F0BFFD002801D000F0C7F9002042
:1030D0000090012001900020029000200390002227
:1030E0006946C84801F0C0F9002801D000F0B6F9DF
:1030F00004226946C34801F0B7F9002801D000F066
:10310000ADF908226946BF4801F0AEF9002801D0A8
:1031100000F0A4F90C226946BA4801F0A5F900288C
:1031200001D000F09BF908B010BD00000004004081
:10313000980300209C0300201FB50C2100226C4640
:10314000200001F029FDBC48B14908600020B049C9
:1031500048600020AE4988604FF6FF70AC49C860F7
:103160000020AB498861AA4800F0DCFD002801D0AE
:1031700000F074F900200090002002906946A448F5
:1031800002F060FD002801D000F068F91FBD0000CA
:10319000A0030020A403002000080040A803002092
:1031A000AC030020B003002080B5A448A449086007
:1031B0005FF4E130A24948600020A1498860002006
:1031C0009F49C86000209E4908610C209C494861C5
:1031D00000209B49886100209949C86100209849D6
:1031E0000862002096494862002095498862944808
:1031F00003F08EF8002801D000F030F9002190484B
:1032000003F02BFD002801D000F028F900218C48A4
:1032100003F04EFD002801D000F020F9884803F0AB
:10322000F9FC002801D000F019F901BDB403002019
:1032300080B58448844908605FF4E1308249486081
:1032400000208149886000207F49C86000207E49B5
:1032500008610C207C49486100207B49886100207E
:103260007949C8610020784908620020764948629F
:10327000002075498862744803F04AF8002801D09C
:1032800000F0ECF80021704803F0E7FC002801D0C2
:1032900000F0E4F800216C4803F00AFD002801D09A
:1032A00000F0DCF8684803F0B5FC002801D000F01D
:1032B000D5F801BD3001002010B586B014210022E0
:1032C0006C46200001F068FC6048006850F0100077
:1032D0005E4908605D48006810F010000590059890
:1032E0005A48006850F00400584908605748006880
:1032F00010F00400059005985448006850F0010053
:10330000524908605148006810F001000590059886
:103310004E48006850F002004C4908604B48006875
:1033200010F00200059005984848006850F0080029
:10333000464908604548006810F008000590059867
:1033400000224FF482712D4800F0AEF900224FF4B4
:103350000041304800F0A8F941F6FF7000900020CD
:1033600001900020029069462A4800F079F840F662
:1033700038500090002001900020029069463448A7
:1033800000F06EF84FF48270009001200190002050
:103390000290002003906946184800F061F84FF44D
:1033A0000040009001200190002002900020039036
:1033B0006946184800F054F84FF4805000900020FF
:1033C0000190002002906946224800F049F87820D8
:1033D0000090002001900020029069461E4800F0F5
:1033E0003FF8F820009000200190002002906946EC
:1033F000024800F035F806B010BD00000004025885
:10340000B4020020000300201C02002068020020FB
:103410004C03002000100258184802582844025853
:1034200000210240B80100200038004000000140A7
:1034300000C4090000E20400001000400010014038
:103440001000002000480040A00000204045025825
:103450000000025800080258000C025872B6FEE73D
:10346000F8B403000025DFF85C620868E840002833
:1034700000F00D8108680127AF4038400200002AA3
:1034800000F003814868012808D04868022805D068
:103490004868112802D04868122824D19F685FF03C
:1034A000030C2800C0B240001CFA00FC37EA0C07ED
:1034B000D1F80CC02800C0B240001CFA00FC5CEA45
:1034C00007079F6058685FF0010C1CFA05FC30EAA2
:1034D0000C00D1F804C0CCF3001C1CFA05FC5CEA1B
:1034E000000004005C60DF685FF0030C2800C0B2DD
:1034F00040001CFA00FC37EA0C07D1F808C028008D
:10350000C0B240001CFA00FC5CEA0707DF604868B4
:10351000022802D0486812281ED12800C00803EBF8
:103520008000046A5FF00F0C15F00700C0B2800045
:103530001CFA00FC34EA0C04D1F810C015F00700A6
:10354000C0B280001CFA00FC5CEA040427002800DA
:10355000C00803EB800007621C685FF0030C2800C2
:10356000C0B240001CFA00FC34EA0C0491F804C01C
:103570001CF0030C2800C0B240001CFA00FC5CEAFE
:1035800004041C604868C00040F17F80DFF8380107
:10359000006850F00200DFF830713860DFF8280171
:1035A000006810F0020000900098DFF820012F0062
:1035B000BF0850F827705FF00F0C15F00300C0B281
:1035C00080001CFA00FC37EA0C074148834201D115
:1035D00000242DE03F48834201D1012428E03E48E9
:1035E000834201D1022423E03C48834201D10324D9
:1035F0001EE03B48834201D1042419E0394883424C
:1036000001D1052414E03848834201D106240FE09B
:103610003648834201D107240AE03548834201D16C
:10362000082405E03348834201D1092400E00A243C
:1036300015F00300C0B280008440274323482C00CB
:10364000A40840F82470306890434C68E40300D527
:1036500010433060746894434F68BF0300D514432F
:1036600074605FF0B040006890434F68FF0200D57F
:1036700010435FF0B04420601F4C246894434F68AF
:10368000BF0200D514431C4804606D1CEDE6F1BC7C
:103690007047020010690B009BB2184201D0012054
:1036A00000E00020C0B270471300DBB2002B03D053
:1036B0000B009BB2836103E00B009BB21B04836190
:1036C0007047000080000058544502580804005814
:1036D000000002580004025800080258000C02586A
:1036E000001002580014025800180258001C02581A
:1036F00000200258002402580400005870B504004D
:103700000025002C01D10120B8E0606A00280020CB
:10371000A0622068DFF8241488420ED02068DFF809
:103720002014884209D02068DFF81814884204D099
:10373000E068102801D30120A0E0200000F090FAFA
:1037400006002068DFF8F41388420BD02068DFF809
:10375000F013884206D02068DFF8E813884201D0D1
:10376000092E10D22068DFF8D413884209D02068CF
:10377000DFF8CC13884204D02068DFF8C8138842F1
:1037800003D1112E01D3012078E094F881000028A4
:1037900005D1002084F88000200002F070FB022098
:1037A00084F88100206800684008400021680860B3
:1037B000A069B0F1806F13D16068B0F5800F02D1BD
:1037C000A06B002806D06068002809D1A06BB0F17A
:1037D000805F05D12068006850F48050216808603F
:1037E000E169A06A01432943E06B0143E0680143BA
:1037F00020688160616B606A0143A06B0143A0692E
:1038000001432069014360690143206A0143606804
:103810000143E06C0143A0680143A06C0143A06D2B
:1038200001432068C160606800280FD1206880686B
:1038300030F4C05050F400602168886020688068CF
:1038400030F4C06050F48060216888602068006DAA
:1038500040084000216808656068400207D520687C
:10386000C16821F00041606D01432068C160002003
:10387000C4F88400012084F88100002070BD2DE987
:10388000F84306000D0017001C005FF0000896F8D2
:103890008000012801D102204DE1012086F880003E
:1038A000FEF710FA814696F88100012805D0022023
:1038B000002186F88010C0B23DE1002D03D0380011
:1038C00080B2002805D10120002186F88010C0B206
:1038D00031E1032086F881000020C6F88400F565F8
:1038E000A6F86070A6F86270002070660020A6F846
:1038F00068000020A6F86A0000207067002030678A
:10390000B068B0F5C02F05D13068006850F4006091
:103910003168086030684168090C0904380080B2D9
:103920000143306841603068006850F00100316840
:1039300008607068B0F5800F05D13068006850F4F9
:10394000007031680860F068102831D3B6F8620062
:10395000002800F0D0803068406980070CD5F06DF9
:10396000006831680862F06D001DF065B6F862000D
:10397000401EA6F86200E9E7FEF7A4F9B0EB0900E3
:10398000A04202D314F1010F01D1002CDED130008E
:1039900000F0DAF8002086F88000D6F8840050F4B1
:1039A0008070C6F88400012086F881000120C2E002
:1039B000F068082845D3B6F86200002800F09B8024
:1039C00030684069800720D5B6F8620002280FD31E
:1039D000F06B00280CD0F06D006831680862F06D63
:1039E000001DF065B6F86200801EA6F86200E2E7EE
:1039F000F06D008831680884F06D801CF065B6F8C1
:103A00006200401EA6F86200D5E7FEF75BF9B0EB56
:103A10000900A04202D314F1010F01D1002CCAD138
:103A2000300000F091F8002086F88000D6F884007D
:103A300050F48070C6F88400012086F881000120CF
:103A400079E0B6F86200002855D0306840698007F8
:103A500035D5B6F8620004280FD3F06B41280CD39B
:103A6000F06D006831680862F06D001DF065B6F811
:103A70006200001FA6F86200E3E7B6F862000228C1
:103A80000FD3F06B00280CD0F06D008831680884EB
:103A9000F06D801CF065B6F86200801EA6F862002A
:103AA000CFE7F06D0078316881F82000F06D401CA0
:103AB000F065B6F86200401EA6F86200C1E7FEF7A6
:103AC00001F9B0EB0900A04202D314F1010F01D1BA
:103AD000002CB6D1300000F037F8002086F88000C6
:103AE000D6F8840050F48070C6F88400012086F86F
:103AF000810001201FE000944B4600220821300085
:103B000000F08CF8002805D0D6F8840050F0200092
:103B1000C6F88400300000F017F8002086F8800016
:103B2000012086F88100D6F88400002801D0012009
:103B300001E04046C0B2BDE8F28300000030014021
:103B400000380040003C004001684A69016889690A
:103B500051F00801036899610168896951F0100109
:103B60000368996101680968490849000368196098
:103B700001680B6928490B4001680B61016889687D
:103B800031F440410368996090F8811004290DD008
:103B900091060BD5D0F8841051F08001C0F8841044
:103BA0000168896951F020010368996190F88110DA
:103BB00003290DD051060BD5D0F8841051F0040123
:103BC000C0F884100168896951F040010368996167
:103BD00091050BD5D0F8841051F00101C0F8841084
:103BE0000168896951F4007103689961D1050BD5A9
:103BF000D0F8841051F00801C0F884100168896978
:103C000051F48071036899610021A0F862100021CD
:103C1000A0F86A107047000090FCFFFF2DE9F0410A
:103C200005000E0090461F00069C28684069304041
:103C3000B04201D1012000E000204146C9B28842D3
:103C40000BD1FEF73FF8C01BA04202D314F1010FC5
:103C500001D1002CE9D1032000E00020BDE8F08173
:103C60000100C86B4009401CCA68521CD21DD20812
:103C700000FB02F070470EE002684368024408301F
:103C80005FEAC37C44BF4B445B1E52F804CB43F84D
:103C900004CB091FF9D150F8041B0029ECD170475F
:103CA00010B50320FEF7B1FBFEF796F90400DFF82C
:103CB0006000DFF860100968C1F30321405C10F078
:103CC0001F00C440DFF84800DFF84810096811F011
:103CD0000F01405C10F01F002100C140DFF83800E8
:103CE0000160DFF8380004600020FEF7EBFA0028DE
:103CF00001D0012002E002F04BF8002010BDDFF8F7
:103D00002020126882430A43DFF814301A6070479B
:103D100068720008184402580800002004000020BF
:103D20000404005810B50400002C01D1012035E036
:103D300094F83D00002805D1002084F83C002000C4
:103D400002F0CEF9022084F83D00211D206800F029
:103D50009DFC012084F84800012084F83E000120E9
:103D600084F83F00012084F84000012084F84100DD
:103D7000012084F84200012084F84300012084F8E7
:103D80004400012084F84500012084F84600012009
:103D900084F84700012084F83D00002010BD010098
:103DA00091F83D00012801D001203DE0022081F87A
:103DB0003D000868DFF8A43098421CD00868B0F1D4
:103DC000804F18D00868DFF89830984213D0086800
:103DD000DFF8903098420ED00868DFF88C309842B7
:103DE00009D00868DFF88430984204D00868DFF80A
:103DF0008030984211D108688368DFF8780003406A
:103E00001A00062A0FD0B2F5803F0CD0086800686F
:103E100050F001000B68186005E00868006850F079
:103E200001000B6818600020704701000868006AF4
:103E300041F2111210420BD10868006A40F244426C
:103E4000104205D108680068400840000A68106008
:103E5000012081F83D000020704700000000014073
:103E60000004004000080040000C00400004014035
:103E7000001800400700010010B50400002C01D11B
:103E8000012035E094F83D00002805D1002084F899
:103E90003C00200002F05FF8022084F83D00211D64
:103EA000206800F0F3FB012084F84800012084F82A
:103EB0003E00012084F83F00012084F840000120EA
:103EC00084F84100012084F84200012084F8430076
:103ED000012084F84400012084F84500012084F882
:103EE0004600012084F84700012084F83D000020AE
:103EF00010BD70B505000C00002C02D195F83E00F5
:103F000015E0042C02D195F83F0010E0082C02D1F6
:103F100095F840000BE00C2C02D195F8410006E02A
:103F2000102C02D195F8420001E095F843000128D9
:103F300001D001208BE0002C04D1022085F83E0046
:103F4000C0B21FE0042C04D1022085F83F00C0B2AB
:103F500018E0082C04D1022085F84000C0B211E01E
:103F60000C2C04D1022085F84100C0B20AE0102CCC
:103F700004D1022085F84200C0B203E0022085F897
:103F80004300C0B201222100286800F0F3FD286838
:103F9000DFF8BC10884213D02868DFF8B8108842D8
:103FA0000ED02868DFF8C410884209D02868DFF8EE
:103FB000C010884204D02868DFF8AC10884201D1D4
:103FC000012000E00020C0B2002805D02868406C25
:103FD00050F40040296848642868DFF8741088426B
:103FE0001CD02868B0F1804F18D02868DFF868101E
:103FF000884213D02868DFF8641088420ED0286801
:10400000DFF85C10884209D02868DFF84810884241
:1040100004D02868DFF84C10884211D128688168E4
:10402000DFF8CC0001400E00062E0FD0B6F5803F21
:104030000CD02868006850F001002968086005E08D
:104040002868006850F0010029680860002070BDF1
:10405000000001400004014000040040000800404E
:10406000000C0040001800400048014000400140A2
:104070000044014010B50400002C01D1012035E0BE
:1040800094F83D00002805D1002084F83C00200071
:1040900001F08CFF022084F83D00211D206800F013
:1040A000F5FA012084F84800012084F83E00012040
:1040B00084F83F00012084F84000012084F841008A
:1040C000012084F84200012084F84300012084F894
:1040D0004400012084F84500012084F846000120B6
:1040E00084F84700012084F83D00002010BD000046
:1040F000070001002DE9F04105000C00002C02D161
:1041000095F83E7015E0042C02D195F83F7010E050
:10411000082C02D195F840700BE00C2C02D195F8D8
:10412000417006E0102C02D195F8427001E095F83C
:104130004370002C02D195F844800BE0042C02D18E
:1041400095F8458006E0082C02D195F8468001E0FC
:1041500095F847803800C0B2012803D14046C0B26C
:10416000012801D00120A5E0002C04D1022085F80F
:104170003E00C0B21FE0042C04D1022085F83F00AD
:10418000C0B218E0082C04D1022085F84000C0B26B
:1041900011E00C2C04D1022085F84100C0B20AE0E5
:1041A000102C04D1022085F84200C0B203E00220A6
:1041B00085F84300C0B2002C04D1022085F84400E9
:1041C000C0B211E0042C04D1022085F84500C0B231
:1041D0000AE0082C04D1022085F84600C0B203E0B2
:1041E000022085F84700C0B22000002806D004282D
:1041F0000BD0082810D00C2815D01BE02868C06808
:1042000050F002002968C86014E02868C06850F0C7
:1042100004002968C8600DE02868C06850F00800F4
:104220002968C86006E02868C06850F01000296856
:10423000C860FFE701222100286800F09BFC286885
:10424000DFF8741088421CD02868B0F1804F18D075
:104250002868DFF86C10884213D02868DFF86410F3
:1042600088420ED02868DFF86010884209D028689C
:10427000DFF84810884204D02868DFF850108842E0
:1042800011D128688168DFF8480001400E00062E31
:104290000FD0B6F5803F0CD02868006850F00100C0
:1042A0002968086005E02868006850F00100296866
:1042B00008600020BDE8F0810000014000040140DA
:1042C0000004004000080040000C004000180040BE
:1042D0000700010010B504002068006980071AD5A6
:1042E0002068C068800716D57FF002002168086149
:1042F000012020772068806910F0030F03D0200090
:10430000FEF7B8F805E0200002F03AFD200002F0C8
:1043100038FD002020772068006940071AD5206802
:10432000C068400716D57FF00400216808610220AC
:1043300020772068806910F4407F03D02000FEF7CA
:1043400099F805E0200002F01BFD200002F019FDA5
:10435000002020772068006900071AD52068C0680F
:10436000000716D57FF00800216808610420207737
:104370002068C06910F0030F03D02000FEF77AF820
:1043800005E0200002F0FCFC200002F0FAFC002016
:10439000207720680069C0061AD52068C068C0066A
:1043A00016D57FF01000216808610820207720686A
:1043B000C06910F4407F03D02000FEF75BF805E0F1
:1043C000200002F0DDFC200002F0DBFC0020207762
:1043D00020680069C0070AD52068C068C00706D5F4
:1043E0007FF0010021680861200002F0CBFC20680A
:1043F000006900060AD52068C068000606D57FF06F
:10440000800021680861200002F0BDFC206800697E
:10441000C0050AD52068C068000606D57FF4807004
:1044200021680861200002F0AFFC206800694006A6
:104430000AD52068C068400606D57FF04000216894
:104440000861200002F0A1FC2068006980060AD5FE
:104450002068C068800606D57FF0200021680861CA
:10446000200002F093FC10BD70B505000E00140092
:1044700095F83C00012801D1022059E0012085F87F
:104480003C00002C12D1F36872683168286800F093
:10449000D0FA2868806930F00C00296888612868A3
:1044A0008169B0680143286881613DE0042C13D123
:1044B000F36872683168286800F0F5FA2868806946
:1044C00030F440602968886128688069B16850EAE2
:1044D00001202968886127E0082C12D1F3687268EE
:1044E0003168286800F0FAFA2868C06930F00C00DA
:1044F0002968C8612868C169B06801432868C1613A
:1045000012E0F36872683168286800F001FB2868DF
:10451000C06930F440602968C8612868C069B16822
:1045200050EA01202968C861002085F83C0000207D
:1045300070BD70B504000D00160094F83C00012811
:1045400001D10220A1E0012084F83C0030000028C5
:104550000AD004281FD0082835D00C284AD01028AB
:1045600060D0142875D08CE02900206800F0F3F8A2
:104570002068806950F0080021688861206880699F
:1045800030F004002168886120688169286901434E
:104590002068816175E02900206800F02CF920680E
:1045A000806950F40060216888612068806930F477
:1045B00080602168886120688069296950EA01204B
:1045C000216888615DE02900206800F05EF92068BC
:1045D000C06950F008002168C8612068C06930F0E7
:1045E00004002168C8612068C16928690143206806
:1045F000C16146E02900206800F08EF92068C0699A
:1046000050F400602168C8612068C06930F480609F
:104610002168C8612068C069296950EA01202168C1
:10462000C8612EE02900206800F0AAF92068406DDA
:1046300050F00800216848652068406D30F00400A3
:10464000216848652068416D2869014320684165FB
:1046500017E02900206800F0BFF92068406D50F491
:104660000060216848652068406D30F480602168F2
:1046700048652068406D296950EA01202168486535
:10468000FFE7002084F83C00002070BD0368DFF8DD
:10469000B824904212D0B0F1804F0FD0DFF8AC2494
:1046A00090420BD0DFF8A824904207D0DFF8A42472
:1046B000904203D0DFF8A024904203D133F070037E
:1046C0004A681343DFF8802490421ED0B0F1804F37
:1046D0001BD0DFF87824904217D0DFF87424904282
:1046E00013D0DFF8702490420FD0DFF86C24904292
:1046F0000BD0DFF86824904207D0DFF864249042A2
:1047000003D0DFF86024904203D133F44073CA68C9
:10471000134333F080034A69134303608A68C2621B
:104720000A688262DFF8202490420FD0DFF8282444
:1047300090420BD0DFF82424904207D0DFF82024E9
:10474000904203D0DFF81C24904201D10A69026331
:1047500001224261704730B4026A5208520002627C
:10476000056A43688469DFF800241440A408A400A3
:104770000A68144335F002058A681543DFF8C82338
:1047800090420FD0DFF8D02390420BD0DFF8CC233B
:10479000904207D0DFF8C823904203D0DFF8C4234B
:1047A000904205D135F00805CA68154335F0040577
:1047B000DFF8942390420FD0DFF89C2390420BD077
:1047C000DFF89823904207D0DFF89423904203D07B
:1047D000DFF89023904207D133F4807333F40073F1
:1047E0004A6913438A691343436084614A68426398
:1047F000056230BC704730B4026A32F010020262C7
:10480000056A43688469DFF86423144034F4407413
:104810000A6854EA022435F020058A6855EA021530
:10482000DFF82423904203D0DFF82C23904206D1F6
:1048300035F08005CA6855EA021535F04005DFF805
:10484000082390420FD0DFF8102390420BD0DFF8FE
:104850000C23904207D0DFF80823904203D0DFF802
:104860000423904209D133F4806333F400634A692E
:1048700053EA82038A6953EA8203436084614A6887
:104880008263056230BC7047000030B4026A32F4C3
:1048900080720262056A4368C46934F07004A40837
:1048A000A4000A68144335F400758A6855EA0225A5
:1048B000DFF89422904203D0DFF89C22904206D188
:1048C00035F40065CA6855EA022535F48065DFF8DD
:1048D000782290420FD0DFF8802290420BD0DFF890
:1048E0007C22904207D0DFF87822904203D0DFF894
:1048F0007422904209D133F4805333F400534A694F
:1049000053EA02138A6953EA02134360C4614A6896
:10491000C263056230BC704730B4026A32F4805220
:104920000262036A4468C26932F4E04232F44072BF
:104930000D6852EA052233F400538D6853EA0533BB
:10494000DFF80452A8420FD0DFF80C52A8420BD077
:10495000DFF80852A84207D0DFF80452A84203D07B
:10496000DFF80052A84204D134F480444D6954EA7F
:1049700085144460C2614D680564036230BC7047B1
:1049800030B4026A32F480320262046A4568436DD0
:1049900033F070030A68134334F400348A6854EA2D
:1049A0000244694A90420BD06B4A904208D06B4A4D
:1049B000904205D06A4A904202D06A4A904204D19D
:1049C00035F480354A6955EA0225456043654A68F1
:1049D0008265046230BC704730B4026A32F48012DF
:1049E0000262036A4468426D32F4E0420D6852EAA2
:1049F000052233F400138D6853EA0553524DA84243
:104A00000BD0554DA84208D0544DA84205D0544D66
:104A1000A84202D0534DA84204D134F400344D6969
:104A200054EA8524446042654D68C565036230BC24
:104A3000704770B4046A6408640004628569066A99
:104A4000414CA04214D0B0F1804F11D03F4CA04255
:104A50000ED03F4CA0420BD03E4CA04208D03E4C62
:104A6000A04205D0424CA04202D03C4CA04201D111
:104A7000012400E00024E4B2002C03D0AD08AD0016
:104A8000154301E055F0010535F0F0051C0114F067
:104A9000F004254336F00A0611F00A042643856126
:104AA000066270BC704770B4046A34F0100404628B
:104AB0008469056A34F4407454EA022434F470447E
:104AC0001E0316F47046344335F0A0050E0116F0AF
:104AD000A00635438461056270BC704770B4046AF7
:104AE00034F480740462C469056AA408A400144301
:104AF00034F0F0041E0116F0F006344335F420655E
:104B00000E0216F420663543C461056270BC70471E
:104B100070B4046A34F480540462C469056A34F4DD
:104B2000407454EA022434F470441E0316F47046B0
:104B3000344335F420450E0316F420463543C46152
:104B4000056270BC70470000000001400004004096
:104B500000080040000C00400004014000400140FB
:104B600000440140004801408FFFFEFFFF8FFFFE21
:104B70000018004030B4012411F01F0314FA03F3AD
:104B8000046A9C430462046A11F01F0512FA05F5D9
:104B90002C43046230BC704762F30F2262F31F4261
:104BA000401810F0030308D0C91A1FD3DB0748BF11
:104BB00000F8012D28BF20F8022D130030B4144650
:104BC0001546103928BF20E93C00FAD8490728BF0C
:104BD00020E90C0048BF40F8042D890028BF20F8C8
:104BE000022D48BF00F8012D30BC7047C91818BF0E
:104BF00000F8012DCB0728BF00F8012D70470000F9
:104C000038B50400DFF88C00006810F007000628B3
:104C10000AD0DFF88000006810F03F00A04201D009
:104C2000012035E0002033E0DFF8680000688009EB
:104C300080012043DFF85C100860FDF743F80500B1
:104C4000DFF854000068800408D4FDF73BF8401BEF
:104C500040F2E9318842F3D3012019E01E2C05D03F
:104C60002E2C03D01D2C01D02D2C10D1FDF72AF8AD
:104C70000500DFF820000068C00308D4FDF722F823
:104C8000401B40F2E9318842F3D3012000E00020CC
:104C900032BD00000C480258044802582DE9F84380
:104CA0000400002C01D1012060E32078C00740F10E
:104CB000B980DFF8BC06056815F03805DFF8B406E2
:104CC000D0F80090102D05D0182D0FD119F0030049
:104CD00002280BD1DFF8A0060068800340F1A28013
:104CE0006068002840F09E8001203FE36068B0F5D6
:104CF000803F08D1DFF88006006850F48030DFF88C
:104D0000781608606DE06068002818D1DFF8680642
:104D1000006830F48030DFF860160860DFF858066D
:104D2000006830F48010DFF850160860DFF848069D
:104D3000006830F48020DFF84016086051E06068B9
:104D4000B0F5A02F18D1DFF83006006850F48020AD
:104D5000DFF824160860DFF82006006830F48010C1
:104D6000DFF814160860DFF81006006850F4803091
:104D7000DFF80416086034E06068B0F5A81F18D1A9
:104D8000DFF8F405006850F48020DFF8EC150860C7
:104D9000DFF8E405006850F48010DFF8DC150860E7
:104DA000DFF8D405006850F48030DFF8CC150860D7
:104DB00017E0DFF8C405006830F48030DFF8B8157C
:104DC0000860DFF8B405006830F48020DFF8A8152B
:104DD0000860DFF8A405006830F48010DFF898154B
:104DE0000860606800280ED0FCF76CFF0600DFF852
:104DF00088050068800315D4FCF764FF801B6528D4
:104E0000F5D30320B2E2FCF75DFF0600DFF868058A
:104E10000068800306D5FCF755FF801B6528F5D395
:104E20000320A3E22078800764D5DFF844050568F5
:104E300015F03805DFF83C05D0F80090002D04D0BF
:104E4000182D18D119F0030F15D1DFF82C050068C3
:104E5000400704D5E068002801D1012086E2DFF890
:104E60001C05006830F0FE40216950EA0160DFF85F
:104E70000C1508603EE0E068002824D0DFF8F80454
:104E8000016831F01901E0680143DFF8EC040160CA
:104E9000FCF718FF0600DFF8E0040068400706D4BE
:104EA000FCF710FF801B0328F5D303205EE2DFF838
:104EB000CC04006830F0FE40216950EA0160DFF860
:104EC000BC14086016E0DFF8B00400684008400039
:104ED000DFF8A4140860FCF7F5FE0600DFF898047C
:104EE0000068400706D5FCF7EDFE801B0328F5D3CC
:104EF00003203BE22078C00663D5DFF87404056820
:104F000015F03805DFF86C04D0F80090082D05D0B6
:104F1000182D19D119F00300012815D1DFF8580414
:104F20000068C00504D5E069802801D001201DE299
:104F3000DFF84C04006830F07C50216A50EA0160D0
:104F4000DFF83C1408603CE0E069002822D0DFF87C
:104F50002804006850F08000DFF81C140860FCF79B
:104F6000B1FE0600DFF810040068C00506D4FCF7A7
:104F7000A9FE801B0328F5D30320F7E1DFF8000426
:104F8000006830F07C50216A50EA0160DFF8F013CD
:104F9000086016E0DFF8E003006830F08000DFF81A
:104FA000D8130860FCF78EFE0600DFF8CC0300681B
:104FB000C00506D5FCF786FE801B0328F5D3032029
:104FC000D4E12078000730D56069002816D0DFF8DA
:104FD000B403006850F00100DFF8A8130860FCF784
:104FE00071FE0600DFF89C03006880071DD4FCF703
:104FF00069FE801B0328F5D30320B7E1DFF88403A3
:10500000006840084000DFF87C130860FCF75AFE97
:105010000600DFF870030068800706D5FCF752FE33
:10502000801B0328F5D30320A0E12078800630D52B
:10503000A069002816D0DFF84003006850F48050C3
:10504000DFF834130860FCF73DFE0600DFF82803A4
:10505000006880041DD4FCF735FE801B0328F5D3BF
:10506000032083E1DFF81003006830F48050DFF89C
:1050700008130860FCF726FE0600DFF8FC02006853
:10508000800406D5FCF71EFE801B0328F5D3032001
:105090006CE12078400740F19580BB48006850F4EF
:1050A0008070B9490860FCF70DFE0500B64800683D
:1050B000C00506D4FCF706FE401B6528F6D3032086
:1050C00054E1A068012806D1B048006850F0010002
:1050D000AE49086053E0A068002812D1AB480068D0
:1050E00040084000A9490860A848006830F08000E6
:1050F000A6490860A548006830F00400A34908608C
:105100003DE0A068052812D1A048006850F00400D6
:105110009E4908609D48006830F080009B49086007
:105120009A48006850F001009849086027E0A0689C
:10513000852812D19548006850F004009349086012
:105140009248006850F08000904908608F480068DD
:1051500050F001008D49086011E08C48006840085B
:1051600040008A4908608948006830F00400874997
:1051700008608648006830F0800084490860A068B4
:1051800000280FD0FCF79EFD0600804800688007CD
:1051900018D4FCF797FD801B41F289318842F4D383
:1051A0000320E3E0FCF78EFD0600784800688007E6
:1051B00008D5FCF787FD801B41F289318842F4D382
:1051C0000320D3E0606A002800F0CF8068480068C0
:1051D00010F03800182800F09A80606A022840F029
:1051E00082806548006830F0807063490860FCF791
:1051F00069FD050060480068800106D5FCF762FD86
:10520000401B0328F6D30320B0E05A4801686048E9
:105210000140A06A0143E06A51EA0011554801606B
:10522000206B401EC005C00D616B491E490211F480
:105230007E410843A16B491E090411F4FE01084395
:10524000E16B491E090611F0FE410843514908600F
:1052500051480068400840004F4908604F480068C6
:105260006FF3CF00A16C50EAC1004C4908604A4876
:10527000016831F00C01206C014347480160464849
:10528000016831F00201606C01434348016042480B
:10529000006850F48030404908603F48006850F48E
:1052A00000303D4908603C48006850F480203A498D
:1052B00008603948006850F00100374908602E48FE
:1052C000006850F080702C490860FCF7FBFC060079
:1052D00029480068800148D4FCF7F4FC801B0328AF
:1052E000F6D3032042E02448006830F08070224961
:1052F0000860FCF7E7FC06001F480068800134D511
:10530000FCF7E0FC801B0328F6D303202EE01948AD
:10531000006807001F4800688046606A012822D0A4
:1053200017F00300A16A88421DD1C7F30510E16A96
:10533000884218D15FEAC850C00D216B491E8842CF
:1053400011D1C8F34620616B491E88420BD1C8F3C6
:105350000640A16B491E884205D1C8F30660E16B87
:10536000491E884201D0012000E00020BDE8F28300
:105370001044025828440258004402580444025879
:105380000C440258744402580048025870440258B1
:105390000CFCFFFF304402582C440258344402589D
:1053A000826832F47C120A4382607047826832F06D
:1053B000E0720A4382607047806810F0E0707047C6
:1053C00070B410F1600414EB8104256815F00045F9
:1053D00012F0F8461E433543256070BC704710B488
:1053E000036933F4F04311F01F0412FA04F4234369
:1053F000036110BC704710B410F1600313EB81031C
:105400001C6824F0004414431C6010BC704770B446
:1054100010F130040B009B0913F00C031C192568D4
:105420001F2611F01F039E40B543C2F3846611F09E
:105430001F039E403543256070BC704770B410F167
:1054400014030C00E40D14F00404E3181C68072591
:105450000E00360D16F01F06B540AC430D002D0DA5
:1054600015F01F0512FA05F52C431C6070BC70473F
:1054700030B4D0F8C0400B031B0B9C43DFF86832FC
:1054800012F01805EB400B401B031B0B1C43C0F82C
:10549000C04030BC70478268DFF850120A4082601A
:1054A00070478068400F10F0010070478268DFF895
:1054B00040120A4052F08052826070478068000FAC
:1054C00010F001007047806810F00100704780689C
:1054D000800810F0010070478068C00810F00100DB
:1054E00070472DE9FC4704005FF0000900200090A0
:1054F000002C01D10120F5E0E068002801D0207FD8
:105500000128606D002807D1200000F053FC002026
:10551000A065002084F850002068FFF7C2FF002833
:1055200002D02068FFF7B7FF2068FFF7C7FF002809
:1055300012D12068FFF7BAFFDFF8B8010068DFF882
:10554000B811B0FBF1F0401C00900098002803D087
:105550000098401E0090F8E72068FFF7AFFF002892
:1055600009D1606D50F010006065A06D50F0010031
:10557000A065012081462068FFF7A9FF0500606D46
:10558000C00600F1A780002D40F0A480606D30F4CB
:10559000807050F0020060652068FFF794FF0028DB
:1055A00010D1DFF85801FFF78EFF0600DFF8500139
:1055B000FFF789FF0643002E04D16168DFF844013C
:1055C000FFF7EEFE607D216B51EA4031A068014398
:1055D000207F51EA00418A46207F012803D1206ABA
:1055E000401E5AEA404A606A002807D0606A10F4F8
:1055F000787050EA0A0AA06A50EA0A0A2068C1686C
:10560000DFF8040101405AEA01012068C160206806
:10561000FFF75DFF07002068FFF75EFF804658EA4E
:10562000070000283CD1207DE16A51EA80318A469A
:105630002068C168DFF8D40001405AEA01012068FF
:10564000C16094F83800012819D1606A002802D09E
:10565000A06A0028FFD120680169DFF8B40001408A
:10566000E06B401E51EA0041206C0143606C014335
:10567000A06C014351F001012068016105E0206840
:10568000006940084000216808612068016921F034
:105690007041606B014320680161200000F03EFA18
:1056A000E068012809D12068006B00090001A169A8
:1056B000491E08432168086305E02068006B000963
:1056C000000121680863606D30F0020050F00100B5
:1056D000606505E0606D50F0100060650120814656
:1056E0004846C0B2BDE8F687FFFF0F00C0FFFF5F6E
:1056F000C0FFFF7F04000020400D03000020024097
:10570000002102400023024003C0F0FFFCBFFFFF66
:105710001EF800FC2DE9F84F070088465FF00009ED
:105720000020009097F838000128FFD0D8F80C002E
:10573000DFF8E414884207D13868DFF8DC138842C8
:105740003868DFF8D013884297F85000012801D15B
:105750000220DDE1012087F850003868FFF7B7FE2E
:10576000002840F0CA81D8F80000000304D1D8F81E
:105770000000C0F3846005E0D8F8000090FAA0F0C3
:10578000B0FA80F03968C969012210F01F0012FADE
:1057900000F008433968C861D8F80020D8F8041030
:1057A0003868FFF734FE3868FFF791FE0500386867
:1057B000FFF792FE060056EA0500002840F08480BC
:1057C000D8F80820D8F800103868FFF737FE386896
:1057D000C068C0060AD4D8F814A03868C068C0F3FE
:1057E0008200C0B240001AFA00FA0AE0D8F814A009
:1057F0003868C068800810F00400C0B240001AFA8F
:1058000000FAD8F81000042822D05346D8F8002017
:10581000D8F810103868FFF7D3FD98F81900012860
:1058200002D15FF0004200E00022D8F81010386882
:10583000FFF7E1FD98F81800012802D14FF400624B
:1058400000E00022D8F810103868FFF7C8FD3BE0F0
:105850003868006E10F0F840D8F80010B0EB816F97
:1058600005D13868006E20F0004039680866386855
:10587000406E10F0F840D8F80010B0EB816F05D101
:105880003868406E20F00040396848663868806E9D
:1058900010F0F840D8F80010B0EB816F05D13868EF
:1058A000806E20F00040396888663868C06E10F05D
:1058B000F840D8F80010B0EB816F05D13868C06EA1
:1058C00020F000403968C8663868FFF7FCFD002802
:1058D00040F01981D8F80C20D8F800103868FFF78C
:1058E000C7FDD8F80C00DFF83013884240F09B80E9
:1058F000D8F80000000304D1D8F80000C0F3846099
:1059000005E0D8F8000090FAA0F0B0FA80F0401C52
:1059100010F01F000A283FD2D8F80000000304D17D
:10592000D8F80000C0F3846105E0D8F8000090FAD0
:10593000A0F0B0FA80F1D8F80000000304D1D8F844
:105940000000C0F3846005E0D8F8000090FAA0F0F1
:10595000B0FA80F0D8F80020120304D1D8F8002063
:10596000C2F3846205E0D8F8002092FAA2F2B2FAFB
:1059700082F2491C890611F0F8410123401C10F005
:105980001F0013FA00F00143521C12F01F02032003
:10599000424351EA025141E0D8F80000000304D12B
:1059A000D8F80000C0F3846105E0D8F8000090FA50
:1059B000A0F0B0FA80F1D8F80000000304D1D8F8C4
:1059C0000000C0F3846005E0D8F8000090FAA0F071
:1059D000B0FA80F0D8F80020120304D1D8F80020E3
:1059E000C2F3846205E0D8F8002092FAA2F2B2FA7B
:1059F00082F2491C890611F0F8410123401C10F085
:105A00001F0013FA00F00143521C12F01F020A3A61
:105A10000320424351EA025151F00071D8F80820A6
:105A20003868FFF70BFDD8F8000000286BD5DFF8C9
:105A3000EC01FFF7C1FC0400DFF8DC00FFF743FDD9
:105A40008346DFF8D000FFF73EFD50EA0B0BBBF1B9
:105A5000000F4BD1D8F80000DFF8C41188421DD1E7
:105A600020021BD43868DFF8AC1088424BD154F4C4
:105A70000001DFF8A801FFF799FCDFF8A801006832
:105A8000DFF8A411B0FBF1F0401C4000009000983A
:105A9000002838D00098401E0090F8E7D8F80000A1
:105AA000DFF8881188420DD1E0010BD43868DFF8A7
:105AB0006410884227D154F08071DFF86001FFF74D
:105AC00075FC20E0D8F80000DFF8641188421AD194
:105AD000600218D43868DFF83C10884213D154F4BF
