:020000040800F2
:10000000E8070024757D00089D7B00089F7B0008A1
:10001000A17B0008A37B0008A57B0008000000006E
:10002000000000000000000000000000A77B0008A6
:10003000A97B000800000000AB7B0008AD7B000836
:10004000617E0008657E0008697E00086D7E0008FC
:10005000717E0008757E0008797E00087D7E0008AC
:10006000817E0008857E0008897E00088D7E00085C
:10007000917E0008957E0008997E00089D7E00080C
:10008000A17E0008A57E0008A97E0008AD7E0008BC
:10009000B17E0008B57E0008B97E0008BD7E00086C
:1000A000C17E0008C57E0008C97E0008CD7E00081C
:1000B000B57B0008BF7B0008C97B0008D17E000823
:1000C000D57E0008D97E0008DD7E0008E17E0008AC
:1000D000E57E0008E97E0008ED7E0008F17E00085C
:1000E000F57E0008F97E0008FD7E0008017F00080B
:1000F000057F0008097F00080D7F0008117F0008B8
:10010000157F0008197F00081D7F0008217F000867
:10011000257F0008297F00082D7F0008317F000817
:10012000357F0008397F00083D7F0008417F0008C7
:10013000457F00080000000000000000497F000823
:100140004D7F0008517F0008557F0008597F000847
:100150005D7F0008617F0008657F0008697F0008F7
:100160006D7F0008717F0008757F0008797F0008A7
:100170007D7F0008817F0008857F00080000000067
:10018000897F00088D7F0008917F0008957F000817
:10019000997F00089D7F0008A17F0008A57F0008C7
:1001A000A97F0008AD7F0008B17F0008B57F000877
:1001B000B97F0008BD7F0008C17F0008C57F000827
:1001C000C97F0008CD7F000800000000000000008B
:1001D0000000000000000000D17F000800000000C7
:1001E000000000000000000000000000000000000F
:1001F0000000000000000000D57F0008D97F000843
:10020000DD7F0008E17F000800000000E57F0008B6
:10021000E97F0008ED7F0008F17F0008F57F000806
:10022000F97F0008FD7F0008018000080000000041
:100230000580000809800008000000000D8000080B
:100240001180000815800008198000081D80000832
:100250002180000825800008298000082D800008E2
:100260003180000835800008398000083D80000892
:100270004180000845800008498000080000000017
:100280004D800008518000080000000055800008E3
:1002900000000000598000085D8000080000000098
:1002A0000000000061800008658000082DE9F04131
:1002B000040000275FF000082068000135D5A06E1B
:1002C000002809D0B0F5801F0FD0B0F5001F12D064
:1002D000B0F5401F16D016E0DFF8840A006850F42D
:1002E0000030DFF87C1A08600FE00221201D01F0C9
:1002F0009FFB070009E0022114F1240001F034FC07
:10030000070002E001E0012007003800C0B2002829
:100310000AD1DFF8500A016831F44011A06E0143A0
:10032000DFF8400A016000E0B8462068C00533D518
:10033000606D002806D0022813D00CD3042818D0F2
:1003400016D317E0DFF8180A006850F40030DFF821
:10035000101A086010E00021201D01F069FB070061
:100360000AE0002114F1240001F0FEFB070003E085
:1003700002E001E0012007003800C0B200280AD1E5
:10038000DFF8E0090168C908C900606D0143DFF8C2
:10039000D409016000E0B846206880053AD5A06D18
:1003A00000280CD0402813D0802817D0C0281CD09B
:1003B000B0F5807F1AD0B0F5A07F18D018E0DFF834
:1003C000A009006850F40030DFF89419086011E0CB
:1003D0000021201D01F02CFB07000BE0002114F18F
:1003E000240001F0C1FB070004E003E002E001E0AB
:1003F000012007003800C0B200280AD1DFF86409E4
:10040000016831F4E071A06D0143DFF85809016023
:1004100000E0B846206840053DD5E06D00280FD0CB
:10042000B0F5007F15D0B0F5806F18D0B0F5C06F73
:100430001CD0B0F5006F1AD0B0F5206F18D018E0BE
:10044000DFF81C09006850F40030DFF81419086068
:1004500011E00021201D01F0EBFA07000BE0002164
:1004600014F1240001F080FB070004E003E002E047
:1004700001E0012007003800C0B200280AD1DFF8EF
:10048000E408016831F46061E06D0143DFF8D408ED
:10049000016000E0B846206880012CD5A06C0028DF
:1004A00016D0102804D020280BD030280FD010E010
:1004B000DFF8AC08006850F40030DFF8A4180860DA
:1004C00009E00221201D01F0B3FA070003E002E079
:1004D00001E0012007003800C0B200280AD1DFF88F
:1004E0008808016831F03001A06C0143DFF878081A
:1004F000016000E0B8462068C00439D5206E0028AD
:100500000CD0B0F5805F12D0B0F5005F15D0B0F51B
:10051000405F19D0B0F5804F17D017E0DFF84008E2
:10052000006850F40030DFF83818086010E000214F
:10053000201D01F07DFA07000AE0002114F12400DB
:1005400001F012FB070003E002E001E001200700D8
:100550003800C0B200280AD1DFF80808016831F479
:10056000E041206E0143DFF8FC07016000E0B8467F
:100570002068800435D5606E00280FD0B0F5803F2C
:100580000DD0B0F5003F10D0B0F5403F14D0B0F51D
:10059000802F12D0B0F5A02F10D010E011E0012173
:1005A000201D01F045FA07000BE0012114F12400A1
:1005B00001F0DAFA070004E003E002E001E00120C4
:1005C00007003800C0B200280AD1DFF89807016898
:1005D00031F4E021606E0143DFF88807016000E03C
:1005E000B846206840043BD5D4F8AC00002812D0AF
:1005F000B0F1805F10D0B0F1005F13D0B0F1405F78
:1006000017D0B0F1804F15D0B0F1A04F13D0B0F19A
:10061000C04F11D011E012E00121201D01F008FAB5
:1006200007000CE0012114F1240001F09DFA0700FD
:1006300005E004E003E002E001E0012007003800EB
:10064000C0B200280BD1DFF82407016831F0E04187
:10065000D4F8AC000143DFF81407016000E0B846AD
:10066000206800042BD5606F002815D0B0F1805FA2
:1006700003D0B0F1005F09D00FE0DFF8E4060068B6
:1006800050F40030DFF8D816086008E00121201D82
:1006900001F0CEF9070002E001E001200700380078
:1006A000C0B200280AD1DFF8BC06016831F0405121
:1006B000606F0143DFF8AC06016000E0B8462068D7
:1006C000C0012BD5606C002815D002280CD002D3B5
:1006D00003280FD010E0DFF88806006850F40030DF
:1006E000DFF87C16086009E00221201D01F0A0F966
:1006F000070003E002E001E0012007003800C0B27B
:1007000000280AD1DFF86006016889088900606C5A
:100710000143DFF85406016000E0B846206840025B
:1007200040F18780DFF84806006850F48070DFF8F9
:100730004016086001F0C6FA0600DFF834060068CB
:10074000C00506D401F0BEFA801B6528F5D303204E
:1007500007003800C0B200286AD1DFF81806006828
:1007600010F44070D4F8B01011F44071884218D0E1
:10077000DFF80006006830F440700500DFF8F4058B
:10078000006850F48030DFF8EC150860DFF8E4050D
:10079000006830F48030DFF8DC150860DFF8D4053D
:1007A0000560D4F8B000B0F5807F10D101F08AFA6E
:1007B0000600DFF8C0050068800708D401F082FA5F
:1007C000801B41F289318842F3D3032007003800AF
:1007D000C0B200282AD1D4F8B00010F44070B0F5AF
:1007E000407F0FD1DFF89005006830F47C50D4F8DA
:1007F000B010DFF8882512EA11121043DFF87815DF
:10080000086007E0DFF87005006830F47C50DFF81E
:1008100068150860DFF85C050068D4F8B0100905B9
:10082000090D0843DFF84C15086002E0B84600E007
:10083000B8462078C00732D5D4F8800000280AD006
:10084000082809D010280DD0182812D0202811D03F
:10085000282810D010E011E00121201D01F0E8F857
:1008600007000BE0012114F1240001F07DF90700DD
:1008700004E003E002E001E0012007003800C0B21C
:1008800000280BD1DFF8F804016831F03801D4F802
:1008900080000143DFF8E804016000E0B8462078FA
:1008A00080072ED5E06F002808D002280DD006D38F
:1008B000042812D010D3052810D010E011E0012137
:1008C000201D01F0B5F807000BE0012114F1240010
:1008D00001F04AF9070004E003E002E001E0012032
:1008E00007003800C0B200280AD1DFF8940401687C
:1008F000C908C900E06F0143DFF88404016000E02B
:10090000B8462078400730D5D4F89800002808D0A1
:1009100002280DD006D3042812D010D3052810D0F9
:1009200010E011E00121201D01F082F807000BE02A
:10093000012114F1240001F017F9070004E003E09D
:1009400002E001E0012007003800C0B200280BD10E
:10095000DFF818040168C908C900D4F898000143F9
:10096000DFF80804016000E0B8462078800637D53B
:10097000D4F8940000280FD0B0F1805F0DD0B0F112
:10098000005F10D0B0F1405F14D0B0F1804F12D0B2
:10099000B0F1A04F10D010E011E00021201D01F0B7
:1009A00047F807000BE0022114F1240001F0DCF805
:1009B000070004E003E002E001E001200700380046
:1009C000C0B200280BD1DFF8B803016831F0E04174
:1009D000D4F894000143DFF8A803016000E0B846B2
:1009E0002078400637D5D4F8A00000280FD0B0F505
:1009F000806F0DD0B0F5006F10D0B0F5406F14D0FF
:100A0000B0F5805F12D0B0F5A05F10D010E011E01B
:100A10000021201D01F00CF807000BE0022114F169
:100A2000240001F0A1F8070004E003E002E001E087
:100A3000012007003800C0B200280BD1DFF82C03DA
:100A4000016831F4E051D4F8A0000143DFF81C0341
:100A5000016000E0B8462078000637D5D4F8A4003D
:100A600000280FD0B0F5005F0DD0B0F5804F10D04A
:100A7000B0F5C04F14D0B0F5004F12D0B0F5204FF4
:100A800010D010E011E00021201D00F0D1FF070080
:100A90000BE0022114F1240001F066F8070004E0E5
:100AA00003E002E001E0012007003800C0B20028A6
:100AB0000BD1DFF8B802016831F46041D4F8A4002A
:100AC0000143DFF8A802016000E0B8462078000783
:100AD00018D5D4F88800B0F5805F08D1022114F150
:100AE000240001F041F8002801D001208046DFF801
:100AF0009002016831F44051D4F888000143DFF8D6
:100B0000800201602078C00618D5D4F89C00B0F5AA
:100B1000807F08D1022114F1240001F025F800287B
:100B200001D001208046DFF84402016831F44071B1
:100B3000D4F89C000143DFF8340201602068000310
:100B40002BD5D4F8A800002806D0B0F5803F09D0F6
:100B5000B0F5003F0DD00DE00021201D00F068FF32
:100B6000070009E0022114F1240000F0FDFF070056
:100B700002E001E0012007003800C0B200280BD1DC
:100B8000DFF8E801016831F44031D4F8A8000143EE
:100B9000DFF8D801016000E0B846206840032DD599
:100BA000D4F88C00B0F5801F06D0B0F5001F0AD035
:100BB000B0F5401F0ED00EE06948006850F40030D8
:100BC0006749086009E0012114F1240000F0CCFF1E
:100BD000070002E001E0012007003800C0B2002851
:100BE0000BD1DFF89C01016831F44011D4F88C007E
:100BF0000143DFF88C01016000E0B8462068C003C3
:100C000025D5E06C002803D0B0F5803F07D00CE07C
:100C10005348006850F400305149086007E0022151
:100C2000201D00F005FF070001E00120070038004B
:100C3000C0B200280AD1DFF83001016831F48031F8
:100C4000E06C0143DFF82001016000E0B846206855
:100C5000800008D5022114F1240000F085FF00284F
:100C600001D0012080462068800328D5D4F8840074
:100C7000002812D0B0F5807F06D0B0F5007F0AD0F2
:100C8000B0F5407F08D009E03548006850F40030E6
:100C90003349086004E003E002E001E001200700BE
:100CA0003800C0B2002809D13548016831F44071DC
:100CB000D4F8840001433248016000E0B84620685F
:100CC000C00207D52748016821F00041A06F014309
:100CD000244801602068800207D52248016831F06D
:100CE0008071E06E01431F4801602068000507D550
:100CF0001E48016831F00061206F01431B4801600C
:100D0000206840000CD51C48006830F400401A49A7
:100D1000086019480168D4F8B4000143164801601E
:100D20002068002807D51048016831F04051206D37
:100D300001430D4801602068000208D51048016891
:100D400031F44001D4F8900001430D480160404661
:100D5000C0B2002801D1002000E00120BDE8F081F0
:100D60002C440258504402584C44025858440258EB
:100D7000004802587044025810440258CFFFFF0048
:100D800054440258F0B589B00500B5F5807F65D1AF
:100D9000DFF8340A006810F007000600002E06D0C5
:100DA000022E1CD00FD3042E25D052D354E0DFF8EE
:100DB0005C0C0068800104D506A800F013FD0798BC
:100DC00000E00020B7E2DFF8440C0068000104D521
:100DD000684600F0C3FA009800E00020ABE2DFF8BC
:100DE0002C0C0068800004D503A800F0D7FB039802
:100DF00000E000209FE2DFF8E409006810F04050B6
:100E00000400DFF8080C006840070AD5002C08D160
:100E1000DFF8FC0BDFF8F41B0968C1F3C101C8401F
:100E200016E0DFF8E80B0068C00505D5B4F1805F77
:100E300002D1DFF8AC090BE0DFF8D00B00688003CB
:100E400005D5B4F1005F02D1DFF8C80B00E0002047
:100E500071E2DFF8C40B6EE200206CE2B5F5007FB2
:100E600069D1DFF86409006810F4E0700600300012
:100E7000002809D0402813D080281DD0C02855D084
:100E8000B0F5807F24D054E0DFF8800B006880014B
:100E900004D506A800F0A6FC079800E000204AE26E
:100EA000DFF8680B0068000104D5684600F056FAC8
:100EB000009800E000203EE2DFF8500B0068800060
:100EC00004D503A800F06AFB039800E0002032E29A
:100ED000DFF80809006810F040500400DFF82C0B20
:100EE000006840070AD5002C08D1DFF8240BDFF892
:100EF0001C1B0968C1F3C101C84016E0DFF80C0BE8
:100F00000068C00505D5B4F1805F02D1DFF8D008D4
:100F10000BE0DFF8F80A0068800305D5B4F1005F44
:100F200002D1DFF8F00A00E0002004E2DFF8E80A6E
:100F300001E20020FFE1B5F5806F6CD1DFF8880891
:100F4000006810F460600600300000280CD0B0F596
:100F5000007F15D0B0F5806F1ED0B0F5C06F55D0B2
:100F6000B0F5006F24D054E0DFF8A00A00688001DB
:100F700004D506A800F036FC079800E00020DAE16E
:100F8000DFF8880A0068000104D5684600F0E6F939
:100F9000009800E00020CEE1DFF8700A00688000D1
:100FA00004D503A800F0FAFA039800E00020C2E19B
:100FB000DFF82808006810F040500400DFF84C0A01
:100FC000006840070AD5002C08D1DFF8440ADFF892
:100FD0003C1A0968C1F3C101C84016E0DFF82C0AC9
:100FE0000068C00505D5B4F1805F02D1DFF8F007D5
:100FF0000BE0DFF8180A0068800305D5B4F1005F44
:1010000002D1DFF8100A00E0002094E1DFF8080ABE
:1010100091E100208FE1B5F5805F6CD1DFF8A80782
:10102000006810F4E0400700380000280CD0B0F54C
:10103000805F15D0B0F5005F1ED0B0F5405F55D091
:10104000B0F5804F24D054E0DFF8C009006880017B
:1010500004D506A800F0C6FB079800E000206AE16E
:10106000DFF8A8090068000104D5684600F076F9A9
:10107000009800E000205EE1DFF890090068800041
:1010800004D503A800F08AFA039800E0002052E19A
:10109000DFF84807006810F040500400DFF86C09E2
:1010A000006840070AD5002C08D1DFF86409DFF892
:1010B0005C190968C1F3C101C84016E0DFF84C09AA
:1010C0000068C00505D5B4F1805F02D1DFF81007D4
:1010D0000BE0DFF838090068800305D5B4F1005F44
:1010E00002D1DFF8300900E0002024E1DFF8280910
:1010F00021E100201FE1B5F5002F57D1DFF82C09C1
:10110000006810F4403007003800002806D0B0F521
:10111000803F0FD0B0F5003F18D045E0DFF8EC0875
:101120000068000104D5684600F018F9009800E056
:10113000002000E1DFF8D4080068800004D503A88F
:1011400000F02CFA059800E00020F4E0DFF88C06AF
:10115000006810F040500400DFF8B0080068400755
:101160000AD5002C08D1DFF8A808DFF8A018096814
:10117000C1F3C101C84016E0DFF890080068C0055F
:1011800005D5B4F1805F02D1DFF854060BE0DFF83B
:101190007C080068800305D5B4F1005F02D1DFF858
:1011A000740800E00020C6E00020C4E0B5F5803FF0
:1011B00026D1DFF82806006810F4803007003800D8
:1011C000002803D0B0F5803F0CD017E0DFF83C08D2
:1011D0000068800104D506A800F004FB079800E031
:1011E0000020A8E0DFF824080068000104D5684664
:1011F00000F0B4F8029800E000209CE000209AE0A3
:10120000B5F5804F5FD1DFF82408006810F0E040AA
:1012100007003800002812D0B0F1805F12D0B0F182
:10122000005F1BD0B0F1405F24D0B0F1804F31D0CF
:10123000B0F1A04F38D0B0F1C04F3FD041E000F046
:101240007CF878E0DFF8C4070068000104D5684640
:1012500000F084F8019800E000206CE0DFF8AC07B3
:101260000068800004D503A800F098F9049800E015
:10127000002060E0DFF894070068400708D5DFF839
:101280009007DFF888170968C1F3C101C84000E082
:10129000002050E0DFF874070068C00502D5DFF8D1
:1012A000400500E0002046E0DFF8600700688003AA
:1012B00002D5DFF8600700E000203CE0DFF85807C7
:1012C00039E0002037E0B5F5004F33D1DFF8F804FE
:1012D000006810F0405007003800002806D0B0F138
:1012E000805F0DD0B0F1005F16D021E0DFF81C0761
:1012F0000068800302D5DFF81C0700E000201AE038
:10130000DFF808070068800104D506A800F06AFA33
:10131000079800E000200EE0DFF8F006006800010A
:1013200004D5684600F01AF8019800E0002002E0B9
:10133000002000E0002009B0F0BD80B500F05FFFA4
:10134000DFF82018DFF850291268C2F30212895C16
:1013500011F01F01C84002BD0000000030B48C49EC
:101360000A6812F003028A490968C1F305318A4B01
:101370001B68C3F30013DFF824492468C4F3CC04CA
:1013800004FB03F401EE104AB8EE411A002900F004
:10139000F080002A03D0022A72D051D390E0DFF807
:1013A0006C462468A4062BD5DFF86446DFF85C564B
:1013B0002D68C5F3C105EC4001EE904AB0EE610A1C
:1013C000F8EE401A02EE101AB8EE422AC1EE821A66
:1013D000DFF8CC482468E405E40D02EE104AB8EECC
:1013E000422ADFED682AC1EE222A32EE222AF7EEE7
:1013F000002A32EE222A61EE821AF0EE610A1EE025
:1014000001EE901AF8EE611A9FED5F2AC2EE211AE2
:10141000DFF88C482468E405E40D02EE104AB8EECB
:10142000422ADFED582AC1EE222A32EE222AF7EEB6
:10143000002A32EE222A61EE821AF0EE610A5EE0A4
:1014400001EE901AF8EE611A9FED502AC2EE211AB1
:10145000DFF84C482468E405E40D02EE104AB8EECB
:10146000422ADFED482AC1EE222A32EE222AF7EE86
:10147000002A32EE222A61EE821AF0EE610A3EE084
:1014800001EE901AF8EE611A9FED422AC2EE211A7F
:10149000DFF80C482468E405E40D02EE104AB8EECB
:1014A000422ADFED382AC1EE222A32EE222AF7EE56
:1014B000002A32EE222A61EE821AF0EE610A1EE064
:1014C00001EE901AF8EE611A9FED302AC2EE211A51
:1014D000DFF8CC472468E405E40D02EE104AB8EECC
:1014E000422ADFED282AC1EE222A32EE222AF7EE26
:1014F000002A32EE222A61EE821AF0EE610ADFF84B
:10150000A0472468C4F3462401EE904AF8EE611A1D
:10151000B7EE002A71EE821AC0EEA11AFCEEE11AB3
:10152000C0ED001ADFF878472468C4F3064401EEE2
:10153000904AF8EE611AB7EE002A71EE821AC0EEF8
:10154000A11AFCEEE11AC0ED011ADFF85447246835
:10155000C4F3066401EE904AF8EE611AB7EE002A71
:1015600071EE821AC0EEA11AFCEEE11AC0ED021A69
:1015700005E000240460002444600024846030BC42
:1015800070470000000000460024744C0024744A98
:1015900028440258001BB74B2C44025830B4DFF8E3
:1015A00004170A6812F00302DFF8F8160968C1F39D
:1015B0000551DFF8F4361B68C3F30023DFF8EC466F
:1015C0002468C4F3CC0404FB03F401EE104AB8EE23
:1015D000411A002900F0F080002A03D0022A72D0BC
:1015E00051D390E0DFF824442468A4062BD5DFF81B
:1015F0002044DFF818542D68C5F3C105EC4001EE16
:10160000904AB0EE610AF8EE401A02EE101AB8EEF7
:10161000422AC1EE821ADFF898462468E405E40DF8
:1016200002EE104AB8EE422ADFED682AC1EE222A05
:1016300032EE222AF7EE002A32EE222A61EE821AD8
:10164000F0EE610A1EE001EE901AF8EE611A9FEDCD
:10165000602AC2EE211ADFF858462468E405E40D3A
:1016600002EE104AB8EE422ADFED582AC1EE222AD5
:1016700032EE222AF7EE002A32EE222A61EE821A98
:10168000F0EE610A5EE001EE901AF8EE611A9FED4D
:10169000512AC2EE211ADFF818462468E405E40D49
:1016A00002EE104AB8EE422ADFED482AC1EE222AA5
:1016B00032EE222AF7EE002A32EE222A61EE821A58
:1016C000F0EE610A3EE001EE901AF8EE611A9FED2D
:1016D000422AC2EE211ADFF8D8452468E405E40D59
:1016E00002EE104AB8EE422ADFED382AC1EE222A75
:1016F00032EE222AF7EE002A32EE222A61EE821A18
:10170000F0EE610A1EE001EE901AF8EE611A9FED0C
:10171000312AC2EE211ADFF898452468E405E40D69
:1017200002EE104AB8EE422ADFED282AC1EE222A44
:1017300032EE222AF7EE002A32EE222A61EE821AD7
:10174000F0EE610ADFF868452468C4F3462401EE30
:10175000904AF8EE611AB7EE002A71EE821AC0EED6
:10176000A11AFCEEE11AC0ED001ADFF84445246826
:10177000C4F3064401EE904AF8EE611AB7EE002A6F
:1017800071EE821AC0EEA11AFCEEE11AC0ED011A48
:10179000DFF81C452468C4F3066401EE904AF8EEB5
:1017A000611AB7EE002A71EE821AC0EEA11AFCEEA1
:1017B000E11AC0ED021A05E0002404600024446030
:1017C0000024846030BC704750440258000000463A
:1017D0000024744C0024744A001BB74B4C4402583C
:1017E00000093D0030B4DFF8BC140A6812F00302AF
:1017F000DFF8B0140968C1F30511DFF8AC341B68D9
:1018000013F00103DFF8AC442468C4F3CC0404FBF8
:1018100003F401EE104AB8EE411A002900F0EE8000
:10182000002A03D0022A70D04FD38EE0774C246870
:10183000A4062AD5DFF88044744D2D68C5F3C10590
:10184000EC4001EE904AB0EE610AF8EE401A02EE6A
:10185000101AB8EE422AC1EE821ADFF860442468FA
:10186000E405E40D02EE104AB8EE422ADFED6B2AE1
:10187000C1EE222A32EE222AF7EE002A32EE222A86
:1018800061EE821AF0EE610A1EE001EE901AF8EEA7
:10189000611A9FED632AC2EE211ADFF82044246802
:1018A000E405E40D02EE104AB8EE422ADFED5B2AB1
:1018B000C1EE222A32EE222AF7EE002A32EE222A46
:1018C00061EE821AF0EE610A5EE001EE901AF8EE27
:1018D000611A9FED542AC2EE211ADFF8E043246812
:1018E000E405E40D02EE104AB8EE422ADFED4B2A81
:1018F000C1EE222A32EE222AF7EE002A32EE222A06
:1019000061EE821AF0EE610A3EE001EE901AF8EE06
:10191000611A9FED452AC2EE211ADFF8A043246820
:10192000E405E40D02EE104AB8EE422ADFED3B2A50
:10193000C1EE222A32EE222AF7EE002A32EE222AC5
:1019400061EE821AF0EE610A1EE001EE901AF8EEE6
:10195000611A9FED332AC2EE211ADFF86043246832
:10196000E405E40D02EE104AB8EE422ADFED2B2A20
:10197000C1EE222A32EE222AF7EE002A32EE222A85
:1019800061EE821AF0EE610ADFF830432468C4F396
:10199000462401EE904AF8EE611AB7EE002A71EE85
:1019A000821AC0EEA11AFCEEE11AC0ED001ADFF8AF
:1019B0000C432468C4F3064401EE904AF8EE611A21
:1019C000B7EE002A71EE821AC0EEA11AFCEEE11AFF
:1019D000C0ED011ADFF8E4422468C4F3066401EEA6
:1019E000904AF8EE611AB7EE002A71EE821AC0EE44
:1019F000A11AFCEEE11AC0ED021A05E00024046011
:101A0000002444600024846030BC704700440258C5
:101A10000090D00300366E010080BB00000000463D
:101A20000024744C0024744A001BB74B58440258DD
:101A30002DE9F04105000C0000269A48006810F0DE
:101A40000300032801D1012088E09D48006830F0A0
:101A500080609B49086000F035F9070098480068ED
:101A6000000106D500F02EF9C01B0328F6D3032091
:101A700074E08C48006830F47C30296850EA01300A
:101A8000884908606868401EC005C00DA968491EE5
:101A9000490211F47E410843E968491E090411F422
:101AA000FE0108432969491E090611F0FE41084359
:101AB0007B4908607C48016831F0C00168690143D6
:101AC000794801607848016831F02001A869014334
:101AD000754801607448006830F010007249086071
:101AE0006E4800686FF3CF00E96950EAC1006B49A6
:101AF00008606D48006850F010006B490860002CC9
:101B000006D16948006850F40020674908600EE07B
:101B1000012C06D16448006850F4801062490860C6
:101B200005E06148006850F400105F4908606448AF
:101B3000006850F080606249086000F0C3F8804699
:101B40005F480068000107D400F0BCF8B0EB080063
:101B50000328F5D3032001E03000C0B2BDE8F081D6
:101B600000000000647D00082DE9F04105000C0034
:101B700000264C48006810F00300032801D1012022
:101B800088E04F48006830F080504D49086000F010
:101B900099F807004A480068800006D500F092F8DE
:101BA000C01B0328F6D3032074E03E48006830F0E1
:101BB0007C70296850EA01503A4908606868401E04
:101BC000C005C00DA968491E490211F47E410843B1
:101BD000E968491E090411F4FE0108432969491EF8
:101BE000090611F0FE410843314908602E4801689A
:101BF00031F44061686901432B4801602A4801685B
:101C000031F40071A8690143274801602648006843
:101C100030F4807024490860244800686FF3CF00D6
:101C2000E96950EAC100214908601F48006850F482
:101C300080701D490860002C06D11B48006850F4D4
:101C40008000194908600EE0012C06D11648006892
:101C500050F400001449086005E01348006850F093
:101C60008070114908601648006850F0805014498F
:101C7000086000F027F8804611480068800007D40B
:101C800000F020F8B0EB08000328F5D3032001E0B2
:101C90003000C0B2BDE8F081204402583C440258F4
:101CA00038440258284402582C44025844440258EC
:101CB00040440258344402580090D0033044025843
:101CC0000044025801480068704700BFDC0300244C
:101CD000F8B504000D00002C01D101207AE1DFF8F5
:101CE000A005006810F00F00A84211D2DFF890059F
:101CF0000068000900012843DFF884150860DFF858
:101D00008005006810F00F00A84201D0012061E1B9
:101D10002078400711D5DFF88405006810F07000C6
:101D20002169884209D2DFF87405016831F0700139
:101D300020690143DFF8640501602078000711D5B0
:101D4000DFF85C05006810F070006169884209D214
:101D5000DFF84C05016831F0700160690143DFF87C
:101D6000400501602078C00611D5DFF83405006811
:101D700010F4E060A169884209D2DFF82405016807
:101D800031F4E061A0690143DFF8140501602078B7
:101D9000800611D5DFF80C05006810F07000E169CD
:101DA000884209D2DFF8FC04016831F07001E06973
:101DB0000143DFF8F00401602078800711D5DFF8D7
:101DC000DC04006810F00F00E168884209D2DFF8F7
:101DD000CC04016809090901E0680143DFF8BC048B
:101DE00001602078C0074DD5DFF8B004016831F4F8
:101DF0007061A0680143DFF8A404016060680228F4
:101E000006D1DFF88004006880031CD40120E1E0E3
:101E10006068032806D1DFF86C040068800112D4E2
:101E20000120D7E06068012806D1DFF85804006877
:101E3000C00508D40120CDE0DFF848040068400761
:101E400001D40120C6E0DFF840040168C908C900D8
:101E500060680143DFF830040160FFF733FF0600DC
:101E6000DFF82404006810F038006168B0EBC10F9F
:101E700008D0FFF727FF801B41F289318842EFD35A
:101E80000320A7E02078800711D5E068DFF80C1464
:101E9000096811F00F01884209D2DFF800040168D7
:101EA00009090901E0680143DFF8F0030160DFF888
:101EB000D003006810F00F00854211D2DFF8C00394
:101EC0000068000900012843DFF8B4130860DFF858
:101ED000B003006810F00F00A84201D0012079E0A3
:101EE0002078400711D52069DFF8B013096811F098
:101EF0007001884209D2DFF8A403016831F0700153
:101F000020690143DFF8940301602078000711D5B0
:101F10006069DFF88C13096811F07001884209D2FA
:101F2000DFF87C03016831F0700160690143DFF87C
:101F3000700301602078C00611D5A069DFF8601336
:101F4000096811F4E061884209D2DFF8540301689E
:101F500031F4E061A0690143DFF8440301602078B7
:101F6000800611D5E069DFF83C13096811F07001B3
:101F7000884209D2DFF82C03016831F07001E06972
:101F80000143DFF82003016000F026F80700DFF8C6
:101F90002803DFF808130968C1F30321405C10F03F
:101FA0001F00C740DFF81003DFF8F012096811F0D6
:101FB0000F01405C10F01F003900C140DFF8D4026F
:101FC0000160DFF8CC020760DFF8CC02006800F0A7
:101FD00079F9C0B2F2BD000010B4DFF8AC020068BD
:101FE00010F03800002806D0082815D0102816D088
:101FF000182817D000E1DFF88C020068800608D5A9
:10200000DFF88802DFF87C422468C4F3C104E040B2
:1020100001E0DFF87802F0E0DFF8A002EDE0DFF8A1
:10202000A002EAE0DFF88002006810F0030002007E
:10203000DFF874020068C0F305100100DFF86C02DD
:10204000006810F001000300DFF868020068C0F3C8
:10205000CC0000FB03F002EE100AB8EE422AB0EE0C
:10206000421A002900F0C680002A03D0022A72D04A
:1020700051D38FE0DFF80C02006880062BD5DFF823
:102080000C02DFF800422468C4F3C104E04002EE11
:10209000100AF0EE420AB8EE602A02EE901AF8EE4C
:1020A000622A82EE222ADFF808020068C005C00D0D
:1020B00002EE900AF8EE622A9FED6D3A81EE033A45
:1020C00072EE832AB7EE003A72EE832A22EE222ABB
:1020D000F0EE421A1EE002EE101AB8EE422ADFEDD0
:1020E000652A82EE822ADFF8C8010068C005C00DAB
:1020F00002EE900AF8EE622A9FED5D3A81EE033A15
:1021000072EE832AB7EE003A72EE832A22EE222A7A
:10211000F0EE421A5CE002EE101AB8EE422ADFED51
:10212000562A82EE822ADFF888010068C005C00DB9
:1021300002EE900AF8EE622A9FED4D3A81EE033AE4
:1021400072EE832AB7EE003A72EE832A22EE222A3A
:10215000F0EE421A3CE002EE101AB8EE422ADFED31
:10216000472A82EE822A52480068C005C00D02EE5E
:10217000900AF8EE622A9FED3E3A81EE033A72EE43
:10218000832AB7EE003A72EE832A22EE222AF0EE7C
:10219000421A1DE002EE101AB8EE422ADFED362A8E
:1021A00082EE822A42480068C005C00D02EE900A05
:1021B000F8EE622A9FED2E3A81EE033A72EE832A00
:1021C000B7EE003A72EE832A22EE222AF0EE421A8D
:1021D00037480068C0F34620401C02EE100AB0EEFB
:1021E000420AB8EE402A81EE822ABCEEC22A12EEE2
:1021F000100A00E0002000E0304810BC704780B5B5
:10220000FFF7EAFE01002C48244A1268C2F30322B9
:10221000805C10F01F00C1402748204A126812F06D
:102220000F02805C10F01F000A00C24019480260D3
:10223000174801601748006802BD80B5FFF7DFFF4F
:102240001D49174A1268C2F30212895C11F01F017E
:10225000C84002BD80B5FFF7D2FF1749104A126887
:10226000C2F30222895C11F01F01C84002BD0000C8
:10227000000000460024744C0024744A001BB74B35
:102280000020005200440258104402580090D0032D
:1022900010000024140000240C00002418440258EC
:1022A0001C44025820440258284402582C44025826
:1022B0003044025834440258647D000800093D004F
:1022C00000366E0110B5040011480078002801D1D5
:1022D00001201CE04FF47A700D490978B0FBF1F051
:1022E0000C490968B1FBF0F000F0AEF8002801D00D
:1022F00001200CE0102C09D2002221005FF0FF30F9
:1023000000F089F804480460002000E0012010BDBE
:1023100018000024100000240C00002410F0070313
:10232000DFF830110A684FF6FF010A4052EA032233
:10233000DFF824110A43DFF81C110A607047DFF848
:1023400014010068C0F3022070470000010009B2C8
:1023500000290AD4012210F01F018A40DFF8FC1086
:1023600003001BB25B0941F82320704710B4020040
:1023700012B2002A05D40A01394B040024B21A55BE
:1023800008E00A01374B040024B214F00F04234480
:1023900003F8042C10BC704770B4030013F007045A
:1023A000D4F10700052801D3042001E0D4F107008F
:1023B000251D072D01D2002500E0E51E012616FA95
:1023C00000F0401E0140A940012010FA05F56D1EE5
:1023D0002A401143080070BC704710B50400601E0D
:1023E000B0F1807F01D301200EE0601E1E4908601D
:1023F0000F215FF0FF30FFF7B9FF00201B49086095
:1024000007201B490860002010BD10B50400200003
:10241000FFF784FF10BDF8B504000D001600FFF7AC
:102420008EFF0700320029003800FFF7B5FF0100DA
:10243000200000B2FFF79AFFF1BD10B504002000A4
:1024400000B2FFF783FF10BD10B504002000FFF7B6
:10245000C4FF10BD0CED00E00000FA0500E100E053
:1024600000E400E018ED00E014E000E018E000E017
:1024700010E000E038B50400DFF8F00A05682068D5
:10248000B0F1804F11D1B5F5FA6F04D215F11400F7
:102490002168486309E00021DFF8A00C01F09BFCF3
:1024A0000021DFF8980C01F01AFB31BD0168DFF85C
:1024B000982B91422AD1017F012907D1DFF88C1B8B
:1024C0000968491CDFF8842B11601FE0017F022995
:1024D00007D1DFF87C1B0968491CDFF8742B1160F9
:1024E00014E0017F042907D1DFF8681B0968491C43
:1024F000DFF8602B116009E0017F082906D1DFF8C1
:10250000581B0968491CDFF8502B11600168DFF87F
:102510004C2B91422AD1017F012907D1DFF8401BC2
:102520000968491CDFF8382B11601FE0017F022980
:1025300007D1DFF8301B0968491CDFF8282B116030
:1025400014E0017F042907D1DFF8F41B0968491C56
:10255000DFF8EC2B116009E0017F082906D1DFF8D4
:10256000841C0968491CDFF87C2C1160704710B589
:1025700004002000C0B2002808D04FF4805000F0C2
:10258000E6F843F2020000F0E2F803E04FF44050B6
:1025900000F0DDF810BD10B504002000C0B2002826
:1025A00008D04FF4845000F0D2F843F2020000F05B
:1025B000CEF803E04FF4405000F0C9F810BD10B55C
:1025C00004002000C0B2002808D041F2040000F04E
:1025D000BEF842F2040000F0BAF803E04FF40050F5
:1025E00000F0B5F810BD10B504002000C0B20028FE
:1025F00008D04FF4805000F0AAF842F2040000F036
:10260000A6F803E04FF4005000F0A1F810BD10B59B
:1026100004002000C0B2002808D04FF4805000F021
:1026200096F842F2020000F092F803E04FF40050F6
:1026300000F08DF810BD10B504002000C0B20028D5
:1026400008D041F2020000F082F842F2020000F0ED
:102650007EF803E04FF4005000F079F810BD10B59B
:1026600004002000C0B2002808D04FF4805000F0D1
:102670006EF842F2010000F06AF803E04FF40050F7
:1026800000F065F810BD10B504002000C0B20028AD
:1026900008D041F2010000F05AF842F2010000F0C7
:1026A00056F803E04FF4005000F051F810BD10B59B
:1026B00004002000C0B2002808D04FF4805000F081
:1026C00046F843F2010000F042F803E04FF44050B6
:1026D00000F03DF810BD10B504002000C0B2002885
:1026E00008D04FF4825000F032F843F2010000F0BD
:1026F0002EF803E04FF4405000F029F810BD10B55B
:1027000004002000C0B2002808D04FF4805000F030
:102710001EF842F2080000F01AF803E04FF40050EF
:1027200000F015F810BD10B504002000C0B200285C
:1027300008D041F2080000F00AF842F2080000F068
:1027400006F803E04FF4005000F001F810BD1CB58E
:1027500004000020ADF80000ADF8004000224FF466
:102760008071DFF8280D02F097FA0A2301226946EA
:10277000DFF8800B02F07BFB01224FF48071DFF861
:102780000C0D02F089FA13BD70B50020DFF8681B4C
:10279000086014240025DFF8F86C2A0021003000BE
:1027A00002F076FD70BD10B58CB000208DF80000F1
:1027B0000A2301226946DFF8DC0C02F04DFE04001A
:1027C0002000C0B2002840F0BA819DF80000DFF878
:1027D000C01CDFF8242B126888549DF800000828DC
:1027E0001ED10020DFF8A81CDFF80C2B12688854DB
:1027F000DFF8040B0068401EDFF8FC1A0860DFF801
:10280000F80A0068002803D50020DFF8EC1A0860F9
:102810000020DFF87C1CDFF8E02A126888548EE183
:102820009DF800000D2840F07C810A208DF8000002
:102830000A2301226946DFF85C0C02F09CFD0020AF
:10284000DFF84C1CDFF8B02A126888540020DFF84B
:10285000481C0870DFF8501BDFF8340C03F0E6FA70
:10286000002808D10A230B22DFF8301CDFF8240CE3
:1028700002F081FD38E1DFF8281CDFF8140C03F0CA
:10288000D5FA002803D10120FFF771FE2CE1DFF813
:10289000141CDFF8FC0B03F0C9FA002803D1002058
:1028A000FFF765FE20E1DFF8001CDFF8E40B03F022
:1028B000BDFA002803D10120FFF76DFE14E1DFF817
:1028C000EC1BDFF8CC0B03F0B1FA002803D1002099
:1028D000FFF761FE08E1DFF8D81BDFF8B40B03F067
:1028E000A5FA002803D10120FFF769FEFCE0DFF81C
:1028F000C41BDFF89C0B03F099FA002803D10020D9
:10290000FFF75DFEF0E0DFF8B01BDFF8840B03F0AB
:102910008DFA002803D10120FFF765FEE4E0DFF81F
:102920009C1BDFF86C0B03F081FA002803D1002018
:10293000FFF759FED8E0DFF8641CDFF8540B03F012
:1029400075FA002803D10120FFF761FECCE0DFF823
:10295000501CDFF83C0B03F069FA002803D100207B
:10296000FFF755FEC0E0DFF83C1CDFF8240B03F056
:102970005DFA002803D10120FFF75DFEB4E0DFF827
:10298000801CDFF80C0B03F051FA002803D1002063
:10299000FFF751FEA8E0DFF86C1CDFF8F40A03F043
:1029A00045FA002803D10120FFF759FE9CE0DFF82B
:1029B000581CDFF8DC0A03F039FA002803D10020A4
:1029C000FFF74DFE90E0DFF8441CDFF8C40A03F087
:1029D0002DFA002803D10120FFF755FE84E0DFF82F
:1029E000301CDFF8AC0A03F021FA002803D10020E4
:1029F000FFF749FE78E0DFF81C1CDFF8940A03F0CB
:102A000015FA002803D10120FFF751FE6CE0DFF832
:102A1000901CDFF87C0A03F009FA002803D100209B
:102A2000FFF745FE60E0DFF87C1CDFF8640A03F086
:102A3000FDF9002803D10120FFF74DFE54E0DFF837
:102A4000681CDFF84C0A03F0F1F9002803D10020DC
:102A5000FFF741FE48E0DFF8541CDFF8340A03F0CA
:102A6000E5F9002803D10120FFF749FE3CE0DFF83B
:102A7000401CDFF81C0A03F0D9F9002803D100201C
:102A8000FFF73DFE30E0DFF8B01CDFF8040A03F08A
:102A9000CDF9002803D10120FFF745FE24E0DFF83F
:102AA0009C1CDFF8EC0903F0C1F9002803D10020D9
:102AB000FFF739FE18E00120DFF8DC1908700A235F
:102AC0001422DFF8CC19DFF8CC0902F054FC05A879
:102AD000DFF86C1C1C2203F0B3F90A231A2205A9A3
:102AE000DFF8B00902F047FCDFF8AC0900780028F5
:102AF00014D10A231422DFF89819DFF8980902F09C
:102B00003AFC01A8DFF83C1C102203F099F90A23D3
:102B10000F2201A9DFF87C0902F02DFCFFF734FE3B
:102B20000DE0DFF8D4070068401CDFF8CC17086020
:102B3000DFF8C4070068142801D3FFF725FE0CB0A6
:102B400010BD2DE9F84F84B003F0BEF900F010FA83
:102B500000F0FAFD00F088FA00F0F4FA00F044FB0F
:102B600000F0CCFB00F022FC00F0AAFC00F054FDC9
:102B700000F0A0FD00F018FDFFF706FE0A230B226F
:102B8000DFF81819DFF80C0902F0F5FB01224FF409
:102B90008071DFF8F80802F07FF80021DFF80C0DF3
:102BA00001F004FA0421DFF8040D01F0FFF9082117
:102BB000DFF8F80C01F0FAF90C21DFF8F00C01F065
:102BC000F5F90021DFF8E80C01F0F0F90421DFF855
:102BD000E00C01F0EBF90821DFF8D40C01F0E6F984
:102BE0000C21DFF8CC0C01F0E1F90C21DFF8C40C6A
:102BF00000F075FF0021DFF8440501F01FF8DFF851
:102C0000B80C00F0C2FE01220421DFF8800802F0B7
:102C100043F801224FF40041DFF8A00C02F03CF829
:102C200000224021DFF8980C02F036F80022202123
:102C3000DFF88C0C02F030F8DFF87C0C0068406A9A
:102C4000039001208DF8040000208DF8030000207F
:102C50008DF8020000208DF8010000208DF80000A2
:102C600000240025002600275FF000085FF000091F
:102C70005FF0000A5FF0000B0121DFF8400C02F06A
:102C800000F8002806D100220421DFF8000802F035
:102C900003F805E001220421DFF8F00701F0FCFF52
:102CA0009DF80400002819D0DFF80C0C0068406A79
:102CB000029002990398091A4FF6012081420DDB18
:102CC00000208DF80400DFF8F00B00F0A4FE0022D5
:102CD0004FF40041DFF8E40B01F0DEFF4FF48051C8
:102CE000DFF8D80B01F0CDFF01280AD19DF80300D1
:102CF000002810D101208DF803000120FFF737FCD8
:102D000009E09DF80300002805D000208DF803009D
:102D10000020FFF72CFC4FF40061DFF8A00B01F05E
:102D2000B0FF01280AD19DF80200002810D101202F
:102D30008DF802000120FFF72EFC09E09DF802004B
:102D4000002805D000208DF802000020FFF723FCAA
:102D50004FF48061DFF8640B01F093FF01280AD182
:102D60009DF80100002810D101208DF801000120FC
:102D7000FFF725FC09E09DF80100002805D00020A0
:102D80008DF801000020FFF71AFC4FF40071DFF806
:102D90002C0B01F076FF01280AD19DF800000028D5
:102DA00010D101208DF800000120FFF71CFC09E084
:102DB0009DF80000002805D000208DF800000020BC
:102DC000FFF711FC4FF48071DFF8F00A01F059FFB2
:102DD000012809D12000C0B200280ED10120040032
:102DE0000120FFF714FC08E02000C0B2002804D046
:102DF000002004000020FFF70AFC8021DFF8BC0A55
:102E000001F03FFF012809D12800C0B200280ED1EF
:102E1000012005000120FFF70EFC08E02800C0B2E9
:102E2000002804D0002005000020FFF704FC40210A
:102E3000DFF8880A01F025FF012809D13000C0B26F
:102E400000280ED1012006000120FFF708FC08E051
:102E50003000C0B2002804D0002006000020FFF798
:102E6000FEFB2021DFF8540A01F00BFF012809D1F5
:102E70003800C0B200280ED1012007000120FFF762
:102E800002FC08E03800C0B2002804D0002007008F
:102E90000020FFF7F8FB1021DFF8200A01F0F1FE17
:102EA000012809D14046C0B200280ED10120804639
:102EB0000120FFF7FCFB08E04046C0B2002804D028
:102EC000002080460020FFF7F2FB0821DFF8EC0924
:102ED00001F0D7FE012809D14846C0B200280ED122
:102EE000012081460120FFF7F6FB08E04846C0B20A
:102EF000002804D0002081460020FFF7ECFB0421CD
:102F0000DFF8B80901F0BDFE012809D15046C0B272
:102F100000280ED1012082460120FFF7F0FB08E0D7
:102F20005046C0B2002804D0002082460020FFF79F
:102F3000E6FB0221DFF8840901F0A3FE012809D194
:102F40005846C0B200280ED1012083460120FFF769
:102F5000EAFB08E05846C0B2002804D000208346AF
:102F60000020FFF7E0FBFFF71EFC85E63400004081
:102F700010B59CB04C21002209AC200002F088F969
:102F80002021002201AC200002F082F9042002F08E
:102F9000DDFF00200090DFF82C09006830F440408D
:102FA000DFF820190860DFF81C09006810F44040C1
:102FB00000900098DFF80C0900688004FAD5DFF86B
:102FC0000809006880088000DFF8FC18086002200B
:102FD000099001200C9040200D90022012900020BA
:102FE00013900420149008201590022016900120C0
:102FF0001790022018900C20199000201A900020A1
:103000001B9009A802F0F0FF002801D000F07EFC20
:103010003F200190002002900020039000200490A7
:1030200040200590402006904FF48060079040209B
:103030000890022101A8FEF74BFE002801D000F005
:1030400065FC1CB010BD000000040040B803002463
:10305000BC030024C0030024C40300240008004073
:10306000C8030024CC03002418B587B01C2100221B
:103070006C46200002F00CF9DFF85008DFF8501819
:1030800008600020DFF8481848600020DFF840188A
:1030900088600020DFF83818C8600420DFF8301896
:1030A00008610020DFF8281808750020DFF82018D4
:1030B00048750120DFF8181888610020DFF8101823
:1030C00008770020DFF8081848620020DFF80018B1
:1030D00088620020DFF8F817C8620020DFF8F017D8
:1030E00008630020DFF8E81748630020DFF8E017E6
:1030F00081F83800DFF8D80703F099FB002801D0E9
:1031000000F004FC012000900620019000200290B5
:1031100040F2FF70039004200490002005900020EE
:103120008DF819006946DFF8A80703F099FC00281C
:1031300001D000F0EBFB08B010BD000074020024C9
:10314000D003002480B5DFF88C076A4908605FF47B
:103150008000684948600020664988600E20654903
:10316000C8600020634908610020624948615FF03F
:103170008060604988615FF0E0405E49C86100207E
:103180005C49086200205B49486200205949886216
:1031900000205849C8625FF08040564948630020CB
:1031A0005449886300205349C8630020514908648A
:1031B00000205049486400204E49886400204D4951
:1031C000C86400204B49086500204A494865002032
:1031D00048498865474801F089FD002801D000F082
:1031E00095FB01BDD403002418B595B00C21002235
:1031F0006C46200002F04CF81C2100220EAC20008E
:1032000002F046F82C21002203AC200002F040F826
:10321000DFF8C406DFF89C1608600020DFF894167B
:1032200048600020DFF88C1688602020DFF88416C4
:10323000C8600020DFF87C1608610020DFF87416F3
:1032400048610020DFF86C168861DFF8680600F03E
:1032500009FC002801D000F059FB0020009000205C
:103260000190002002906946DFF8480603F090FEC6
:10327000002801D000F04AFB60200E9010200F9033
:103280000020109000201290002013900020149035
:103290000C220EA9DFF81C0601F0A7F8002801D0C7
:1032A00000F034FB002003900020049000200590E3
:1032B00000200690002007904FF400500890002056
:1032C000099000200A905FF000700B9000200C9095
:1032D00000200D9003A9DFF8DC0503F0A8FE00280C
:1032E00001D000F013FBDFF8CC0504F0BBF816B0FA
:1032F00010BD00003C010024D803002410B58AB0A2
:103300000C2100226C46200001F0C2FF1C2100228B
:1033100003AC200001F0BCFF5FF08040DFF8BC157B
:1033200008600020DFF8B41548600020DFF8AC1515
:1033300088604FF47A60DFF8A415C8600020DFF8D9
:103340009C1508610020DFF894158861DFF88C0572
:1033500000F088FB002801D000F0D8FA002000908F
:10336000002002906946DFF8740503F011FE002882
:1033700001D000F0CBFA602003906420049000207C
:10338000059000200790002203A9DFF8500501F006
:103390002CF8002801D000F0B9FADFF8400504F05D
:1033A00061F80AB010BD0000847D000818B587B030
:1033B0000C21002204AC200001F06AFF1021002241
:1033C0006C46200001F064FFDFF81405DFF8DC1420
:1033D00008600020DFF8D41448600020DFF8CC1427
:1033E00088604FF6FF70DFF8C414C8600020DFF873
:1033F000BC1408610020DFF8B4148861DFF8AC0465
:1034000000F094FD002801D000F080FA0020049024
:103410000020069004A9DFF8940403F0B9FD002809
:1034200001D000F073FA00200090012001900020EC
:1034300002900020039000226946DFF8700400F03B
:103440006FFF002801D000F061FA04226946DFF81E
:103450005C0400F065FF002801D000F057FA082254
:103460006946DFF8480400F05BFF002801D000F057
:103470004DFA0C226946DFF8340400F051FF0028B1
:1034800001D000F043FA08B010BD0000000402585B
:10349000A40300241C000024E003002400000024F6
:1034A000907D0008987D0008A07D0008A87D000898
:1034B000B07D0008B87D0008C07D0008C87D000808
:1034C00018B587B00C21002204AC200001F0E0FE0A
:1034D000102100226C46200001F0DAFEDFF804041F
:1034E000DFF8CC1308600020DFF8C4134860002028
:1034F000DFF8BC1388604FF6FF70DFF8B413C860C4
:103500000020DFF8AC1308610020DFF8A413886105
:10351000DFF89C0300F00AFD002801D000F0F6F966
:10352000002004900020069004A9DFF8840303F033
:103530002FFD002801D000F0E9F9002000900120C3
:103540000190002002900020039000226946DFF8DD
:10355000600300F0E5FE002801D000F0D7F9042256
:103560006946DFF84C0300F0DBFE002801D000F0D4
:10357000CDF908226946DFF8380300F0D1FE0028B3
:1035800001D000F0C3F90C226946C94800F0C8FE1A
:10359000002801D000F0BAF908B010BDD07D0008B5
:1035A000D87D0008E07D00081FB50C2100226C4684
:1035B000200001F06DFECC48BF4908600020BE49E4
:1035C00048600020BC4988604FF6FF70BA49C86067
:1035D0000020B9498861B84800F09AF9002801D064
:1035E00000F094F900200090002002906946B24853
:1035F00003F0CEFC002801D000F088F91FBD0000C8
:10360000E87D0008F07D0008F87D0008007E0008D5
:10361000087E0008107E000880B5B448B4490860F0
:103620005FF4E130B24948600020B1498860002071
:10363000AF49C8600020AE4908610C20AC49486120
:103640000020AB4988610020A949C8610020A84931
:1036500008620020A64948620020A5498862A44863
:1036600001F04AFE002801D000F050F95FF020413F
:103670009F4804F046F8002801D000F047F95FF0B9
:1036800020619B4804F068F8002801D000F03EF962
:10369000974803F0EBFF002801D000F037F901BD97
:1036A000187E0008207E0008287E0008307E000872
:1036B000387E000880B58F488F4908605FF4E1309C
:1036C0008D49486000208C49886000208A49C86084
:1036D0000020894908610C208749486100208649FB
:1036E000886100208449C861002083490862002065
:1036F000814948620020804988627F4801F0FCFDD2
:10370000002801D000F002F900217B4803F0F9FF06
:10371000002801D000F0FAF80021774804F01CF8E6
:10372000002801D000F0F2F8734803F0C7FF00282A
:1037300001D000F0EBF801BD407E0008487E000893
:10374000E87C0008547D000810B586B014210022E2
:103750006C46200001F09CFD6848006850F01000A5
:10376000664908606548006810F0100005900598EB
:103770006248006850F00400604908605F480068D3
:1037800010F00400059005985C48006850F00100B6
:103790005A4908605948006810F0010005900598E2
:1037A0005648006850F002005449086053480068C9
:1037B00010F00200059005985048006850F008008D
:1037C0004E4908604D48006810F0080005900598C3
:1037D00000224FF482714A4801F05EFA00224FF451
:1037E0000041364801F058FA00226021344801F0C7
:1037F00053FA41F6FF7000900020019000200290E3
:1038000069462E4801F024F940F638500090002017
:1038100001900020029069463A4801F019F94FF4EE
:1038200082700090012001900020029000200390FF
:103830006946334801F00CF94FF400400090012034
:103840000190002002900020039069461B4801F07F
:10385000FFF84FF48050009000200190002002906B
:103860006946294801F0F4F81820009000200190E2
:10387000002002906946124801F0EAF860200090AA
:1038800001200190002002900020039069460C481E
:1038900001F0DEF8F8200090002001900020029056
:1038A0006946174801F0D4F806B010BDC0020024E4
:1038B0000C0300242802002458030024001002589E
:1038C000000C0258184802582844025800210240AF
:1038D000C4010024003800400000014074020024AC
:1038E00000040040000800400010004000100140AB
:1038F0001C00002400480040AC0000244045025851
:1039000000040258000002580008025872B6FEE790
:1039100010B50400002C01D1012035E094F83D00E1
:10392000002805D1002084F83C00200003F087FD2A
:10393000022084F83D00211D206800F003FE0120D4
:1039400084F84800012084F83E00012084F83F00FC
:10395000012084F84000012084F84100012084F80F
:103960004200012084F84300012084F84400012033
:1039700084F84500012084F84600012084F84700BF
:10398000012084F83D00002010BD010091F83D00A9
:10399000012801D001203DE0022081F83D000868A7
:1039A000DFF8A43098421CD00868B0F1804F18D0DE
:1039B0000868DFF89830984213D00868DFF8903034
:1039C00098420ED00868DFF88C30984209D0086819
:1039D000DFF88430984204D00868DFF880309842DD
:1039E00011D108688368DFF8780003401A00062ABE
:1039F0000FD0B2F5803F0CD00868006850F001008D
:103A00000B68186005E00868006850F001000B685A
:103A100018600020704701000868006A41F2111226
:103A200010420BD10868006A40F24442104205D1AE
:103A300008680068400840000A681060012081F8AA
:103A40003D000020704700000000014000040040DD
:103A500000080040000C0040000401400018004035
:103A60000700010010B50400002C01D1012035E051
:103A700094F83D00002805D1002084F83C00200087
:103A800003F00FFC022084F83D00211D206800F0A7
:103A900059FD012084F84800012084F83E000120EF
:103AA00084F83F00012084F84000012084F84100A0
:103AB000012084F84200012084F84300012084F8AA
:103AC0004400012084F84500012084F846000120CC
:103AD00084F84700012084F83D00002010BD70B537
:103AE00005000C00002C02D195F83E0015E0042CD6
:103AF00002D195F83F0010E0082C02D195F8400063
:103B00000BE00C2C02D195F8410006E0102C02D1FC
:103B100095F8420001E095F84300012801D001200A
:103B20008BE0002C04D1022085F83E00C0B21FE0DB
:103B3000042C04D1022085F83F00C0B218E0082C04
:103B400004D1022085F84000C0B211E00C2C04D151
:103B5000022085F84100C0B20AE0102C04D10220F6
:103B600085F84200C0B203E0022085F84300C0B2ED
:103B700001222100286800F059FF2868DFF8881327
:103B8000884213D02868DFF8841388420ED0286852
:103B9000DFF89013884209D02868DFF88C13884238
:103BA00004D02868DFF87813884201D1012000E0B2
:103BB0000020C0B2002805D02868406C50F40040B6
:103BC000296848642868DFF8401388421CD02868B8
:103BD000B0F1804F18D02868DFF83413884213D032
:103BE0002868DFF8301388420ED02868DFF82813E1
:103BF000884209D02868DFF81413884204D0286866
:103C0000DFF81813884211D128688168DFF898031B
:103C100001400E00062E0FD0B6F5803F0CD028686C
:103C2000006850F001002968086005E02868006815
:103C300050F0010029680860002070BD70B50500D3
:103C40000C00002C02D195F83E0015E0042C02D1A6
:103C500095F83F0010E0082C02D195F840000BE0E9
:103C60000C2C02D195F8410006E0102C02D195F8F9
:103C7000420001E095F84300012801D00120A9E0AD
:103C8000002C04D1022085F83E00C0B21FE0042CB5
:103C900004D1022085F83F00C0B218E0082C04D1FE
:103CA000022085F84000C0B211E00C2C04D10220A3
:103CB00085F84100C0B20AE0102C04D1022085F83A
:103CC0004200C0B203E0022085F84300C0B22000E9
:103CD000002806D004280BD0082810D00C2815D0B6
:103CE0001BE02868C06850F002002968C86014E032
:103CF0002868C06850F004002968C8600DE0286892
:103D0000C06850F008002968C86006E02868C068EC
:103D100050F010002968C860FFE7012221002868E0
:103D200000F084FE28687849884212D028687749D4
:103D300088420ED02868DFF8EC11884209D0286844
:103D4000DFF8E411884204D02868DFF8D4118842F3
:103D500001D1012000E00020C0B2002805D0286871
:103D6000406C50F4004029684864286866498842DD
:103D700017D02868B0F1804F13D028686449884272
:103D80000FD02868634988420BD02868624988426E
:103D900007D028685D49884203D028685F49884277
:103DA00011D128688168DFF8000201400E00062E5C
:103DB0000FD0B6F5803F0CD02868006850F00100A5
:103DC0002968086005E02868006850F0010029684B
:103DD0000860002070BD38B505000C0020000028E8
:103DE00006D004280BD0082810D00C2815D01BE0D2
:103DF0002868C06830F002002968C86014E02868AC
:103E0000C06830F004002968C8600DE02868C06808
:103E100030F008002968C86006E02868C06830F003
:103E200010002968C860FFE700222100286800F020
:103E3000FDFD28683449884212D0286833498842F9
:103E40000ED02868DFF8DC10884209D02868DFF837
:103E5000D810884204D02868DFF8C410884201D105
:103E6000012000E00020C0B2002811D02868006ABC
:103E700041F2111108420BD12868006A40F2444116
:103E8000084205D12868406C30F400402968486435
:103E90002868006A41F2111108420BD12868006AB3
:103EA00040F24441084205D12868006840084000BB
:103EB00029680860002C04D1012085F83E00C0B2BA
:103EC0001FE0042C04D1012085F83F00C0B218E0A7
:103ED000082C04D1012085F84000C0B211E00C2C60
:103EE00004D1012085F84100C0B20AE0102C04D1B1
:103EF000012085F84200C0B203E0012085F84300AC
:103F0000C0B2002032BD00000000014000040140AA
:103F10000004004000080040000C00400018004071
:103F200000480140004001400044014010B5040039
:103F3000002C01D1012035E094F83D00002805D186
:103F4000002084F83C00200003F0DEF9022084F811
:103F50003D00211D206800F0F5FA012084F848009A
:103F6000012084F83E00012084F83F00012084F8FD
:103F70004000012084F84100012084F84200012023
:103F800084F84300012084F84400012084F84500AF
:103F9000012084F84600012084F84700012084F8BD
:103FA0003D00002010BD0000070001002DE9F04198
:103FB00005000C00002C02D195F83E7015E0042C91
:103FC00002D195F83F7010E0082C02D195F84070AE
:103FD0000BE00C2C02D195F8417006E0102C02D1B8
:103FE00095F8427001E095F84370002C02D195F8E5
:103FF00044800BE0042C02D195F8458006E0082CA3
:1040000002D195F8468001E095F847803800C0B2AB
:10401000012803D14046C0B2012801D00120A5E00B
:10402000002C04D1022085F83E00C0B21FE0042C11
:1040300004D1022085F83F00C0B218E0082C04D15A
:10404000022085F84000C0B211E00C2C04D10220FF
:1040500085F84100C0B20AE0102C04D1022085F896
:104060004200C0B203E0022085F84300C0B2002C39
:1040700004D1022085F84400C0B211E0042C04D120
:10408000022085F84500C0B20AE0082C04D10220C5
:1040900085F84600C0B203E0022085F84700C0B2B0
:1040A0002000002806D004280BD0082810D00C28A7
:1040B00015D01BE02868C06850F002002968C8606D
:1040C00014E02868C06850F004002968C8600DE05A
:1040D0002868C06850F008002968C86006E02868B1
:1040E000C06850F010002968C860FFE70122210075
:1040F000286800F09BFC2868DFF8741088421CD008
:104100002868B0F1804F18D02868DFF86C1088421A
:1041100013D02868DFF8641088420ED02868DFF8D2
:104120006010884209D02868DFF84810884204D01F
:104130002868DFF85010884211D128688168DFF8BC
:10414000480001400E00062E0FD0B6F5803F0CD07F
:104150002868006850F001002968086005E02868B8
:10416000006850F00100296808600020BDE8F08177
:10417000000001400004014000040040000800402D
:10418000000C0040001800400700010010B50400BA
:104190002068006980071AD52068C068800716D596
:1041A0007FF0020021680861012020772068806983
:1041B00010F0030F03D02000FEF778F905E020008F
:1041C00003F032FB2000FEF755F90020207720682D
:1041D000006940071AD52068C068400716D57FF0EF
:1041E000040021680861022020772068806910F4AB
:1041F000407F03D02000FEF759F905E0200003F0CE
:1042000013FB2000FEF736F90020207720680069B4
:1042100000071AD52068C068000716D57FF008008F
:1042200021680861042020772068C06910F0030F1E
:1042300003D02000FEF73AF905E0200003F0F4FA7D
:104240002000FEF717F90020207720680069C006DB
:104250001AD52068C068C00616D57FF01000216806
:104260000861082020772068C06910F4407F03D0DF
:104270002000FEF71BF905E0200003F0D5FA20002E
:10428000FEF7F8F80020207720680069C0070AD5FB
:104290002068C068C00706D57FF00100216808616A
:1042A000200003F0C2FA2068006900060AD52068E1
:1042B000C068000606D57FF08000216808612000F4
:1042C00003F0B4FA20680069C0050AD52068C06808
:1042D000000606D57FF4807021680861200003F095
:1042E000A6FA2068006940060AD52068C068400622
:1042F00006D57FF0400021680861200003F098FA9D
:104300002068006980060AD52068C068800606D546
:104310007FF0200021680861200003F08AFA10BDB8
:1043200070B505000E00140095F83C00012801D17D
:10433000022059E0012085F83C00002C12D1F368DE
:1043400072683168286800F0D0FA2868806930F017
:104350000C002968886128688169B0680143286871
:1043600081613DE0042C13D1F368726831682868DC
:1043700000F0F5FA2868806930F4406029688861A7
:1043800028688069B16850EA01202968886127E0BF
:10439000082C12D1F36872683168286800F0FAFAC4
:1043A0002868C06930F00C002968C8612868C169B4
:1043B000B06801432868C16112E0F368726831682F
:1043C000286800F001FB2868C06930F44060296863
:1043D000C8612868C069B16850EA01202968C861CD
:1043E000002085F83C00002070BD70B504000D0071
:1043F000160094F83C00012801D10220A1E0012020
:1044000084F83C00300000280AD004281FD0082877
:1044100035D00C284AD0102860D0142875D08CE0F4
:104420002900206800F0F3F82068806950F0080047
:10443000216888612068806930F004002168886103
:1044400020688169286901432068816175E029003D
:10445000206800F02CF92068806950F40060216821
:1044600088612068806930F48060216888612068F4
:104470008069296950EA0120216888615DE029008E
:10448000206800F05EF92068C06950F008002168DB
:10449000C8612068C06930F004002168C8612068E4
:1044A000C169286901432068C16146E0290020688C
:1044B00000F08EF92068C06950F400602168C8617E
:1044C0002068C06930F480602168C8612068C069D4
:1044D000296950EA01202168C8612EE0290020687E
:1044E00000F0AAF92068406D50F008002168486586
:1044F0002068406D30F00400216848652068416DF7
:10450000286901432068416517E02900206800F010
:10451000BFF92068406D50F400602168486520684C
:10452000406D30F48060216848652068406D2969DD
:1045300050EA012021684865FFE7002084F83C002C
:10454000002070BD0368DFF8B824904212D0B0F1AB
:10455000804F0FD0DFF8AC2490420BD0DFF8A824B6
:10456000904207D0DFF8A424904203D0DFF8A024C3
:10457000904203D133F070034A681343DFF880247C
:1045800090421ED0B0F1804F1BD0DFF878249042CB
:1045900017D0DFF87424904213D0DFF870249042D3
:1045A0000FD0DFF86C2490420BD0DFF868249042E3
:1045B00007D0DFF86424904203D0DFF860249042F3
:1045C00003D133F44073CA68134333F080034A695C
:1045D000134303608A68C2620A688262DFF820249B
:1045E00090420FD0DFF8282490420BD0DFF824242B
:1045F000904207D0DFF82024904203D0DFF81C243B
:10460000904201D10A69026301224261704730B4CD
:10461000026A520852000262056A43688469DFF840
:1046200000241440A408A4000A68144335F00205CD
:104630008A681543DFF8C82390420FD0DFF8D023F3
:1046400090420BD0DFF8CC23904207D0DFF8C8238C
:10465000904203D0DFF8C423904205D135F008051D
:10466000CA68154335F00405DFF8942390420FD053
:10467000DFF89C2390420BD0DFF89823904207D0BC
:10468000DFF89423904203D0DFF89023904207D1C3
:1046900033F4807333F400734A6913438A69134314
:1046A000436084614A684263056230BC704730B43D
:1046B000026A32F010020262056A43688469DFF818
:1046C0006423144034F440740A6854EA022435F038
:1046D00020058A6855EA0215DFF82423904203D0AA
:1046E000DFF82C23904206D135F08005CA6855EAE0
:1046F000021535F04005DFF8082390420FD0DFF8AF
:10470000102390420BD0DFF80C23904207D0DFF843
:104710000823904203D0DFF80423904209D133F4F8
:10472000806333F400634A6953EA82038A6953EA77
:104730008203436084614A688263056230BC7047CB
:10474000000030B4026A32F480720262056A436883
:10475000C46934F07004A408A4000A68144335F452
:1047600000758A6855EA0225DFF89422904203D04A
:10477000DFF89C22904206D135F40065CA6855EAFC
:10478000022535F48065DFF8782290420FD0DFF8FB
:10479000802290420BD0DFF87C22904207D0DFF8D5
:1047A0007822904203D0DFF87422904209D133F48A
:1047B000805333F400534A6953EA02138A6953EA77
:1047C00002134360C4614A68C263056230BC70472B
:1047D00030B4026A32F480520262036A4468C269E9
:1047E00032F4E04232F440720D6852EA052233F4AA
:1047F00000538D6853EA0533DFF80452A8420FD006
:10480000DFF80C52A8420BD0DFF80852A84207D0BC
:10481000DFF80452A84203D0DFF80052A84204D1C6
:1048200034F480444D6954EA85144460C2614D6893
:104830000564036230BC704730B4026A32F48032DF
:104840000262046A4568436D33F070030A681343DB
:1048500034F400348A6854EA0244694A90420BD026
:104860006B4A904208D06B4A904205D06A4A904207
:1048700002D06A4A904204D135F480354A6955EA3B
:104880000225456043654A688265046230BC704712
:1048900030B4026A32F480120262036A4468426DE4
:1048A00032F4E0420D6852EA052233F400138D68B9
:1048B00053EA0553524DA8420BD0554DA84208D09B
:1048C000544DA84205D0544DA84202D0534DA842A1
:1048D00004D134F400344D6954EA852444604265BF
:1048E0004D68C565036230BC704770B4046A6408E3
:1048F000640004628569066A414CA04214D0B0F19C
:10490000804F11D03F4CA0420ED03F4CA0420BD064
:104910003E4CA04208D03E4CA04205D0424CA042A2
:1049200002D03C4CA04201D1012400E00024E4B2BA
:10493000002C03D0AD08AD00154301E055F0010592
:1049400035F0F0051C0114F0F004254336F00A069A
:1049500011F00A0426438561066270BC704770B48A
:10496000046A34F0100404628469056A34F4407403
:1049700054EA022434F470441E0316F4704634439F
:1049800035F0A0050E0116F0A006354384610562DE
:1049900070BC704770B4046A34F480740462C469F3
:1049A000056AA408A400144334F0F0041E0116F0B4
:1049B000F006344335F420650E0216F420663543C4
:1049C000C461056270BC704770B4046A34F48054EA
:1049D0000462C469056A34F4407454EA022434F46D
:1049E00070441E0316F47046344335F420450E031C
:1049F00016F420463543C461056270BC7047000060
:104A0000000001400004004000080040000C00408D
:104A100000040140004001400044014000480140C2
:104A20008FFFFEFFFF8FFFFE0018004030B401240F
:104A300011F01F0314FA03F3046A9C430462046A2E
:104A400011F01F0512FA05F52C43046230BC7047C3
:104A5000F8B403000025DFF85C620868E84000282D
:104A600000F00D8108680127AF4038400200002A9D
:104A700000F003814868012808D04868022805D062
:104A80004868112802D04868122824D19F685FF036
:104A9000030C2800C0B240001CFA00FC37EA0C07E7
:104AA000D1F80CC02800C0B240001CFA00FC5CEA3F
:104AB00007079F6058685FF0010C1CFA05FC30EA9C
:104AC0000C00D1F804C0CCF3001C1CFA05FC5CEA15
:104AD000000004005C60DF685FF0030C2800C0B2D7
:104AE00040001CFA00FC37EA0C07D1F808C0280087
:104AF000C0B240001CFA00FC5CEA0707DF604868AF
:104B0000022802D0486812281ED12800C00803EBF2
:104B10008000046A5FF00F0C15F00700C0B280003F
:104B20001CFA00FC34EA0C04D1F810C015F00700A0
:104B3000C0B280001CFA00FC5CEA040427002800D4
:104B4000C00803EB800007621C685FF0030C2800BC
:104B5000C0B240001CFA00FC34EA0C0491F804C016
:104B60001CF0030C2800C0B240001CFA00FC5CEAF8
:104B700004041C604868C00040F17F80DFF8380101
:104B8000006850F00200DFF830713860DFF828016B
:104B9000006810F0020000900098DFF820012F005C
:104BA000BF0850F827705FF00F0C15F00300C0B27B
:104BB00080001CFA00FC37EA0C074148834201D10F
:104BC00000242DE03F48834201D1012428E03E48E3
:104BD000834201D1022423E03C48834201D10324D3
:104BE0001EE03B48834201D1042419E03948834246
:104BF00001D1052414E03848834201D106240FE096
:104C00003648834201D107240AE03548834201D166
:104C1000082405E03348834201D1092400E00A2436
:104C200015F00300C0B280008440274323482C00C5
:104C3000A40840F82470306890434C68E40300D521
:104C400010433060746894434F68BF0300D5144329
:104C500074605FF0B040006890434F68FF0200D579
:104C600010435FF0B04420601F4C246894434F68A9
:104C7000BF0200D514431C4804606D1CEDE6F1BC76
:104C80007047020010690B009BB2184201D001204E
:104C900000E00020C0B270471300DBB2002B03D04D
:104CA0000B009BB2836103E00B009BB21B0483618A
:104CB000704700008000005854450258080400580E
:104CC000000002580004025800080258000C025864
:104CD000001002580014025800180258001C025814
:104CE00000200258002402580400005870B5040047
:104CF0000025002C01D10120B8E0606A00280020C6
:104D0000A0622068DFF8241488420ED02068DFF803
:104D10002014884209D02068DFF81814884204D093
:104D2000E068102801D30120A0E0200000F090FAF4
:104D300006002068DFF8F41388420BD02068DFF803
:104D4000F013884206D02068DFF8E813884201D0CB
:104D5000092E10D22068DFF8D413884209D02068C9
:104D6000DFF8CC13884204D02068DFF8C8138842EB
:104D700003D1112E01D3012078E094F8810000289E
:104D800005D1002084F88000200002F01EFA0220E5
:104D900084F88100206800684008400021680860AD
:104DA000A069B0F1806F13D16068B0F5800F02D1B7
:104DB000A06B002806D06068002809D1A06BB0F174
:104DC000805F05D12068006850F480502168086039
:104DD000E169A06A01432943E06B0143E0680143B4
:104DE00020688160616B606A0143A06B0143A06928
:104DF00001432069014360690143206A01436068FF
:104E00000143E06C0143A0680143A06C0143A06D25
:104E100001432068C160606800280FD12068806865
:104E200030F4C05050F400602168886020688068C9
:104E300030F4C06050F48060216888602068006DA4
:104E400040084000216808656068400207D5206876
:104E5000C16821F00041606D01432068C1600020FD
:104E6000C4F88400012084F88100002070BD2DE981
:104E7000F84306000D0017001C005FF0000896F8CC
:104E80008000012801D102204DE1012086F8800038
:104E9000FCF718FF814696F88100012805D0022012
:104EA000002186F88010C0B23DE1002D03D038000B
:104EB00080B2002805D10120002186F88010C0B200
:104EC00031E1032086F881000020C6F88400F565F2
:104ED000A6F86070A6F86270002070660020A6F840
:104EE00068000020A6F86A00002070670020306784
:104EF000B068B0F5C02F05D13068006850F400608C
:104F00003168086030684168090C0904380080B2D3
:104F10000143306841603068006850F0010031683A
:104F200008607068B0F5800F05D13068006850F4F3
:104F3000007031680860F068102831D3B6F862005C
:104F4000002800F0D0803068406980070CD5F06DF3
:104F5000006831680862F06D001DF065B6F8620007
:104F6000401EA6F86200E9E7FCF7ACFEB0EB0900D2
:104F7000A04202D314F1010F01D1002CDED1300088
:104F800000F0DAF8002086F88000D6F8840050F4AB
:104F90008070C6F88400012086F881000120C2E0FC
:104FA000F068082845D3B6F86200002800F09B801E
:104FB00030684069800720D5B6F8620002280FD318
:104FC000F06B00280CD0F06D006831680862F06D5D
:104FD000001DF065B6F86200801EA6F86200E2E7E8
:104FE000F06D008831680884F06D801CF065B6F8BB
:104FF0006200401EA6F86200D5E7FCF763FEB0EB46
:105000000900A04202D314F1010F01D1002CCAD132
:10501000300000F091F8002086F88000D6F8840077
:1050200050F48070C6F88400012086F881000120C9
:1050300079E0B6F86200002855D0306840698007F2
:1050400035D5B6F8620004280FD3F06B41280CD395
:10505000F06D006831680862F06D001DF065B6F80B
:105060006200001FA6F86200E3E7B6F862000228BB
:105070000FD3F06B00280CD0F06D008831680884E5
:10508000F06D801CF065B6F86200801EA6F8620024
:10509000CFE7F06D0078316881F82000F06D401C9A
:1050A000F065B6F86200401EA6F86200C1E7FCF7A2
:1050B00009FEB0EB0900A04202D314F1010F01D1A7
:1050C000002CB6D1300000F037F8002086F88000C0
:1050D000D6F8840050F48070C6F88400012086F869
:1050E000810001201FE000944B460022082130007F
:1050F00000F08CF8002805D0D6F8840050F020008D
:10510000C6F88400300000F017F8002086F8800010
:10511000012086F88100D6F88400002801D0012003
:1051200001E04046C0B2BDE8F2830000003001401B
:1051300000380040003C004001684A690168896904
:1051400051F00801036899610168896951F0100103
:105150000368996101680968490849000368196092
:1051600001680B6928490B4001680B610168896877
:1051700031F440410368996090F8811004290DD002
:1051800091060BD5D0F8841051F08001C0F884103E
:105190000168896951F020010368996190F88110D4
:1051A00003290DD051060BD5D0F8841051F004011D
:1051B000C0F884100168896951F040010368996161
:1051C00091050BD5D0F8841051F00101C0F884107E
:1051D0000168896951F4007103689961D1050BD5A3
:1051E000D0F8841051F00801C0F884100168896972
:1051F00051F48071036899610021A0F862100021C8
:10520000A0F86A107047000090FCFFFF2DE9F04104
:1052100005000E0090461F00069C2868406930403B
:10522000B04201D1012000E000204146C9B28842CD
:105230000BD1FCF747FDC01BA04202D314F1010FB4
:1052400001D1002CE9D1032000E00020BDE8F0816D
:105250000100C86B4009401CCA68521CD21DD2080C
:1052600000FB02F070470EE0026843680244083019
:105270005FEAC37C44BF4B445B1E52F804CB43F847
:1052800004CB091FF9D150F8041B0029ECD1704759
:1052900062F30F2262F31F42401810F0030308D09C
:1052A000C91A1FD3DB0748BF00F8012D28BF20F81B
:1052B000022D130030B414461546103928BF20E9DA
:1052C0003C00FAD8490728BF20E90C0048BF40F845
:1052D000042D890028BF20F8022D48BF00F8012DB9
:1052E00030BC7047C91818BF00F8012DCB0728BF84
:1052F00000F8012D7047000010B50400002C01D10A
:10530000012037E0A0690028FFD1D4F884000028EC
:1053100005D1002084F88000200002F0EBF8242062
:10532000C4F88400206800684008400021680860D4
:10533000200000F037F9012801D101201AE0A06A0D
:10534000002802D0200000F047FC2068406830F4BC
:105350009040216848602068806830F02A00216809
:1053600088602068006850F0010021680860200013
:1053700000F09FFC10BD2DE9FC4706000D00170052
:105380009846D6F88400202863D1002D03D0380039
:1053900080B2002801D101205CE096F8800001284D
:1053A00001D1022056E0012086F880000020C6F8D6
:1053B0008C002120C6F88400FCF784FC8146A6F806
:1053C0005470A6F85670B068B0F5805F05D13069AA
:1053D000002802D10024AA4602E02C005FF0000A57
:1053E000002086F88000B6F85600002820D0CDF8BE
:1053F00000804B4600228021300000F093FC002802
:1054000001D0032026E0002C08D1BAF80000C00526
:10541000C00D316888621AF1020A03E02078316811
:105420008862641CB6F85600401EA6F85600DAE7FB
:10543000CDF800804B4600224021300000F072FC85
:10544000002801D0032005E02020C6F884000020B9
:1054500000E00220BDE8F6872DE9F84F83460D00F5
:1054600016001F00DBF88800202840F09880002DEF
:1054700003D0300080B2002801D1012090E09BF8D9
:105480008000012801D102208AE001208BF88000F1
:105490000020CBF88C002220CBF888000020CBF82D
:1054A0006C00FCF70FFC8046ABF85C60ABF85E600C
:1054B000DBF80800B0F5805F0CD1DBF810000028A5
:1054C00004D140F2FF10ABF8600027E0FF20ABF8FA
:1054D000600023E0DBF8080000280BD1DBF81000A7
:1054E000002803D1FF20ABF8600017E07F20ABF865
:1054F000600013E0DBF80800B0F1805F0BD1DBF84F
:105500001000002803D17F20ABF8600006E03F20A8
:10551000ABF8600002E00020ABF86000BBF86090E0
:10552000DBF80800B0F5805F06D1DBF8100000283A
:1055300002D10024AA4602E02C005FF0000A0020FD
:105540008BF88000BBF85E00002823D0009743460C
:1055500000222021584600F0E5FB002801D003205E
:105560001EE0002C09D1DBF80000406A19EA0000B7
:10557000AAF800001AF1020A06E0DBF80000406A0F
:1055800019EA00002070641CBBF85E00401EABF8F6
:105590005E00D7E72020CBF88800002000E0022042
:1055A000BDE8F28F2DE9F84F86B004000026206890
:1055B000DFF82C188842FFD0A16820690143606998
:1055C0000143E069014320680268DFF818080240DF
:1055D0000A43206802602068426832F44052E06862
:1055E000024320684260D4F818802068DFF8F02772
:1055F000904202D0206A50EA080820688168DFF8EB
:10560000E807014058EA0101206881602068C16A0A
:1056100009090901606A01432068C1622068DFF856
:10562000CC1788421FD1DFF8C807006810F0380097
:1056300000280AD008280AD010280AD018280AD032
:1056400020280AD028280AD00BE0012770E104277F
:105650006EE108276CE110276AE1202768E1402706
:1056600066E1802764E12068DFF8881788421DD151
:10567000DFF87C07006810F00700002808D0022837
:105680000AD007D304280BD008D305280AD00BE092
:1056900000274DE104274BE1082749E1102747E1A6
:1056A000202745E1402743E1802741E12068DFF8DA
:1056B000481788421DD1DFF83807006810F007004E
:1056C000002808D002280AD007D304280BD008D31A
:1056D00005280AD00BE000272AE1042728E1082743
:1056E00026E1102724E1202722E1402720E180271E
:1056F0001EE12068DFF8041788421DD1DFF8F006AC
:10570000006810F00700002808D002280AD007D34C
:1057100004280BD008D305280AD00BE0002707E1A6
:10572000042705E1082703E1102701E12027FFE016
:105730004027FDE08027FBE02068DFF8C4168842A0
:105740001DD1DFF8AC06006810F00700002808D073
:1057500002280AD007D304280BD008D305280AD082
:105760000BE00027E4E00427E2E00827E0E0102750
:10577000DEE02027DCE04027DAE08027D8E0206860
:10578000DFF8801688421FD1DFF86406006810F049
:10579000380000280AD008280AD010280AD0182873
:1057A0000AD020280AD028280AD00BE00127BFE021
:1057B0000427BDE00827BBE01027B9E02027B7E0A9
:1057C0004027B5E08027B3E02068DFF83C16884228
:1057D0001DD1DFF81C06006810F00700002808D073
:1057E00002280AD007D304280BD008D305280AD0F2
:1057F0000BE000279CE004279AE0082798E0102798
:1058000096E0202794E0402792E0802790E02068EF
:10581000DFF8F81588421DD1DFF8D405006810F0D4
:105820000700002808D002280AD007D304280BD08C
:1058300008D305280AD00BE0002779E0042777E099
:10584000082775E0102773E0202771E040276FE0FC
:1058500080276DE02068DFF8B81588421FD1DFF897
:105860009005006810F0380000280AD008280AD0F7
:1058700010280AD018280AD020280AD028280AD0B0
:105880000BE0012754E0042752E0082750E01027DE
:105890004EE020274CE040274AE0802748E020687F
:1058A000DFF8701588421FD1DFF84405006810F05A
:1058B000380000280AD008280AD010280AD0182852
:1058C0000AD020280AD028280AD00BE001272FE090
:1058D00004272DE008272BE0102729E0202727E0C8
:1058E000402725E0802723E02068DFF8F414884271
:1058F0001DD1DFF82405006810F00700002808D04B
:1059000002280AD007D304280BD008D305280AD0D0
:105910000BE002270CE004270AE0082708E0102724
:1059200006E0202704E0402702E0802700E08027EF
:105930002068DFF8AC14884273D13800C0B2022866
:105940000AD004280CD0082810D0102814D0202801
:1059500024D0402825D027E0FBF7EFFC814627E044
:1059600003A8FBF7FBFCDDF8109021E06846FBF78D
:1059700015FEDDF804901BE0DFF8A0040068800647
:1059800009D5DFF89C94DFF894040068C0F3C100E7
:1059900039FA00F901E0DFF8889409E0DFF884942F
:1059A00006E04FF4004903E05FF000090120060023
:1059B000B9F1000F00F00081DFF86C04616A30F883
:1059C0001100B9FBF0F082466168032041438A452B
:1059D00005D361684FF480504143514502D2012004
:1059E0000600E9E0DFF84004616A30F81100B9FB15
:1059F000F0F24FF48073606840080021E3FB02017D
:105A00006268002301F016FF0500B5F5407F05D35D
:105A1000B5F5801F02D22068C560CDE001200600E8
:105A2000CAE0E069B0F5004F69D13800C0B2002883
:105A30000CD001280ED0042810D0082814D010282B
:105A400018D0202828D0402829D02BE0FCF7F5FBDF
:105A500081462BE0FCF7FEFB814627E003A8FBF71D
:105A60007DFCDDF8109021E06846FBF797FDDDF83E
:105A700004901BE0DFF8A4030068800609D5DFF876
:105A8000A093DFF898030068C0F3C10039FA00F969
:105A900001E0DFF88C9309E0DFF8889306E04FF42B
:105AA000004903E05FF0000901200600B9F1000F92
:105AB00000F08280DFF87003616A30F81100B9FBF2
:105AC000F0F06168490811EB40016068B1FBF0F04B
:105AD00080B20500102D0FD3B5F5803F0CD24FF6E4
