:020000040800F2
:1000000058070020BD6F0008956F0008976F000823
:10001000996F00089B6F00089D6F000800000000AA
:100020000000000000000000000000009F6F0008BA
:10003000A16F000800000000A36F0008A56F000872
:10004000F96F0008FD6F00080170000805700008D6
:10005000097000080D700008117000081570000884
:10006000197000081D700008217000082570000834
:10007000297000082D7000083170000835700008E4
:10008000397000083D700008417000084570000894
:10009000497000084D700008517000085570000844
:1000A000597000085D7000086170000865700008F4
:1000B000697000086D7000087170000875700008A4
:1000C000797000087D700008817000088570000854
:1000D000897000088D700008917000089570000804
:1000E000997000089D700008A1700008A5700008B4
:1000F000A9700008AD700008B1700008B570000864
:10010000B9700008BD700008C1700008C570000813
:10011000C9700008CD700008D1700008D5700008C3
:10012000D9700008DD700008E1700008E570000873
:10013000E97000080000000000000000ED700008F9
:10014000F1700008F5700008F9700008FD700008F3
:100150000171000805710008097100080D7100089F
:100160001171000815710008197100081D7100084F
:1001700021710008257100082971000800000000A5
:100180002D710008317100083571000839710008BF
:100190003D7100084171000845710008497100086F
:1001A0004D7100085171000855710008597100081F
:1001B0005D710008617100086571000869710008CF
:1001C0006D7100087171000800000000000000005F
:1001D0000000000000000000757100080000000031
:1001E000000000000000000000000000000000000F
:1001F0000000000000000000797100087D71000817
:1002000081710008857100080000000089710008F4
:100210008D710008917100089571000899710008AE
:100220009D710008A1710008A57100080000000080
:10023000A9710008AD71000800000000B17100084C
:10024000B5710008B9710008BD710008C1710008DE
:10025000C5710008C9710008CD710008D17100088E
:10026000D5710008D9710008DD710008E17100083E
:10027000E5710008E9710008ED7100080000000058
:10028000F1710008F571000800000000F971000824
:1002900000000000FD71000801720008000000006D
:1002A0000000000005720008097200082DE9F04105
:1002B000040000275FF000082068000135D5A06E1B
:1002C000002809D0B0F5801F0FD0B0F5001F12D064
:1002D000B0F5401F16D016E0DFF8840A006850F42D
:1002E0000030DFF87C1A08600FE00221201D01F0C9
:1002F0009FFB070009E0022114F1240001F034FC07
:10030000070002E001E0012007003800C0B2002829
:100310000AD1DFF8500A016831F44011A06E0143A0
:10032000DFF8400A016000E0B8462068C00533D518
:10033000606D002806D0022813D00CD3042818D0F2
:1003400016D317E0DFF8180A006850F40030DFF821
:10035000101A086010E00021201D01F069FB070061
:100360000AE0002114F1240001F0FEFB070003E085
:1003700002E001E0012007003800C0B200280AD1E5
:10038000DFF8E0090168C908C900606D0143DFF8C2
:10039000D409016000E0B846206880053AD5A06D18
:1003A00000280CD0402813D0802817D0C0281CD09B
:1003B000B0F5807F1AD0B0F5A07F18D018E0DFF834
:1003C000A009006850F40030DFF89419086011E0CB
:1003D0000021201D01F02CFB07000BE0002114F18F
:1003E000240001F0C1FB070004E003E002E001E0AB
:1003F000012007003800C0B200280AD1DFF86409E4
:10040000016831F4E071A06D0143DFF85809016023
:1004100000E0B846206840053DD5E06D00280FD0CB
:10042000B0F5007F15D0B0F5806F18D0B0F5C06F73
:100430001CD0B0F5006F1AD0B0F5206F18D018E0BE
:10044000DFF81C09006850F40030DFF81419086068
:1004500011E00021201D01F0EBFA07000BE0002164
:1004600014F1240001F080FB070004E003E002E047
:1004700001E0012007003800C0B200280AD1DFF8EF
:10048000E408016831F46061E06D0143DFF8D408ED
:10049000016000E0B846206880012CD5A06C0028DF
:1004A00016D0102804D020280BD030280FD010E010
:1004B000DFF8AC08006850F40030DFF8A4180860DA
:1004C00009E00221201D01F0B3FA070003E002E079
:1004D00001E0012007003800C0B200280AD1DFF88F
:1004E0008808016831F03001A06C0143DFF878081A
:1004F000016000E0B8462068C00439D5206E0028AD
:100500000CD0B0F5805F12D0B0F5005F15D0B0F51B
:10051000405F19D0B0F5804F17D017E0DFF84008E2
:10052000006850F40030DFF83818086010E000214F
:10053000201D01F07DFA07000AE0002114F12400DB
:1005400001F012FB070003E002E001E001200700D8
:100550003800C0B200280AD1DFF80808016831F479
:10056000E041206E0143DFF8FC07016000E0B8467F
:100570002068800435D5606E00280FD0B0F5803F2C
:100580000DD0B0F5003F10D0B0F5403F14D0B0F51D
:10059000802F12D0B0F5A02F10D010E011E0012173
:1005A000201D01F045FA07000BE0012114F12400A1
:1005B00001F0DAFA070004E003E002E001E00120C4
:1005C00007003800C0B200280AD1DFF89807016898
:1005D00031F4E021606E0143DFF88807016000E03C
:1005E000B846206840043BD5D4F8AC00002812D0AF
:1005F000B0F1805F10D0B0F1005F13D0B0F1405F78
:1006000017D0B0F1804F15D0B0F1A04F13D0B0F19A
:10061000C04F11D011E012E00121201D01F008FAB5
:1006200007000CE0012114F1240001F09DFA0700FD
:1006300005E004E003E002E001E0012007003800EB
:10064000C0B200280BD1DFF82407016831F0E04187
:10065000D4F8AC000143DFF81407016000E0B846AD
:10066000206800042BD5606F002815D0B0F1805FA2
:1006700003D0B0F1005F09D00FE0DFF8E4060068B6
:1006800050F40030DFF8D816086008E00121201D82
:1006900001F0CEF9070002E001E001200700380078
:1006A000C0B200280AD1DFF8BC06016831F0405121
:1006B000606F0143DFF8AC06016000E0B8462068D7
:1006C000C0012BD5606C002815D002280CD002D3B5
:1006D00003280FD010E0DFF88806006850F40030DF
:1006E000DFF87C16086009E00221201D01F0A0F966
:1006F000070003E002E001E0012007003800C0B27B
:1007000000280AD1DFF86006016889088900606C5A
:100710000143DFF85406016000E0B846206840025B
:1007200040F18780DFF84806006850F48070DFF8F9
:100730004016086001F0C6FA0600DFF834060068CB
:10074000C00506D401F0BEFA801B6528F5D303204E
:1007500007003800C0B200286AD1DFF81806006828
:1007600010F44070D4F8B01011F44071884218D0E1
:10077000DFF80006006830F440700500DFF8F4058B
:10078000006850F48030DFF8EC150860DFF8E4050D
:10079000006830F48030DFF8DC150860DFF8D4053D
:1007A0000560D4F8B000B0F5807F10D101F08AFA6E
:1007B0000600DFF8C0050068800708D401F082FA5F
:1007C000801B41F289318842F3D3032007003800AF
:1007D000C0B200282AD1D4F8B00010F44070B0F5AF
:1007E000407F0FD1DFF89005006830F47C50D4F8DA
:1007F000B010DFF8882512EA11121043DFF87815DF
:10080000086007E0DFF87005006830F47C50DFF81E
:1008100068150860DFF85C050068D4F8B0100905B9
:10082000090D0843DFF84C15086002E0B84600E007
:10083000B8462078C00732D5D4F8800000280AD006
:10084000082809D010280DD0182812D0202811D03F
:10085000282810D010E011E00121201D01F0E8F857
:1008600007000BE0012114F1240001F07DF90700DD
:1008700004E003E002E001E0012007003800C0B21C
:1008800000280BD1DFF8F804016831F03801D4F802
:1008900080000143DFF8E804016000E0B8462078FA
:1008A00080072ED5E06F002808D002280DD006D38F
:1008B000042812D010D3052810D010E011E0012137
:1008C000201D01F0B5F807000BE0012114F1240010
:1008D00001F04AF9070004E003E002E001E0012032
:1008E00007003800C0B200280AD1DFF8940401687C
:1008F000C908C900E06F0143DFF88404016000E02B
:10090000B8462078400730D5D4F89800002808D0A1
:1009100002280DD006D3042812D010D3052810D0F9
:1009200010E011E00121201D01F082F807000BE02A
:10093000012114F1240001F017F9070004E003E09D
:1009400002E001E0012007003800C0B200280BD10E
:10095000DFF818040168C908C900D4F898000143F9
:10096000DFF80804016000E0B8462078800637D53B
:10097000D4F8940000280FD0B0F1805F0DD0B0F112
:10098000005F10D0B0F1405F14D0B0F1804F12D0B2
:10099000B0F1A04F10D010E011E00021201D01F0B7
:1009A00047F807000BE0022114F1240001F0DCF805
:1009B000070004E003E002E001E001200700380046
:1009C000C0B200280BD1DFF8B803016831F0E04174
:1009D000D4F894000143DFF8A803016000E0B846B2
:1009E0002078400637D5D4F8A00000280FD0B0F505
:1009F000806F0DD0B0F5006F10D0B0F5406F14D0FF
:100A0000B0F5805F12D0B0F5A05F10D010E011E01B
:100A10000021201D01F00CF807000BE0022114F169
:100A2000240001F0A1F8070004E003E002E001E087
:100A3000012007003800C0B200280BD1DFF82C03DA
:100A4000016831F4E051D4F8A0000143DFF81C0341
:100A5000016000E0B8462078000637D5D4F8A4003D
:100A600000280FD0B0F5005F0DD0B0F5804F10D04A
:100A7000B0F5C04F14D0B0F5004F12D0B0F5204FF4
:100A800010D010E011E00021201D00F0D1FF070080
:100A90000BE0022114F1240001F066F8070004E0E5
:100AA00003E002E001E0012007003800C0B20028A6
:100AB0000BD1DFF8B802016831F46041D4F8A4002A
:100AC0000143DFF8A802016000E0B8462078000783
:100AD00018D5D4F88800B0F5805F08D1022114F150
:100AE000240001F041F8002801D001208046DFF801
:100AF0009002016831F44051D4F888000143DFF8D6
:100B0000800201602078C00618D5D4F89C00B0F5AA
:100B1000807F08D1022114F1240001F025F800287B
:100B200001D001208046DFF84402016831F44071B1
:100B3000D4F89C000143DFF8340201602068000310
:100B40002BD5D4F8A800002806D0B0F5803F09D0F6
:100B5000B0F5003F0DD00DE00021201D00F068FF32
:100B6000070009E0022114F1240000F0FDFF070056
:100B700002E001E0012007003800C0B200280BD1DC
:100B8000DFF8E801016831F44031D4F8A8000143EE
:100B9000DFF8D801016000E0B846206840032DD599
:100BA000D4F88C00B0F5801F06D0B0F5001F0AD035
:100BB000B0F5401F0ED00EE06948006850F40030D8
:100BC0006749086009E0012114F1240000F0CCFF1E
:100BD000070002E001E0012007003800C0B2002851
:100BE0000BD1DFF89C01016831F44011D4F88C007E
:100BF0000143DFF88C01016000E0B8462068C003C3
:100C000025D5E06C002803D0B0F5803F07D00CE07C
:100C10005348006850F400305149086007E0022151
:100C2000201D00F005FF070001E00120070038004B
:100C3000C0B200280AD1DFF83001016831F48031F8
:100C4000E06C0143DFF82001016000E0B846206855
:100C5000800008D5022114F1240000F085FF00284F
:100C600001D0012080462068800328D5D4F8840074
:100C7000002812D0B0F5807F06D0B0F5007F0AD0F2
:100C8000B0F5407F08D009E03548006850F40030E6
:100C90003349086004E003E002E001E001200700BE
:100CA0003800C0B2002809D13548016831F44071DC
:100CB000D4F8840001433248016000E0B84620685F
:100CC000C00207D52748016821F00041A06F014309
:100CD000244801602068800207D52248016831F06D
:100CE0008071E06E01431F4801602068000507D550
:100CF0001E48016831F00061206F01431B4801600C
:100D0000206840000CD51C48006830F400401A49A7
:100D1000086019480168D4F8B4000143164801601E
:100D20002068002807D51048016831F04051206D37
:100D300001430D4801602068000208D51048016891
:100D400031F44001D4F8900001430D480160404661
:100D5000C0B2002801D1002000E00120BDE8F081F0
:100D60002C440258504402584C44025858440258EB
:100D7000004802587044025810440258CFFFFF0048
:100D800054440258F0B589B00500B5F5807F65D1AF
:100D9000DFF8340A006810F007000600002E06D0C5
:100DA000022E1CD00FD3042E25D052D354E0DFF8EE
:100DB0005C0C0068800104D506A800F013FD0798BC
:100DC00000E00020B7E2DFF8440C0068000104D521
:100DD000684600F0C3FA009800E00020ABE2DFF8BC
:100DE0002C0C0068800004D503A800F0D7FB039802
:100DF00000E000209FE2DFF8E409006810F04050B6
:100E00000400DFF8080C006840070AD5002C08D160
:100E1000DFF8FC0BDFF8F41B0968C1F3C101C8401F
:100E200016E0DFF8E80B0068C00505D5B4F1805F77
:100E300002D1DFF8AC090BE0DFF8D00B00688003CB
:100E400005D5B4F1005F02D1DFF8C80B00E0002047
:100E500071E2DFF8C40B6EE200206CE2B5F5007FB2
:100E600069D1DFF86409006810F4E0700600300012
:100E7000002809D0402813D080281DD0C02855D084
:100E8000B0F5807F24D054E0DFF8800B006880014B
:100E900004D506A800F0A6FC079800E000204AE26E
:100EA000DFF8680B0068000104D5684600F056FAC8
:100EB000009800E000203EE2DFF8500B0068800060
:100EC00004D503A800F06AFB039800E0002032E29A
:100ED000DFF80809006810F040500400DFF82C0B20
:100EE000006840070AD5002C08D1DFF8240BDFF892
:100EF0001C1B0968C1F3C101C84016E0DFF80C0BE8
:100F00000068C00505D5B4F1805F02D1DFF8D008D4
:100F10000BE0DFF8F80A0068800305D5B4F1005F44
:100F200002D1DFF8F00A00E0002004E2DFF8E80A6E
:100F300001E20020FFE1B5F5806F6CD1DFF8880891
:100F4000006810F460600600300000280CD0B0F596
:100F5000007F15D0B0F5806F1ED0B0F5C06F55D0B2
:100F6000B0F5006F24D054E0DFF8A00A00688001DB
:100F700004D506A800F036FC079800E00020DAE16E
:100F8000DFF8880A0068000104D5684600F0E6F939
:100F9000009800E00020CEE1DFF8700A00688000D1
:100FA00004D503A800F0FAFA039800E00020C2E19B
:100FB000DFF82808006810F040500400DFF84C0A01
:100FC000006840070AD5002C08D1DFF8440ADFF892
:100FD0003C1A0968C1F3C101C84016E0DFF82C0AC9
:100FE0000068C00505D5B4F1805F02D1DFF8F007D5
:100FF0000BE0DFF8180A0068800305D5B4F1005F44
:1010000002D1DFF8100A00E0002094E1DFF8080ABE
:1010100091E100208FE1B5F5805F6CD1DFF8A80782
:10102000006810F4E0400700380000280CD0B0F54C
:10103000805F15D0B0F5005F1ED0B0F5405F55D091
:10104000B0F5804F24D054E0DFF8C009006880017B
:1010500004D506A800F0C6FB079800E000206AE16E
:10106000DFF8A8090068000104D5684600F076F9A9
:10107000009800E000205EE1DFF890090068800041
:1010800004D503A800F08AFA039800E0002052E19A
:10109000DFF84807006810F040500400DFF86C09E2
:1010A000006840070AD5002C08D1DFF86409DFF892
:1010B0005C190968C1F3C101C84016E0DFF84C09AA
:1010C0000068C00505D5B4F1805F02D1DFF81007D4
:1010D0000BE0DFF838090068800305D5B4F1005F44
:1010E00002D1DFF8300900E0002024E1DFF8280910
:1010F00021E100201FE1B5F5002F57D1DFF82C09C1
:10110000006810F4403007003800002806D0B0F521
:10111000803F0FD0B0F5003F18D045E0DFF8EC0875
:101120000068000104D5684600F018F9009800E056
:10113000002000E1DFF8D4080068800004D503A88F
:1011400000F02CFA059800E00020F4E0DFF88C06AF
:10115000006810F040500400DFF8B0080068400755
:101160000AD5002C08D1DFF8A808DFF8A018096814
:10117000C1F3C101C84016E0DFF890080068C0055F
:1011800005D5B4F1805F02D1DFF854060BE0DFF83B
:101190007C080068800305D5B4F1005F02D1DFF858
:1011A000740800E00020C6E00020C4E0B5F5803FF0
:1011B00026D1DFF82806006810F4803007003800D8
:1011C000002803D0B0F5803F0CD017E0DFF83C08D2
:1011D0000068800104D506A800F004FB079800E031
:1011E0000020A8E0DFF824080068000104D5684664
:1011F00000F0B4F8029800E000209CE000209AE0A3
:10120000B5F5804F5FD1DFF82408006810F0E040AA
:1012100007003800002812D0B0F1805F12D0B0F182
:10122000005F1BD0B0F1405F24D0B0F1804F31D0CF
:10123000B0F1A04F38D0B0F1C04F3FD041E000F046
:101240007CF878E0DFF8C4070068000104D5684640
:1012500000F084F8019800E000206CE0DFF8AC07B3
:101260000068800004D503A800F098F9049800E015
:10127000002060E0DFF894070068400708D5DFF839
:101280009007DFF888170968C1F3C101C84000E082
:10129000002050E0DFF874070068C00502D5DFF8D1
:1012A000400500E0002046E0DFF8600700688003AA
:1012B00002D5DFF8600700E000203CE0DFF85807C7
:1012C00039E0002037E0B5F5004F33D1DFF8F804FE
:1012D000006810F0405007003800002806D0B0F138
:1012E000805F0DD0B0F1005F16D021E0DFF81C0761
:1012F0000068800302D5DFF81C0700E000201AE038
:10130000DFF808070068800104D506A800F06AFA33
:10131000079800E000200EE0DFF8F006006800010A
:1013200004D5684600F01AF8019800E0002002E0B9
:10133000002000E0002009B0F0BD80B500F05FFFA4
:10134000DFF82018DFF850291268C2F30212895C16
:1013500011F01F01C84002BD0000000030B48C49EC
:101360000A6812F003028A490968C1F305318A4B01
:101370001B68C3F30013DFF824492468C4F3CC04CA
:1013800004FB03F401EE104AB8EE411A002900F004
:10139000F080002A03D0022A72D051D390E0DFF807
:1013A0006C462468A4062BD5DFF86446DFF85C564B
:1013B0002D68C5F3C105EC4001EE904AB0EE610A1C
:1013C000F8EE401A02EE101AB8EE422AC1EE821A66
:1013D000DFF8CC482468E405E40D02EE104AB8EECC
:1013E000422ADFED682AC1EE222A32EE222AF7EEE7
:1013F000002A32EE222A61EE821AF0EE610A1EE025
:1014000001EE901AF8EE611A9FED5F2AC2EE211AE2
:10141000DFF88C482468E405E40D02EE104AB8EECB
:10142000422ADFED582AC1EE222A32EE222AF7EEB6
:10143000002A32EE222A61EE821AF0EE610A5EE0A4
:1014400001EE901AF8EE611A9FED502AC2EE211AB1
:10145000DFF84C482468E405E40D02EE104AB8EECB
:10146000422ADFED482AC1EE222A32EE222AF7EE86
:10147000002A32EE222A61EE821AF0EE610A3EE084
:1014800001EE901AF8EE611A9FED422AC2EE211A7F
:10149000DFF80C482468E405E40D02EE104AB8EECB
:1014A000422ADFED382AC1EE222A32EE222AF7EE56
:1014B000002A32EE222A61EE821AF0EE610A1EE064
:1014C00001EE901AF8EE611A9FED302AC2EE211A51
:1014D000DFF8CC472468E405E40D02EE104AB8EECC
:1014E000422ADFED282AC1EE222A32EE222AF7EE26
:1014F000002A32EE222A61EE821AF0EE610ADFF84B
:10150000A0472468C4F3462401EE904AF8EE611A1D
:10151000B7EE002A71EE821AC0EEA11AFCEEE11AB3
:10152000C0ED001ADFF878472468C4F3064401EEE2
:10153000904AF8EE611AB7EE002A71EE821AC0EEF8
:10154000A11AFCEEE11AC0ED011ADFF85447246835
:10155000C4F3066401EE904AF8EE611AB7EE002A71
:1015600071EE821AC0EEA11AFCEEE11AC0ED021A69
:1015700005E000240460002444600024846030BC42
:1015800070470000000000460024744C0024744A98
:1015900028440258001BB74B2C44025830B4DFF8E3
:1015A00004170A6812F00302DFF8F8160968C1F39D
:1015B0000551DFF8F4361B68C3F30023DFF8EC466F
:1015C0002468C4F3CC0404FB03F401EE104AB8EE23
:1015D000411A002900F0F080002A03D0022A72D0BC
:1015E00051D390E0DFF824442468A4062BD5DFF81B
:1015F0002044DFF818542D68C5F3C105EC4001EE16
:10160000904AB0EE610AF8EE401A02EE101AB8EEF7
:10161000422AC1EE821ADFF898462468E405E40DF8
:1016200002EE104AB8EE422ADFED682AC1EE222A05
:1016300032EE222AF7EE002A32EE222A61EE821AD8
:10164000F0EE610A1EE001EE901AF8EE611A9FEDCD
:10165000602AC2EE211ADFF858462468E405E40D3A
:1016600002EE104AB8EE422ADFED582AC1EE222AD5
:1016700032EE222AF7EE002A32EE222A61EE821A98
:10168000F0EE610A5EE001EE901AF8EE611A9FED4D
:10169000512AC2EE211ADFF818462468E405E40D49
:1016A00002EE104AB8EE422ADFED482AC1EE222AA5
:1016B00032EE222AF7EE002A32EE222A61EE821A58
:1016C000F0EE610A3EE001EE901AF8EE611A9FED2D
:1016D000422AC2EE211ADFF8D8452468E405E40D59
:1016E00002EE104AB8EE422ADFED382AC1EE222A75
:1016F00032EE222AF7EE002A32EE222A61EE821A18
:10170000F0EE610A1EE001EE901AF8EE611A9FED0C
:10171000312AC2EE211ADFF898452468E405E40D69
:1017200002EE104AB8EE422ADFED282AC1EE222A44
:1017300032EE222AF7EE002A32EE222A61EE821AD7
:10174000F0EE610ADFF868452468C4F3462401EE30
:10175000904AF8EE611AB7EE002A71EE821AC0EED6
:10176000A11AFCEEE11AC0ED001ADFF84445246826
:10177000C4F3064401EE904AF8EE611AB7EE002A6F
:1017800071EE821AC0EEA11AFCEEE11AC0ED011A48
:10179000DFF81C452468C4F3066401EE904AF8EEB5
:1017A000611AB7EE002A71EE821AC0EEA11AFCEEA1
:1017B000E11AC0ED021A05E0002404600024446030
:1017C0000024846030BC704750440258000000463A
:1017D0000024744C0024744A001BB74B4C4402583C
:1017E00000093D0030B4DFF8BC140A6812F00302AF
:1017F000DFF8B0140968C1F30511DFF8AC341B68D9
:1018000013F00103DFF8AC442468C4F3CC0404FBF8
:1018100003F401EE104AB8EE411A002900F0EE8000
:10182000002A03D0022A70D04FD38EE0774C246870
:10183000A4062AD5DFF88044744D2D68C5F3C10590
:10184000EC4001EE904AB0EE610AF8EE401A02EE6A
:10185000101AB8EE422AC1EE821ADFF860442468FA
:10186000E405E40D02EE104AB8EE422ADFED6B2AE1
:10187000C1EE222A32EE222AF7EE002A32EE222A86
:1018800061EE821AF0EE610A1EE001EE901AF8EEA7
:10189000611A9FED632AC2EE211ADFF82044246802
:1018A000E405E40D02EE104AB8EE422ADFED5B2AB1
:1018B000C1EE222A32EE222AF7EE002A32EE222A46
:1018C00061EE821AF0EE610A5EE001EE901AF8EE27
:1018D000611A9FED542AC2EE211ADFF8E043246812
:1018E000E405E40D02EE104AB8EE422ADFED4B2A81
:1018F000C1EE222A32EE222AF7EE002A32EE222A06
:1019000061EE821AF0EE610A3EE001EE901AF8EE06
:10191000611A9FED452AC2EE211ADFF8A043246820
:10192000E405E40D02EE104AB8EE422ADFED3B2A50
:10193000C1EE222A32EE222AF7EE002A32EE222AC5
:1019400061EE821AF0EE610A1EE001EE901AF8EEE6
:10195000611A9FED332AC2EE211ADFF86043246832
:10196000E405E40D02EE104AB8EE422ADFED2B2A20
:10197000C1EE222A32EE222AF7EE002A32EE222A85
:1019800061EE821AF0EE610ADFF830432468C4F396
:10199000462401EE904AF8EE611AB7EE002A71EE85
:1019A000821AC0EEA11AFCEEE11AC0ED001ADFF8AF
:1019B0000C432468C4F3064401EE904AF8EE611A21
:1019C000B7EE002A71EE821AC0EEA11AFCEEE11AFF
:1019D000C0ED011ADFF8E4422468C4F3066401EEA6
:1019E000904AF8EE611AB7EE002A71EE821AC0EE44
:1019F000A11AFCEEE11AC0ED021A05E00024046011
:101A0000002444600024846030BC704700440258C5
:101A10000090D00300366E010080BB00000000463D
:101A20000024744C0024744A001BB74B58440258DD
:101A30002DE9F04105000C0000269A48006810F0DE
:101A40000300032801D1012088E09D48006830F0A0
:101A500080609B49086000F035F9070098480068ED
:101A6000000106D500F02EF9C01B0328F6D3032091
:101A700074E08C48006830F47C30296850EA01300A
:101A8000884908606868401EC005C00DA968491EE5
:101A9000490211F47E410843E968491E090411F422
:101AA000FE0108432969491E090611F0FE41084359
:101AB0007B4908607C48016831F0C00168690143D6
:101AC000794801607848016831F02001A869014334
:101AD000754801607448006830F010007249086071
:101AE0006E4800686FF3CF00E96950EAC1006B49A6
:101AF00008606D48006850F010006B490860002CC9
:101B000006D16948006850F40020674908600EE07B
:101B1000012C06D16448006850F4801062490860C6
:101B200005E06148006850F400105F4908606448AF
:101B3000006850F080606249086000F0C3F8804699
:101B40005F480068000107D400F0BCF8B0EB080063
:101B50000328F5D3032001E03000C0B2BDE8F081D6
:101B600000000000AC6F00082DE9F04105000C00FA
:101B700000264C48006810F00300032801D1012022
:101B800088E04F48006830F080504D49086000F010
:101B900099F807004A480068800006D500F092F8DE
:101BA000C01B0328F6D3032074E03E48006830F0E1
:101BB0007C70296850EA01503A4908606868401E04
:101BC000C005C00DA968491E490211F47E410843B1
:101BD000E968491E090411F4FE0108432969491EF8
:101BE000090611F0FE410843314908602E4801689A
:101BF00031F44061686901432B4801602A4801685B
:101C000031F40071A8690143274801602648006843
:101C100030F4807024490860244800686FF3CF00D6
:101C2000E96950EAC100214908601F48006850F482
:101C300080701D490860002C06D11B48006850F4D4
:101C40008000194908600EE0012C06D11648006892
:101C500050F400001449086005E01348006850F093
:101C60008070114908601648006850F0805014498F
:101C7000086000F027F8804611480068800007D40B
:101C800000F020F8B0EB08000328F5D3032001E0B2
:101C90003000C0B2BDE8F081204402583C440258F4
:101CA00038440258284402582C44025844440258EC
:101CB00040440258344402580090D0033044025843
:101CC0000044025801480068704700BF50030020DC
:101CD000F8B504000D00002C01D101207AE1DFF8F5
:101CE000A005006810F00F00A84211D2DFF890059F
:101CF0000068000900012843DFF884150860DFF858
:101D00008005006810F00F00A84201D0012061E1B9
:101D10002078400711D5DFF88405006810F07000C6
:101D20002169884209D2DFF87405016831F0700139
:101D300020690143DFF8640501602078000711D5B0
:101D4000DFF85C05006810F070006169884209D214
:101D5000DFF84C05016831F0700160690143DFF87C
:101D6000400501602078C00611D5DFF83405006811
:101D700010F4E060A169884209D2DFF82405016807
:101D800031F4E061A0690143DFF8140501602078B7
:101D9000800611D5DFF80C05006810F07000E169CD
:101DA000884209D2DFF8FC04016831F07001E06973
:101DB0000143DFF8F00401602078800711D5DFF8D7
:101DC000DC04006810F00F00E168884209D2DFF8F7
:101DD000CC04016809090901E0680143DFF8BC048B
:101DE00001602078C0074DD5DFF8B004016831F4F8
:101DF0007061A0680143DFF8A404016060680228F4
:101E000006D1DFF88004006880031CD40120E1E0E3
:101E10006068032806D1DFF86C040068800112D4E2
:101E20000120D7E06068012806D1DFF85804006877
:101E3000C00508D40120CDE0DFF848040068400761
:101E400001D40120C6E0DFF840040168C908C900D8
:101E500060680143DFF830040160FFF733FF0600DC
:101E6000DFF82404006810F038006168B0EBC10F9F
:101E700008D0FFF727FF801B41F289318842EFD35A
:101E80000320A7E02078800711D5E068DFF80C1464
:101E9000096811F00F01884209D2DFF800040168D7
:101EA00009090901E0680143DFF8F0030160DFF888
:101EB000D003006810F00F00854211D2DFF8C00394
:101EC0000068000900012843DFF8B4130860DFF858
:101ED000B003006810F00F00A84201D0012079E0A3
:101EE0002078400711D52069DFF8B013096811F098
:101EF0007001884209D2DFF8A403016831F0700153
:101F000020690143DFF8940301602078000711D5B0
:101F10006069DFF88C13096811F07001884209D2FA
:101F2000DFF87C03016831F0700160690143DFF87C
:101F3000700301602078C00611D5A069DFF8601336
:101F4000096811F4E061884209D2DFF8540301689E
:101F500031F4E061A0690143DFF8440301602078B7
:101F6000800611D5E069DFF83C13096811F07001B3
:101F7000884209D2DFF82C03016831F07001E06972
:101F80000143DFF82003016000F026F80700DFF8C6
:101F90002803DFF808130968C1F30321405C10F03F
:101FA0001F00C740DFF81003DFF8F012096811F0D6
:101FB0000F01405C10F01F003900C140DFF8D4026F
:101FC0000160DFF8CC020760DFF8CC02006800F0A7
:101FD00079F9C0B2F2BD000010B4DFF8AC020068BD
:101FE00010F03800002806D0082815D0102816D088
:101FF000182817D000E1DFF88C020068800608D5A9
:10200000DFF88802DFF87C422468C4F3C104E040B2
:1020100001E0DFF87802F0E0DFF8A002EDE0DFF8A1
:10202000A002EAE0DFF88002006810F0030002007E
:10203000DFF874020068C0F305100100DFF86C02DD
:10204000006810F001000300DFF868020068C0F3C8
:10205000CC0000FB03F002EE100AB8EE422AB0EE0C
:10206000421A002900F0C680002A03D0022A72D04A
:1020700051D38FE0DFF80C02006880062BD5DFF823
:102080000C02DFF800422468C4F3C104E04002EE11
:10209000100AF0EE420AB8EE602A02EE901AF8EE4C
:1020A000622A82EE222ADFF808020068C005C00D0D
:1020B00002EE900AF8EE622A9FED6D3A81EE033A45
:1020C00072EE832AB7EE003A72EE832A22EE222ABB
:1020D000F0EE421A1EE002EE101AB8EE422ADFEDD0
:1020E000652A82EE822ADFF8C8010068C005C00DAB
:1020F00002EE900AF8EE622A9FED5D3A81EE033A15
:1021000072EE832AB7EE003A72EE832A22EE222A7A
:10211000F0EE421A5CE002EE101AB8EE422ADFED51
:10212000562A82EE822ADFF888010068C005C00DB9
:1021300002EE900AF8EE622A9FED4D3A81EE033AE4
:1021400072EE832AB7EE003A72EE832A22EE222A3A
:10215000F0EE421A3CE002EE101AB8EE422ADFED31
:10216000472A82EE822A52480068C005C00D02EE5E
:10217000900AF8EE622A9FED3E3A81EE033A72EE43
:10218000832AB7EE003A72EE832A22EE222AF0EE7C
:10219000421A1DE002EE101AB8EE422ADFED362A8E
:1021A00082EE822A42480068C005C00D02EE900A05
:1021B000F8EE622A9FED2E3A81EE033A72EE832A00
:1021C000B7EE003A72EE832A22EE222AF0EE421A8D
:1021D00037480068C0F34620401C02EE100AB0EEFB
:1021E000420AB8EE402A81EE822ABCEEC22A12EEE2
:1021F000100A00E0002000E0304810BC704780B5B5
:10220000FFF7EAFE01002C48244A1268C2F30322B9
:10221000805C10F01F00C1402748204A126812F06D
:102220000F02805C10F01F000A00C24019480260D3
:10223000174801601748006802BD80B5FFF7DFFF4F
:102240001D49174A1268C2F30212895C11F01F017E
:10225000C84002BD80B5FFF7D2FF1749104A126887
:10226000C2F30222895C11F01F01C84002BD0000C8
:10227000000000460024744C0024744A001BB74B35
:102280000020005200440258104402580090D0032D
:10229000040000200800002000000020184402581C
:1022A0001C44025820440258284402582C44025826
:1022B0003044025834440258AC6F000800093D0015
:1022C00000366E0110B5040011480078002801D1D5
:1022D00001201CE04FF47A700D490978B0FBF1F051
:1022E0000C490968B1FBF0F000F097F8002801D024
:1022F00001200CE0102C09D2002221005FF0FF30F9
:1023000000F079F804480460002000E0012010BDCE
:102310000C000020040000200000002010F0070343
:10232000DFF804110A684FF6FF010A4052EA03225F
:10233000DFF8F8100A43DFF8F0100A607047DFF8A2
:10234000E8000068C0F302207047000010B40200EB
:1023500012B2002A05D40A01354B040024B21A55E2
:1023600008E00A01334B040024B214F00F042344A4
:1023700003F8042C10BC704770B4030013F007047A
:10238000D4F10700052801D3042001E0D4F10700AF
:10239000251D072D01D2002500E0E51E012616FAB5
:1023A00000F0401E0140A940012010FA05F56D1E05
:1023B0002A401143080070BC704710B50400601E2D
:1023C000B0F1807F01D301200EE0601E1A49086041
:1023D0000F215FF0FF30FFF7B9FF002017490860B9
:1023E000072017490860002010BD10B50400200028
:1023F000FFF794FF10BDF8B504000D001600FFF7BD
:102400009EFF0700320029003800FFF7B5FF0100EA
:10241000200000B2FFF79AFFF1BD10B504002000C4
:10242000FFF7CBFF10BD00000CED00E00000FA0547
:1024300000E400E018ED00E014E000E018E000E047
:1024400010E000E02DE9FF4704000D0016001F001A
:102450005FF004085FF000090DF1040A4A464146A6
:10246000504600F083FE8DF804508DF805408DF83D
:1024700006708DF8076000224FF48071DFF8800C41
:1024800000F0D5FF4FF4FA700090042302AA01A9CE
:10249000DFF8700C01F0B5F801224FF48071DFF81D
:1024A000600C00F0C4FFBDE8FF872DE9FC4104008B
:1024B0000D00022600270DF104083A0031004046C5
:1024C00000F054FE8DF804508DF8054000224FF4C2
:1024D0008071DFF82C0C00F0AAFF4FF4FA70009026
:1024E00002230DF1060201A9DFF8180C01F089F8AA
:1024F00001224FF48071DFF8080C00F098FFBDE86E
:10250000F3812DE9F04F89B001F03CFB00F0CEF9EA
:1025100000F041FD00F035FA00F09CFA00F001FBFC
:1025200000F086FB00F0DAFB00F047FC00F0AFFCA7
:1025300000F0EFFC01224FF48071DFF8C40B00F0D3
:1025400076FF0020DFF8B41B08600021DFF8B80B2D
:1025500001F098FC0C21DFF8B40B01F092FB0C2188
:10256000DFF8AC0B01F08DFB06A8DFF8A81B91E8A3
:102570001C0080E81C0000208DF80A0000208DF867
:10258000090000208DF8080000208DF807000020C9
:102590008DF8060000208DF8050000208DF804005D
:1025A0000024002500265FF0000800279DF80A009F
:1025B000002808D101208DF80A0060230422202180
:1025C0000020FFF73FFF9DF80A00002806D00020FA
:1025D0008DF80A0060210020FFF767FF9DF80900D1
:1025E000002808D101208DF8090060230422212150
:1025F0000020FFF727FF9DF80900002806D00020E3
:102600008DF8090060210020FFF74FFF9DF80800BA
:10261000002808D101208DF808004023082220213D
:102620000820FFF70FFF9DF80800002806D00020C3
:102630008DF8080040210020FFF737FF9DF80700C4
:10264000002808D101208DF807004023082220210E
:102650000020FFF7F7FE9DF80700002806D00020B5
:102660008DF8070040210020FFF71FFF9DF80600AE
:10267000002808D101208DF80600402304222021E3
:102680000020FFF7DFFE9DF80600002806D000209E
:102690008DF8060040210020FFF707FF9DF8050098
:1026A000002808D101208DF80500402304222021B4
:1026B0000420FFF7C7FE9DF80500002806D0002083
:1026C0008DF8050040210020FFF7EFFE9DF8040083
:1026D000002808D101208DF8040040230222202187
:1026E0000020FFF7AFFE9DF80400002806D0002070
:1026F0008DF8040040210020FFF7D7FE2000C0B273
:10270000002807D1012004004023022220210220BA
:10271000FFF798FE2000C0B2002805D0002004007A
:1027200040210020FFF7C1FE2800C0B2002807D1D9
:10273000012005006023022220210020FFF782FEF5
:102740002800C0B2002805D000200500602100202C
:10275000FFF7ABFE3000C0B2002807D10120060011
:102760006023022220218020FFF76CFE3000C0B2DF
:10277000002805D00020060060210020FFF795FE0C
:102780004046C0B2002807D10120804640231022D5
:1027900020210020FFF756FE4046C0B2002805D099
:1027A0000020804640210020FFF77FFE3800C0B2A5
:1027B000002807D1012007004023102220211020EB
:1027C000FFF740FE3800C0B2002805D00020070007
:1027D00040210020FFF769FE0020B0F57A7F01DA82
:1027E000401CFAE75FF00A095FF0000A0DF10C0BDC
:1027F00052464946584600F0B9FC5FF0000BBBF169
:102800000A0F16DA4FF4FA73012206A800EB0B0147
:10281000DFF8040901F0FDFF4FF4FA73012203A869
:1028200000EB0B01DFF8F00802F064F81BF1010B7C
:10283000E5E75FF00A095FF0000A0DF10C0B524664
:102840004946584600F092FC5FF0000BBBF10A0FBE
:1028500016DA4FF4FA73012206A800EB0B01DFF839
:10286000BC0801F0D6FF4FF4FA73012203A800EB75
:102870000B01DFF8A80802F03DF81BF1010BE5E7BA
:102880005FF00A095FF0000A0DF10C0B5246494651
:10289000584600F06BFC4FF4FA7000900A2303AA2C
:1028A00006A9DFF8600800F0ACFE7FE610B59CB02A
:1028B0004C21002209AC200000F058FC202100220D
:1028C00001AC200000F052FC042002F0FDFC0020CE
:1028D0000090DFF84C08006830F44040DFF8401802
:1028E0000860DFF83C08006810F440400090009851
:1028F000DFF82C0800688004FAD5DFF828080068A3
:1029000080088000DFF81C18086002200990012070
:102910000C9040200D900220129000201390042073
:102920001490082015900220169001201790022084
:1029300018900C20199000201A9000201B9009A8D4
:1029400002F010FD002801D000F00EFC3F200190A5
:102950000020029000200390002004904020059069
:10296000402006904FF4806007904020089002219C
:1029700001A8FFF7ADF9002801D000F0F5FB1CB06D
:1029800010BD18B587B01C2100226C46200000F055
:10299000EDFBDFF89407DFF8941708600020DFF8FC
:1029A0008C1748600020DFF8841788600020DFF86B
:1029B0007C17C8600420DFF8741708610020DFF876
:1029C0006C1708750020DFF8641748750120DFF8E0
:1029D0005C1788610020DFF8541708770020DFF8C3
:1029E0004C1748620020DFF8441788620020DFF8A7
:1029F0003C17C8620020DFF8341708630020DFF8B6
:102A00002C1748630020DFF8241781F83800DFF81E
:102A10001C0703F0CAF8002801D000F0A5FB012034
:102A20000090062001900020029040F2FF70039079
:102A3000042004900020059000208DF819006946BC
:102A4000DFF8E80603F0CAF9002801D000F08CFB9B
:102A500008B010BD80B5DFF8D806DFF8A81608600A
:102A60005FF48000DFF89C1648600020DFF89416C1
:102A700088600720DFF88C16C8600020DFF8841615
:102A800008610020DFF87C1648615FF08060DFF8A5
:102A9000741688615FF08050DFF86816C861002006
:102AA000DFF8601608620020DFF858164862002040
:102AB000DFF8501688620020DFF84816C8625FF021
:102AC0008040DFF8401648630020DFF8381688633E
:102AD0000020DFF83016C8630020DFF828160864ED
:102AE0000020DFF8201648640020DFF818168864FC
:102AF0000020DFF81016C8640020DFF8081608650B
:102B00000020DFF8001648650020DFF8F81588651A
:102B1000DFF8F00500F0B4FC002801D000F024FB41
:102B200001BD18B595B00C2100226C46200000F0C4
:102B30001DFB1C2100220EAC200000F017FB2C21F5
:102B4000002203AC200000F011FBDFF8E805DFF8FD
:102B5000BC1508600020DFF8B41548600020DFF8DD
:102B6000AC1588604FF47A40DFF8A015C8600020EB
:102B7000DFF8981508610020DFF890154861002003
:102B8000DFF888158861DFF8840501F03DF800283A
:102B900001D000F0E9FA0020009000200190002010
:102BA00002906946DFF8640503F0B0FB002801D00D
:102BB00000F0DAFA60200E904FF4FA400F900020F7
:102BC00010900020129000201390002014900C22EE
:102BD0000EA9DFF8380501F0AAFA002801D000F0AC
:102BE000C3FA0020039000200490002005900020EC
:102BF0000690002007904FF40050089000200990A4
:102C000000200A905FF000700B9000200C900020D4
:102C10000D9003A9DFF8F40403F0C7FB002801D0EE
:102C200000F0A2FADFF8E40403F0A9FD16B010BD2D
:102C300010B58AB00C2100226C46200000F096FAF4
:102C40001C21002203AC200000F090FA5FF08040CD
:102C5000DFF8BC1408600020DFF8B41448600020DE
:102C6000DFF8AC148860DFF8D004DFF8A414C86083
:102C70000020DFF89C1408610020DFF894148861BC
:102C8000DFF88C0400F0C0FF002801D000F06CFADF
:102C900000200090002002906946DFF8740403F0E1
:102CA00035FB002801D000F05FFA60200390DFF8C8
:102CB0008C04049000200590002007900C2203A9AA
:102CC000DFF84C0401F033FA002801D000F04CFA90
:102CD000DFF83C0403F053FD0AB010BD18B587B00F
:102CE0000C21002204AC200000F040FA1021002248
:102CF0006C46200000F03AFADFF84404DFF80814CC
:102D000008600020DFF8001448600020DFF8F813A6
:102D100088604FF6FF70DFF8F013C8600020DFF81E
:102D2000E81308610020DFF8E0138861DFF8D803BA
:102D300001F068F8002801D000F016FA0020049095
:102D40000020069004A9DFF8C00303F0DFFA002892
:102D500001D000F009FA002000900120019000202D
:102D600002900020039000226946DFF89C0301F0E6
:102D700079F9002801D000F0F7F904226946DFF85C
:102D8000880301F06FF9002801D000F0EDF9082266
:102D90006946DFF8740301F065F9002801D000F0FE
:102DA000E3F90C226946DFF8600301F05BF90028C3
:102DB00001D000F0D9F908B010BD18B587B00C21CA
:102DC000002204AC200000F0D1F9102100226C4652
:102DD000200000F0CBF9DFF86C03DFF86C1308601B
:102DE0000020DFF8641348600020DFF85C1388607F
:102DF0004FF6FF70DFF85013C8600020DFF848136B
:102E000008610020DFF840138861DFF83C0300F020
:102E1000F9FF002801D000F0A7F90020049000205D
:102E2000069004A9C84803F071FA002801D000F008
:102E30009BF90020009001200190002002900020CA
:102E4000039000226946C04801F00CF9002801D027
:102E500000F08AF904226946BB4801F003F9002812
:102E600001D000F081F908226946B74801F0FAF86C
:102E7000002801D000F078F90C226946B24801F030
:102E8000F1F8002801D000F06FF908B010BD80B54E
:102E9000AE48A14908605FF4E1309F4948600020D6
:102EA0009D49886000209C49C86000209A490861BB
:102EB0000C20994948610020974988610020964973
:102EC000C8610020944908620020934948620020AC
:102ED00091498862904801F05DFC002801D000F023
:102EE00043F900218C4803F070FD002801D000F068
:102EF0003BF90021884803F093FD002801D000F041
:102F000033F9854803F03EFD002801D000F02CF98C
:102F100001BD80B58E48814908605FF4E1307F498A
:102F2000486000207D49886000207C49C8600020FE
:102F30007A4908610C207949486100207749886105
:102F400000207649C8610020744908620020734956
:102F50004862002071498862704801F01BFC00281B
:102F600001D000F001F900216C4803F02EFD00288B
:102F700001D000F0F9F80021684803F051FD002865
:102F800001D000F0F1F8654803F0FCFC002801D006
:102F900000F0EAF801BD10B586B0142100226C469D
:102FA000200000F0E3F86B48006850F01000694919
:102FB00008606848006810F01000059005986548A2
:102FC000006850F00400634908606248006810F02F
:102FD0000400059005985F48006850F001005D49C5
:102FE00008605C48006810F0010005900598594899
:102FF000006850F00200574908605648006810F019
:103000000200059005985348006850F008005149A7
:1030100008605048006810F00800059005980022EC
:103020004FF48271364800F002FA00224FF400415A
:10303000494800F0FCF900226021484800F0F7F907
:1030400041F6FF7000900020019000200290694638
:10305000414800F0D3F840F638500090002001902D
:103060000020029069463E4800F0C8F84FF4827094
:1030700000900120019000200290002003906946FA
:103080001F4800F0BBF84FF4004000900120019071
:10309000002002900020039069462F4800F0AEF80F
:1030A0004FF480500090002001900020029069466B
:1030B0002C4800F0A3F81820009000200190002078
:1030C00002906946254800F099F8602000900120A0
:1030D0000190002002900020039069461F4800F0F4
:1030E0008DF8F820009000200190002002906946A1
:1030F000034800F083F806B010BD00004C03002028
:103100000004025830010020B40200201C020020FC
:1031100068020020DC6F000810000020A0000020E2
:10312000184802582844025800210240B8010020E3
:10313000003800400000014000C4090000E2040023
:10314000000400400008004000030020001001407F
:10315000004800404045025800100258000C025838
:10316000000002580008025872B6FEE762F30F2210
:1031700062F31F42401810F0030308D0C91A1FD38E
:10318000DB0748BF00F8012D28BF20F8022D1300EF
:1031900030B414461546103928BF20E93C00FAD84F
:1031A000490728BF20E90C0048BF40F8042D8900DA
:1031B00028BF20F8022D48BF00F8012D30BC704711
:1031C000C91818BF00F8012DCB0728BF00F8012D42
:1031D00070470EE002684368024408305FEAC37C2F
:1031E00044BF4B445B1E52F804CB43F804CB091F89
:1031F000F9D150F8041B0029ECD17047F8B4030052
:103200000025DFF844620868E840002800F00D81DE
:1032100008680127AF4038400200002A00F003810F
:103220004868012808D04868022805D04868112855
:1032300002D04868122824D19F685FF0030C280050
:10324000C0B240001CFA00FC37EA0C07D1F80CC0F1
:103250002800C0B240001CFA00FC5CEA07079F602F
:1032600058685FF0010C1CFA05FC30EA0C00D1F83C
:1032700004C0CCF3001C1CFA05FC5CEA000004004E
:103280005C60DF685FF0030C2800C0B240001CFAED
:1032900000FC37EA0C07D1F808C02800C0B2400093
:1032A0001CFA00FC5CEA0707DF604868022802D0CD
:1032B000486812281ED12800C00803EB8000046A69
:1032C0005FF00F0C15F00700C0B280001CFA00FC84
:1032D00034EA0C04D1F810C015F00700C0B2800029
:1032E0001CFA00FC5CEA040427002800C00803EB79
:1032F000800007621C685FF0030C2800C0B2400029
:103300001CFA00FC34EA0C0491F804C01CF0030C15
:103310002800C0B240001CFA00FC5CEA04041C60F7
:103320004868C00040F17F80DFF82001006850F05D
:103330000200DFF818713860DFF81001006810F043
:10334000020000900098DFF808012F00BF0850F835
:1033500027705FF00F0C15F00300C0B280001CFA5C
:1033600000FC37EA0C073B48834201D100242DE0E2
:103370003948834201D1012428E03848834201D1F1
:10338000022423E03648834201D103241EE035485D
:10339000834201D1042419E03348834201D105243A
:1033A00014E03248834201D106240FE030488342C2
:1033B00001D107240AE02F48834201D1082405E007
:1033C0002D48834201D1092400E00A2415F00300AE
:1033D000C0B28000844027431D482C00A40840F858
:1033E0002470306890434C68E40300D5104330608B
:1033F000746894434F68BF0300D5144374605FF052
:10340000B040006890434F68FF0200D510435FF062
:10341000B0442060194C246894434F68BF0200D523
:103420001443164804606D1CEDE6F1BC70471300B0
:10343000DBB2002B03D00B009BB2836103E00B00D7
:103440009BB21B04836170478000005854450258AA
:1034500008040058000002580004025800080258EE
:10346000000C0258001002580014025800180258AC
:10347000001C025800200258002402580400005882
:1034800070B504000025002C01D10120B8E0606A6D
:1034900000280020A0622068DFF8AC1588420ED01A
:1034A0002068DFF8A815884209D02068DFF8A01549
:1034B000884204D0E068102801D30120A0E0200059
:1034C00000F054FB06002068DFF87C1588420BD022
:1034D0002068DFF87815884206D02068DFF870157C
:1034E000884201D0092E10D22068DFF85C1588428E
:1034F00009D02068DFF85415884204D02068DFF82E
:103500005015884203D1112E01D3012078E094F8A0
:103510008100002805D1002084F88000200003F0FD
:1035200012F8022084F881002068006840084000FA
:1035300021680860A069B0F1806F13D16068B0F5B0
:10354000800F02D1A06B002806D06068002809D146
:10355000A06BB0F1805F05D12068006850F4805006
:1035600021680860E169A06A01432943E06B0143D7
:10357000E068014320688160616B606A0143A06B71
:103580000143A06901432069014360690143206A46
:10359000014360680143E06C0143A0680143A06CF3
:1035A0000143A06D01432068C160606800280FD10D
:1035B0002068806830F4C05050F400602168886052
:1035C0002068806830F4C06050F4806021688860B2
:1035D0002068006D4008400021680865606840026E
:1035E00007D52068C16821F00041606D0143206863
:1035F000C1600020C4F88400012084F8810000200C
:1036000070BD2DE9F34F83B0060015001F000E9C1E
:103610005FF0000896F88000012801D102200FE237
:10362000012086F88000FEF74DFB8146BA46BB4676
:1036300096F881008DF80400706802909DF80400EF
:10364000012810D00298B0F5800F06D1B06800288C
:1036500003D19DF80400042805D00220002186F83B
:103660008010C0B2ECE10498002805D0002D03D0F2
:10367000380080B2002805D10120002186F8801092
:10368000C0B2DDE196F88100042802D0052086F85A
:1036900081000020C6F884007566A6F86A70A6F856
:1036A00068700498F065A6F86270A6F86070002053
:1036B00030670020706730684168090C09043800E1
:1036C00080B20143306841603068006850F001000A
:1036D000316808607068B0F5800F05D13068006807
:1036E00050F4007031680860F068102854D35046D8
:1036F00080B2002804D1584680B2002800F08081B2
:1037000030684069800712D5504680B200280ED03C
:10371000F06D006831680862F06D001DF065B6F864
:103720006200401EA6F86200B6F862008246306869
:10373000406948F20801084212D0584680B2002879
:103740000ED03068006B716E0860706E001D706680
:10375000B6F86A00401EA6F86A00B6F86A0083460A
:10376000FEF7B0FAB0EB0900A04202D314F1010F4A
:1037700001D1002CBBD1300000F06CF9002086F89C
:103780008000D6F8840050F48070C6F884000120D0
:1037900086F88100012053E1F0680828C0F07F809E
:1037A000504680B2002804D1584680B2002800F06C
:1037B000278130684069800729D5504680B20028AB
:1037C00025D0504680B2022812D3F06B00280FD0CB
:1037D000F06D006831680862F06D001DF065B6F8A4
:1037E0006200801EA6F86200B6F8620082460EE013
:1037F000F06D008831680884F06D801CF065B6F8C3
:103800006200401EA6F86200B6F862008246306888
:10381000406910F4604F26D0584680B2002822D06C
:103820003068406900040FD53068006B716E086025
:10383000706E001D7066B6F86A00801EA6F86A00F9
:10384000B6F86A0083460EE03068008E716E08801C
:10385000706E801C7066B6F86A00401EA6F86A009A
:10386000B6F86A008346FEF72DFAB0EB0900A042D5
:1038700002D314F1010F01D1002C91D1300000F0DE
:10388000E9F8002086F88000D6F8840050F48070B3
:10389000C6F88400012086F881000120D0E050465F
:1038A00080B2002804D1584680B2002800F0A880D9
:1038B00030684069800741D5504680B200283DD02D
:1038C000504680B2042812D3F06B41280FD3F06D1C
:1038D000006831680862F06D001DF065B6F862009E
:1038E000001FA6F86200B6F86200824626E0504645
:1038F00080B2022812D3F06B00280FD0F06D008840
:1039000031680884F06D801CF065B6F86200801E96
:10391000A6F86200B6F8620082460FE0F06D00780B
:10392000316881F82000F06D401CF065B6F8620047
:10393000401EA6F86200B6F8620082463068406910
:1039400010F4604F3FD0584680B200283BD030681A
:10395000406900040FD53068006B716E0860706EAE
:10396000001D7066B6F86A00001FA6F86A00B6F877
:103970006A00834627E03068406910F4C04042F294
:10398000010188420FD33068008E716E0880706E1E
:10399000801C7066B6F86A00801EA6F86A00B6F849
:1039A0006A0083460FE0306890F83000716E08704E
:1039B000706E401C7066B6F86A00401EA6F86A0079
:1039C000B6F86A008346FEF77DF9B0EB0900A04225
:1039D00002D314F1010F02D1002C7FF460AF30004C
:1039E00000F038F8002086F88000D6F8840050F403
:1039F0008070C6F88400012086F8810001201FE055
:103A000000944B4600220821300000F08DF8002879
:103A100005D0D6F8840050F02000C6F884003000AD
:103A200000F018F8002086F88000012086F8810058
:103A3000D6F88400002801D0012001E04046C0B241
:103A400005B0BDE8F08F00000030014000380040B4
:103A5000003C004001684A690168896951F0080129
:103A6000036899610168896951F0100103689961DF
:103A700001680968490849000368196001680B6911
:103A800028490B4001680B610168896831F44041A5
:103A90000368996090F8811004290DD091060BD528
:103AA000D0F8841051F08001C0F884100168896951
:103AB00051F020010368996190F8811003290DD01D
:103AC00051060BD5D0F8841051F00401C0F88410D1
:103AD0000168896951F040010368996191050BD52E
:103AE000D0F8841051F00101C0F884100168896990
:103AF00051F4007103689961D1050BD5D0F8841099
:103B000051F00801C0F884100168896951F480718E
:103B1000036899610021A0F862100021A0F86A10E2
:103B20007047000090FCFFFF2DE9F04105000E00FA
:103B300090461F00069C286840693040B04201D181
:103B4000012000E000204146C9B288420BD1FEF7B7
:103B5000B9F8C01BA04202D314F1010F01D1002C0F
:103B6000E9D1032000E00020BDE8F0810100C86B2E
:103B70004009401CCA68521CD21DD20800FB02F04A
:103B80007047000010B50320FEF72FFCFEF724FA63
:103B90000400DFF86000DFF860100968C1F303215A
:103BA000405C10F01F00C440DFF84800DFF8481008
:103BB000096811F00F01405C10F01F002100C140A6
:103BC000DFF838000160DFF8380004600020FEF7FD
:103BD00079FB002801D0012002E002F03DFC00202A
:103BE00010BDDFF82020126882430A43DFF814304A
:103BF0001A607047AC6F0008184402580800002093
:103C0000040000200404005810B50400002C01D169
:103C1000012035E094F83D00002805D1002084F80B
:103C20003C00200002F0FBFC022084F83D00211D36
:103C3000206800F029FB012084F84800012084F866
:103C40003E00012084F83F00012084F8400001205C
:103C500084F84100012084F84200012084F84300E8
:103C6000012084F84400012084F84500012084F8F4
:103C70004600012084F84700012084F83D00002020
:103C800010BD70B505000C00002C02D195F83E0067
:103C900015E0042C02D195F83F0010E0082C02D169
:103CA00095F840000BE00C2C02D195F8410006E09D
:103CB000102C02D195F8420001E095F8430001284C
:103CC00001D001208BE0002C04D1022085F83E00B9
:103CD000C0B21FE0042C04D1022085F83F00C0B21E
:103CE00018E0082C04D1022085F84000C0B211E091
:103CF0000C2C04D1022085F84100C0B20AE0102C3F
:103D000004D1022085F84200C0B203E0022085F809
:103D10004300C0B201222100286800F029FD286874
:103D2000DFF8BC10884213D02868DFF8B81088424A
:103D30000ED02868DFF8C410884209D02868DFF860
:103D4000C010884204D02868DFF8AC10884201D146
:103D5000012000E00020C0B2002805D02868406C97
:103D600050F40040296848642868DFF874108842DD
:103D70001CD02868B0F1804F18D02868DFF8681090
:103D8000884213D02868DFF8641088420ED0286873
:103D9000DFF85C10884209D02868DFF848108842B4
:103DA00004D02868DFF84C10884211D12868816857
:103DB000DFF8CC0001400E00062E0FD0B6F5803F94
:103DC0000CD02868006850F001002968086005E000
:103DD0002868006850F0010029680860002070BD64
:103DE00000000140000401400004004000080040C1
:103DF000000C004000180040004801400040014015
:103E00000044014010B50400002C01D1012035E030
:103E100094F83D00002805D1002084F83C002000E3
:103E200002F028FC022084F83D00211D206800F0EB
:103E30002BFA012084F84800012084F83E0001207C
:103E400084F83F00012084F84000012084F84100FC
:103E5000012084F84200012084F84300012084F806
:103E60004400012084F84500012084F84600012028
:103E700084F84700012084F83D00002010BD0000B8
:103E8000070001002DE9F04105000C00002C02D1D3
:103E900095F83E7015E0042C02D195F83F7010E0C3
:103EA000082C02D195F840700BE00C2C02D195F84B
:103EB000417006E0102C02D195F8427001E095F8AF
:103EC0004370002C02D195F844800BE0042C02D101
:103ED00095F8458006E0082C02D195F8468001E06F
:103EE00095F847803800C0B2012803D14046C0B2DF
:103EF000012801D00120A5E0002C04D1022085F882
:103F00003E00C0B21FE0042C04D1022085F83F001F
:103F1000C0B218E0082C04D1022085F84000C0B2DD
:103F200011E00C2C04D1022085F84100C0B20AE057
:103F3000102C04D1022085F84200C0B203E0022018
:103F400085F84300C0B2002C04D1022085F844005B
:103F5000C0B211E0042C04D1022085F84500C0B2A3
:103F60000AE0082C04D1022085F84600C0B203E024
:103F7000022085F84700C0B22000002806D004289F
:103F80000BD0082810D00C2815D01BE02868C0687A
:103F900050F002002968C86014E02868C06850F03A
:103FA00004002968C8600DE02868C06850F0080067
:103FB0002968C86006E02868C06850F010002968C9
:103FC000C860FFE701222100286800F0D1FB2868C3
:103FD000DFF8741088421CD02868B0F1804F18D0E8
:103FE0002868DFF86C10884213D02868DFF8641066
:103FF00088420ED02868DFF86010884209D028680F
:10400000DFF84810884204D02868DFF85010884252
:1040100011D128688168DFF8480001400E00062EA3
:104020000FD0B6F5803F0CD02868006850F0010032
:104030002968086005E02868006850F001002968D8
:1040400008600020BDE8F08100000140000401404C
:104050000004004000080040000C00400018004030
:104060000700010070B505000E00140095F83C0033
:10407000012801D1022059E0012085F83C00002CE4
:1040800012D1F36872683168286800F0D0FA2868A5
:10409000806930F00C002968886128688169B068FF
:1040A0000143286881613DE0042C13D1F3687268F4
:1040B0003168286800F0F5FA2868806930F44060BB
:1040C0002968886128688069B16850EA01202968F8
:1040D000886127E0082C12D1F3687268316828687B
:1040E00000F0FAFA2868C06930F00C002968C8614D
:1040F0002868C169B06801432868C16112E0F368AB
:1041000072683168286800F001FB2868C06930F4E3
:1041100040602968C8612868C069B16850EA012018
:104120002968C861002085F83C00002070BD70B58A
:1041300004000D00160094F83C00012801D1022073
:10414000A1E0012084F83C00300000280AD00428B7
:104150001FD0082835D00C284AD0102860D0142849
:1041600075D08CE02900206800F0F3F820688069A1
:1041700050F00800216888612068806930F00400F0
:10418000216888612068816928690143206881610C
:1041900075E02900206800F02CF92068806950F44F
:1041A0000060216888612068806930F4806021683F
:1041B000886120688069296950EA01202168886146
:1041C0005DE02900206800F05EF92068C06950F0C9
:1041D00008002168C8612068C06930F004002168C7
:1041E000C8612068C169286901432068C16146E04F
:1041F0002900206800F08EF92068C06950F4006042
:104200002168C8612068C06930F480602168C86195
:104210002068C069296950EA01202168C8612EE040
:104220002900206800F0AAF92068406D50F00800CD
:10423000216848652068406D30F0040021684865B9
:104240002068416D286901432068416517E0290015
:10425000206800F0BFF92068406D50F400602168CC
:1042600048652068406D30F48060216848652068AA
:10427000406D296950EA012021684865FFE7002068
:1042800084F83C00002070BD0368DFF8B824904239
:1042900012D0B0F1804F0FD0DFF8AC2490420BD099
:1042A000DFF8A824904207D0DFF8A424904203D07E
:1042B000DFF8A024904203D133F070034A6813431F
:1042C000DFF8802490421ED0B0F1804F1BD0DFF881
:1042D0007824904217D0DFF87424904213D0DFF88E
:1042E000702490420FD0DFF86C2490420BD0DFF89E
:1042F0006824904207D0DFF86424904203D0DFF8AE
:104300006024904203D133F44073CA68134333F0FE
:1043100080034A69134303608A68C2620A68826242
:10432000DFF8202490420FD0DFF8282490420BD0F1
:10433000DFF82424904207D0DFF82024904203D0F5
:10434000DFF81C24904201D10A6902630122426114
:10435000704730B4026A520852000262056A43682C
:104360008469DFF800241440A408A4000A681443F8
:1043700035F002058A681543DFF8C82390420FD054
:10438000DFF8D02390420BD0DFF8CC23904207D047
:10439000DFF8C823904203D0DFF8C423904205D150
:1043A00035F00805CA68154335F00405DFF8942395
:1043B00090420FD0DFF89C2390420BD0DFF8982377
:1043C000904207D0DFF89423904203D0DFF8902387
:1043D000904207D133F4807333F400734A69134376
:1043E0008A691343436084614A684263056230BC52
:1043F000704730B4026A32F010020262056A436804
:104400008469DFF86423144034F440740A6854EA81
:10441000022435F020058A6855EA0215DFF82423C6
:10442000904203D0DFF82C23904206D135F080056E
:10443000CA6855EA021535F04005DFF808239042B6
:104440000FD0DFF8102390420BD0DFF80C239042FE
:1044500007D0DFF80823904203D0DFF8042390420E
:1044600009D133F4806333F400634A6953EA820369
:104470008A6953EA8203436084614A688263056201
:1044800030BC7047000030B4026A32F480720262BD
:10449000056A4368C46934F07004A408A4000A687B
:1044A000144335F400758A6855EA0225DFF8942232
:1044B000904203D0DFF89C22904206D135F400658B
:1044C000CA6855EA022535F48065DFF87822904203
:1044D0000FD0DFF8802290420BD0DFF87C22904290
:1044E00007D0DFF87822904203D0DFF874229042A0
:1044F00009D133F4805333F400534A6953EA021369
:104500008A6953EA02134360C4614A68C263056260
:1045100030BC704730B4026A32F480520262036ADF
:104520004468C26932F4E04232F440720D6852EAE3
:10453000052233F400538D6853EA0533DFF8045243
:10454000A8420FD0DFF80C52A8420BD0DFF8085277
:10455000A84207D0DFF80452A84203D0DFF8005287
:10456000A84204D134F480444D6954EA851444606F
:10457000C2614D680564036230BC704730B4026AA2
:1045800032F480320262046A4568436D33F070038E
:104590000A68134334F400348A6854EA0244694ACE
:1045A00090420BD06B4A904208D06B4A904205D0A3
:1045B0006A4A904202D06A4A904204D135F480356A
:1045C0004A6955EA0225456043654A688265046286
:1045D00030BC704730B4026A32F480120262036A5F
:1045E0004468426D32F4E0420D6852EA052233F429
:1045F00000138D6853EA0553524DA8420BD0554D18
:10460000A84208D0544DA84205D0544DA84202D02B
:10461000534DA84204D134F400344D6954EA852442
:10462000446042654D68C565036230BC704770B434
:10463000046A6408640004628569066A414CA04209
:1046400014D0B0F1804F11D03F4CA0420ED03F4C5F
:10465000A0420BD03E4CA04208D03E4CA04205D018
:10466000424CA04202D03C4CA04201D1012400E0C7
:104670000024E4B2002C03D0AD08AD00154301E0E6
:1046800055F0010535F0F0051C0114F0F004254348
:1046900036F00A0611F00A0426438561066270BCF2
:1046A000704770B4046A34F0100404628469056AC7
:1046B00034F4407454EA022434F470441E0316F4B3
:1046C0007046344335F0A0050E0116F0A0063543C0
:1046D0008461056270BC704770B4046A34F48074FD
:1046E0000462C469056AA408A400144334F0F00409
:1046F0001E0116F0F006344335F420650E0216F460
:1047000020663543C461056270BC704770B4046AAA
:1047100034F480540462C469056A34F4407454EA81
:10472000022434F470441E0316F47046344335F406
:1047300020450E0316F420463543C461056270BC63
:1047400070470000000001400004004000080040E5
:10475000000C0040000401400040014000440140C2
:10476000004801408FFFFEFFFF8FFFFE0018004052
:1047700030B4012411F01F0314FA03F3046A9C43BC
:104780000462046A11F01F0512FA05F52C43046255
:1047900030BC704710B50400002C01D1012037E077
:1047A000A0690028FFD1D4F88400002805D100209A
:1047B00084F88000200002F02BF82420C4F8840044
:1047C000206800684008400021680860200000F070
:1047D00037F9012801D101201AE0A06A002802D08F
:1047E000200000F047FC2068406830F490402168C9
:1047F00048602068806830F02A002168886020685E
:10480000006850F0010021680860200000F09FFC63
:1048100010BD2DE9FC4706000D0017009846D6F89C
:104820008400202863D1002D03D0380080B20028F6
:1048300001D101205CE096F88000012801D102201E
:1048400056E0012086F880000020C6F88C00212068
:10485000C6F88400FDF736FA8146A6F85470A6F82B
:104860005670B068B0F5805F05D13069002802D17C
:104870000024AA4602E02C005FF0000A002086F81F
:104880008000B6F85600002820D0CDF800804B46B6
:1048900000228021300000F093FC002801D003208A
:1048A00026E0002C08D1BAF80000C005C00D316820
:1048B00088621AF1020A03E0207831688862641C79
:1048C000B6F85600401EA6F85600DAE7CDF800808C
:1048D0004B4600224021300000F072FC002801D03D
:1048E000032005E02020C6F88400002000E002201C
:1048F000BDE8F6872DE9F84F83460D0016001F002E
:10490000DBF88800202840F09880002D03D030008C
:1049100080B2002801D1012090E09BF8800001289E
:1049200001D102208AE001208BF880000020CBF822
:104930008C002220CBF888000020CBF86C00FDF71B
:10494000C1F98046ABF85C60ABF85E60DBF808004C
:10495000B0F5805F0CD1DBF81000002804D140F2E4
:10496000FF10ABF8600027E0FF20ABF8600023E009
:10497000DBF8080000280BD1DBF81000002803D179
:10498000FF20ABF8600017E07F20ABF8600013E079
:10499000DBF80800B0F1805F0BD1DBF810000028D5
:1049A00003D17F20ABF8600006E03F20ABF8600049
:1049B00002E00020ABF86000BBF86090DBF8080074
:1049C000B0F5805F06D1DBF81000002802D100248A
:1049D000AA4602E02C005FF0000A00208BF880005D
:1049E000BBF85E00002823D0009743460022202118
:1049F000584600F0E5FB002801D003201EE0002C03
:104A000009D1DBF80000406A19EA0000AAF80000AA
:104A10001AF1020A06E0DBF80000406A19EA000019
:104A20002070641CBBF85E00401EABF85E00D7E748
:104A30002020CBF88800002000E00220BDE8F28FA3
:104A40002DE9F84F86B0040000262068DFF82C1806
:104A50008842FFD0A1682069014360690143E06991
:104A6000014320680268DFF8180802400A43206802
:104A700002602068426832F44052E06802432068D5
:104A80004260D4F818802068DFF8F027904202D006
:104A9000206A50EA080820688168DFF8E8070140CA
:104AA00058EA0101206881602068C16A090909018A
:104AB000606A01432068C1622068DFF8CC17884231
:104AC0001FD1DFF8C807006810F0380000280AD0AE
:104AD00008280AD010280AD018280AD020280AD07E
:104AE00028280AD00BE0012770E104276EE108278F
:104AF0006CE110276AE1202768E1402766E1802702
:104B000064E12068DFF8881788421DD1DFF87C0750
:104B1000006810F00700002808D002280AD007D348
:104B200004280BD008D305280AD00BE000274DE15C
:104B300004274BE1082749E1102747E1202745E1F9
:104B4000402743E1802741E12068DFF84817884289
:104B50001DD1DFF83807006810F00700002808D0E2
:104B600002280AD007D304280BD008D305280AD07E
:104B70000BE000272AE1042728E1082726E1102777
:104B800024E1202722E1402720E180271EE1206840
:104B9000DFF8041788421DD1DFF8F006006810F036
:104BA0000700002808D002280AD007D304280BD019
:104BB00008D305280AD00BE0002707E1042705E108
:104BC000082703E1102701E12027FFE04027FDE04F
:104BD0008027FBE02068DFF8C41688421DD1DFF88B
:104BE000AC06006810F00700002808D002280AD0A0
:104BF00007D304280BD008D305280AD00BE00027E0
:104C0000E4E00427E2E00827E0E01027DEE02027C8
:104C1000DCE04027DAE08027D8E02068DFF8801663
:104C200088421FD1DFF86406006810F038000028C1
:104C30000AD008280AD010280AD018280AD020281C
:104C40000AD028280AD00BE00127BFE00427BDE0E6
:104C50000827BBE01027B9E02027B7E04027B5E0E0
:104C60008027B3E02068DFF83C1688421DD1DFF8CA
:104C70001C06006810F00700002808D002280AD09F
:104C800007D304280BD008D305280AD00BE000274F
:104C90009CE004279AE0082798E0102796E0202758
:104CA00094E0402792E0802790E02068DFF8F81534
:104CB00088421DD1DFF8D405006810F007000028F5
:104CC00008D002280AD007D304280BD008D305281F
:104CD0000AD00BE0002779E0042777E0082775E089
:104CE000102773E0202771E040276FE080276DE0F8
:104CF0002068DFF8B81588421FD1DFF890050068FA
:104D000010F0380000280AD008280AD010280AD04D
:104D100018280AD020280AD028280AD00BE001271A
:104D200054E0042752E0082750E010274EE02027E7
:104D30004CE040274AE0802748E02068DFF8701503
:104D400088421FD1DFF84405006810F038000028C1
:104D50000AD008280AD010280AD018280AD02028FB
:104D60000AD028280AD00BE001272FE004272DE0E5
:104D700008272BE0102729E0202727E0402725E0FF
:104D8000802723E02068DFF8F41488421DD1DFF883
:104D90002405006810F00700002808D002280AD077
:104DA00007D304280BD008D305280AD00BE002272C
:104DB0000CE004270AE0082708E0102706E0202777
:104DC00004E0402702E0802700E080272068DFF829
:104DD000AC14884273D13800C0B202280AD004282B
:104DE0000CD0082810D0102814D0202824D0402817
:104DF00025D027E0FCF7A1FA814627E003A8FCF7BD
:104E0000ADFADDF8109021E06846FCF7C7FBDDF84D
:104E100004901BE0DFF8A0040068800609D5DFF8E5
:104E20009C94DFF894040068C0F3C10039FA00F9DB
:104E300001E0DFF8889409E0DFF8849406E04FF49D
:104E4000004903E05FF0000901200600B9F1000FFE
:104E500000F00081DFF86C04616A30F81100B9FBE2
:104E6000F0F082466168032041438A4505D36168BA
:104E70004FF480504143514502D201200600E9E041
:104E8000DFF84004616A30F81100B9FBF0F24FF42A
:104E90008073606840080021E3FB02016268002320
:104EA00001F026FE0500B5F5407F05D3B5F5801F5E
:104EB00002D22068C560CDE001200600CAE0E069AA
:104EC000B0F5004F69D13800C0B200280CD00128DD
:104ED0000ED0042810D0082814D0102818D020286C
:104EE00028D0402829D02BE0FDF7A7F981462BE0F8
:104EF000FDF7B0F9814627E003A8FCF72FFADDF8AB
:104F0000109021E06846FCF749FBDDF804901BE0B7
:104F1000DFF8A4030068800609D5DFF8A093DFF866
:104F200098030068C0F3C10039FA00F901E0DFF826
:104F30008C9309E0DFF8889306E04FF4004903E022
:104F40005FF0000901200600B9F1000F00F0828037
:104F5000DFF87003616A30F81100B9FBF0F06168A6
:104F6000490811EB40016068B1FBF0F080B2050028
:104F7000102D0FD3B5F5803F0CD24FF6F0712940BC
:104F80002800C0F3420001438B46584680B2216896
:104F9000C8605FE0012006005CE03800C0B2002875
:104FA0000CD001280ED0042810D0082814D01028C6
:104FB00018D0202828D0402829D02BE0FDF73DF933
:104FC00081462BE0FDF746F9814627E003A8FCF770
:104FD000C5F9DDF8109021E06846FCF7DFFADDF84E
:104FE00004901BE0DFF8D0020068800609D5DFF8E6
:104FF000CC92DFF8C4020068C0F3C10039FA00F9AE
:1050000001E0DFF8B89209E0DFF8B49206E04FF46F
:10501000004903E05FF0000901200600B9F1000F2C
:1050200018D0DFF8A002616A30F81100B9FBF0F087
:10503000616810EB51006168B0FBF1F080B20500CF
:10504000102D05D3B5F5803F02D22068C56001E080
:10505000012006000120A4F86A000120A4F86800DD
:1050600000202067002060673000C0B207B0BDE8B4
:10507000F08F000090F82810C90707D501684A682A
:1050800032F40032C16A0A4301684A6090F828107D
:10509000890707D501684A6832F48032016B0A43F8
:1050A00001684A6090F82810490707D501684A68E6
:1050B00032F48022416B0A4301684A6090F828105C
:1050C000090707D501684A6832F40042816B0A4338
:1050D00001684A6090F82810C90607D501688A68F7
:1050E00032F48052C16B0A4301688A6090F828103C
:1050F000890607D501688A6832F40052016C0A43B8
:1051000001688A6090F82810490613D501684A683A
:1051100032F48012416C0A4301684A60416CB1F577
:10512000801F07D101684A6832F4C002816C0A43CB
:1051300001684A6090F82810090607D501684A6896
:1051400032F40022C16C0A4301684A60704738B5E6
:1051500004000020C4F88C00FCF7B4FD05002068B2
:10516000006800070DD57FF07E4000902B000022E4
:105170005FF40011200000F023F8002801D0032084
:105180001DE02068006840070DD57FF07E4000904C
:105190002B0000225FF48001200000F011F80028AD
:1051A00001D003200BE02020C4F884002020C4F8A4
:1051B00088000020E066002084F88000002032BDD6
:1051C0002DE9F04105000E0090461F00069C28685E
:1051D000C0693040B04201D1012000E000204146CA
:1051E000C9B2884246D114F1010FF0D0FCF76AFD34
:1051F000C01B844201D3002C16D12868006830F40B
:10520000D0702968086028688068400840002968D4
:1052100088602020C5F884002020C5F88800002080
:1052200085F88000032026E0286800684007CED576
:105230002868C0690005CAD54FF400602968086273
:105240002868006830F4D070296808602868806891
:1052500040084000296888602020C5F8840020208C
:10526000C5F888002020C5F88C00002085F8800053
:10527000032000E00020BDE8F0810000000C005891
:10528000F369FFCFFFF4FF110010014054440258AE
:105290000044004000480040004C004000500040E6
:1052A0000014014000780040007C004000180140DC
:1052B000001C014058440258004402580090D0039A
:1052C00000093D00646F000838B50400DFF88C0069
:1052D000006810F0070006280AD0DFF88000006898
:1052E00010F03F00A04201D0012035E0002033E063
:1052F000DFF868000068800980012043DFF85C1057
:105300000860FCF7DFFC0500DFF85400006880044B
:1053100008D4FCF7D7FC401B40F2E9318842F3D3B4
:10532000012019E01E2C05D02E2C03D01D2C01D0FD
:105330002D2C10D1FCF7C6FC0500DFF8200000681A
:10534000C00308D4FCF7BEFC401B40F2E9318842A0
:10535000F3D3012000E0002032BD00000C480258C9
:10536000044802582DE9F8430400002C01D1012023
:1053700060E32078C00740F1B980DFF8BC0605681B
:1053800015F03805DFF8B406D0F80090102D05D0E0
:10539000182D0FD119F0030002280BD1DFF8A00659
:1053A0000068800340F1A2806068002840F09E8081
:1053B00001203FE36068B0F5803F08D1DFF8800648
:1053C000006850F48030DFF8781608606DE060689F
:1053D000002818D1DFF86806006830F48030DFF864
:1053E00060160860DFF85806006830F48010DFF8B7
:1053F00050160860DFF84806006830F48020DFF8B7
:105400004016086051E06068B0F5A02F18D1DFF8B1
:105410003006006850F48020DFF824160860DFF8BA
:105420002006006830F48010DFF814160860DFF8FA
:105430001006006850F48030DFF80416086034E08D
:105440006068B0F5A81F18D1DFF8F405006850F4C3
:105450008020DFF8EC150860DFF8E405006850F400
:105460008010DFF8DC150860DFF8D405006850F420
:105470008030DFF8CC15086017E0DFF8C40500685D
:1054800030F48030DFF8B8150860DFF8B405006844
:1054900030F48020DFF8A8150860DFF8A405006864
:1054A00030F48010DFF898150860606800280ED08E
:1054B000FCF708FC0600DFF888050068800315D4B7
:1054C000FCF700FC801B6528F5D30320B2E2FCF753
:1054D000F9FB0600DFF868050068800306D5FCF7D5
:1054E000F1FB801B6528F5D30320A3E22078800719
:1054F00064D5DFF84405056815F03805DFF83C058C
:10550000D0F80090002D04D0182D18D119F0030FF9
:1055100015D1DFF82C050068400704D5E0680028A5
:1055200001D1012086E2DFF81C05006830F0FE4062
:10553000216950EA0160DFF80C1508603EE0E06880
:10554000002824D0DFF8F804016831F01901E06880
:105550000143DFF8EC040160FCF7B4FB0600DFF860
:10556000E0040068400706D4FCF7ACFB801B03286E
:10557000F5D303205EE2DFF8CC04006830F0FE4093
:10558000216950EA0160DFF8BC14086016E0DFF81A
:10559000B004006840084000DFF8A4140860FCF77D
:1055A00091FB0600DFF898040068400706D5FCF779
:1055B00089FB801B0328F5D303203BE22078C0063B
:1055C00063D5DFF87404056815F03805DFF86C045E
:1055D000D0F80090082D05D0182D19D119F003002E
:1055E000012815D1DFF858040068C00504D5E0692A
:1055F000802801D001201DE2DFF84C04006830F063
:105600007C50216A50EA0160DFF83C1408603CE0FD
:10561000E069002822D0DFF82804006850F08000FC
:10562000DFF81C140860FCF74DFB0600DFF81004DF
:105630000068C00506D4FCF745FB801B0328F5D3A2
:105640000320F7E1DFF80004006830F07C50216AA5
:1056500050EA0160DFF8F013086016E0DFF8E003BD
:10566000006830F08000DFF8D8130860FCF72AFBF0
:105670000600DFF8CC030068C00506D5FCF722FB66
:10568000801B0328F5D30320D4E12078000730D510
:105690006069002816D0DFF8B403006850F00100FC
:1056A000DFF8A8130860FCF70DFB0600DFF89C0389
:1056B000006880071DD4FCF705FB801B0328F5D389
:1056C0000320B7E1DFF88403006840084000DFF8FA
:1056D0007C130860FCF7F6FA0600DFF87003006838
:1056E000800706D5FCF7EEFA801B0328F5D30320CC
:1056F000A0E12078800630D5A069002816D0DFF818
:105700004003006850F48050DFF834130860FCF761
:10571000D9FA0600DFF82803006880041DD4FCF7DE
:10572000D1FA801B0328F5D3032083E1DFF81003AF
:10573000006830F48050DFF808130860FCF7C2FA04
:105740000600DFF8FC020068800406D5FCF7BAFA10
:10575000801B0328F5D303206CE12078400740F13B
:105760009580BB48006850F48070B9490860FCF728
:10577000A9FA0500B6480068C00506D4FCF7A2FAED
:10578000401B6528F6D3032054E1A068012806D108
:10579000B048006850F00100AE49086053E0A068CE
:1057A000002812D1AB48006840084000A9490860B1
:1057B000A848006830F08000A6490860A548006845
:1057C00030F00400A34908603DE0A068052812D12C
:1057D000A048006850F004009E4908609D48006899
:1057E00030F080009B4908609A48006850F0010042
:1057F0009849086027E0A068852812D1954800687C
:1058000050F00400934908609248006850F080000E
:10581000904908608F48006850F001008D49086089
:1058200011E08C480068400840008A4908608948B7
:10583000006830F00400874908608648006830F04E
:10584000800084490860A06800280FD0FCF73AFA6D
:10585000060080480068800718D4FCF733FA801BE4
:1058600041F289318842F4D30320E3E0FCF72AFABD
:10587000060078480068800708D5FCF723FA801BEB
:1058800041F289318842F4D30320D3E0606A0028D2
:1058900000F0CF806848006810F03800182800F049
:1058A0009A80606A022840F082806548006830F083
:1058B000807063490860FCF705FA050060480068DD
:1058C000800106D5FCF7FEF9401B0328F6D3032020
:1058D000B0E05A48016860480140A06A0143E06AAC
:1058E00051EA001155480160206B401EC005C00DF3
:1058F000616B491E490211F47E410843A16B491EA8
:10590000090411F4FE010843E16B491E090611F078
:10591000FE41084351490860514800684008400072
:105920004F4908604F4800686FF3CF00A16C50EA00
:10593000C1004C4908604A48016831F00C01206CF4
:105940000143474801604648016831F00201606C3C
:105950000143434801604248006850F480304049A8
:1059600008603F48006850F400303D4908603C48FA
:10597000006850F480203A4908603948006850F0C7
:105980000100374908602E48006850F080702C49AB
:105990000860FCF797F9060029480068800148D4A0
:1059A000FCF790F9801B0328F6D3032042E024483B
:1059B000006830F0807022490860FCF783F9060027
:1059C0001F480068800134D5FCF77CF9801B032850
:1059D000F6D303202EE01948006807001F4800682E
:1059E0008046606A012822D017F00300A16A88422D
:1059F0001DD1C7F30510E16A884218D15FEAC8508B
:105A0000C00D216B491E884211D1C8F34620616B3D
:105A1000491E88420BD1C8F30640A16B491E88423B
:105A200005D1C8F30660E16B491E884201D0012010
:105A300000E00020BDE8F2831044025828440258D8
:105A400000440258044402580C440258744402585A
:105A500000480258704402580CFCFFFF30440258C2
:105A60002C44025834440258826832F47C120A43AF
:105A700082607047826832F0E0720A438260704749
:105A8000806810F0E070704770B410F1600414EB9F
:105A90008104256815F0004512F0F8461E43354391
:105AA000256070BC704710B4036933F4F04311F003
:105AB0001F0412FA04F42343036110BC704710B4AE
:105AC00010F1600313EB81031C6824F000441443BD
:105AD0001C6010BC704770B410F130040B009B09BF
