:020000040800F2
:1000000018040020810F0008490F00084B0F00085A
:100010004D0F00084F0F0008510F000800000000AE
:10002000000000000000000000000000530F000866
:10003000550F000800000000570F0008590F000876
:10004000910F0008950F0008990F00089D0F0008F8
:10005000A10F0008A50F0008A90F0008AD0F0008A8
:10006000B10F0008B50F0008B90F0008BD0F000858
:10007000C10F0008C50F0008C90F0008CD0F000808
:10008000D10F0008D50F0008D90F0008DD0F0008B8
:10009000E10F0008E50F0008E90F0008ED0F000868
:1000A000F10F0008F50F0008F90F0008FD0F000818
:1000B0000110000805100008091000080D100008C4
:1000C0001110000815100008191000081D10000874
:1000D0002110000825100008291000082D10000824
:1000E0003110000835100008391000083D100008D4
:1000F0004110000845100008491000084D10000884
:100100005110000855100008591000085D10000833
:100110006110000865100008691000086D100008E3
:100120007110000875100008791000087D10000893
:100130008110000800000000000000008510000889
:10014000891000088D100008911000089510000813
:10015000991000089D100008A1100008A5100008C3
:10016000A9100008AD100008B1100008B510000873
:10017000B9100008BD100008C11000080000000000
:10018000C5100008C9100008CD100008D1100008E3
:10019000D5100008D9100008DD100008E110000893
:1001A000E5100008E9100008ED100008F110000843
:1001B000F5100008F9100008FD10000801110008F2
:1001C00005110008091100080000000000000000EF
:1001D00000000000000000000D11000800000000F9
:1001E000000000000000000000000000000000000F
:1001F00000000000000000001111000815110008A7
:10020000191100081D11000800000000211100084C
:1002100025110008291100082D11000831110008CE
:1002200035110008391100083D11000800000000D8
:1002300041110008451100080000000049110008A4
:100240004D110008511100085511000859110008FE
:100250005D110008611100086511000869110008AE
:100260006D1100087111000875110008791100085E
:100270007D110008811100088511000800000000B0
:10028000891100088D11000800000000911100087C
:1002900000000000951100089911000800000000FE
:1002A000000000009D110008A1110008F8B504002D
:1002B00029D02078DFF8A454C10711D52869A96A8C
:1002C00000F03800102805D0182804BF01F0030101
:1002D000022959D129688A0302D56068002812D002
:1002E00021788A0718D52869A96A10F0380005D046
:1002F000182808BF11F0030F40F09D8029684A07B5
:1003000003D5E068002800F025826968206921F0A3
:10031000FE4141EA006169602178C8061AD5286962
:10032000A96A00F03800082806D0182804BF01F098
:100330000301012940F0AA802868C10503D5E269BC
:10034000802A40F00782E868216A20F07C5040EA69
:100350000160E8602278110740F1CC8060690028D4
:1003600000F0B880696F41F00101696700F0FAF9A7
:100370000646686F810700F1BD8000F0F3F9801B2D
:100380000328F6D30320F2BD6068B0F5803F04D1A6
:10039000286840F48030286031E058B9296821F499
:1003A00080312960286820F4801028602A6822F4AF
:1003B000802223E0B0F5A02F07D1286840F48020E8
:1003C0002860296821F4801109E0B0F5A81F286889
:1003D0000AD140F480202860296841F48011296006
:1003E0002A6842F4803209E020F4803028602968CD
:1003F00021F4802129602A6822F480122A60606832
:1004000060B100F0AFF90646296888033FF568AF90
:1004100000F0A8F9801B6528F6D3B3E700F0A2F935
:100420000646286881037FF55BAF00F09BF9801BCF
:100430006528F6D3A6E7E068C0B1296821F0190164
:100440000843286000F08EF906462868410705D465
:1004500000F088F9801B0328F7D393E768682169C7
:1004600020F0FE4040EA0160686055E728684008D7
:100470004000286000F076F9064629684807F4D560
:1004800000F070F9801B0328F7D37BE7E06980B1A7
:10049000296841F08001296000F064F90646286867
:1004A000C1053FF550AF00F05DF9801B0328F6D37E
:1004B00068E7286820F08000286000F053F90646BD
:1004C0002968C8057FF546AF00F04CF9801B03286A
:1004D000F6D357E7686F40084000686700F042F9BC
:1004E0000646686F810705D500F03CF9801B03289C
:1004F000F7D347E721788A0621D5A06978B1296822
:1005000041F48051296000F02DF9064628688104E5
:1005100015D400F027F9801B0328F7D332E72868A9
:1005200020F48050286000F01DF9064629688804F0
:1005300005D500F017F9801B0328F7D322E72078B0
:10054000410763D5D5F8002442F48072C5F8002431
:1005500000F008F90646D5F80004C10505D400F0FE
:1005600001F9801B6528F6D30CE7A068012820D08C
:1005700058B9286F400840002867296F21F0800192
:100580002967286F20F0040016E0052807D1286F9E
:1005900040F004002867296F21F0800108E08528D9
:1005A0000CD1286F40F004002867296F41F08001CA
:1005B0002967286F40F0010028670BE0296F490880
:1005C00049002967286F20F004002867296F21F06F
:1005D00080012967A06841F2893658B100F0C2F85D
:1005E0000746286F810711D400F0BCF8C01BB04249
:1005F000F7D3C7E600F0B6F80746286F810705D5A0
:1006000000F0B0F8C01BB042F7D3BBE6606A002828
:1006100000F0A280296901F03801182974D002285D
:10062000286820F08070286062D100F09BF80646B0
:100630002968880105D500F095F8801B0328F7D3B9
:10064000A0E6A86AA26A4649E36A0840104340EA65
:100650000310A862616B206BA26B491E4902401E09
:10066000C0F30800521E01F47E4112040843E16BFE
:1006700002F4FE021043491E090601F0FE41084340
:100680002863E86A40084000E862696BA06C6FF379
:10069000CF0141EAC0016963E96A206C21F00C01D5
:1006A0000143E962E96A606C21F002010143E962F9
:1006B000E96A41F48031E962E86A40F40030E862B6
:1006C000E96A41F48021E962E86A40F00100E862E9
:1006D000296841F08071296000F044F804462868D8
:1006E000810139D400F03EF8001B0328F7D349E616
:1006F00000F038F80446296888012DD500F032F85A
:10070000001B0328F7D33DE60128A96A2A6B21D0F4
:10071000A36A01F00300984202BFC1F30510E16A29
:10072000884217D1236BC2F308005B1E984201BFB9
:10073000C2F34620616B491E88420BD1A16BC2F304
:100740000640491E884201BFC2F30660E16B491EA4
:10075000884201D00120F2BD0020F2BD00440258C1
:100760000CFCFFFF01484068704700BF00000020FC
:100770002DE9F0410400884656D0DFF80C6330685C
:1007800000F00F00404502D200F0EBF87AD120785B
:10079000DFF8F852410706D52069AA6902F0700215
:1007A000824200F0D7F82078010706D56069EA692F
:1007B00002F07002824200F0C6F82078C10606D529
:1007C000A069EA6902F4E062824200F0B5F820789C
:1007D000810606D5E0692A6A02F07002824200F0C2
:1007E000A4F82078810706D5E068AA6902F00F0214
:1007F000824200F093F82078C10731D5AA69A06839
:1008000022F470620243AA616068022802D129685A
:100810008A0308E0032802D129688A0103E001283D
:1008200003D12968CA0503D42CE02B68590729D5C0
:100830002A69D20840EAC2002861FFF793FF074601
:100840002869616800F03800B0EBC10F08D0FFF7ED
:1008500089FFC01B41F289329042F1D303205BE053
:100860002078810706D5E068AA6902F00F0290425D
:1008700000F054F8306800F00F00804504D200F01A
:1008800070F801D0012047E02078410706D52069A3
:10089000AA6902F07002904200F05CF8207801072B
:1008A00006D56069EA6902F07002904200F04BF8E8
:1008B0002078C10606D5A069EA6902F4E062904298
:1008C00000F03AF82078810606D5E0692A6A02F03D
:1008D0007002904200F029F800F04EF8AA69DFF8A3
:1008E000C011C2F303228B5CAC69DFF8A45104F0A1
:1008F0000F04095D03F01F03D840DFF8983101F0C1
:100900001F0120FA01F21A602860DFF890010068E8
:10091000BDE8F04100F0CAB8BDE8F08104D2A96991
:10092000090940EA0110A861704704D2296A21F040
:10093000700108432862704704D2E96921F4E0613C
:100940000843E861704704D2E96921F07001084367
:10095000E861704704D2A96921F070010843A861D9
:1009600070473168090948EA01113160326802F0C4
:100970000F0242457047000030B5444B46481969A4
:1009800011F0380104D010290AD018290AD069E0E2
:100990001A68940667D51968C1F3C101C84030BD13
:1009A000404830BD9C6A996ADD6A5A6B05F00105C2
:1009B000C1F30511C2F3CC025543002900EE105AD1
:1009C000B8EE400A4CD014F0030400EE901AF8EE92
:1009D000600A02D0022C20D022E019689FED261A6E
:1009E00020EE010A8A0608D51968C1F3C101C84082
:1009F00000F03CF8C1EE200A03E09FED202AC2EE91
:100A0000200A186BF7EE001A00F02EF831EE000AFB
:100A100070EE211A20EEA10A13E09FED192A01E0E1
:100A20009FED182A186BDFED141AC2EE200A00F0B1
:100A30001BF800EE211AB7EE000A31EE000A20EE94
:100A4000800A186BC0F34620401C00EE900AF8EEB6
:100A5000600A80EE200ABCEEC00A10EE100A30BD1B
:100A6000002030BD104830BDC0F3080001EE100A70
:100A7000B8EE411A70470000000000390024744CA1
:100A8000001BB74B0024744A002000520044025857
:100A90000C000020100000200090D003080000206F
:100AA0004C0C000800366E0100093D0038B50446C4
:100AB0000D4D2878A8B10D4A4FF47A711368B1FB37
:100AC000F0F0B3FBF0F000F04BF850B9102C08D266
:100AD000002221464FF0FF3000F024F8AC600020E7
:100AE00032BD012032BD00BF000000200C000020FC
:100AF0000901020002D4244881547047234B02F0BC
:100B00000F021A4402F8041C7047214B4FF6FF02F3
:100B10001968000200F4E060114008431D490843D1
:100B20001860704770B51A4B1C68C4F30223012487
:100B3000C3F10705052D2EBF0F2504FA05F56D1E1F
:100B40001E1D072E34BF0023DB1E2940994004FAE6
:100B500003F35B1E1A401143BDE87040C8E7000074
:100B6000401EB0F1807F10B501D3012010BD0A4CAA
:100B70000F2160604FF0FF30FFF7BAFF002207211E
:100B8000A2600020216010BD00E400E018ED00E04C
:100B90000CED00E00000FA0510E000E070B523491C
:100BA000234BD1F8800040F47000C1F880001A682F
:100BB00002F00F02032A05D218680009000140F074
:100BC000030018601B4A002514681B4844F0010408
:100BD000146015611668064016601C6804F00F0466
:100BE000032C05D91D682D092D0145F003051D6055
:100BF000002000249061114BD06111481462906272
:100C00001048D3620023106354639063D36310646D
:100C100043F2D2005364146824F4802414604FF02B
:100C200000641366084A10600C6070BD08ED00E0B7
:100C300000200052004402587FEDF6EA0000FF0158
:100C40000002020280020101004000520000000088
:100C500001020304010203040607080980B500F03D
:100C600045F800F001F8FEE780B59CB04C22002169
:100C700009A800F069F82022002101A800F064F81A
:100C8000042000F06BF8002000901748016821F460
:100C900040410160026802F44042009200990268FB
:100CA0009304FCD5022101220991402300210C92DA
:100CB0000D9309A81291FFF7F9FA08B172B6FEE791
:100CC0003F21002201910221029201A80392049285
:100CD0000592069207920892FFF74AFD08B172B694
:100CE000FEE71DB000BD00001848025838B50320CB
:100CF000114DFFF70AFFFFF73FFE1049104A0B683E
:100D0000C3F30323D45C096801F00F01525C04F0C3
:100D10001F04E0400B4C02F01F0220FA02F3236094
:100D200028600020FFF7C2FE08B1012032BD00F0AC
:100D300051F8002032BD00000C0000201844025879
:100D40004C0C00081000002010B5044610460A465E
:100D50000146204600F04EF8204610BDF8B5044686
:100D6000DFF86C50A86800F00700062805D0A968D5
:100D700001F03F01A14228D025E0A86840F2E93601
:100D8000800944EA8010A860FFF7ECFC0746286859
:100D9000810405D4FFF7E6FCC01BB042F7D312E094
:100DA0001E2C18BF2E2C03D01D2C18BF2D2C0CD19F
:100DB000FFF7D8FC0446A868C10306D4FFF7D2FCAD
:100DC000001BB042F7D30120F2BD0020F2BD0000AD
:100DD0000448025881B00648016841F002010160F0
:100DE000006800F002000090009901B0704700BF59
:100DF0005445025862F30F2262F31F42401810F06C
:100E0000030308D0C91A1FD3DB0748BF00F8012D20
:100E100028BF20F8022D130030B4144615461039AF
:100E200028BF20E93C00FAD8490728BF20E90C0078
:100E300048BF40F8042D890028BF20F8022D48BF84
:100E400000F8012D30BC7047C91818BF00F8012DFB
:100E5000CB0728BF00F8012D70470EE002684368F9
:100E6000024408305FEAC37C44BF4B445B1E52F827
:100E700004CB43F804CB091FF9D150F8041B002917
:100E8000ECD1704710B5074979441831064C7C44C1
:100E9000163404E00A68081D114488470146A1423F
:100EA000F8D110BD2C0000003C0000004EF6885127
:100EB000CEF20001086840F470000860BFF34F8F65
:100EC000BFF36F8F4FF00070E1EE100A7047000023
:100ED0008BFFFFFF140000009400000000000020C2
:100EE0000000000000F00DF8002801D0FFF7CAFF55
:100EF000AFF300800020AFF30080FFF7AFFE00F0FB
:100F000002F80120704700F001B80000074638469B
:100F100000F002F8FBE7000080B5AFF30080024A62
:100F200011001820ABBEFBE7260002000548014671
:100F300003B4684680F30988AFF30080FFF7B6FF7B
:100F4000FFF7D0FFA5EDF5FEFEE7FEE7FEE7FEE7C3
:100F5000FEE770477047704700F000B802484168EC
:100F600002788A18426070470000002001000000EB
:100F700000000000100000000090D0030090D0039B
:100F800001488047014800479D0B00082D0F0008CD
:100F9000FFF7FEBFFFF7FEBFFFF7FEBFFFF7FEBF85
:100FA000FFF7FEBFFFF7FEBFFFF7FEBFFFF7FEBF75
:100FB000FFF7FEBFFFF7FEBFFFF7FEBFFFF7FEBF65
:100FC000FFF7FEBFFFF7FEBFFFF7FEBFFFF7FEBF55
:0411A000FFF7FEBF98
:0400000508000F2DB3
:00000001FF
