:020000040800F2
:1000000018080020A10A00089D0B00089F0B00089B
:1000100000000000000000000000000000000000E0
:10002000000000000000000000000000A30B00081A
:100030000000000000000000A50B0008A70B00084E
:10004000670700083F0B00084B0B0008B10B0008C6
:10005000B30B0008B50B0008B70B0008B90B00087C
:10006000BB0B0008BD0B0008BF0B0008C10B00084C
:10007000C30B0008C50B0008C70B0008C90B00081C
:10008000CB0B0008CD0B000800000000CF0B0008D0
:10009000D10B0008D30B0008D50B0008D70B0008C4
:1000A000D90B0008DB0B0008DD0B0008DF0B000894
:1000B000E10B000800000000E30B00080000000056
:1000C00038B5002400F0A2F940213D4800F08EFA36
:1000D00000250A2D04D2FF2000F002F96D1CF8E77C
:1000E00000F0CFF832BDF2B5040017000025FF265E
:1000F0004021334800F07EFAFF220099112000F0E1
:1001000061F8002000F0A8F8002816D1FE2000F0C9
:10011000A3F8002811D100200500380080B28542E4
:1001200005D200F0F4F82070641C6D1CF5E700F0B7
:10013000EEF800F0ECF8002006004021204800F026
:1001400055FAFF2000F0CCF83000C0B2F2BDF2B595
:10015000040017000025FF264021194800F04AFA44
:10016000FF220099182000F02DF8002000F074F80C
:1001700000281BD1FF2000F0B3F8FE2000F0B0F8FB
:1001800000200500380080B2854205D2207800F0BA
:10019000A7F8641C6D1CF5E700F0B9F800F0B7F89B
:1001A00000F032F8052801D1002006004021044863
:1001B00000F01CFAFF2000F093F83000C0B2F2BD4E
:1001C00000040048FEB504000D0017000020694639
:1001D000402222430A70290E6A4651702900090CF8
:1001E0006A469170290A6A46D17029006A461171DF
:1001F00069464F710026062E05D26846805D00F0E4
:100200006FF8761CF7E7F7BD70B50026412E1CD2BB
:1002100000F07DF8C006C00E04002000C0B2052822
:1002200004D00B2805D00D2805D006E005200500D8
:1002300005E00B200FE00D200DE0FF200500280059
:10024000C0B2052801D0761CE0E700F060F8002875
:10025000FBD02000C0B270BD38B50400424D200074
:10026000C0B200F069F82100C9B2884203D0002D65
:1002700001D06D1EF3E7002D01D1FF2000E000202A
:1002800032BD80B54021394800F0B4F995220021F3
:100290000020FFF797FF0120FFF7DEFF002801D0C5
:1002A000FF201CE04021314800F0A0F9FF2000F0C1
:1002B00017F840212D4800F09DF9FF220021012070
:1002C000FFF780FF0020FFF7C7FF0028EAD1402199
:1002D000264800F08BF9FF2000F002F8002002BD54
:1002E00010B504000221224800F032FA0028F9D0AB
:1002F0002100C9B21E4800F011FA01211C4800F08B
:1003000027FA0028F9D01A4800F00DFA10BD80B580
:100310000221174800F01CFA0028F9D0FF211448E8
:1003200000F0FCF90121124800F012FA0028F9D07F
:100330000F4800F0F8F902BD10B5040002210C4886
:1003400000F006FA0028F9D02100C9B2084800F0F0
:10035000E5F90121064800F0FBF90028F9D004482E
:1003600000F0E1F910BD0000FF0F0000000400489C
:10037000003001401CB50400012121482200D2B206
:1003800004235A43805800F0EFF91E482100C9B2F7
:1003900002225143405A0090012069460871002012
:1003A0006946887100206946C87103206946487112
:1003B000694615482200D2B204235A43805800F0FF
:1003C000B7F810482100C9B202225143405A0E49E1
:1003D0002200D2B204235A438958886113BD10B455
:1003E00008490200D2B202235A43895A064A03003E
:1003F000DBB204246343D258118510BC704700005F
:100400007C0B0008A80B00080000002000B587B096
:100410000121C020C00200F0A7F901218020400185
:1004200000F0B4F9202000900220694608710120F4
:100430006946487100206946887101206946C87183
:1004400069469020C00500F073F84020009069468E
:100450009020C00500F06CF8802000906946902044
:10046000C00500F065F84020009001206946087141
:1004700000206946887101206946C87101206946DB
:1004800048716946294800F053F880200002009026
:1004900000206946087101206946C87169462348F1
:1004A00000F046F8002205219020C00500F0A4F8D5
:1004B000002206219020C00500F09EF800220721AE
:1004C0009020C00500F098F8174800F0CBF8002005
:1004D000694608818220400002A94880E020C000CF
:1004E00002A98880022002A9C880012002A90881EF
:1004F0008020800002A94881002002A98881002074
:1005000002A9C881072002A9088202A9064800F0B2
:10051000C7F880214901044800F0F8F80121024899
:1005200000F0E5F807B000BD0030014000040048CD
:10053000F0B50025002200230024102C55D20125FF
:10054000A5402A000D6815402B0093424BD10D7930
:10055000012D02D00D79022D1DD186680327BC46DE
:10056000250002277D436746AF40BE43866086680C
:100570004F79BC46250002277D436746AF4037438D
:10058000876085880126A640B543858085888E7959
:10059000A6402E43868006680327BC462500022716
:1005A0007D436746AF40BE43066006680F79BC4690
:1005B000250002277D436746AF4037430760C66882
:1005C0000327BC46250002277D436746AF40BE4354
:1005D000C660C668CF79BC46250002277D436746C2
:1005E000AF403743C760641CA7E7F0BD0A0092B272
:1005F0008261704701857047F6B4002200236C4683
:1006000024790D006D076D0F04267543AC400D0075
:10061000ADB2ED1004267543451900950D00ADB23D
:10062000ED100426754345192F6A0F25AC460D00C1
:100630006E07760F04256E436546B540AF43009DB7
:100640002F620D00ADB2ED100426754345192D6AD9
:1006500025430E00B6B2F61004277E438619356294
:10066000F3BC704710B50400324884420AD101211E
:100670008020400100F09CF800218020400100F023
:1006800097F80CE02C48844209D101218020C00158
:1006900000F09FF800218020C00100F09AF810BD02
:1006A000F0B400220388C124A4011C400B8823431A
:1006B000CC891C43CB8823430C891C434D8925439B
:1006C0008B892B43038084881C4D25408C882C43C8
:1006D00084800D8A05820588194E2E404D88354349
:1006E0000580868B174F37408783F0BC704700B575
:1006F0000A00D2B2002A04D00288402313430380A8
:1007000003E00288104B1340038000BD82880F4B2A
:100710001340838082880A4382807047002203004E
:100720000C33197070470100002208000C3000786B
:10073000704700000030014000380040FFF000002A
:10074000FBFF0000FFF70000BFFF0000FFEF00000D
:1007500000B5020000231089084201D0012000E00A
:100760000020C0B200BDFEE700B50A00D2B2002AE8
:1007700005D0204A126802431E4B1A6004E01D4A4D
:10078000126882431B4B1A6000BD000000B50A00CE
:10079000D2B2002A05D0184A12680243164B1A60DA
:1007A00004E0154A12688243134B1A6000BD000032
:1007B00000B50A00D2B2002A05D0104A12680243DE
:1007C0000E4B1A6004E00D4A126882430B4B1A600C
:1007D00000BD00B50A00D2B2002A05D0084A12684E
:1007E0000243074B1A6004E0054A12688243044B37
:1007F0001A6000BD14100240181002400C10024094
:100800001010024080B54A48006801210143484861
:100810000160484800684849014046480160444832
:100820000068464901404248016041480068444927
:1008300001403F4801603F480068424901403D484F
:100840000160414800680F2188433F4908603F48E4
:1008500000683F4901403D4801603E480068012171
:1008600088433C49086000203B49086000F001F8DB
:1008700001BDC0B500200190002000902C48006808
:100880008021490201432A480160294800688021EB
:100890008902084000900198401C019000980028AF
:1008A00004D10198A021C9018842EED120480068F6
:1008B000800302D50120009001E000200090009804
:1008C000012834D11120254908601A4800681949C7
:1008D00008601848006817490860164800682049F1
:1008E000014014480160134800688821490301430E
:1008F000104801600E4800688021490401430C48FB
:1009000001600B4800688001FBD50A48006803219C
:1009100088430849086007480068022101430548E8
:100920000160044800680C2101400829F9D103BD89
:1009300000100240041002400CB8FFF8FFFFF6FE62
:10094000FFFFFBFFFFFFC0FF2C10024030100240F2
:10095000ACFEFFFF341002400810024000200240AD
:10096000FF7FC0FF80B50020FFF704FD0120FFF7E7
:1009700001FDFFF7A5FB1A490880194800880028E7
:1009800029D1002280218900164800F031F8802208
:10099000920000211348FFF7DAFB114908808022FA
:1009A000920000211048FFF79EFB0D49088080222D
:1009B00092000D490B4800F02BF80C4908700B48C9
:1009C0000078012803D10120FFF709FD06E000208F
:1009D000FFF705FD02E00020FFF701FDFEE7000044
:1009E000100400201000002010020020120400203B
:1009F00030B500231C000D00A4B2ADB2AC4206D24B
:100A00001C00A4181D00ADB244555B1CF2E730BDBC
:100A100010B503001000421E80B2002808D01878DC
:100A20000C78A04201D0002003E05B1C491CF1E7D8
:100A3000012010BD70B40123002413E00168001DE3
:100A4000194202D04D466918491E0C60091D121F3B
:100A5000042AFAD20D00960701D50C80AD1C1A406D
:100A600000D02C700268001D002AE7D170BC7047CE
:100A700030B401220EE00368C31844680830144201
:100A800002D04D462C19641E1D6825601B1D241DB7
:100A9000091FF9D10168001D0029ECD130BC704755
:100AA0000548064900220260001D8842FBD3044825
:100AB000804704480047000000000020FF1F00207E
:100AC00005080008610B000810B507497944183182
:100AD000064C7C44163404E0081D0A6889188847CF
:100AE0000100A142F8D110BD08000000280000005C
:100AF00045FFFFFF0404000010000020000000007C
:100B000071FFFFFF100000008400000000000020C3
:100B10000000000000F00DF8002801D0FFF7D4FF1E
:100B200000BF00BF002000BF00BFFFF71BFF00F0A9
:100B300002F80120704780B500F002F801BDFEE721
:100B40000746384600F002F8FBE7FEE780B500BF35
:100B500000BF024A11001820ABBEFBE726000200CE
:100B60000548014603B4684680F3098800BF00BF0A
:100B700000BF00BFFFF7CEFFA5EDF5FE00000800A7
:100B800000000200000008000000100000080048FB
:100B90000000004800080048000C0048704700B5FD
:100BA000FEE7704770477047000420000010040003
:100BB000FEE7FEE7FEE7FEE7FEE7FEE7FEE7FEE70D
:100BC000FEE7FEE7FEE7FEE7FEE7FEE7FEE7FEE7FD
:100BD000FEE7FEE7FEE7FEE7FEE7FEE7FEE7FEE7ED
:040BE000FEE7FEE747
:0400000508000B6183
:00000001FF
